{
  "contracts/MultiSigWalletWithDailyLimit.sol": {
    "MultiSigWallet": {
      "abi": [
        {
          "constant": true,
          "inputs": [
            {
              "name": "",
              "type": "uint256"
            }
          ],
          "name": "owners",
          "outputs": [
            {
              "name": "",
              "type": "address"
            }
          ],
          "payable": false,
          "type": "function"
        },
        {
          "constant": false,
          "inputs": [
            {
              "name": "owner",
              "type": "address"
            }
          ],
          "name": "removeOwner",
          "outputs": [],
          "payable": false,
          "type": "function"
        },
        {
          "constant": false,
          "inputs": [
            {
              "name": "transactionId",
              "type": "uint256"
            }
          ],
          "name": "revokeConfirmation",
          "outputs": [],
          "payable": false,
          "type": "function"
        },
        {
          "constant": true,
          "inputs": [
            {
              "name": "",
              "type": "address"
            }
          ],
          "name": "isOwner",
          "outputs": [
            {
              "name": "",
              "type": "bool"
            }
          ],
          "payable": false,
          "type": "function"
        },
        {
          "constant": true,
          "inputs": [
            {
              "name": "",
              "type": "uint256"
            },
            {
              "name": "",
              "type": "address"
            }
          ],
          "name": "confirmations",
          "outputs": [
            {
              "name": "",
              "type": "bool"
            }
          ],
          "payable": false,
          "type": "function"
        },
        {
          "constant": true,
          "inputs": [
            {
              "name": "pending",
              "type": "bool"
            },
            {
              "name": "executed",
              "type": "bool"
            }
          ],
          "name": "getTransactionCount",
          "outputs": [
            {
              "name": "count",
              "type": "uint256"
            }
          ],
          "payable": false,
          "type": "function"
        },
        {
          "constant": false,
          "inputs": [
            {
              "name": "owner",
              "type": "address"
            }
          ],
          "name": "addOwner",
          "outputs": [],
          "payable": false,
          "type": "function"
        },
        {
          "constant": true,
          "inputs": [
            {
              "name": "transactionId",
              "type": "uint256"
            }
          ],
          "name": "isConfirmed",
          "outputs": [
            {
              "name": "",
              "type": "bool"
            }
          ],
          "payable": false,
          "type": "function"
        },
        {
          "constant": true,
          "inputs": [
            {
              "name": "transactionId",
              "type": "uint256"
            }
          ],
          "name": "getConfirmationCount",
          "outputs": [
            {
              "name": "count",
              "type": "uint256"
            }
          ],
          "payable": false,
          "type": "function"
        },
        {
          "constant": true,
          "inputs": [
            {
              "name": "",
              "type": "uint256"
            }
          ],
          "name": "transactions",
          "outputs": [
            {
              "name": "destination",
              "type": "address"
            },
            {
              "name": "value",
              "type": "uint256"
            },
            {
              "name": "data",
              "type": "bytes"
            },
            {
              "name": "executed",
              "type": "bool"
            }
          ],
          "payable": false,
          "type": "function"
        },
        {
          "constant": true,
          "inputs": [],
          "name": "getOwners",
          "outputs": [
            {
              "name": "",
              "type": "address[]"
            }
          ],
          "payable": false,
          "type": "function"
        },
        {
          "constant": true,
          "inputs": [
            {
              "name": "from",
              "type": "uint256"
            },
            {
              "name": "to",
              "type": "uint256"
            },
            {
              "name": "pending",
              "type": "bool"
            },
            {
              "name": "executed",
              "type": "bool"
            }
          ],
          "name": "getTransactionIds",
          "outputs": [
            {
              "name": "_transactionIds",
              "type": "uint256[]"
            }
          ],
          "payable": false,
          "type": "function"
        },
        {
          "constant": true,
          "inputs": [
            {
              "name": "transactionId",
              "type": "uint256"
            }
          ],
          "name": "getConfirmations",
          "outputs": [
            {
              "name": "_confirmations",
              "type": "address[]"
            }
          ],
          "payable": false,
          "type": "function"
        },
        {
          "constant": true,
          "inputs": [],
          "name": "transactionCount",
          "outputs": [
            {
              "name": "",
              "type": "uint256"
            }
          ],
          "payable": false,
          "type": "function"
        },
        {
          "constant": false,
          "inputs": [
            {
              "name": "_required",
              "type": "uint256"
            }
          ],
          "name": "changeRequirement",
          "outputs": [],
          "payable": false,
          "type": "function"
        },
        {
          "constant": false,
          "inputs": [
            {
              "name": "transactionId",
              "type": "uint256"
            }
          ],
          "name": "confirmTransaction",
          "outputs": [],
          "payable": false,
          "type": "function"
        },
        {
          "constant": false,
          "inputs": [
            {
              "name": "destination",
              "type": "address"
            },
            {
              "name": "value",
              "type": "uint256"
            },
            {
              "name": "data",
              "type": "bytes"
            }
          ],
          "name": "submitTransaction",
          "outputs": [
            {
              "name": "transactionId",
              "type": "uint256"
            }
          ],
          "payable": false,
          "type": "function"
        },
        {
          "constant": true,
          "inputs": [],
          "name": "MAX_OWNER_COUNT",
          "outputs": [
            {
              "name": "",
              "type": "uint256"
            }
          ],
          "payable": false,
          "type": "function"
        },
        {
          "constant": true,
          "inputs": [],
          "name": "required",
          "outputs": [
            {
              "name": "",
              "type": "uint256"
            }
          ],
          "payable": false,
          "type": "function"
        },
        {
          "constant": false,
          "inputs": [
            {
              "name": "owner",
              "type": "address"
            },
            {
              "name": "newOwner",
              "type": "address"
            }
          ],
          "name": "replaceOwner",
          "outputs": [],
          "payable": false,
          "type": "function"
        },
        {
          "constant": false,
          "inputs": [
            {
              "name": "transactionId",
              "type": "uint256"
            }
          ],
          "name": "executeTransaction",
          "outputs": [],
          "payable": false,
          "type": "function"
        },
        {
          "inputs": [
            {
              "name": "_owners",
              "type": "address[]"
            },
            {
              "name": "_required",
              "type": "uint256"
            }
          ],
          "payable": false,
          "type": "constructor"
        },
        {
          "payable": true,
          "type": "fallback"
        },
        {
          "anonymous": false,
          "inputs": [
            {
              "indexed": true,
              "name": "sender",
              "type": "address"
            },
            {
              "indexed": true,
              "name": "transactionId",
              "type": "uint256"
            }
          ],
          "name": "Confirmation",
          "type": "event"
        },
        {
          "anonymous": false,
          "inputs": [
            {
              "indexed": true,
              "name": "sender",
              "type": "address"
            },
            {
              "indexed": true,
              "name": "transactionId",
              "type": "uint256"
            }
          ],
          "name": "Revocation",
          "type": "event"
        },
        {
          "anonymous": false,
          "inputs": [
            {
              "indexed": true,
              "name": "transactionId",
              "type": "uint256"
            }
          ],
          "name": "Submission",
          "type": "event"
        },
        {
          "anonymous": false,
          "inputs": [
            {
              "indexed": true,
              "name": "transactionId",
              "type": "uint256"
            }
          ],
          "name": "Execution",
          "type": "event"
        },
        {
          "anonymous": false,
          "inputs": [
            {
              "indexed": true,
              "name": "transactionId",
              "type": "uint256"
            }
          ],
          "name": "ExecutionFailure",
          "type": "event"
        },
        {
          "anonymous": false,
          "inputs": [
            {
              "indexed": true,
              "name": "sender",
              "type": "address"
            },
            {
              "indexed": false,
              "name": "value",
              "type": "uint256"
            }
          ],
          "name": "Deposit",
          "type": "event"
        },
        {
          "anonymous": false,
          "inputs": [
            {
              "indexed": true,
              "name": "owner",
              "type": "address"
            }
          ],
          "name": "OwnerAddition",
          "type": "event"
        },
        {
          "anonymous": false,
          "inputs": [
            {
              "indexed": true,
              "name": "owner",
              "type": "address"
            }
          ],
          "name": "OwnerRemoval",
          "type": "event"
        },
        {
          "anonymous": false,
          "inputs": [
            {
              "indexed": false,
              "name": "required",
              "type": "uint256"
            }
          ],
          "name": "RequirementChange",
          "type": "event"
        }
      ],
      "devdoc": {
        "author": "Stefan George - <stefan.george@consensys.net>",
        "methods": {
          "addOwner(address)": {
            "details": "Allows to add a new owner. Transaction has to be sent by wallet.",
            "params": {
              "owner": "Address of new owner."
            }
          },
          "changeRequirement(uint256)": {
            "details": "Allows to change the number of required confirmations. Transaction has to be sent by wallet.",
            "params": {
              "_required": "Number of required confirmations."
            }
          },
          "confirmTransaction(uint256)": {
            "details": "Allows an owner to confirm a transaction.",
            "params": {
              "transactionId": "Transaction ID."
            }
          },
          "executeTransaction(uint256)": {
            "details": "Allows anyone to execute a confirmed transaction.",
            "params": {
              "transactionId": "Transaction ID."
            }
          },
          "getConfirmationCount(uint256)": {
            "details": "Returns number of confirmations of a transaction.",
            "params": {
              "transactionId": "Transaction ID."
            },
            "return": "Number of confirmations."
          },
          "getConfirmations(uint256)": {
            "details": "Returns array with owner addresses, which confirmed transaction.",
            "params": {
              "transactionId": "Transaction ID."
            },
            "return": "Returns array of owner addresses."
          },
          "getOwners()": {
            "details": "Returns list of owners.",
            "return": "List of owner addresses."
          },
          "getTransactionCount(bool,bool)": {
            "details": "Returns total number of transactions after filers are applied.",
            "params": {
              "executed": "Include executed transactions.",
              "pending": "Include pending transactions."
            },
            "return": "Total number of transactions after filters are applied."
          },
          "getTransactionIds(uint256,uint256,bool,bool)": {
            "details": "Returns list of transaction IDs in defined range.",
            "params": {
              "executed": "Include executed transactions.",
              "from": "Index start position of transaction array.",
              "pending": "Include pending transactions.",
              "to": "Index end position of transaction array."
            },
            "return": "Returns array of transaction IDs."
          },
          "isConfirmed(uint256)": {
            "details": "Returns the confirmation status of a transaction.",
            "params": {
              "transactionId": "Transaction ID."
            },
            "return": "Confirmation status."
          },
          "removeOwner(address)": {
            "details": "Allows to remove an owner. Transaction has to be sent by wallet.",
            "params": {
              "owner": "Address of owner."
            }
          },
          "replaceOwner(address,address)": {
            "details": "Allows to replace an owner with a new owner. Transaction has to be sent by wallet.",
            "params": {
              "newOwner": "Address of new owner.",
              "owner": "Address of owner to be replaced."
            }
          },
          "revokeConfirmation(uint256)": {
            "details": "Allows an owner to revoke a confirmation for a transaction.",
            "params": {
              "transactionId": "Transaction ID."
            }
          },
          "submitTransaction(address,uint256,bytes)": {
            "details": "Allows an owner to submit and confirm a transaction.",
            "params": {
              "data": "Transaction data payload.",
              "destination": "Transaction target address.",
              "value": "Transaction ether value."
            },
            "return": "Returns transaction ID."
          }
        },
        "title": "Multisignature wallet - Allows multiple parties to agree on transactions before execution."
      },
      "evm": {
        "assembly": "    /* \"contracts/MultiSigWalletWithDailyLimit.sol\":293:12921  contract MultiSigWallet {... */\n  mstore(0x40, 0x60)\n    /* \"contracts/MultiSigWalletWithDailyLimit.sol\":2922:3275  function MultiSigWallet(address[] _owners, uint _required)... */\n  jumpi(tag_1, iszero(callvalue))\n  0x0\n  dup1\n  revert\ntag_1:\n  mload(0x40)\n  sub(codesize, bytecodeSize)\n  dup1\n  bytecodeSize\n  dup4\n  codecopy\n  dup2\n  add\n  0x40\n  mstore\n  dup1\n  dup1\n  mload\n  dup3\n  add\n  swap2\n  swap1\n  0x20\n  add\n  dup1\n  mload\n  swap1\n  0x20\n  add\n  swap1\n  swap2\n  swap1\n  pop\n  pop\ntag_2:\n    /* \"contracts/MultiSigWalletWithDailyLimit.sol\":3067:3073  uint i */\n  0x0\n    /* \"contracts/MultiSigWalletWithDailyLimit.sol\":3021:3028  _owners */\n  dup3\n    /* \"contracts/MultiSigWalletWithDailyLimit.sol\":3021:3035  _owners.length */\n  mload\n    /* \"contracts/MultiSigWalletWithDailyLimit.sol\":3037:3046  _required */\n  dup3\n    /* \"contracts/MultiSigWalletWithDailyLimit.sol\":926:928  50 */\n  0x32\n    /* \"contracts/MultiSigWalletWithDailyLimit.sol\":2360:2370  ownerCount */\n  dup3\n    /* \"contracts/MultiSigWalletWithDailyLimit.sol\":2360:2389  ownerCount <= MAX_OWNER_COUNT */\n  gt\n  iszero\n    /* \"contracts/MultiSigWalletWithDailyLimit.sol\":2360:2428  ownerCount <= MAX_OWNER_COUNT... */\n  dup1\n  iszero\n  tag_4\n  jumpi\n  pop\n    /* \"contracts/MultiSigWalletWithDailyLimit.sol\":2418:2428  ownerCount */\n  dup2\n    /* \"contracts/MultiSigWalletWithDailyLimit.sol\":2405:2414  _required */\n  dup2\n    /* \"contracts/MultiSigWalletWithDailyLimit.sol\":2405:2428  _required <= ownerCount */\n  gt\n  iszero\n    /* \"contracts/MultiSigWalletWithDailyLimit.sol\":2360:2428  ownerCount <= MAX_OWNER_COUNT... */\ntag_4:\n    /* \"contracts/MultiSigWalletWithDailyLimit.sol\":2360:2458  ownerCount <= MAX_OWNER_COUNT... */\n  dup1\n  iszero\n  tag_5\n  jumpi\n  pop\n    /* \"contracts/MultiSigWalletWithDailyLimit.sol\":2457:2458  0 */\n  0x0\n    /* \"contracts/MultiSigWalletWithDailyLimit.sol\":2444:2453  _required */\n  dup2\n    /* \"contracts/MultiSigWalletWithDailyLimit.sol\":2444:2458  _required != 0 */\n  eq\n  iszero\n    /* \"contracts/MultiSigWalletWithDailyLimit.sol\":2360:2458  ownerCount <= MAX_OWNER_COUNT... */\ntag_5:\n    /* \"contracts/MultiSigWalletWithDailyLimit.sol\":2360:2489  ownerCount <= MAX_OWNER_COUNT... */\n  dup1\n  iszero\n  tag_6\n  jumpi\n  pop\n    /* \"contracts/MultiSigWalletWithDailyLimit.sol\":2488:2489  0 */\n  0x0\n    /* \"contracts/MultiSigWalletWithDailyLimit.sol\":2474:2484  ownerCount */\n  dup3\n    /* \"contracts/MultiSigWalletWithDailyLimit.sol\":2474:2489  ownerCount != 0 */\n  eq\n  iszero\n    /* \"contracts/MultiSigWalletWithDailyLimit.sol\":2360:2489  ownerCount <= MAX_OWNER_COUNT... */\ntag_6:\n    /* \"contracts/MultiSigWalletWithDailyLimit.sol\":2352:2490  require(ownerCount <= MAX_OWNER_COUNT... */\n  iszero\n  iszero\n  tag_7\n  jumpi\n  0x0\n  dup1\n  revert\ntag_7:\n    /* \"contracts/MultiSigWalletWithDailyLimit.sol\":3074:3075  0 */\n  0x0\n    /* \"contracts/MultiSigWalletWithDailyLimit.sol\":3067:3075  uint i=0 */\n  swap3\n  pop\n    /* \"contracts/MultiSigWalletWithDailyLimit.sol\":3062:3213  for (uint i=0; i<_owners.length; i++) {... */\ntag_9:\n    /* \"contracts/MultiSigWalletWithDailyLimit.sol\":3079:3086  _owners */\n  dup5\n    /* \"contracts/MultiSigWalletWithDailyLimit.sol\":3079:3093  _owners.length */\n  mload\n    /* \"contracts/MultiSigWalletWithDailyLimit.sol\":3077:3078  i */\n  dup4\n    /* \"contracts/MultiSigWalletWithDailyLimit.sol\":3077:3093  i<_owners.length */\n  lt\n    /* \"contracts/MultiSigWalletWithDailyLimit.sol\":3062:3213  for (uint i=0; i<_owners.length; i++) {... */\n  iszero\n  tag_10\n  jumpi\n    /* \"contracts/MultiSigWalletWithDailyLimit.sol\":3123:3130  isOwner */\n  0x2\n    /* \"contracts/MultiSigWalletWithDailyLimit.sol\":3123:3142  isOwner[_owners[i]] */\n  0x0\n    /* \"contracts/MultiSigWalletWithDailyLimit.sol\":3131:3138  _owners */\n  dup7\n    /* \"contracts/MultiSigWalletWithDailyLimit.sol\":3139:3140  i */\n  dup6\n    /* \"contracts/MultiSigWalletWithDailyLimit.sol\":3131:3141  _owners[i] */\n  dup2\n  mload\n  dup2\n  lt\n  iszero\n  iszero\n  tag_12\n  jumpi\n  invalid\ntag_12:\n  swap1\n  0x20\n  add\n  swap1\n  0x20\n  mul\n  add\n  mload\n    /* \"contracts/MultiSigWalletWithDailyLimit.sol\":3123:3142  isOwner[_owners[i]] */\n  0xffffffffffffffffffffffffffffffffffffffff\n  and\n  0xffffffffffffffffffffffffffffffffffffffff\n  and\n  dup2\n  mstore\n  0x20\n  add\n  swap1\n  dup2\n  mstore\n  0x20\n  add\n  0x0\n  keccak256\n  0x0\n  swap1\n  sload\n  swap1\n  0x100\n  exp\n  swap1\n  div\n  0xff\n  and\n    /* \"contracts/MultiSigWalletWithDailyLimit.sol\":3122:3142  !isOwner[_owners[i]] */\n  iszero\n    /* \"contracts/MultiSigWalletWithDailyLimit.sol\":3122:3161  !isOwner[_owners[i]] && _owners[i] != 0 */\n  dup1\n  iszero\n  tag_13\n  jumpi\n  pop\n    /* \"contracts/MultiSigWalletWithDailyLimit.sol\":3160:3161  0 */\n  0x0\n    /* \"contracts/MultiSigWalletWithDailyLimit.sol\":3146:3153  _owners */\n  dup6\n    /* \"contracts/MultiSigWalletWithDailyLimit.sol\":3154:3155  i */\n  dup5\n    /* \"contracts/MultiSigWalletWithDailyLimit.sol\":3146:3156  _owners[i] */\n  dup2\n  mload\n  dup2\n  lt\n  iszero\n  iszero\n  tag_14\n  jumpi\n  invalid\ntag_14:\n  swap1\n  0x20\n  add\n  swap1\n  0x20\n  mul\n  add\n  mload\n    /* \"contracts/MultiSigWalletWithDailyLimit.sol\":3146:3161  _owners[i] != 0 */\n  0xffffffffffffffffffffffffffffffffffffffff\n  and\n  eq\n  iszero\n    /* \"contracts/MultiSigWalletWithDailyLimit.sol\":3122:3161  !isOwner[_owners[i]] && _owners[i] != 0 */\ntag_13:\n    /* \"contracts/MultiSigWalletWithDailyLimit.sol\":3114:3162  require(!isOwner[_owners[i]] && _owners[i] != 0) */\n  iszero\n  iszero\n  tag_15\n  jumpi\n  0x0\n  dup1\n  revert\ntag_15:\n    /* \"contracts/MultiSigWalletWithDailyLimit.sol\":3198:3202  true */\n  0x1\n    /* \"contracts/MultiSigWalletWithDailyLimit.sol\":3176:3183  isOwner */\n  0x2\n    /* \"contracts/MultiSigWalletWithDailyLimit.sol\":3176:3195  isOwner[_owners[i]] */\n  0x0\n    /* \"contracts/MultiSigWalletWithDailyLimit.sol\":3184:3191  _owners */\n  dup8\n    /* \"contracts/MultiSigWalletWithDailyLimit.sol\":3192:3193  i */\n  dup7\n    /* \"contracts/MultiSigWalletWithDailyLimit.sol\":3184:3194  _owners[i] */\n  dup2\n  mload\n  dup2\n  lt\n  iszero\n  iszero\n  tag_16\n  jumpi\n  invalid\ntag_16:\n  swap1\n  0x20\n  add\n  swap1\n  0x20\n  mul\n  add\n  mload\n    /* \"contracts/MultiSigWalletWithDailyLimit.sol\":3176:3195  isOwner[_owners[i]] */\n  0xffffffffffffffffffffffffffffffffffffffff\n  and\n  0xffffffffffffffffffffffffffffffffffffffff\n  and\n  dup2\n  mstore\n  0x20\n  add\n  swap1\n  dup2\n  mstore\n  0x20\n  add\n  0x0\n  keccak256\n  0x0\n    /* \"contracts/MultiSigWalletWithDailyLimit.sol\":3176:3202  isOwner[_owners[i]] = true */\n  0x100\n  exp\n  dup2\n  sload\n  dup2\n  0xff\n  mul\n  not\n  and\n  swap1\n  dup4\n  iszero\n  iszero\n  mul\n  or\n  swap1\n  sstore\n  pop\n    /* \"contracts/MultiSigWalletWithDailyLimit.sol\":3062:3213  for (uint i=0; i<_owners.length; i++) {... */\ntag_11:\n    /* \"contracts/MultiSigWalletWithDailyLimit.sol\":3095:3098  i++ */\n  dup3\n  dup1\n  0x1\n  add\n  swap4\n  pop\n  pop\n    /* \"contracts/MultiSigWalletWithDailyLimit.sol\":3062:3213  for (uint i=0; i<_owners.length; i++) {... */\n  jump(tag_9)\ntag_10:\n    /* \"contracts/MultiSigWalletWithDailyLimit.sol\":3231:3238  _owners */\n  dup5\n    /* \"contracts/MultiSigWalletWithDailyLimit.sol\":3222:3228  owners */\n  0x3\n    /* \"contracts/MultiSigWalletWithDailyLimit.sol\":3222:3238  owners = _owners */\n  swap1\n  dup1\n  mload\n  swap1\n  0x20\n  add\n  swap1\n  tag_17\n  swap3\n  swap2\n  swap1\n  jump\t// in(tag_18)\ntag_17:\n  pop\n    /* \"contracts/MultiSigWalletWithDailyLimit.sol\":3259:3268  _required */\n  dup4\n    /* \"contracts/MultiSigWalletWithDailyLimit.sol\":3248:3256  required */\n  0x4\n    /* \"contracts/MultiSigWalletWithDailyLimit.sol\":3248:3268  required = _required */\n  dup2\n  swap1\n  sstore\n  pop\n    /* \"contracts/MultiSigWalletWithDailyLimit.sol\":2500:2501  _ */\ntag_8:\n    /* \"contracts/MultiSigWalletWithDailyLimit.sol\":2922:3275  function MultiSigWallet(address[] _owners, uint _required)... */\ntag_3:\n  pop\n  pop\n  pop\n  pop\n  pop\n    /* \"contracts/MultiSigWalletWithDailyLimit.sol\":293:12921  contract MultiSigWallet {... */\n  jump(tag_19)\ntag_18:\n  dup3\n  dup1\n  sload\n  dup3\n  dup3\n  sstore\n  swap1\n  0x0\n  mstore\n  keccak256(0x0, 0x20)\n  swap1\n  dup2\n  add\n  swap3\n  dup3\n  iszero\n  tag_20\n  jumpi\n  swap2\n  0x20\n  mul\n  dup3\n  add\ntag_21:\n  dup3\n  dup2\n  gt\n  iszero\n  tag_22\n  jumpi\n  dup3\n  mload\n  dup3\n  exp(0x100, 0x0)\n  dup2\n  sload\n  dup2\n  0xffffffffffffffffffffffffffffffffffffffff\n  mul\n  not\n  and\n  swap1\n  dup4\n  0xffffffffffffffffffffffffffffffffffffffff\n  and\n  mul\n  or\n  swap1\n  sstore\n  pop\n  swap2\n  0x20\n  add\n  swap2\n  swap1\n  0x1\n  add\n  swap1\n  jump(tag_21)\ntag_22:\ntag_20:\n  pop\n  swap1\n  pop\n  tag_23\n  swap2\n  swap1\n  jump\t// in(tag_24)\ntag_23:\n  pop\n  swap1\n  jump\t// out\ntag_24:\n  tag_25\n  swap2\n  swap1\ntag_26:\n  dup1\n  dup3\n  gt\n  iszero\n  tag_27\n  jumpi\n  0x0\n  dup2\n  dup2\n  0x100\n  exp\n  dup2\n  sload\n  swap1\n  0xffffffffffffffffffffffffffffffffffffffff\n  mul\n  not\n  and\n  swap1\n  sstore\n  pop\n  0x1\n  add\n  jump(tag_26)\ntag_27:\n  pop\n  swap1\n  jump\ntag_25:\n  swap1\n  jump\t// out\ntag_19:\n  dataSize(sub_0)\n  dup1\n  dataOffset(sub_0)\n  0x0\n  codecopy\n  0x0\n  return\nstop\n\nsub_0: assembly {\n        /* \"contracts/MultiSigWalletWithDailyLimit.sol\":293:12921  contract MultiSigWallet {... */\n      mstore(0x40, 0x60)\n      jumpi(tag_1, iszero(calldatasize))\n      calldataload(0x0)\n      0x100000000000000000000000000000000000000000000000000000000\n      swap1\n      div\n      0xffffffff\n      and\n      dup1\n      0x25e7c27\n      eq\n      tag_2\n      jumpi\n      dup1\n      0x173825d9\n      eq\n      tag_3\n      jumpi\n      dup1\n      0x20ea8d86\n      eq\n      tag_4\n      jumpi\n      dup1\n      0x2f54bf6e\n      eq\n      tag_5\n      jumpi\n      dup1\n      0x3411c81c\n      eq\n      tag_6\n      jumpi\n      dup1\n      0x54741525\n      eq\n      tag_7\n      jumpi\n      dup1\n      0x7065cb48\n      eq\n      tag_8\n      jumpi\n      dup1\n      0x784547a7\n      eq\n      tag_9\n      jumpi\n      dup1\n      0x8b51d13f\n      eq\n      tag_10\n      jumpi\n      dup1\n      0x9ace38c2\n      eq\n      tag_11\n      jumpi\n      dup1\n      0xa0e67e2b\n      eq\n      tag_12\n      jumpi\n      dup1\n      0xa8abe69a\n      eq\n      tag_13\n      jumpi\n      dup1\n      0xb5dc40c3\n      eq\n      tag_14\n      jumpi\n      dup1\n      0xb77bf600\n      eq\n      tag_15\n      jumpi\n      dup1\n      0xba51a6df\n      eq\n      tag_16\n      jumpi\n      dup1\n      0xc01a8c84\n      eq\n      tag_17\n      jumpi\n      dup1\n      0xc6427474\n      eq\n      tag_18\n      jumpi\n      dup1\n      0xd74f8edd\n      eq\n      tag_19\n      jumpi\n      dup1\n      0xdc8452cd\n      eq\n      tag_20\n      jumpi\n      dup1\n      0xe20056e6\n      eq\n      tag_21\n      jumpi\n      dup1\n      0xee22610b\n      eq\n      tag_22\n      jumpi\n    tag_1:\n        /* \"contracts/MultiSigWalletWithDailyLimit.sol\":2570:2679  function()... */\n    tag_23:\n        /* \"contracts/MultiSigWalletWithDailyLimit.sol\":2627:2628  0 */\n      0x0\n        /* \"contracts/MultiSigWalletWithDailyLimit.sol\":2615:2624  msg.value */\n      callvalue\n        /* \"contracts/MultiSigWalletWithDailyLimit.sol\":2615:2628  msg.value > 0 */\n      gt\n        /* \"contracts/MultiSigWalletWithDailyLimit.sol\":2611:2672  if (msg.value > 0)... */\n      iszero\n      tag_25\n      jumpi\n        /* \"contracts/MultiSigWalletWithDailyLimit.sol\":2650:2660  msg.sender */\n      caller\n        /* \"contracts/MultiSigWalletWithDailyLimit.sol\":2642:2672  Deposit(msg.sender, msg.value) */\n      0xffffffffffffffffffffffffffffffffffffffff\n      and\n      0xe1fffcc4923d04b559f4d29a8bfc6cda04eb5b0d3c460751c2402c5c5cc9109c\n        /* \"contracts/MultiSigWalletWithDailyLimit.sol\":2662:2671  msg.value */\n      callvalue\n        /* \"contracts/MultiSigWalletWithDailyLimit.sol\":2642:2672  Deposit(msg.sender, msg.value) */\n      mload(0x40)\n      dup1\n      dup3\n      dup2\n      mstore\n      0x20\n      add\n      swap2\n      pop\n      pop\n      mload(0x40)\n      dup1\n      swap2\n      sub\n      swap1\n      log2\n        /* \"contracts/MultiSigWalletWithDailyLimit.sol\":2611:2672  if (msg.value > 0)... */\n    tag_25:\n        /* \"contracts/MultiSigWalletWithDailyLimit.sol\":2570:2679  function()... */\n    tag_24:\n        /* \"contracts/MultiSigWalletWithDailyLimit.sol\":293:12921  contract MultiSigWallet {... */\n      stop\n        /* \"contracts/MultiSigWalletWithDailyLimit.sol\":1137:1160  address[] public owners */\n    tag_2:\n      jumpi(tag_26, iszero(callvalue))\n      0x0\n      dup1\n      revert\n    tag_26:\n      tag_27\n      0x4\n      dup1\n      dup1\n      calldataload\n      swap1\n      0x20\n      add\n      swap1\n      swap2\n      swap1\n      pop\n      pop\n      jump(tag_28)\n    tag_27:\n      mload(0x40)\n      dup1\n      dup3\n      0xffffffffffffffffffffffffffffffffffffffff\n      and\n      0xffffffffffffffffffffffffffffffffffffffff\n      and\n      dup2\n      mstore\n      0x20\n      add\n      swap2\n      pop\n      pop\n      mload(0x40)\n      dup1\n      swap2\n      sub\n      swap1\n      return\n        /* \"contracts/MultiSigWalletWithDailyLimit.sol\":3802:4262  function removeOwner(address owner)... */\n    tag_3:\n      jumpi(tag_29, iszero(callvalue))\n      0x0\n      dup1\n      revert\n    tag_29:\n      tag_30\n      0x4\n      dup1\n      dup1\n      calldataload\n      0xffffffffffffffffffffffffffffffffffffffff\n      and\n      swap1\n      0x20\n      add\n      swap1\n      swap2\n      swap1\n      pop\n      pop\n      jump(tag_31)\n    tag_30:\n      stop\n        /* \"contracts/MultiSigWalletWithDailyLimit.sol\":6368:6659  function revokeConfirmation(uint transactionId)... */\n    tag_4:\n      jumpi(tag_32, iszero(callvalue))\n      0x0\n      dup1\n      revert\n    tag_32:\n      tag_33\n      0x4\n      dup1\n      dup1\n      calldataload\n      swap1\n      0x20\n      add\n      swap1\n      swap2\n      swap1\n      pop\n      pop\n      jump(tag_34)\n    tag_33:\n      stop\n        /* \"contracts/MultiSigWalletWithDailyLimit.sol\":1091:1131  mapping (address => bool) public isOwner */\n    tag_5:\n      jumpi(tag_35, iszero(callvalue))\n      0x0\n      dup1\n      revert\n    tag_35:\n      tag_36\n      0x4\n      dup1\n      dup1\n      calldataload\n      0xffffffffffffffffffffffffffffffffffffffff\n      and\n      swap1\n      0x20\n      add\n      swap1\n      swap2\n      swap1\n      pop\n      pop\n      jump(tag_37)\n    tag_36:\n      mload(0x40)\n      dup1\n      dup3\n      iszero\n      iszero\n      iszero\n      iszero\n      dup2\n      mstore\n      0x20\n      add\n      swap2\n      pop\n      pop\n      mload(0x40)\n      dup1\n      swap2\n      sub\n      swap1\n      return\n        /* \"contracts/MultiSigWalletWithDailyLimit.sol\":1021:1085  mapping (uint => mapping (address => bool)) public confirmations */\n    tag_6:\n      jumpi(tag_38, iszero(callvalue))\n      0x0\n      dup1\n      revert\n    tag_38:\n      tag_39\n      0x4\n      dup1\n      dup1\n      calldataload\n      swap1\n      0x20\n      add\n      swap1\n      swap2\n      swap1\n      dup1\n      calldataload\n      0xffffffffffffffffffffffffffffffffffffffff\n      and\n      swap1\n      0x20\n      add\n      swap1\n      swap2\n      swap1\n      pop\n      pop\n      jump(tag_40)\n    tag_39:\n      mload(0x40)\n      dup1\n      dup3\n      iszero\n      iszero\n      iszero\n      iszero\n      dup2\n      mstore\n      0x20\n      add\n      swap2\n      pop\n      pop\n      mload(0x40)\n      dup1\n      swap2\n      sub\n      swap1\n      return\n        /* \"contracts/MultiSigWalletWithDailyLimit.sol\":10622:10941  function getTransactionCount(bool pending, bool executed)... */\n    tag_7:\n      jumpi(tag_41, iszero(callvalue))\n      0x0\n      dup1\n      revert\n    tag_41:\n      tag_42\n      0x4\n      dup1\n      dup1\n      calldataload\n      iszero\n      iszero\n      swap1\n      0x20\n      add\n      swap1\n      swap2\n      swap1\n      dup1\n      calldataload\n      iszero\n      iszero\n      swap1\n      0x20\n      add\n      swap1\n      swap2\n      swap1\n      pop\n      pop\n      jump(tag_43)\n    tag_42:\n      mload(0x40)\n      dup1\n      dup3\n      dup2\n      mstore\n      0x20\n      add\n      swap2\n      pop\n      pop\n      mload(0x40)\n      dup1\n      swap2\n      sub\n      swap1\n      return\n        /* \"contracts/MultiSigWalletWithDailyLimit.sol\":3402:3679  function addOwner(address owner)... */\n    tag_8:\n      jumpi(tag_44, iszero(callvalue))\n      0x0\n      dup1\n      revert\n    tag_44:\n      tag_45\n      0x4\n      dup1\n      dup1\n      calldataload\n      0xffffffffffffffffffffffffffffffffffffffff\n      and\n      swap1\n      0x20\n      add\n      swap1\n      swap2\n      swap1\n      pop\n      pop\n      jump(tag_46)\n    tag_45:\n      stop\n        /* \"contracts/MultiSigWalletWithDailyLimit.sol\":8790:9127  function isConfirmed(uint transactionId)... */\n    tag_9:\n      jumpi(tag_47, iszero(callvalue))\n      0x0\n      dup1\n      revert\n    tag_47:\n      tag_48\n      0x4\n      dup1\n      dup1\n      calldataload\n      swap1\n      0x20\n      add\n      swap1\n      swap2\n      swap1\n      pop\n      pop\n      jump(tag_49)\n    tag_48:\n      mload(0x40)\n      dup1\n      dup3\n      iszero\n      iszero\n      iszero\n      iszero\n      dup2\n      mstore\n      0x20\n      add\n      swap2\n      pop\n      pop\n      mload(0x40)\n      dup1\n      swap2\n      sub\n      swap1\n      return\n        /* \"contracts/MultiSigWalletWithDailyLimit.sol\":10108:10360  function getConfirmationCount(uint transactionId)... */\n    tag_10:\n      jumpi(tag_50, iszero(callvalue))\n      0x0\n      dup1\n      revert\n    tag_50:\n      tag_51\n      0x4\n      dup1\n      dup1\n      calldataload\n      swap1\n      0x20\n      add\n      swap1\n      swap2\n      swap1\n      pop\n      pop\n      jump(tag_52)\n    tag_51:\n      mload(0x40)\n      dup1\n      dup3\n      dup2\n      mstore\n      0x20\n      add\n      swap2\n      pop\n      pop\n      mload(0x40)\n      dup1\n      swap2\n      sub\n      swap1\n      return\n        /* \"contracts/MultiSigWalletWithDailyLimit.sol\":966:1015  mapping (uint => Transaction) public transactions */\n    tag_11:\n      jumpi(tag_53, iszero(callvalue))\n      0x0\n      dup1\n      revert\n    tag_53:\n      tag_54\n      0x4\n      dup1\n      dup1\n      calldataload\n      swap1\n      0x20\n      add\n      swap1\n      swap2\n      swap1\n      pop\n      pop\n      jump(tag_55)\n    tag_54:\n      mload(0x40)\n      dup1\n      dup6\n      0xffffffffffffffffffffffffffffffffffffffff\n      and\n      0xffffffffffffffffffffffffffffffffffffffff\n      and\n      dup2\n      mstore\n      0x20\n      add\n      dup5\n      dup2\n      mstore\n      0x20\n      add\n      dup1\n      0x20\n      add\n      dup4\n      iszero\n      iszero\n      iszero\n      iszero\n      dup2\n      mstore\n      0x20\n      add\n      dup3\n      dup2\n      sub\n      dup3\n      mstore\n      dup5\n      dup2\n      dup2\n      sload\n      0x1\n      dup2\n      0x1\n      and\n      iszero\n      0x100\n      mul\n      sub\n      and\n      0x2\n      swap1\n      div\n      dup2\n      mstore\n      0x20\n      add\n      swap2\n      pop\n      dup1\n      sload\n      0x1\n      dup2\n      0x1\n      and\n      iszero\n      0x100\n      mul\n      sub\n      and\n      0x2\n      swap1\n      div\n      dup1\n      iszero\n      tag_56\n      jumpi\n      dup1\n      0x1f\n      lt\n      tag_57\n      jumpi\n      0x100\n      dup1\n      dup4\n      sload\n      div\n      mul\n      dup4\n      mstore\n      swap2\n      0x20\n      add\n      swap2\n      jump(tag_56)\n    tag_57:\n      dup3\n      add\n      swap2\n      swap1\n      0x0\n      mstore\n      keccak256(0x0, 0x20)\n      swap1\n    tag_58:\n      dup2\n      sload\n      dup2\n      mstore\n      swap1\n      0x1\n      add\n      swap1\n      0x20\n      add\n      dup1\n      dup4\n      gt\n      tag_58\n      jumpi\n      dup3\n      swap1\n      sub\n      0x1f\n      and\n      dup3\n      add\n      swap2\n    tag_56:\n      pop\n      pop\n      swap6\n      pop\n      pop\n      pop\n      pop\n      pop\n      pop\n      mload(0x40)\n      dup1\n      swap2\n      sub\n      swap1\n      return\n        /* \"contracts/MultiSigWalletWithDailyLimit.sol\":11025:11140  function getOwners()... */\n    tag_12:\n      jumpi(tag_59, iszero(callvalue))\n      0x0\n      dup1\n      revert\n    tag_59:\n      tag_60\n      jump(tag_61)\n    tag_60:\n      mload(0x40)\n      dup1\n      dup1\n      0x20\n      add\n      dup3\n      dup2\n      sub\n      dup3\n      mstore\n      dup4\n      dup2\n      dup2\n      mload\n      dup2\n      mstore\n      0x20\n      add\n      swap2\n      pop\n      dup1\n      mload\n      swap1\n      0x20\n      add\n      swap1\n      0x20\n      mul\n      dup1\n      dup4\n      dup4\n        /* \"--CODEGEN--\":23:24   */\n      0x0\n        /* \"--CODEGEN--\":8:108   */\n    tag_62:\n        /* \"--CODEGEN--\":33:36   */\n      dup4\n        /* \"--CODEGEN--\":30:31   */\n      dup2\n        /* \"--CODEGEN--\":27:29   */\n      lt\n        /* \"--CODEGEN--\":8:108   */\n      iszero\n      tag_63\n      jumpi\n        /* \"--CODEGEN--\":99:100   */\n      dup1\n        /* \"--CODEGEN--\":94:97   */\n      dup3\n        /* \"--CODEGEN--\":90:93   */\n      add\n        /* \"--CODEGEN--\":84:89   */\n      mload\n        /* \"--CODEGEN--\":80:81   */\n      dup2\n        /* \"--CODEGEN--\":75:78   */\n      dup5\n        /* \"--CODEGEN--\":71:74   */\n      add\n        /* \"--CODEGEN--\":64:70   */\n      mstore\n        /* \"--CODEGEN--\":8:108   */\n    tag_64:\n        /* \"--CODEGEN--\":52:54   */\n      0x20\n        /* \"--CODEGEN--\":49:50   */\n      dup2\n        /* \"--CODEGEN--\":45:48   */\n      add\n        /* \"--CODEGEN--\":40:55   */\n      swap1\n      pop\n        /* \"--CODEGEN--\":8:108   */\n      jump(tag_62)\n    tag_63:\n        /* \"--CODEGEN--\":12:26   */\n      pop\n        /* \"--CODEGEN--\":3:112   */\n      pop\n      pop\n      pop\n      swap1\n      pop\n      add\n      swap3\n      pop\n      pop\n      pop\n      mload(0x40)\n      dup1\n      swap2\n      sub\n      swap1\n      return\n        /* \"contracts/MultiSigWalletWithDailyLimit.sol\":12243:12919  function getTransactionIds(uint from, uint to, bool pending, bool executed)... */\n    tag_13:\n      jumpi(tag_65, iszero(callvalue))\n      0x0\n      dup1\n      revert\n    tag_65:\n      tag_66\n      0x4\n      dup1\n      dup1\n      calldataload\n      swap1\n      0x20\n      add\n      swap1\n      swap2\n      swap1\n      dup1\n      calldataload\n      swap1\n      0x20\n      add\n      swap1\n      swap2\n      swap1\n      dup1\n      calldataload\n      iszero\n      iszero\n      swap1\n      0x20\n      add\n      swap1\n      swap2\n      swap1\n      dup1\n      calldataload\n      iszero\n      iszero\n      swap1\n      0x20\n      add\n      swap1\n      swap2\n      swap1\n      pop\n      pop\n      jump(tag_67)\n    tag_66:\n      mload(0x40)\n      dup1\n      dup1\n      0x20\n      add\n      dup3\n      dup2\n      sub\n      dup3\n      mstore\n      dup4\n      dup2\n      dup2\n      mload\n      dup2\n      mstore\n      0x20\n      add\n      swap2\n      pop\n      dup1\n      mload\n      swap1\n      0x20\n      add\n      swap1\n      0x20\n      mul\n      dup1\n      dup4\n      dup4\n        /* \"--CODEGEN--\":23:24   */\n      0x0\n        /* \"--CODEGEN--\":8:108   */\n    tag_68:\n        /* \"--CODEGEN--\":33:36   */\n      dup4\n        /* \"--CODEGEN--\":30:31   */\n      dup2\n        /* \"--CODEGEN--\":27:29   */\n      lt\n        /* \"--CODEGEN--\":8:108   */\n      iszero\n      tag_69\n      jumpi\n        /* \"--CODEGEN--\":99:100   */\n      dup1\n        /* \"--CODEGEN--\":94:97   */\n      dup3\n        /* \"--CODEGEN--\":90:93   */\n      add\n        /* \"--CODEGEN--\":84:89   */\n      mload\n        /* \"--CODEGEN--\":80:81   */\n      dup2\n        /* \"--CODEGEN--\":75:78   */\n      dup5\n        /* \"--CODEGEN--\":71:74   */\n      add\n        /* \"--CODEGEN--\":64:70   */\n      mstore\n        /* \"--CODEGEN--\":8:108   */\n    tag_70:\n        /* \"--CODEGEN--\":52:54   */\n      0x20\n        /* \"--CODEGEN--\":49:50   */\n      dup2\n        /* \"--CODEGEN--\":45:48   */\n      add\n        /* \"--CODEGEN--\":40:55   */\n      swap1\n      pop\n        /* \"--CODEGEN--\":8:108   */\n      jump(tag_68)\n    tag_69:\n        /* \"--CODEGEN--\":12:26   */\n      pop\n        /* \"--CODEGEN--\":3:112   */\n      pop\n      pop\n      pop\n      swap1\n      pop\n      add\n      swap3\n      pop\n      pop\n      pop\n      mload(0x40)\n      dup1\n      swap2\n      sub\n      swap1\n      return\n        /* \"contracts/MultiSigWalletWithDailyLimit.sol\":11319:11894  function getConfirmations(uint transactionId)... */\n    tag_14:\n      jumpi(tag_71, iszero(callvalue))\n      0x0\n      dup1\n      revert\n    tag_71:\n      tag_72\n      0x4\n      dup1\n      dup1\n      calldataload\n      swap1\n      0x20\n      add\n      swap1\n      swap2\n      swap1\n      pop\n      pop\n      jump(tag_73)\n    tag_72:\n      mload(0x40)\n      dup1\n      dup1\n      0x20\n      add\n      dup3\n      dup2\n      sub\n      dup3\n      mstore\n      dup4\n      dup2\n      dup2\n      mload\n      dup2\n      mstore\n      0x20\n      add\n      swap2\n      pop\n      dup1\n      mload\n      swap1\n      0x20\n      add\n      swap1\n      0x20\n      mul\n      dup1\n      dup4\n      dup4\n        /* \"--CODEGEN--\":23:24   */\n      0x0\n        /* \"--CODEGEN--\":8:108   */\n    tag_74:\n        /* \"--CODEGEN--\":33:36   */\n      dup4\n        /* \"--CODEGEN--\":30:31   */\n      dup2\n        /* \"--CODEGEN--\":27:29   */\n      lt\n        /* \"--CODEGEN--\":8:108   */\n      iszero\n      tag_75\n      jumpi\n        /* \"--CODEGEN--\":99:100   */\n      dup1\n        /* \"--CODEGEN--\":94:97   */\n      dup3\n        /* \"--CODEGEN--\":90:93   */\n      add\n        /* \"--CODEGEN--\":84:89   */\n      mload\n        /* \"--CODEGEN--\":80:81   */\n      dup2\n        /* \"--CODEGEN--\":75:78   */\n      dup5\n        /* \"--CODEGEN--\":71:74   */\n      add\n        /* \"--CODEGEN--\":64:70   */\n      mstore\n        /* \"--CODEGEN--\":8:108   */\n    tag_76:\n        /* \"--CODEGEN--\":52:54   */\n      0x20\n        /* \"--CODEGEN--\":49:50   */\n      dup2\n        /* \"--CODEGEN--\":45:48   */\n      add\n        /* \"--CODEGEN--\":40:55   */\n      swap1\n      pop\n        /* \"--CODEGEN--\":8:108   */\n      jump(tag_74)\n    tag_75:\n        /* \"--CODEGEN--\":12:26   */\n      pop\n        /* \"--CODEGEN--\":3:112   */\n      pop\n      pop\n      pop\n      swap1\n      pop\n      add\n      swap3\n      pop\n      pop\n      pop\n      mload(0x40)\n      dup1\n      swap2\n      sub\n      swap1\n      return\n        /* \"contracts/MultiSigWalletWithDailyLimit.sol\":1192:1220  uint public transactionCount */\n    tag_15:\n      jumpi(tag_77, iszero(callvalue))\n      0x0\n      dup1\n      revert\n    tag_77:\n      tag_78\n      jump(tag_79)\n    tag_78:\n      mload(0x40)\n      dup1\n      dup3\n      dup2\n      mstore\n      0x20\n      add\n      swap2\n      pop\n      pop\n      mload(0x40)\n      dup1\n      swap2\n      sub\n      swap1\n      return\n        /* \"contracts/MultiSigWalletWithDailyLimit.sol\":5084:5291  function changeRequirement(uint _required)... */\n    tag_16:\n      jumpi(tag_80, iszero(callvalue))\n      0x0\n      dup1\n      revert\n    tag_80:\n      tag_81\n      0x4\n      dup1\n      dup1\n      calldataload\n      swap1\n      0x20\n      add\n      swap1\n      swap2\n      swap1\n      pop\n      pop\n      jump(tag_82)\n    tag_81:\n      stop\n        /* \"contracts/MultiSigWalletWithDailyLimit.sol\":5900:6244  function confirmTransaction(uint transactionId)... */\n    tag_17:\n      jumpi(tag_83, iszero(callvalue))\n      0x0\n      dup1\n      revert\n    tag_83:\n      tag_84\n      0x4\n      dup1\n      dup1\n      calldataload\n      swap1\n      0x20\n      add\n      swap1\n      swap2\n      swap1\n      pop\n      pop\n      jump(tag_85)\n    tag_84:\n      stop\n        /* \"contracts/MultiSigWalletWithDailyLimit.sol\":5550:5794  function submitTransaction(address destination, uint value, bytes data)... */\n    tag_18:\n      jumpi(tag_86, iszero(callvalue))\n      0x0\n      dup1\n      revert\n    tag_86:\n      tag_87\n      0x4\n      dup1\n      dup1\n      calldataload\n      0xffffffffffffffffffffffffffffffffffffffff\n      and\n      swap1\n      0x20\n      add\n      swap1\n      swap2\n      swap1\n      dup1\n      calldataload\n      swap1\n      0x20\n      add\n      swap1\n      swap2\n      swap1\n      dup1\n      calldataload\n      swap1\n      0x20\n      add\n      swap1\n      dup3\n      add\n      dup1\n      calldataload\n      swap1\n      0x20\n      add\n      swap1\n      dup1\n      dup1\n      0x1f\n      add\n      0x20\n      dup1\n      swap2\n      div\n      mul\n      0x20\n      add\n      mload(0x40)\n      swap1\n      dup2\n      add\n      0x40\n      mstore\n      dup1\n      swap4\n      swap3\n      swap2\n      swap1\n      dup2\n      dup2\n      mstore\n      0x20\n      add\n      dup4\n      dup4\n      dup1\n      dup3\n      dup5\n      calldatacopy\n      dup3\n      add\n      swap2\n      pop\n      pop\n      pop\n      pop\n      pop\n      pop\n      swap2\n      swap1\n      pop\n      pop\n      jump(tag_88)\n    tag_87:\n      mload(0x40)\n      dup1\n      dup3\n      dup2\n      mstore\n      0x20\n      add\n      swap2\n      pop\n      pop\n      mload(0x40)\n      dup1\n      swap2\n      sub\n      swap1\n      return\n        /* \"contracts/MultiSigWalletWithDailyLimit.sol\":887:928  uint constant public MAX_OWNER_COUNT = 50 */\n    tag_19:\n      jumpi(tag_89, iszero(callvalue))\n      0x0\n      dup1\n      revert\n    tag_89:\n      tag_90\n      jump(tag_91)\n    tag_90:\n      mload(0x40)\n      dup1\n      dup3\n      dup2\n      mstore\n      0x20\n      add\n      swap2\n      pop\n      pop\n      mload(0x40)\n      dup1\n      swap2\n      sub\n      swap1\n      return\n        /* \"contracts/MultiSigWalletWithDailyLimit.sol\":1166:1186  uint public required */\n    tag_20:\n      jumpi(tag_92, iszero(callvalue))\n      0x0\n      dup1\n      revert\n    tag_92:\n      tag_93\n      jump(tag_94)\n    tag_93:\n      mload(0x40)\n      dup1\n      dup3\n      dup2\n      mstore\n      0x20\n      add\n      swap2\n      pop\n      pop\n      mload(0x40)\n      dup1\n      swap2\n      sub\n      swap1\n      return\n        /* \"contracts/MultiSigWalletWithDailyLimit.sol\":4464:4913  function replaceOwner(address owner, address newOwner)... */\n    tag_21:\n      jumpi(tag_95, iszero(callvalue))\n      0x0\n      dup1\n      revert\n    tag_95:\n      tag_96\n      0x4\n      dup1\n      dup1\n      calldataload\n      0xffffffffffffffffffffffffffffffffffffffff\n      and\n      swap1\n      0x20\n      add\n      swap1\n      swap2\n      swap1\n      dup1\n      calldataload\n      0xffffffffffffffffffffffffffffffffffffffff\n      and\n      swap1\n      0x20\n      add\n      swap1\n      swap2\n      swap1\n      pop\n      pop\n      jump(tag_97)\n    tag_96:\n      stop\n        /* \"contracts/MultiSigWalletWithDailyLimit.sol\":6773:7359  function executeTransaction(uint transactionId)... */\n    tag_22:\n      jumpi(tag_98, iszero(callvalue))\n      0x0\n      dup1\n      revert\n    tag_98:\n      tag_99\n      0x4\n      dup1\n      dup1\n      calldataload\n      swap1\n      0x20\n      add\n      swap1\n      swap2\n      swap1\n      pop\n      pop\n      jump(tag_100)\n    tag_99:\n      stop\n        /* \"contracts/MultiSigWalletWithDailyLimit.sol\":1137:1160  address[] public owners */\n    tag_28:\n      0x3\n      dup2\n      dup2\n      sload\n      dup2\n      lt\n      iszero\n      iszero\n      tag_101\n      jumpi\n      invalid\n    tag_101:\n      swap1\n      0x0\n      mstore\n      keccak256(0x0, 0x20)\n      swap1\n      add\n      0x0\n    tag_102:\n      swap2\n      pop\n      sload\n      swap1\n      0x100\n      exp\n      swap1\n      div\n      0xffffffffffffffffffffffffffffffffffffffff\n      and\n      dup2\n      jump\t// out\n        /* \"contracts/MultiSigWalletWithDailyLimit.sol\":3802:4262  function removeOwner(address owner)... */\n    tag_31:\n        /* \"contracts/MultiSigWalletWithDailyLimit.sol\":3950:3956  uint i */\n      0x0\n        /* \"contracts/MultiSigWalletWithDailyLimit.sol\":1446:1450  this */\n      address\n        /* \"contracts/MultiSigWalletWithDailyLimit.sol\":1424:1451  msg.sender == address(this) */\n      0xffffffffffffffffffffffffffffffffffffffff\n      and\n        /* \"contracts/MultiSigWalletWithDailyLimit.sol\":1424:1434  msg.sender */\n      caller\n        /* \"contracts/MultiSigWalletWithDailyLimit.sol\":1424:1451  msg.sender == address(this) */\n      0xffffffffffffffffffffffffffffffffffffffff\n      and\n      eq\n        /* \"contracts/MultiSigWalletWithDailyLimit.sol\":1416:1452  require(msg.sender == address(this)) */\n      iszero\n      iszero\n      tag_104\n      jumpi\n      0x0\n      dup1\n      revert\n    tag_104:\n        /* \"contracts/MultiSigWalletWithDailyLimit.sol\":3892:3897  owner */\n      dup2\n        /* \"contracts/MultiSigWalletWithDailyLimit.sol\":1630:1637  isOwner */\n      0x2\n        /* \"contracts/MultiSigWalletWithDailyLimit.sol\":1630:1644  isOwner[owner] */\n      0x0\n        /* \"contracts/MultiSigWalletWithDailyLimit.sol\":1638:1643  owner */\n      dup3\n        /* \"contracts/MultiSigWalletWithDailyLimit.sol\":1630:1644  isOwner[owner] */\n      0xffffffffffffffffffffffffffffffffffffffff\n      and\n      0xffffffffffffffffffffffffffffffffffffffff\n      and\n      dup2\n      mstore\n      0x20\n      add\n      swap1\n      dup2\n      mstore\n      0x20\n      add\n      0x0\n      keccak256\n      0x0\n      swap1\n      sload\n      swap1\n      0x100\n      exp\n      swap1\n      div\n      0xff\n      and\n        /* \"contracts/MultiSigWalletWithDailyLimit.sol\":1622:1645  require(isOwner[owner]) */\n      iszero\n      iszero\n      tag_106\n      jumpi\n      0x0\n      dup1\n      revert\n    tag_106:\n        /* \"contracts/MultiSigWalletWithDailyLimit.sol\":3930:3935  false */\n      0x0\n        /* \"contracts/MultiSigWalletWithDailyLimit.sol\":3913:3920  isOwner */\n      0x2\n        /* \"contracts/MultiSigWalletWithDailyLimit.sol\":3913:3927  isOwner[owner] */\n      0x0\n        /* \"contracts/MultiSigWalletWithDailyLimit.sol\":3921:3926  owner */\n      dup6\n        /* \"contracts/MultiSigWalletWithDailyLimit.sol\":3913:3927  isOwner[owner] */\n      0xffffffffffffffffffffffffffffffffffffffff\n      and\n      0xffffffffffffffffffffffffffffffffffffffff\n      and\n      dup2\n      mstore\n      0x20\n      add\n      swap1\n      dup2\n      mstore\n      0x20\n      add\n      0x0\n      keccak256\n      0x0\n        /* \"contracts/MultiSigWalletWithDailyLimit.sol\":3913:3935  isOwner[owner] = false */\n      0x100\n      exp\n      dup2\n      sload\n      dup2\n      0xff\n      mul\n      not\n      and\n      swap1\n      dup4\n      iszero\n      iszero\n      mul\n      or\n      swap1\n      sstore\n      pop\n        /* \"contracts/MultiSigWalletWithDailyLimit.sol\":3957:3958  0 */\n      0x0\n        /* \"contracts/MultiSigWalletWithDailyLimit.sol\":3950:3958  uint i=0 */\n      swap2\n      pop\n        /* \"contracts/MultiSigWalletWithDailyLimit.sol\":3945:4115  for (uint i=0; i<owners.length - 1; i++)... */\n    tag_108:\n        /* \"contracts/MultiSigWalletWithDailyLimit.sol\":3978:3979  1 */\n      0x1\n        /* \"contracts/MultiSigWalletWithDailyLimit.sol\":3962:3968  owners */\n      0x3\n        /* \"contracts/MultiSigWalletWithDailyLimit.sol\":3962:3975  owners.length */\n      dup1\n      sload\n      swap1\n      pop\n        /* \"contracts/MultiSigWalletWithDailyLimit.sol\":3962:3979  owners.length - 1 */\n      sub\n        /* \"contracts/MultiSigWalletWithDailyLimit.sol\":3960:3961  i */\n      dup3\n        /* \"contracts/MultiSigWalletWithDailyLimit.sol\":3960:3979  i<owners.length - 1 */\n      lt\n        /* \"contracts/MultiSigWalletWithDailyLimit.sol\":3945:4115  for (uint i=0; i<owners.length - 1; i++)... */\n      iszero\n      tag_109\n      jumpi\n        /* \"contracts/MultiSigWalletWithDailyLimit.sol\":4015:4020  owner */\n      dup3\n        /* \"contracts/MultiSigWalletWithDailyLimit.sol\":4002:4020  owners[i] == owner */\n      0xffffffffffffffffffffffffffffffffffffffff\n      and\n        /* \"contracts/MultiSigWalletWithDailyLimit.sol\":4002:4008  owners */\n      0x3\n        /* \"contracts/MultiSigWalletWithDailyLimit.sol\":4009:4010  i */\n      dup4\n        /* \"contracts/MultiSigWalletWithDailyLimit.sol\":4002:4011  owners[i] */\n      dup2\n      sload\n      dup2\n      lt\n      iszero\n      iszero\n      tag_111\n      jumpi\n      invalid\n    tag_111:\n      swap1\n      0x0\n      mstore\n      keccak256(0x0, 0x20)\n      swap1\n      add\n      0x0\n    tag_112:\n      swap1\n      sload\n      swap1\n      0x100\n      exp\n      swap1\n      div\n      0xffffffffffffffffffffffffffffffffffffffff\n      and\n        /* \"contracts/MultiSigWalletWithDailyLimit.sol\":4002:4020  owners[i] == owner */\n      0xffffffffffffffffffffffffffffffffffffffff\n      and\n      eq\n        /* \"contracts/MultiSigWalletWithDailyLimit.sol\":3998:4115  if (owners[i] == owner) {... */\n      iszero\n      tag_113\n      jumpi\n        /* \"contracts/MultiSigWalletWithDailyLimit.sol\":4052:4058  owners */\n      0x3\n        /* \"contracts/MultiSigWalletWithDailyLimit.sol\":4075:4076  1 */\n      0x1\n        /* \"contracts/MultiSigWalletWithDailyLimit.sol\":4059:4065  owners */\n      0x3\n        /* \"contracts/MultiSigWalletWithDailyLimit.sol\":4059:4072  owners.length */\n      dup1\n      sload\n      swap1\n      pop\n        /* \"contracts/MultiSigWalletWithDailyLimit.sol\":4059:4076  owners.length - 1 */\n      sub\n        /* \"contracts/MultiSigWalletWithDailyLimit.sol\":4052:4077  owners[owners.length - 1] */\n      dup2\n      sload\n      dup2\n      lt\n      iszero\n      iszero\n      tag_114\n      jumpi\n      invalid\n    tag_114:\n      swap1\n      0x0\n      mstore\n      keccak256(0x0, 0x20)\n      swap1\n      add\n      0x0\n    tag_115:\n      swap1\n      sload\n      swap1\n      0x100\n      exp\n      swap1\n      div\n      0xffffffffffffffffffffffffffffffffffffffff\n      and\n        /* \"contracts/MultiSigWalletWithDailyLimit.sol\":4040:4046  owners */\n      0x3\n        /* \"contracts/MultiSigWalletWithDailyLimit.sol\":4047:4048  i */\n      dup4\n        /* \"contracts/MultiSigWalletWithDailyLimit.sol\":4040:4049  owners[i] */\n      dup2\n      sload\n      dup2\n      lt\n      iszero\n      iszero\n      tag_116\n      jumpi\n      invalid\n    tag_116:\n      swap1\n      0x0\n      mstore\n      keccak256(0x0, 0x20)\n      swap1\n      add\n      0x0\n    tag_117:\n        /* \"contracts/MultiSigWalletWithDailyLimit.sol\":4040:4077  owners[i] = owners[owners.length - 1] */\n      0x100\n      exp\n      dup2\n      sload\n      dup2\n      0xffffffffffffffffffffffffffffffffffffffff\n      mul\n      not\n      and\n      swap1\n      dup4\n      0xffffffffffffffffffffffffffffffffffffffff\n      and\n      mul\n      or\n      swap1\n      sstore\n      pop\n        /* \"contracts/MultiSigWalletWithDailyLimit.sol\":4095:4100  break */\n      jump(tag_109)\n        /* \"contracts/MultiSigWalletWithDailyLimit.sol\":3998:4115  if (owners[i] == owner) {... */\n    tag_113:\n        /* \"contracts/MultiSigWalletWithDailyLimit.sol\":3945:4115  for (uint i=0; i<owners.length - 1; i++)... */\n    tag_110:\n        /* \"contracts/MultiSigWalletWithDailyLimit.sol\":3981:3984  i++ */\n      dup2\n      dup1\n      0x1\n      add\n      swap3\n      pop\n      pop\n        /* \"contracts/MultiSigWalletWithDailyLimit.sol\":3945:4115  for (uint i=0; i<owners.length - 1; i++)... */\n      jump(tag_108)\n    tag_109:\n        /* \"contracts/MultiSigWalletWithDailyLimit.sol\":4141:4142  1 */\n      0x1\n        /* \"contracts/MultiSigWalletWithDailyLimit.sol\":4124:4130  owners */\n      0x3\n        /* \"contracts/MultiSigWalletWithDailyLimit.sol\":4124:4142  owners.length -= 1 */\n      dup2\n      dup2\n      dup1\n      sload\n      swap1\n      pop\n      sub\n      swap2\n      pop\n      dup2\n      tag_118\n      swap2\n      swap1\n      jump\t// in(tag_119)\n    tag_118:\n      pop\n        /* \"contracts/MultiSigWalletWithDailyLimit.sol\":4167:4173  owners */\n      0x3\n        /* \"contracts/MultiSigWalletWithDailyLimit.sol\":4167:4180  owners.length */\n      dup1\n      sload\n      swap1\n      pop\n        /* \"contracts/MultiSigWalletWithDailyLimit.sol\":4156:4164  required */\n      sload(0x4)\n        /* \"contracts/MultiSigWalletWithDailyLimit.sol\":4156:4180  required > owners.length */\n      gt\n        /* \"contracts/MultiSigWalletWithDailyLimit.sol\":4152:4226  if (required > owners.length)... */\n      iszero\n      tag_120\n      jumpi\n        /* \"contracts/MultiSigWalletWithDailyLimit.sol\":4194:4226  changeRequirement(owners.length) */\n      tag_121\n        /* \"contracts/MultiSigWalletWithDailyLimit.sol\":4212:4218  owners */\n      0x3\n        /* \"contracts/MultiSigWalletWithDailyLimit.sol\":4212:4225  owners.length */\n      dup1\n      sload\n      swap1\n      pop\n        /* \"contracts/MultiSigWalletWithDailyLimit.sol\":4194:4211  changeRequirement */\n      tag_82\n        /* \"contracts/MultiSigWalletWithDailyLimit.sol\":4194:4226  changeRequirement(owners.length) */\n      jump\t// in\n    tag_121:\n        /* \"contracts/MultiSigWalletWithDailyLimit.sol\":4152:4226  if (required > owners.length)... */\n    tag_120:\n        /* \"contracts/MultiSigWalletWithDailyLimit.sol\":4249:4254  owner */\n      dup3\n        /* \"contracts/MultiSigWalletWithDailyLimit.sol\":4236:4255  OwnerRemoval(owner) */\n      0xffffffffffffffffffffffffffffffffffffffff\n      and\n      0x8001553a916ef2f495d26a907cc54d96ed840d7bda71e73194bf5a9df7a76b90\n      mload(0x40)\n      mload(0x40)\n      dup1\n      swap2\n      sub\n      swap1\n      log2\n        /* \"contracts/MultiSigWalletWithDailyLimit.sol\":1655:1656  _ */\n    tag_107:\n        /* \"contracts/MultiSigWalletWithDailyLimit.sol\":1462:1463  _ */\n    tag_105:\n      pop\n        /* \"contracts/MultiSigWalletWithDailyLimit.sol\":3802:4262  function removeOwner(address owner)... */\n    tag_103:\n      pop\n      pop\n      jump\t// out\n        /* \"contracts/MultiSigWalletWithDailyLimit.sol\":6368:6659  function revokeConfirmation(uint transactionId)... */\n    tag_34:\n        /* \"contracts/MultiSigWalletWithDailyLimit.sol\":6451:6461  msg.sender */\n      caller\n        /* \"contracts/MultiSigWalletWithDailyLimit.sol\":1630:1637  isOwner */\n      0x2\n        /* \"contracts/MultiSigWalletWithDailyLimit.sol\":1630:1644  isOwner[owner] */\n      0x0\n        /* \"contracts/MultiSigWalletWithDailyLimit.sol\":1638:1643  owner */\n      dup3\n        /* \"contracts/MultiSigWalletWithDailyLimit.sol\":1630:1644  isOwner[owner] */\n      0xffffffffffffffffffffffffffffffffffffffff\n      and\n      0xffffffffffffffffffffffffffffffffffffffff\n      and\n      dup2\n      mstore\n      0x20\n      add\n      swap1\n      dup2\n      mstore\n      0x20\n      add\n      0x0\n      keccak256\n      0x0\n      swap1\n      sload\n      swap1\n      0x100\n      exp\n      swap1\n      div\n      0xff\n      and\n        /* \"contracts/MultiSigWalletWithDailyLimit.sol\":1622:1645  require(isOwner[owner]) */\n      iszero\n      iszero\n      tag_123\n      jumpi\n      0x0\n      dup1\n      revert\n    tag_123:\n        /* \"contracts/MultiSigWalletWithDailyLimit.sol\":6481:6494  transactionId */\n      dup2\n        /* \"contracts/MultiSigWalletWithDailyLimit.sol\":6496:6506  msg.sender */\n      caller\n        /* \"contracts/MultiSigWalletWithDailyLimit.sol\":1875:1888  confirmations */\n      0x1\n        /* \"contracts/MultiSigWalletWithDailyLimit.sol\":1875:1903  confirmations[transactionId] */\n      0x0\n        /* \"contracts/MultiSigWalletWithDailyLimit.sol\":1889:1902  transactionId */\n      dup4\n        /* \"contracts/MultiSigWalletWithDailyLimit.sol\":1875:1903  confirmations[transactionId] */\n      dup2\n      mstore\n      0x20\n      add\n      swap1\n      dup2\n      mstore\n      0x20\n      add\n      0x0\n      keccak256\n        /* \"contracts/MultiSigWalletWithDailyLimit.sol\":1875:1910  confirmations[transactionId][owner] */\n      0x0\n        /* \"contracts/MultiSigWalletWithDailyLimit.sol\":1904:1909  owner */\n      dup3\n        /* \"contracts/MultiSigWalletWithDailyLimit.sol\":1875:1910  confirmations[transactionId][owner] */\n      0xffffffffffffffffffffffffffffffffffffffff\n      and\n      0xffffffffffffffffffffffffffffffffffffffff\n      and\n      dup2\n      mstore\n      0x20\n      add\n      swap1\n      dup2\n      mstore\n      0x20\n      add\n      0x0\n      keccak256\n      0x0\n      swap1\n      sload\n      swap1\n      0x100\n      exp\n      swap1\n      div\n      0xff\n      and\n        /* \"contracts/MultiSigWalletWithDailyLimit.sol\":1867:1911  require(confirmations[transactionId][owner]) */\n      iszero\n      iszero\n      tag_125\n      jumpi\n      0x0\n      dup1\n      revert\n    tag_125:\n        /* \"contracts/MultiSigWalletWithDailyLimit.sol\":6528:6541  transactionId */\n      dup4\n        /* \"contracts/MultiSigWalletWithDailyLimit.sol\":2131:2143  transactions */\n      0x0\n        /* \"contracts/MultiSigWalletWithDailyLimit.sol\":2131:2158  transactions[transactionId] */\n      dup1\n        /* \"contracts/MultiSigWalletWithDailyLimit.sol\":2144:2157  transactionId */\n      dup3\n        /* \"contracts/MultiSigWalletWithDailyLimit.sol\":2131:2158  transactions[transactionId] */\n      dup2\n      mstore\n      0x20\n      add\n      swap1\n      dup2\n      mstore\n      0x20\n      add\n      0x0\n      keccak256\n        /* \"contracts/MultiSigWalletWithDailyLimit.sol\":2131:2167  transactions[transactionId].executed */\n      0x3\n      add\n      0x0\n      swap1\n      sload\n      swap1\n      0x100\n      exp\n      swap1\n      div\n      0xff\n      and\n        /* \"contracts/MultiSigWalletWithDailyLimit.sol\":2130:2167  !transactions[transactionId].executed */\n      iszero\n        /* \"contracts/MultiSigWalletWithDailyLimit.sol\":2122:2168  require(!transactions[transactionId].executed) */\n      iszero\n      iszero\n      tag_127\n      jumpi\n      0x0\n      dup1\n      revert\n    tag_127:\n        /* \"contracts/MultiSigWalletWithDailyLimit.sol\":6600:6605  false */\n      0x0\n        /* \"contracts/MultiSigWalletWithDailyLimit.sol\":6557:6570  confirmations */\n      0x1\n        /* \"contracts/MultiSigWalletWithDailyLimit.sol\":6557:6585  confirmations[transactionId] */\n      0x0\n        /* \"contracts/MultiSigWalletWithDailyLimit.sol\":6571:6584  transactionId */\n      dup8\n        /* \"contracts/MultiSigWalletWithDailyLimit.sol\":6557:6585  confirmations[transactionId] */\n      dup2\n      mstore\n      0x20\n      add\n      swap1\n      dup2\n      mstore\n      0x20\n      add\n      0x0\n      keccak256\n        /* \"contracts/MultiSigWalletWithDailyLimit.sol\":6557:6597  confirmations[transactionId][msg.sender] */\n      0x0\n        /* \"contracts/MultiSigWalletWithDailyLimit.sol\":6586:6596  msg.sender */\n      caller\n        /* \"contracts/MultiSigWalletWithDailyLimit.sol\":6557:6597  confirmations[transactionId][msg.sender] */\n      0xffffffffffffffffffffffffffffffffffffffff\n      and\n      0xffffffffffffffffffffffffffffffffffffffff\n      and\n      dup2\n      mstore\n      0x20\n      add\n      swap1\n      dup2\n      mstore\n      0x20\n      add\n      0x0\n      keccak256\n      0x0\n        /* \"contracts/MultiSigWalletWithDailyLimit.sol\":6557:6605  confirmations[transactionId][msg.sender] = false */\n      0x100\n      exp\n      dup2\n      sload\n      dup2\n      0xff\n      mul\n      not\n      and\n      swap1\n      dup4\n      iszero\n      iszero\n      mul\n      or\n      swap1\n      sstore\n      pop\n        /* \"contracts/MultiSigWalletWithDailyLimit.sol\":6638:6651  transactionId */\n      dup5\n        /* \"contracts/MultiSigWalletWithDailyLimit.sol\":6626:6636  msg.sender */\n      caller\n        /* \"contracts/MultiSigWalletWithDailyLimit.sol\":6615:6652  Revocation(msg.sender, transactionId) */\n      0xffffffffffffffffffffffffffffffffffffffff\n      and\n      0xf6a317157440607f36269043eb55f1287a5a19ba2216afeab88cd46cbcfb88e9\n      mload(0x40)\n      mload(0x40)\n      dup1\n      swap2\n      sub\n      swap1\n      log3\n        /* \"contracts/MultiSigWalletWithDailyLimit.sol\":2178:2179  _ */\n    tag_128:\n        /* \"contracts/MultiSigWalletWithDailyLimit.sol\":1921:1922  _ */\n    tag_126:\n      pop\n        /* \"contracts/MultiSigWalletWithDailyLimit.sol\":1655:1656  _ */\n    tag_124:\n      pop\n      pop\n        /* \"contracts/MultiSigWalletWithDailyLimit.sol\":6368:6659  function revokeConfirmation(uint transactionId)... */\n    tag_122:\n      pop\n      pop\n      jump\t// out\n        /* \"contracts/MultiSigWalletWithDailyLimit.sol\":1091:1131  mapping (address => bool) public isOwner */\n    tag_37:\n      mstore(0x20, 0x2)\n      dup1\n      0x0\n      mstore\n      keccak256(0x0, 0x40)\n      0x0\n      swap2\n      pop\n      sload\n      swap1\n      0x100\n      exp\n      swap1\n      div\n      0xff\n      and\n      dup2\n      jump\t// out\n        /* \"contracts/MultiSigWalletWithDailyLimit.sol\":1021:1085  mapping (uint => mapping (address => bool)) public confirmations */\n    tag_40:\n      mstore(0x20, 0x1)\n      dup2\n      0x0\n      mstore\n      mstore(0x20, keccak256(0x0, 0x40))\n      dup1\n      0x0\n      mstore\n      keccak256(0x0, 0x40)\n      0x0\n      swap2\n      pop\n      swap2\n      pop\n      swap1\n      sload\n      swap1\n      0x100\n      exp\n      swap1\n      div\n      0xff\n      and\n      dup2\n      jump\t// out\n        /* \"contracts/MultiSigWalletWithDailyLimit.sol\":10622:10941  function getTransactionCount(bool pending, bool executed)... */\n    tag_43:\n        /* \"contracts/MultiSigWalletWithDailyLimit.sol\":10729:10739  uint count */\n      0x0\n        /* \"contracts/MultiSigWalletWithDailyLimit.sol\":10760:10766  uint i */\n      dup1\n        /* \"contracts/MultiSigWalletWithDailyLimit.sol\":10767:10768  0 */\n      0x0\n        /* \"contracts/MultiSigWalletWithDailyLimit.sol\":10760:10768  uint i=0 */\n      swap1\n      pop\n        /* \"contracts/MultiSigWalletWithDailyLimit.sol\":10755:10934  for (uint i=0; i<transactionCount; i++)... */\n    tag_130:\n        /* \"contracts/MultiSigWalletWithDailyLimit.sol\":10772:10788  transactionCount */\n      sload(0x5)\n        /* \"contracts/MultiSigWalletWithDailyLimit.sol\":10770:10771  i */\n      dup2\n        /* \"contracts/MultiSigWalletWithDailyLimit.sol\":10770:10788  i<transactionCount */\n      lt\n        /* \"contracts/MultiSigWalletWithDailyLimit.sol\":10755:10934  for (uint i=0; i<transactionCount; i++)... */\n      iszero\n      tag_131\n      jumpi\n        /* \"contracts/MultiSigWalletWithDailyLimit.sol\":10814:10821  pending */\n      dup4\n        /* \"contracts/MultiSigWalletWithDailyLimit.sol\":10814:10850  pending && !transactions[i].executed */\n      dup1\n      iszero\n      tag_133\n      jumpi\n      pop\n        /* \"contracts/MultiSigWalletWithDailyLimit.sol\":10826:10838  transactions */\n      0x0\n        /* \"contracts/MultiSigWalletWithDailyLimit.sol\":10826:10841  transactions[i] */\n      dup1\n        /* \"contracts/MultiSigWalletWithDailyLimit.sol\":10839:10840  i */\n      dup3\n        /* \"contracts/MultiSigWalletWithDailyLimit.sol\":10826:10841  transactions[i] */\n      dup2\n      mstore\n      0x20\n      add\n      swap1\n      dup2\n      mstore\n      0x20\n      add\n      0x0\n      keccak256\n        /* \"contracts/MultiSigWalletWithDailyLimit.sol\":10826:10850  transactions[i].executed */\n      0x3\n      add\n      0x0\n      swap1\n      sload\n      swap1\n      0x100\n      exp\n      swap1\n      div\n      0xff\n      and\n        /* \"contracts/MultiSigWalletWithDailyLimit.sol\":10825:10850  !transactions[i].executed */\n      iszero\n        /* \"contracts/MultiSigWalletWithDailyLimit.sol\":10814:10850  pending && !transactions[i].executed */\n    tag_133:\n        /* \"contracts/MultiSigWalletWithDailyLimit.sol\":10814:10906  pending && !transactions[i].executed... */\n      dup1\n      tag_134\n      jumpi\n      pop\n        /* \"contracts/MultiSigWalletWithDailyLimit.sol\":10870:10878  executed */\n      dup3\n        /* \"contracts/MultiSigWalletWithDailyLimit.sol\":10870:10906  executed && transactions[i].executed */\n      dup1\n      iszero\n      tag_135\n      jumpi\n      pop\n        /* \"contracts/MultiSigWalletWithDailyLimit.sol\":10882:10894  transactions */\n      0x0\n        /* \"contracts/MultiSigWalletWithDailyLimit.sol\":10882:10897  transactions[i] */\n      dup1\n        /* \"contracts/MultiSigWalletWithDailyLimit.sol\":10895:10896  i */\n      dup3\n        /* \"contracts/MultiSigWalletWithDailyLimit.sol\":10882:10897  transactions[i] */\n      dup2\n      mstore\n      0x20\n      add\n      swap1\n      dup2\n      mstore\n      0x20\n      add\n      0x0\n      keccak256\n        /* \"contracts/MultiSigWalletWithDailyLimit.sol\":10882:10906  transactions[i].executed */\n      0x3\n      add\n      0x0\n      swap1\n      sload\n      swap1\n      0x100\n      exp\n      swap1\n      div\n      0xff\n      and\n        /* \"contracts/MultiSigWalletWithDailyLimit.sol\":10870:10906  executed && transactions[i].executed */\n    tag_135:\n        /* \"contracts/MultiSigWalletWithDailyLimit.sol\":10814:10906  pending && !transactions[i].executed... */\n    tag_134:\n        /* \"contracts/MultiSigWalletWithDailyLimit.sol\":10807:10934  if (   pending && !transactions[i].executed... */\n      iszero\n      tag_136\n      jumpi\n        /* \"contracts/MultiSigWalletWithDailyLimit.sol\":10933:10934  1 */\n      0x1\n        /* \"contracts/MultiSigWalletWithDailyLimit.sol\":10924:10934  count += 1 */\n      dup3\n      add\n      swap2\n      pop\n        /* \"contracts/MultiSigWalletWithDailyLimit.sol\":10807:10934  if (   pending && !transactions[i].executed... */\n    tag_136:\n        /* \"contracts/MultiSigWalletWithDailyLimit.sol\":10755:10934  for (uint i=0; i<transactionCount; i++)... */\n    tag_132:\n        /* \"contracts/MultiSigWalletWithDailyLimit.sol\":10790:10793  i++ */\n      dup1\n      dup1\n      0x1\n      add\n      swap2\n      pop\n      pop\n        /* \"contracts/MultiSigWalletWithDailyLimit.sol\":10755:10934  for (uint i=0; i<transactionCount; i++)... */\n      jump(tag_130)\n    tag_131:\n        /* \"contracts/MultiSigWalletWithDailyLimit.sol\":10622:10941  function getTransactionCount(bool pending, bool executed)... */\n    tag_129:\n      pop\n      swap3\n      swap2\n      pop\n      pop\n      jump\t// out\n        /* \"contracts/MultiSigWalletWithDailyLimit.sol\":3402:3679  function addOwner(address owner)... */\n    tag_46:\n        /* \"contracts/MultiSigWalletWithDailyLimit.sol\":1446:1450  this */\n      address\n        /* \"contracts/MultiSigWalletWithDailyLimit.sol\":1424:1451  msg.sender == address(this) */\n      0xffffffffffffffffffffffffffffffffffffffff\n      and\n        /* \"contracts/MultiSigWalletWithDailyLimit.sol\":1424:1434  msg.sender */\n      caller\n        /* \"contracts/MultiSigWalletWithDailyLimit.sol\":1424:1451  msg.sender == address(this) */\n      0xffffffffffffffffffffffffffffffffffffffff\n      and\n      eq\n        /* \"contracts/MultiSigWalletWithDailyLimit.sol\":1416:1452  require(msg.sender == address(this)) */\n      iszero\n      iszero\n      tag_138\n      jumpi\n      0x0\n      dup1\n      revert\n    tag_138:\n        /* \"contracts/MultiSigWalletWithDailyLimit.sol\":3495:3500  owner */\n      dup1\n        /* \"contracts/MultiSigWalletWithDailyLimit.sol\":1537:1544  isOwner */\n      0x2\n        /* \"contracts/MultiSigWalletWithDailyLimit.sol\":1537:1551  isOwner[owner] */\n      0x0\n        /* \"contracts/MultiSigWalletWithDailyLimit.sol\":1545:1550  owner */\n      dup3\n        /* \"contracts/MultiSigWalletWithDailyLimit.sol\":1537:1551  isOwner[owner] */\n      0xffffffffffffffffffffffffffffffffffffffff\n      and\n      0xffffffffffffffffffffffffffffffffffffffff\n      and\n      dup2\n      mstore\n      0x20\n      add\n      swap1\n      dup2\n      mstore\n      0x20\n      add\n      0x0\n      keccak256\n      0x0\n      swap1\n      sload\n      swap1\n      0x100\n      exp\n      swap1\n      div\n      0xff\n      and\n        /* \"contracts/MultiSigWalletWithDailyLimit.sol\":1536:1551  !isOwner[owner] */\n      iszero\n        /* \"contracts/MultiSigWalletWithDailyLimit.sol\":1528:1552  require(!isOwner[owner]) */\n      iszero\n      iszero\n      tag_140\n      jumpi\n      0x0\n      dup1\n      revert\n    tag_140:\n        /* \"contracts/MultiSigWalletWithDailyLimit.sol\":3518:3523  owner */\n      dup2\n        /* \"contracts/MultiSigWalletWithDailyLimit.sol\":2257:2258  0 */\n      0x0\n        /* \"contracts/MultiSigWalletWithDailyLimit.sol\":2245:2253  _address */\n      dup2\n        /* \"contracts/MultiSigWalletWithDailyLimit.sol\":2245:2258  _address != 0 */\n      0xffffffffffffffffffffffffffffffffffffffff\n      and\n      eq\n      iszero\n        /* \"contracts/MultiSigWalletWithDailyLimit.sol\":2237:2259  require(_address != 0) */\n      iszero\n      iszero\n      tag_142\n      jumpi\n      0x0\n      dup1\n      revert\n    tag_142:\n        /* \"contracts/MultiSigWalletWithDailyLimit.sol\":3566:3567  1 */\n      0x1\n        /* \"contracts/MultiSigWalletWithDailyLimit.sol\":3550:3556  owners */\n      0x3\n        /* \"contracts/MultiSigWalletWithDailyLimit.sol\":3550:3563  owners.length */\n      dup1\n      sload\n      swap1\n      pop\n        /* \"contracts/MultiSigWalletWithDailyLimit.sol\":3550:3567  owners.length + 1 */\n      add\n        /* \"contracts/MultiSigWalletWithDailyLimit.sol\":3569:3577  required */\n      sload(0x4)\n        /* \"contracts/MultiSigWalletWithDailyLimit.sol\":926:928  50 */\n      0x32\n        /* \"contracts/MultiSigWalletWithDailyLimit.sol\":2360:2370  ownerCount */\n      dup3\n        /* \"contracts/MultiSigWalletWithDailyLimit.sol\":2360:2389  ownerCount <= MAX_OWNER_COUNT */\n      gt\n      iszero\n        /* \"contracts/MultiSigWalletWithDailyLimit.sol\":2360:2428  ownerCount <= MAX_OWNER_COUNT... */\n      dup1\n      iszero\n      tag_144\n      jumpi\n      pop\n        /* \"contracts/MultiSigWalletWithDailyLimit.sol\":2418:2428  ownerCount */\n      dup2\n        /* \"contracts/MultiSigWalletWithDailyLimit.sol\":2405:2414  _required */\n      dup2\n        /* \"contracts/MultiSigWalletWithDailyLimit.sol\":2405:2428  _required <= ownerCount */\n      gt\n      iszero\n        /* \"contracts/MultiSigWalletWithDailyLimit.sol\":2360:2428  ownerCount <= MAX_OWNER_COUNT... */\n    tag_144:\n        /* \"contracts/MultiSigWalletWithDailyLimit.sol\":2360:2458  ownerCount <= MAX_OWNER_COUNT... */\n      dup1\n      iszero\n      tag_145\n      jumpi\n      pop\n        /* \"contracts/MultiSigWalletWithDailyLimit.sol\":2457:2458  0 */\n      0x0\n        /* \"contracts/MultiSigWalletWithDailyLimit.sol\":2444:2453  _required */\n      dup2\n        /* \"contracts/MultiSigWalletWithDailyLimit.sol\":2444:2458  _required != 0 */\n      eq\n      iszero\n        /* \"contracts/MultiSigWalletWithDailyLimit.sol\":2360:2458  ownerCount <= MAX_OWNER_COUNT... */\n    tag_145:\n        /* \"contracts/MultiSigWalletWithDailyLimit.sol\":2360:2489  ownerCount <= MAX_OWNER_COUNT... */\n      dup1\n      iszero\n      tag_146\n      jumpi\n      pop\n        /* \"contracts/MultiSigWalletWithDailyLimit.sol\":2488:2489  0 */\n      0x0\n        /* \"contracts/MultiSigWalletWithDailyLimit.sol\":2474:2484  ownerCount */\n      dup3\n        /* \"contracts/MultiSigWalletWithDailyLimit.sol\":2474:2489  ownerCount != 0 */\n      eq\n      iszero\n        /* \"contracts/MultiSigWalletWithDailyLimit.sol\":2360:2489  ownerCount <= MAX_OWNER_COUNT... */\n    tag_146:\n        /* \"contracts/MultiSigWalletWithDailyLimit.sol\":2352:2490  require(ownerCount <= MAX_OWNER_COUNT... */\n      iszero\n      iszero\n      tag_147\n      jumpi\n      0x0\n      dup1\n      revert\n    tag_147:\n        /* \"contracts/MultiSigWalletWithDailyLimit.sol\":3610:3614  true */\n      0x1\n        /* \"contracts/MultiSigWalletWithDailyLimit.sol\":3593:3600  isOwner */\n      0x2\n        /* \"contracts/MultiSigWalletWithDailyLimit.sol\":3593:3607  isOwner[owner] */\n      0x0\n        /* \"contracts/MultiSigWalletWithDailyLimit.sol\":3601:3606  owner */\n      dup8\n        /* \"contracts/MultiSigWalletWithDailyLimit.sol\":3593:3607  isOwner[owner] */\n      0xffffffffffffffffffffffffffffffffffffffff\n      and\n      0xffffffffffffffffffffffffffffffffffffffff\n      and\n      dup2\n      mstore\n      0x20\n      add\n      swap1\n      dup2\n      mstore\n      0x20\n      add\n      0x0\n      keccak256\n      0x0\n        /* \"contracts/MultiSigWalletWithDailyLimit.sol\":3593:3614  isOwner[owner] = true */\n      0x100\n      exp\n      dup2\n      sload\n      dup2\n      0xff\n      mul\n      not\n      and\n      swap1\n      dup4\n      iszero\n      iszero\n      mul\n      or\n      swap1\n      sstore\n      pop\n        /* \"contracts/MultiSigWalletWithDailyLimit.sol\":3624:3630  owners */\n      0x3\n        /* \"contracts/MultiSigWalletWithDailyLimit.sol\":3624:3642  owners.push(owner) */\n      dup1\n      sload\n      dup1\n      0x1\n      add\n      dup3\n      dup2\n      tag_149\n      swap2\n      swap1\n      jump\t// in(tag_150)\n    tag_149:\n      swap2\n      0x0\n      mstore\n      keccak256(0x0, 0x20)\n      swap1\n      add\n      0x0\n    tag_151:\n        /* \"contracts/MultiSigWalletWithDailyLimit.sol\":3636:3641  owner */\n      dup8\n        /* \"contracts/MultiSigWalletWithDailyLimit.sol\":3624:3642  owners.push(owner) */\n      swap1\n      swap2\n      swap1\n      swap2\n      0x100\n      exp\n      dup2\n      sload\n      dup2\n      0xffffffffffffffffffffffffffffffffffffffff\n      mul\n      not\n      and\n      swap1\n      dup4\n      0xffffffffffffffffffffffffffffffffffffffff\n      and\n      mul\n      or\n      swap1\n      sstore\n      pop\n      pop\n        /* \"contracts/MultiSigWalletWithDailyLimit.sol\":3666:3671  owner */\n      dup5\n        /* \"contracts/MultiSigWalletWithDailyLimit.sol\":3652:3672  OwnerAddition(owner) */\n      0xffffffffffffffffffffffffffffffffffffffff\n      and\n      0xf39e6e1eb0edcf53c221607b54b00cd28f3196fed0a24994dc308b8f611b682d\n      mload(0x40)\n      mload(0x40)\n      dup1\n      swap2\n      sub\n      swap1\n      log2\n        /* \"contracts/MultiSigWalletWithDailyLimit.sol\":2500:2501  _ */\n    tag_148:\n        /* \"contracts/MultiSigWalletWithDailyLimit.sol\":2269:2270  _ */\n    tag_143:\n      pop\n      pop\n        /* \"contracts/MultiSigWalletWithDailyLimit.sol\":1562:1563  _ */\n    tag_141:\n      pop\n        /* \"contracts/MultiSigWalletWithDailyLimit.sol\":1462:1463  _ */\n    tag_139:\n      pop\n        /* \"contracts/MultiSigWalletWithDailyLimit.sol\":3402:3679  function addOwner(address owner)... */\n    tag_137:\n      pop\n      jump\t// out\n        /* \"contracts/MultiSigWalletWithDailyLimit.sol\":8790:9127  function isConfirmed(uint transactionId)... */\n    tag_49:\n        /* \"contracts/MultiSigWalletWithDailyLimit.sol\":8880:8884  bool */\n      0x0\n        /* \"contracts/MultiSigWalletWithDailyLimit.sol\":8900:8910  uint count */\n      dup1\n        /* \"contracts/MultiSigWalletWithDailyLimit.sol\":8929:8935  uint i */\n      0x0\n        /* \"contracts/MultiSigWalletWithDailyLimit.sol\":8913:8914  0 */\n      dup1\n        /* \"contracts/MultiSigWalletWithDailyLimit.sol\":8900:8914  uint count = 0 */\n      swap2\n      pop\n        /* \"contracts/MultiSigWalletWithDailyLimit.sol\":8936:8937  0 */\n      0x0\n        /* \"contracts/MultiSigWalletWithDailyLimit.sol\":8929:8937  uint i=0 */\n      swap1\n      pop\n        /* \"contracts/MultiSigWalletWithDailyLimit.sol\":8924:9121  for (uint i=0; i<owners.length; i++) {... */\n    tag_153:\n        /* \"contracts/MultiSigWalletWithDailyLimit.sol\":8941:8947  owners */\n      0x3\n        /* \"contracts/MultiSigWalletWithDailyLimit.sol\":8941:8954  owners.length */\n      dup1\n      sload\n      swap1\n      pop\n        /* \"contracts/MultiSigWalletWithDailyLimit.sol\":8939:8940  i */\n      dup2\n        /* \"contracts/MultiSigWalletWithDailyLimit.sol\":8939:8954  i<owners.length */\n      lt\n        /* \"contracts/MultiSigWalletWithDailyLimit.sol\":8924:9121  for (uint i=0; i<owners.length; i++) {... */\n      iszero\n      tag_154\n      jumpi\n        /* \"contracts/MultiSigWalletWithDailyLimit.sol\":8979:8992  confirmations */\n      0x1\n        /* \"contracts/MultiSigWalletWithDailyLimit.sol\":8979:9007  confirmations[transactionId] */\n      0x0\n        /* \"contracts/MultiSigWalletWithDailyLimit.sol\":8993:9006  transactionId */\n      dup6\n        /* \"contracts/MultiSigWalletWithDailyLimit.sol\":8979:9007  confirmations[transactionId] */\n      dup2\n      mstore\n      0x20\n      add\n      swap1\n      dup2\n      mstore\n      0x20\n      add\n      0x0\n      keccak256\n        /* \"contracts/MultiSigWalletWithDailyLimit.sol\":8979:9018  confirmations[transactionId][owners[i]] */\n      0x0\n        /* \"contracts/MultiSigWalletWithDailyLimit.sol\":9008:9014  owners */\n      0x3\n        /* \"contracts/MultiSigWalletWithDailyLimit.sol\":9015:9016  i */\n      dup4\n        /* \"contracts/MultiSigWalletWithDailyLimit.sol\":9008:9017  owners[i] */\n      dup2\n      sload\n      dup2\n      lt\n      iszero\n      iszero\n      tag_156\n      jumpi\n      invalid\n    tag_156:\n      swap1\n      0x0\n      mstore\n      keccak256(0x0, 0x20)\n      swap1\n      add\n      0x0\n    tag_157:\n      swap1\n      sload\n      swap1\n      0x100\n      exp\n      swap1\n      div\n      0xffffffffffffffffffffffffffffffffffffffff\n      and\n        /* \"contracts/MultiSigWalletWithDailyLimit.sol\":8979:9018  confirmations[transactionId][owners[i]] */\n      0xffffffffffffffffffffffffffffffffffffffff\n      and\n      0xffffffffffffffffffffffffffffffffffffffff\n      and\n      dup2\n      mstore\n      0x20\n      add\n      swap1\n      dup2\n      mstore\n      0x20\n      add\n      0x0\n      keccak256\n      0x0\n      swap1\n      sload\n      swap1\n      0x100\n      exp\n      swap1\n      div\n      0xff\n      and\n        /* \"contracts/MultiSigWalletWithDailyLimit.sol\":8975:9046  if (confirmations[transactionId][owners[i]])... */\n      iszero\n      tag_158\n      jumpi\n        /* \"contracts/MultiSigWalletWithDailyLimit.sol\":9045:9046  1 */\n      0x1\n        /* \"contracts/MultiSigWalletWithDailyLimit.sol\":9036:9046  count += 1 */\n      dup3\n      add\n      swap2\n      pop\n        /* \"contracts/MultiSigWalletWithDailyLimit.sol\":8975:9046  if (confirmations[transactionId][owners[i]])... */\n    tag_158:\n        /* \"contracts/MultiSigWalletWithDailyLimit.sol\":9073:9081  required */\n      sload(0x4)\n        /* \"contracts/MultiSigWalletWithDailyLimit.sol\":9064:9069  count */\n      dup3\n        /* \"contracts/MultiSigWalletWithDailyLimit.sol\":9064:9081  count == required */\n      eq\n        /* \"contracts/MultiSigWalletWithDailyLimit.sol\":9060:9110  if (count == required)... */\n      iszero\n      tag_159\n      jumpi\n        /* \"contracts/MultiSigWalletWithDailyLimit.sol\":9106:9110  true */\n      0x1\n        /* \"contracts/MultiSigWalletWithDailyLimit.sol\":9099:9110  return true */\n      swap3\n      pop\n      jump(tag_152)\n        /* \"contracts/MultiSigWalletWithDailyLimit.sol\":9060:9110  if (count == required)... */\n    tag_159:\n        /* \"contracts/MultiSigWalletWithDailyLimit.sol\":8924:9121  for (uint i=0; i<owners.length; i++) {... */\n    tag_155:\n        /* \"contracts/MultiSigWalletWithDailyLimit.sol\":8956:8959  i++ */\n      dup1\n      dup1\n      0x1\n      add\n      swap2\n      pop\n      pop\n        /* \"contracts/MultiSigWalletWithDailyLimit.sol\":8924:9121  for (uint i=0; i<owners.length; i++) {... */\n      jump(tag_153)\n    tag_154:\n        /* \"contracts/MultiSigWalletWithDailyLimit.sol\":8790:9127  function isConfirmed(uint transactionId)... */\n    tag_152:\n      pop\n      pop\n      swap2\n      swap1\n      pop\n      jump\t// out\n        /* \"contracts/MultiSigWalletWithDailyLimit.sol\":10108:10360  function getConfirmationCount(uint transactionId)... */\n    tag_52:\n        /* \"contracts/MultiSigWalletWithDailyLimit.sol\":10207:10217  uint count */\n      0x0\n        /* \"contracts/MultiSigWalletWithDailyLimit.sol\":10238:10244  uint i */\n      dup1\n        /* \"contracts/MultiSigWalletWithDailyLimit.sol\":10245:10246  0 */\n      0x0\n        /* \"contracts/MultiSigWalletWithDailyLimit.sol\":10238:10246  uint i=0 */\n      swap1\n      pop\n        /* \"contracts/MultiSigWalletWithDailyLimit.sol\":10233:10353  for (uint i=0; i<owners.length; i++)... */\n    tag_161:\n        /* \"contracts/MultiSigWalletWithDailyLimit.sol\":10250:10256  owners */\n      0x3\n        /* \"contracts/MultiSigWalletWithDailyLimit.sol\":10250:10263  owners.length */\n      dup1\n      sload\n      swap1\n      pop\n        /* \"contracts/MultiSigWalletWithDailyLimit.sol\":10248:10249  i */\n      dup2\n        /* \"contracts/MultiSigWalletWithDailyLimit.sol\":10248:10263  i<owners.length */\n      lt\n        /* \"contracts/MultiSigWalletWithDailyLimit.sol\":10233:10353  for (uint i=0; i<owners.length; i++)... */\n      iszero\n      tag_162\n      jumpi\n        /* \"contracts/MultiSigWalletWithDailyLimit.sol\":10286:10299  confirmations */\n      0x1\n        /* \"contracts/MultiSigWalletWithDailyLimit.sol\":10286:10314  confirmations[transactionId] */\n      0x0\n        /* \"contracts/MultiSigWalletWithDailyLimit.sol\":10300:10313  transactionId */\n      dup5\n        /* \"contracts/MultiSigWalletWithDailyLimit.sol\":10286:10314  confirmations[transactionId] */\n      dup2\n      mstore\n      0x20\n      add\n      swap1\n      dup2\n      mstore\n      0x20\n      add\n      0x0\n      keccak256\n        /* \"contracts/MultiSigWalletWithDailyLimit.sol\":10286:10325  confirmations[transactionId][owners[i]] */\n      0x0\n        /* \"contracts/MultiSigWalletWithDailyLimit.sol\":10315:10321  owners */\n      0x3\n        /* \"contracts/MultiSigWalletWithDailyLimit.sol\":10322:10323  i */\n      dup4\n        /* \"contracts/MultiSigWalletWithDailyLimit.sol\":10315:10324  owners[i] */\n      dup2\n      sload\n      dup2\n      lt\n      iszero\n      iszero\n      tag_164\n      jumpi\n      invalid\n    tag_164:\n      swap1\n      0x0\n      mstore\n      keccak256(0x0, 0x20)\n      swap1\n      add\n      0x0\n    tag_165:\n      swap1\n      sload\n      swap1\n      0x100\n      exp\n      swap1\n      div\n      0xffffffffffffffffffffffffffffffffffffffff\n      and\n        /* \"contracts/MultiSigWalletWithDailyLimit.sol\":10286:10325  confirmations[transactionId][owners[i]] */\n      0xffffffffffffffffffffffffffffffffffffffff\n      and\n      0xffffffffffffffffffffffffffffffffffffffff\n      and\n      dup2\n      mstore\n      0x20\n      add\n      swap1\n      dup2\n      mstore\n      0x20\n      add\n      0x0\n      keccak256\n      0x0\n      swap1\n      sload\n      swap1\n      0x100\n      exp\n      swap1\n      div\n      0xff\n      and\n        /* \"contracts/MultiSigWalletWithDailyLimit.sol\":10282:10353  if (confirmations[transactionId][owners[i]])... */\n      iszero\n      tag_166\n      jumpi\n        /* \"contracts/MultiSigWalletWithDailyLimit.sol\":10352:10353  1 */\n      0x1\n        /* \"contracts/MultiSigWalletWithDailyLimit.sol\":10343:10353  count += 1 */\n      dup3\n      add\n      swap2\n      pop\n        /* \"contracts/MultiSigWalletWithDailyLimit.sol\":10282:10353  if (confirmations[transactionId][owners[i]])... */\n    tag_166:\n        /* \"contracts/MultiSigWalletWithDailyLimit.sol\":10233:10353  for (uint i=0; i<owners.length; i++)... */\n    tag_163:\n        /* \"contracts/MultiSigWalletWithDailyLimit.sol\":10265:10268  i++ */\n      dup1\n      dup1\n      0x1\n      add\n      swap2\n      pop\n      pop\n        /* \"contracts/MultiSigWalletWithDailyLimit.sol\":10233:10353  for (uint i=0; i<owners.length; i++)... */\n      jump(tag_161)\n    tag_162:\n        /* \"contracts/MultiSigWalletWithDailyLimit.sol\":10108:10360  function getConfirmationCount(uint transactionId)... */\n    tag_160:\n      pop\n      swap2\n      swap1\n      pop\n      jump\t// out\n        /* \"contracts/MultiSigWalletWithDailyLimit.sol\":966:1015  mapping (uint => Transaction) public transactions */\n    tag_55:\n      mstore(0x20, 0x0)\n      dup1\n      0x0\n      mstore\n      keccak256(0x0, 0x40)\n      0x0\n      swap2\n      pop\n      swap1\n      pop\n      dup1\n      0x0\n      add\n      0x0\n      swap1\n      sload\n      swap1\n      0x100\n      exp\n      swap1\n      div\n      0xffffffffffffffffffffffffffffffffffffffff\n      and\n      swap1\n      dup1\n      0x1\n      add\n      sload\n      swap1\n      dup1\n      0x2\n      add\n      swap1\n      dup1\n      0x3\n      add\n      0x0\n      swap1\n      sload\n      swap1\n      0x100\n      exp\n      swap1\n      div\n      0xff\n      and\n      swap1\n      pop\n      dup5\n      jump\t// out\n        /* \"contracts/MultiSigWalletWithDailyLimit.sol\":11025:11140  function getOwners()... */\n    tag_61:\n        /* \"contracts/MultiSigWalletWithDailyLimit.sol\":11095:11104  address[] */\n      tag_167\n      jump\t// in(tag_168)\n    tag_167:\n        /* \"contracts/MultiSigWalletWithDailyLimit.sol\":11127:11133  owners */\n      0x3\n        /* \"contracts/MultiSigWalletWithDailyLimit.sol\":11120:11133  return owners */\n      dup1\n      sload\n      dup1\n      0x20\n      mul\n      0x20\n      add\n      mload(0x40)\n      swap1\n      dup2\n      add\n      0x40\n      mstore\n      dup1\n      swap3\n      swap2\n      swap1\n      dup2\n      dup2\n      mstore\n      0x20\n      add\n      dup3\n      dup1\n      sload\n      dup1\n      iszero\n      tag_170\n      jumpi\n      0x20\n      mul\n      dup3\n      add\n      swap2\n      swap1\n      0x0\n      mstore\n      keccak256(0x0, 0x20)\n      swap1\n    tag_171:\n      dup2\n      0x0\n      swap1\n      sload\n      swap1\n      0x100\n      exp\n      swap1\n      div\n      0xffffffffffffffffffffffffffffffffffffffff\n      and\n      0xffffffffffffffffffffffffffffffffffffffff\n      and\n      dup2\n      mstore\n      0x20\n      add\n      swap1\n      0x1\n      add\n      swap1\n      dup1\n      dup4\n      gt\n      tag_171\n      jumpi\n    tag_170:\n      pop\n      pop\n      pop\n      pop\n      pop\n      swap1\n      pop\n        /* \"contracts/MultiSigWalletWithDailyLimit.sol\":11025:11140  function getOwners()... */\n    tag_169:\n      swap1\n      jump\t// out\n        /* \"contracts/MultiSigWalletWithDailyLimit.sol\":12243:12919  function getTransactionIds(uint from, uint to, bool pending, bool executed)... */\n    tag_67:\n        /* \"contracts/MultiSigWalletWithDailyLimit.sol\":12368:12390  uint[] _transactionIds */\n      tag_172\n      jump\t// in(tag_173)\n    tag_172:\n        /* \"contracts/MultiSigWalletWithDailyLimit.sol\":12406:12438  uint[] memory transactionIdsTemp */\n      tag_174\n      jump\t// in(tag_173)\n    tag_174:\n        /* \"contracts/MultiSigWalletWithDailyLimit.sol\":12479:12489  uint count */\n      0x0\n        /* \"contracts/MultiSigWalletWithDailyLimit.sol\":12503:12509  uint i */\n      dup1\n        /* \"contracts/MultiSigWalletWithDailyLimit.sol\":12452:12468  transactionCount */\n      sload(0x5)\n        /* \"contracts/MultiSigWalletWithDailyLimit.sol\":12441:12469  new uint[](transactionCount) */\n      mload(0x40)\n      dup1\n      msize\n      lt\n      tag_176\n      jumpi\n      pop\n      msize\n    tag_176:\n      swap1\n      dup1\n      dup3\n      mstore\n      dup1\n      0x20\n      mul\n      0x20\n      add\n      dup3\n      add\n      0x40\n      mstore\n    tag_177:\n      pop\n        /* \"contracts/MultiSigWalletWithDailyLimit.sol\":12406:12469  uint[] memory transactionIdsTemp = new uint[](transactionCount) */\n      swap3\n      pop\n        /* \"contracts/MultiSigWalletWithDailyLimit.sol\":12492:12493  0 */\n      0x0\n        /* \"contracts/MultiSigWalletWithDailyLimit.sol\":12479:12493  uint count = 0 */\n      swap2\n      pop\n        /* \"contracts/MultiSigWalletWithDailyLimit.sol\":12526:12527  0 */\n      0x0\n        /* \"contracts/MultiSigWalletWithDailyLimit.sol\":12524:12527  i=0 */\n      swap1\n      pop\n        /* \"contracts/MultiSigWalletWithDailyLimit.sol\":12519:12769  for (i=0; i<transactionCount; i++)... */\n    tag_178:\n        /* \"contracts/MultiSigWalletWithDailyLimit.sol\":12531:12547  transactionCount */\n      sload(0x5)\n        /* \"contracts/MultiSigWalletWithDailyLimit.sol\":12529:12530  i */\n      dup2\n        /* \"contracts/MultiSigWalletWithDailyLimit.sol\":12529:12547  i<transactionCount */\n      lt\n        /* \"contracts/MultiSigWalletWithDailyLimit.sol\":12519:12769  for (i=0; i<transactionCount; i++)... */\n      iszero\n      tag_179\n      jumpi\n        /* \"contracts/MultiSigWalletWithDailyLimit.sol\":12573:12580  pending */\n      dup6\n        /* \"contracts/MultiSigWalletWithDailyLimit.sol\":12573:12609  pending && !transactions[i].executed */\n      dup1\n      iszero\n      tag_181\n      jumpi\n      pop\n        /* \"contracts/MultiSigWalletWithDailyLimit.sol\":12585:12597  transactions */\n      0x0\n        /* \"contracts/MultiSigWalletWithDailyLimit.sol\":12585:12600  transactions[i] */\n      dup1\n        /* \"contracts/MultiSigWalletWithDailyLimit.sol\":12598:12599  i */\n      dup3\n        /* \"contracts/MultiSigWalletWithDailyLimit.sol\":12585:12600  transactions[i] */\n      dup2\n      mstore\n      0x20\n      add\n      swap1\n      dup2\n      mstore\n      0x20\n      add\n      0x0\n      keccak256\n        /* \"contracts/MultiSigWalletWithDailyLimit.sol\":12585:12609  transactions[i].executed */\n      0x3\n      add\n      0x0\n      swap1\n      sload\n      swap1\n      0x100\n      exp\n      swap1\n      div\n      0xff\n      and\n        /* \"contracts/MultiSigWalletWithDailyLimit.sol\":12584:12609  !transactions[i].executed */\n      iszero\n        /* \"contracts/MultiSigWalletWithDailyLimit.sol\":12573:12609  pending && !transactions[i].executed */\n    tag_181:\n        /* \"contracts/MultiSigWalletWithDailyLimit.sol\":12573:12665  pending && !transactions[i].executed... */\n      dup1\n      tag_182\n      jumpi\n      pop\n        /* \"contracts/MultiSigWalletWithDailyLimit.sol\":12629:12637  executed */\n      dup5\n        /* \"contracts/MultiSigWalletWithDailyLimit.sol\":12629:12665  executed && transactions[i].executed */\n      dup1\n      iszero\n      tag_183\n      jumpi\n      pop\n        /* \"contracts/MultiSigWalletWithDailyLimit.sol\":12641:12653  transactions */\n      0x0\n        /* \"contracts/MultiSigWalletWithDailyLimit.sol\":12641:12656  transactions[i] */\n      dup1\n        /* \"contracts/MultiSigWalletWithDailyLimit.sol\":12654:12655  i */\n      dup3\n        /* \"contracts/MultiSigWalletWithDailyLimit.sol\":12641:12656  transactions[i] */\n      dup2\n      mstore\n      0x20\n      add\n      swap1\n      dup2\n      mstore\n      0x20\n      add\n      0x0\n      keccak256\n        /* \"contracts/MultiSigWalletWithDailyLimit.sol\":12641:12665  transactions[i].executed */\n      0x3\n      add\n      0x0\n      swap1\n      sload\n      swap1\n      0x100\n      exp\n      swap1\n      div\n      0xff\n      and\n        /* \"contracts/MultiSigWalletWithDailyLimit.sol\":12629:12665  executed && transactions[i].executed */\n    tag_183:\n        /* \"contracts/MultiSigWalletWithDailyLimit.sol\":12573:12665  pending && !transactions[i].executed... */\n    tag_182:\n        /* \"contracts/MultiSigWalletWithDailyLimit.sol\":12566:12769  if (   pending && !transactions[i].executed... */\n      iszero\n      tag_184\n      jumpi\n        /* \"contracts/MultiSigWalletWithDailyLimit.sol\":12725:12726  i */\n      dup1\n        /* \"contracts/MultiSigWalletWithDailyLimit.sol\":12697:12715  transactionIdsTemp */\n      dup4\n        /* \"contracts/MultiSigWalletWithDailyLimit.sol\":12716:12721  count */\n      dup4\n        /* \"contracts/MultiSigWalletWithDailyLimit.sol\":12697:12722  transactionIdsTemp[count] */\n      dup2\n      mload\n      dup2\n      lt\n      iszero\n      iszero\n      tag_185\n      jumpi\n      invalid\n    tag_185:\n      swap1\n      0x20\n      add\n      swap1\n      0x20\n      mul\n      add\n        /* \"contracts/MultiSigWalletWithDailyLimit.sol\":12697:12726  transactionIdsTemp[count] = i */\n      dup2\n      dup2\n      mstore\n      pop\n      pop\n        /* \"contracts/MultiSigWalletWithDailyLimit.sol\":12753:12754  1 */\n      0x1\n        /* \"contracts/MultiSigWalletWithDailyLimit.sol\":12744:12754  count += 1 */\n      dup3\n      add\n      swap2\n      pop\n        /* \"contracts/MultiSigWalletWithDailyLimit.sol\":12566:12769  if (   pending && !transactions[i].executed... */\n    tag_184:\n        /* \"contracts/MultiSigWalletWithDailyLimit.sol\":12519:12769  for (i=0; i<transactionCount; i++)... */\n    tag_180:\n        /* \"contracts/MultiSigWalletWithDailyLimit.sol\":12549:12552  i++ */\n      dup1\n      dup1\n      0x1\n      add\n      swap2\n      pop\n      pop\n        /* \"contracts/MultiSigWalletWithDailyLimit.sol\":12519:12769  for (i=0; i<transactionCount; i++)... */\n      jump(tag_178)\n    tag_179:\n        /* \"contracts/MultiSigWalletWithDailyLimit.sol\":12812:12816  from */\n      dup8\n        /* \"contracts/MultiSigWalletWithDailyLimit.sol\":12807:12809  to */\n      dup8\n        /* \"contracts/MultiSigWalletWithDailyLimit.sol\":12807:12816  to - from */\n      sub\n        /* \"contracts/MultiSigWalletWithDailyLimit.sol\":12796:12817  new uint[](to - from) */\n      mload(0x40)\n      dup1\n      msize\n      lt\n      tag_186\n      jumpi\n      pop\n      msize\n    tag_186:\n      swap1\n      dup1\n      dup3\n      mstore\n      dup1\n      0x20\n      mul\n      0x20\n      add\n      dup3\n      add\n      0x40\n      mstore\n    tag_187:\n      pop\n        /* \"contracts/MultiSigWalletWithDailyLimit.sol\":12778:12817  _transactionIds = new uint[](to - from) */\n      swap4\n      pop\n        /* \"contracts/MultiSigWalletWithDailyLimit.sol\":12834:12838  from */\n      dup8\n        /* \"contracts/MultiSigWalletWithDailyLimit.sol\":12832:12838  i=from */\n      swap1\n      pop\n        /* \"contracts/MultiSigWalletWithDailyLimit.sol\":12827:12912  for (i=from; i<to; i++)... */\n    tag_188:\n        /* \"contracts/MultiSigWalletWithDailyLimit.sol\":12842:12844  to */\n      dup7\n        /* \"contracts/MultiSigWalletWithDailyLimit.sol\":12840:12841  i */\n      dup2\n        /* \"contracts/MultiSigWalletWithDailyLimit.sol\":12840:12844  i<to */\n      lt\n        /* \"contracts/MultiSigWalletWithDailyLimit.sol\":12827:12912  for (i=from; i<to; i++)... */\n      iszero\n      tag_189\n      jumpi\n        /* \"contracts/MultiSigWalletWithDailyLimit.sol\":12891:12909  transactionIdsTemp */\n      dup3\n        /* \"contracts/MultiSigWalletWithDailyLimit.sol\":12910:12911  i */\n      dup2\n        /* \"contracts/MultiSigWalletWithDailyLimit.sol\":12891:12912  transactionIdsTemp[i] */\n      dup2\n      mload\n      dup2\n      lt\n      iszero\n      iszero\n      tag_191\n      jumpi\n      invalid\n    tag_191:\n      swap1\n      0x20\n      add\n      swap1\n      0x20\n      mul\n      add\n      mload\n        /* \"contracts/MultiSigWalletWithDailyLimit.sol\":12863:12878  _transactionIds */\n      dup5\n        /* \"contracts/MultiSigWalletWithDailyLimit.sol\":12883:12887  from */\n      dup10\n        /* \"contracts/MultiSigWalletWithDailyLimit.sol\":12879:12880  i */\n      dup4\n        /* \"contracts/MultiSigWalletWithDailyLimit.sol\":12879:12887  i - from */\n      sub\n        /* \"contracts/MultiSigWalletWithDailyLimit.sol\":12863:12888  _transactionIds[i - from] */\n      dup2\n      mload\n      dup2\n      lt\n      iszero\n      iszero\n      tag_192\n      jumpi\n      invalid\n    tag_192:\n      swap1\n      0x20\n      add\n      swap1\n      0x20\n      mul\n      add\n        /* \"contracts/MultiSigWalletWithDailyLimit.sol\":12863:12912  _transactionIds[i - from] = transactionIdsTemp[i] */\n      dup2\n      dup2\n      mstore\n      pop\n      pop\n        /* \"contracts/MultiSigWalletWithDailyLimit.sol\":12827:12912  for (i=from; i<to; i++)... */\n    tag_190:\n        /* \"contracts/MultiSigWalletWithDailyLimit.sol\":12846:12849  i++ */\n      dup1\n      dup1\n      0x1\n      add\n      swap2\n      pop\n      pop\n        /* \"contracts/MultiSigWalletWithDailyLimit.sol\":12827:12912  for (i=from; i<to; i++)... */\n      jump(tag_188)\n    tag_189:\n        /* \"contracts/MultiSigWalletWithDailyLimit.sol\":12243:12919  function getTransactionIds(uint from, uint to, bool pending, bool executed)... */\n    tag_175:\n      pop\n      pop\n      pop\n      swap5\n      swap4\n      pop\n      pop\n      pop\n      pop\n      jump\t// out\n        /* \"contracts/MultiSigWalletWithDailyLimit.sol\":11319:11894  function getConfirmations(uint transactionId)... */\n    tag_73:\n        /* \"contracts/MultiSigWalletWithDailyLimit.sol\":11414:11438  address[] _confirmations */\n      tag_193\n      jump\t// in(tag_168)\n    tag_193:\n        /* \"contracts/MultiSigWalletWithDailyLimit.sol\":11454:11488  address[] memory confirmationsTemp */\n      tag_194\n      jump\t// in(tag_168)\n    tag_194:\n        /* \"contracts/MultiSigWalletWithDailyLimit.sol\":11529:11539  uint count */\n      0x0\n        /* \"contracts/MultiSigWalletWithDailyLimit.sol\":11553:11559  uint i */\n      dup1\n        /* \"contracts/MultiSigWalletWithDailyLimit.sol\":11505:11511  owners */\n      0x3\n        /* \"contracts/MultiSigWalletWithDailyLimit.sol\":11505:11518  owners.length */\n      dup1\n      sload\n      swap1\n      pop\n        /* \"contracts/MultiSigWalletWithDailyLimit.sol\":11491:11519  new address[](owners.length) */\n      mload(0x40)\n      dup1\n      msize\n      lt\n      tag_196\n      jumpi\n      pop\n      msize\n    tag_196:\n      swap1\n      dup1\n      dup3\n      mstore\n      dup1\n      0x20\n      mul\n      0x20\n      add\n      dup3\n      add\n      0x40\n      mstore\n    tag_197:\n      pop\n        /* \"contracts/MultiSigWalletWithDailyLimit.sol\":11454:11519  address[] memory confirmationsTemp = new address[](owners.length) */\n      swap3\n      pop\n        /* \"contracts/MultiSigWalletWithDailyLimit.sol\":11542:11543  0 */\n      0x0\n        /* \"contracts/MultiSigWalletWithDailyLimit.sol\":11529:11543  uint count = 0 */\n      swap2\n      pop\n        /* \"contracts/MultiSigWalletWithDailyLimit.sol\":11576:11577  0 */\n      0x0\n        /* \"contracts/MultiSigWalletWithDailyLimit.sol\":11574:11577  i=0 */\n      swap1\n      pop\n        /* \"contracts/MultiSigWalletWithDailyLimit.sol\":11569:11755  for (i=0; i<owners.length; i++)... */\n    tag_198:\n        /* \"contracts/MultiSigWalletWithDailyLimit.sol\":11581:11587  owners */\n      0x3\n        /* \"contracts/MultiSigWalletWithDailyLimit.sol\":11581:11594  owners.length */\n      dup1\n      sload\n      swap1\n      pop\n        /* \"contracts/MultiSigWalletWithDailyLimit.sol\":11579:11580  i */\n      dup2\n        /* \"contracts/MultiSigWalletWithDailyLimit.sol\":11579:11594  i<owners.length */\n      lt\n        /* \"contracts/MultiSigWalletWithDailyLimit.sol\":11569:11755  for (i=0; i<owners.length; i++)... */\n      iszero\n      tag_199\n      jumpi\n        /* \"contracts/MultiSigWalletWithDailyLimit.sol\":11617:11630  confirmations */\n      0x1\n        /* \"contracts/MultiSigWalletWithDailyLimit.sol\":11617:11645  confirmations[transactionId] */\n      0x0\n        /* \"contracts/MultiSigWalletWithDailyLimit.sol\":11631:11644  transactionId */\n      dup7\n        /* \"contracts/MultiSigWalletWithDailyLimit.sol\":11617:11645  confirmations[transactionId] */\n      dup2\n      mstore\n      0x20\n      add\n      swap1\n      dup2\n      mstore\n      0x20\n      add\n      0x0\n      keccak256\n        /* \"contracts/MultiSigWalletWithDailyLimit.sol\":11617:11656  confirmations[transactionId][owners[i]] */\n      0x0\n        /* \"contracts/MultiSigWalletWithDailyLimit.sol\":11646:11652  owners */\n      0x3\n        /* \"contracts/MultiSigWalletWithDailyLimit.sol\":11653:11654  i */\n      dup4\n        /* \"contracts/MultiSigWalletWithDailyLimit.sol\":11646:11655  owners[i] */\n      dup2\n      sload\n      dup2\n      lt\n      iszero\n      iszero\n      tag_201\n      jumpi\n      invalid\n    tag_201:\n      swap1\n      0x0\n      mstore\n      keccak256(0x0, 0x20)\n      swap1\n      add\n      0x0\n    tag_202:\n      swap1\n      sload\n      swap1\n      0x100\n      exp\n      swap1\n      div\n      0xffffffffffffffffffffffffffffffffffffffff\n      and\n        /* \"contracts/MultiSigWalletWithDailyLimit.sol\":11617:11656  confirmations[transactionId][owners[i]] */\n      0xffffffffffffffffffffffffffffffffffffffff\n      and\n      0xffffffffffffffffffffffffffffffffffffffff\n      and\n      dup2\n      mstore\n      0x20\n      add\n      swap1\n      dup2\n      mstore\n      0x20\n      add\n      0x0\n      keccak256\n      0x0\n      swap1\n      sload\n      swap1\n      0x100\n      exp\n      swap1\n      div\n      0xff\n      and\n        /* \"contracts/MultiSigWalletWithDailyLimit.sol\":11613:11755  if (confirmations[transactionId][owners[i]]) {... */\n      iszero\n      tag_203\n      jumpi\n        /* \"contracts/MultiSigWalletWithDailyLimit.sol\":11703:11709  owners */\n      0x3\n        /* \"contracts/MultiSigWalletWithDailyLimit.sol\":11710:11711  i */\n      dup2\n        /* \"contracts/MultiSigWalletWithDailyLimit.sol\":11703:11712  owners[i] */\n      dup2\n      sload\n      dup2\n      lt\n      iszero\n      iszero\n      tag_204\n      jumpi\n      invalid\n    tag_204:\n      swap1\n      0x0\n      mstore\n      keccak256(0x0, 0x20)\n      swap1\n      add\n      0x0\n    tag_205:\n      swap1\n      sload\n      swap1\n      0x100\n      exp\n      swap1\n      div\n      0xffffffffffffffffffffffffffffffffffffffff\n      and\n        /* \"contracts/MultiSigWalletWithDailyLimit.sol\":11676:11693  confirmationsTemp */\n      dup4\n        /* \"contracts/MultiSigWalletWithDailyLimit.sol\":11694:11699  count */\n      dup4\n        /* \"contracts/MultiSigWalletWithDailyLimit.sol\":11676:11700  confirmationsTemp[count] */\n      dup2\n      mload\n      dup2\n      lt\n      iszero\n      iszero\n      tag_206\n      jumpi\n      invalid\n    tag_206:\n      swap1\n      0x20\n      add\n      swap1\n      0x20\n      mul\n      add\n        /* \"contracts/MultiSigWalletWithDailyLimit.sol\":11676:11712  confirmationsTemp[count] = owners[i] */\n      swap1\n      0xffffffffffffffffffffffffffffffffffffffff\n      and\n      swap1\n      dup2\n      0xffffffffffffffffffffffffffffffffffffffff\n      and\n      dup2\n      mstore\n      pop\n      pop\n        /* \"contracts/MultiSigWalletWithDailyLimit.sol\":11739:11740  1 */\n      0x1\n        /* \"contracts/MultiSigWalletWithDailyLimit.sol\":11730:11740  count += 1 */\n      dup3\n      add\n      swap2\n      pop\n        /* \"contracts/MultiSigWalletWithDailyLimit.sol\":11613:11755  if (confirmations[transactionId][owners[i]]) {... */\n    tag_203:\n        /* \"contracts/MultiSigWalletWithDailyLimit.sol\":11569:11755  for (i=0; i<owners.length; i++)... */\n    tag_200:\n        /* \"contracts/MultiSigWalletWithDailyLimit.sol\":11596:11599  i++ */\n      dup1\n      dup1\n      0x1\n      add\n      swap2\n      pop\n      pop\n        /* \"contracts/MultiSigWalletWithDailyLimit.sol\":11569:11755  for (i=0; i<owners.length; i++)... */\n      jump(tag_198)\n    tag_199:\n        /* \"contracts/MultiSigWalletWithDailyLimit.sol\":11795:11800  count */\n      dup2\n        /* \"contracts/MultiSigWalletWithDailyLimit.sol\":11781:11801  new address[](count) */\n      mload(0x40)\n      dup1\n      msize\n      lt\n      tag_207\n      jumpi\n      pop\n      msize\n    tag_207:\n      swap1\n      dup1\n      dup3\n      mstore\n      dup1\n      0x20\n      mul\n      0x20\n      add\n      dup3\n      add\n      0x40\n      mstore\n    tag_208:\n      pop\n        /* \"contracts/MultiSigWalletWithDailyLimit.sol\":11764:11801  _confirmations = new address[](count) */\n      swap4\n      pop\n        /* \"contracts/MultiSigWalletWithDailyLimit.sol\":11818:11819  0 */\n      0x0\n        /* \"contracts/MultiSigWalletWithDailyLimit.sol\":11816:11819  i=0 */\n      swap1\n      pop\n        /* \"contracts/MultiSigWalletWithDailyLimit.sol\":11811:11887  for (i=0; i<count; i++)... */\n    tag_209:\n        /* \"contracts/MultiSigWalletWithDailyLimit.sol\":11823:11828  count */\n      dup2\n        /* \"contracts/MultiSigWalletWithDailyLimit.sol\":11821:11822  i */\n      dup2\n        /* \"contracts/MultiSigWalletWithDailyLimit.sol\":11821:11828  i<count */\n      lt\n        /* \"contracts/MultiSigWalletWithDailyLimit.sol\":11811:11887  for (i=0; i<count; i++)... */\n      iszero\n      tag_210\n      jumpi\n        /* \"contracts/MultiSigWalletWithDailyLimit.sol\":11867:11884  confirmationsTemp */\n      dup3\n        /* \"contracts/MultiSigWalletWithDailyLimit.sol\":11885:11886  i */\n      dup2\n        /* \"contracts/MultiSigWalletWithDailyLimit.sol\":11867:11887  confirmationsTemp[i] */\n      dup2\n      mload\n      dup2\n      lt\n      iszero\n      iszero\n      tag_212\n      jumpi\n      invalid\n    tag_212:\n      swap1\n      0x20\n      add\n      swap1\n      0x20\n      mul\n      add\n      mload\n        /* \"contracts/MultiSigWalletWithDailyLimit.sol\":11847:11861  _confirmations */\n      dup5\n        /* \"contracts/MultiSigWalletWithDailyLimit.sol\":11862:11863  i */\n      dup3\n        /* \"contracts/MultiSigWalletWithDailyLimit.sol\":11847:11864  _confirmations[i] */\n      dup2\n      mload\n      dup2\n      lt\n      iszero\n      iszero\n      tag_213\n      jumpi\n      invalid\n    tag_213:\n      swap1\n      0x20\n      add\n      swap1\n      0x20\n      mul\n      add\n        /* \"contracts/MultiSigWalletWithDailyLimit.sol\":11847:11887  _confirmations[i] = confirmationsTemp[i] */\n      swap1\n      0xffffffffffffffffffffffffffffffffffffffff\n      and\n      swap1\n      dup2\n      0xffffffffffffffffffffffffffffffffffffffff\n      and\n      dup2\n      mstore\n      pop\n      pop\n        /* \"contracts/MultiSigWalletWithDailyLimit.sol\":11811:11887  for (i=0; i<count; i++)... */\n    tag_211:\n        /* \"contracts/MultiSigWalletWithDailyLimit.sol\":11830:11833  i++ */\n      dup1\n      dup1\n      0x1\n      add\n      swap2\n      pop\n      pop\n        /* \"contracts/MultiSigWalletWithDailyLimit.sol\":11811:11887  for (i=0; i<count; i++)... */\n      jump(tag_209)\n    tag_210:\n        /* \"contracts/MultiSigWalletWithDailyLimit.sol\":11319:11894  function getConfirmations(uint transactionId)... */\n    tag_195:\n      pop\n      pop\n      pop\n      swap2\n      swap1\n      pop\n      jump\t// out\n        /* \"contracts/MultiSigWalletWithDailyLimit.sol\":1192:1220  uint public transactionCount */\n    tag_79:\n      sload(0x5)\n      dup2\n      jump\t// out\n        /* \"contracts/MultiSigWalletWithDailyLimit.sol\":5084:5291  function changeRequirement(uint _required)... */\n    tag_82:\n        /* \"contracts/MultiSigWalletWithDailyLimit.sol\":1446:1450  this */\n      address\n        /* \"contracts/MultiSigWalletWithDailyLimit.sol\":1424:1451  msg.sender == address(this) */\n      0xffffffffffffffffffffffffffffffffffffffff\n      and\n        /* \"contracts/MultiSigWalletWithDailyLimit.sol\":1424:1434  msg.sender */\n      caller\n        /* \"contracts/MultiSigWalletWithDailyLimit.sol\":1424:1451  msg.sender == address(this) */\n      0xffffffffffffffffffffffffffffffffffffffff\n      and\n      eq\n        /* \"contracts/MultiSigWalletWithDailyLimit.sol\":1416:1452  require(msg.sender == address(this)) */\n      iszero\n      iszero\n      tag_215\n      jumpi\n      0x0\n      dup1\n      revert\n    tag_215:\n        /* \"contracts/MultiSigWalletWithDailyLimit.sol\":5186:5192  owners */\n      0x3\n        /* \"contracts/MultiSigWalletWithDailyLimit.sol\":5186:5199  owners.length */\n      dup1\n      sload\n      swap1\n      pop\n        /* \"contracts/MultiSigWalletWithDailyLimit.sol\":5201:5210  _required */\n      dup2\n        /* \"contracts/MultiSigWalletWithDailyLimit.sol\":926:928  50 */\n      0x32\n        /* \"contracts/MultiSigWalletWithDailyLimit.sol\":2360:2370  ownerCount */\n      dup3\n        /* \"contracts/MultiSigWalletWithDailyLimit.sol\":2360:2389  ownerCount <= MAX_OWNER_COUNT */\n      gt\n      iszero\n        /* \"contracts/MultiSigWalletWithDailyLimit.sol\":2360:2428  ownerCount <= MAX_OWNER_COUNT... */\n      dup1\n      iszero\n      tag_217\n      jumpi\n      pop\n        /* \"contracts/MultiSigWalletWithDailyLimit.sol\":2418:2428  ownerCount */\n      dup2\n        /* \"contracts/MultiSigWalletWithDailyLimit.sol\":2405:2414  _required */\n      dup2\n        /* \"contracts/MultiSigWalletWithDailyLimit.sol\":2405:2428  _required <= ownerCount */\n      gt\n      iszero\n        /* \"contracts/MultiSigWalletWithDailyLimit.sol\":2360:2428  ownerCount <= MAX_OWNER_COUNT... */\n    tag_217:\n        /* \"contracts/MultiSigWalletWithDailyLimit.sol\":2360:2458  ownerCount <= MAX_OWNER_COUNT... */\n      dup1\n      iszero\n      tag_218\n      jumpi\n      pop\n        /* \"contracts/MultiSigWalletWithDailyLimit.sol\":2457:2458  0 */\n      0x0\n        /* \"contracts/MultiSigWalletWithDailyLimit.sol\":2444:2453  _required */\n      dup2\n        /* \"contracts/MultiSigWalletWithDailyLimit.sol\":2444:2458  _required != 0 */\n      eq\n      iszero\n        /* \"contracts/MultiSigWalletWithDailyLimit.sol\":2360:2458  ownerCount <= MAX_OWNER_COUNT... */\n    tag_218:\n        /* \"contracts/MultiSigWalletWithDailyLimit.sol\":2360:2489  ownerCount <= MAX_OWNER_COUNT... */\n      dup1\n      iszero\n      tag_219\n      jumpi\n      pop\n        /* \"contracts/MultiSigWalletWithDailyLimit.sol\":2488:2489  0 */\n      0x0\n        /* \"contracts/MultiSigWalletWithDailyLimit.sol\":2474:2484  ownerCount */\n      dup3\n        /* \"contracts/MultiSigWalletWithDailyLimit.sol\":2474:2489  ownerCount != 0 */\n      eq\n      iszero\n        /* \"contracts/MultiSigWalletWithDailyLimit.sol\":2360:2489  ownerCount <= MAX_OWNER_COUNT... */\n    tag_219:\n        /* \"contracts/MultiSigWalletWithDailyLimit.sol\":2352:2490  require(ownerCount <= MAX_OWNER_COUNT... */\n      iszero\n      iszero\n      tag_220\n      jumpi\n      0x0\n      dup1\n      revert\n    tag_220:\n        /* \"contracts/MultiSigWalletWithDailyLimit.sol\":5237:5246  _required */\n      dup3\n        /* \"contracts/MultiSigWalletWithDailyLimit.sol\":5226:5234  required */\n      0x4\n        /* \"contracts/MultiSigWalletWithDailyLimit.sol\":5226:5246  required = _required */\n      dup2\n      swap1\n      sstore\n      pop\n        /* \"contracts/MultiSigWalletWithDailyLimit.sol\":5256:5284  RequirementChange(_required) */\n      0xa3f1ee9126a074d9326c682f561767f710e927faa811f7a99829d49dc421797a\n        /* \"contracts/MultiSigWalletWithDailyLimit.sol\":5274:5283  _required */\n      dup4\n        /* \"contracts/MultiSigWalletWithDailyLimit.sol\":5256:5284  RequirementChange(_required) */\n      mload(0x40)\n      dup1\n      dup3\n      dup2\n      mstore\n      0x20\n      add\n      swap2\n      pop\n      pop\n      mload(0x40)\n      dup1\n      swap2\n      sub\n      swap1\n      log1\n        /* \"contracts/MultiSigWalletWithDailyLimit.sol\":2500:2501  _ */\n    tag_221:\n        /* \"contracts/MultiSigWalletWithDailyLimit.sol\":1462:1463  _ */\n    tag_216:\n      pop\n      pop\n        /* \"contracts/MultiSigWalletWithDailyLimit.sol\":5084:5291  function changeRequirement(uint _required)... */\n    tag_214:\n      pop\n      jump\t// out\n        /* \"contracts/MultiSigWalletWithDailyLimit.sol\":5900:6244  function confirmTransaction(uint transactionId)... */\n    tag_85:\n        /* \"contracts/MultiSigWalletWithDailyLimit.sol\":5983:5993  msg.sender */\n      caller\n        /* \"contracts/MultiSigWalletWithDailyLimit.sol\":1630:1637  isOwner */\n      0x2\n        /* \"contracts/MultiSigWalletWithDailyLimit.sol\":1630:1644  isOwner[owner] */\n      0x0\n        /* \"contracts/MultiSigWalletWithDailyLimit.sol\":1638:1643  owner */\n      dup3\n        /* \"contracts/MultiSigWalletWithDailyLimit.sol\":1630:1644  isOwner[owner] */\n      0xffffffffffffffffffffffffffffffffffffffff\n      and\n      0xffffffffffffffffffffffffffffffffffffffff\n      and\n      dup2\n      mstore\n      0x20\n      add\n      swap1\n      dup2\n      mstore\n      0x20\n      add\n      0x0\n      keccak256\n      0x0\n      swap1\n      sload\n      swap1\n      0x100\n      exp\n      swap1\n      div\n      0xff\n      and\n        /* \"contracts/MultiSigWalletWithDailyLimit.sol\":1622:1645  require(isOwner[owner]) */\n      iszero\n      iszero\n      tag_223\n      jumpi\n      0x0\n      dup1\n      revert\n    tag_223:\n        /* \"contracts/MultiSigWalletWithDailyLimit.sol\":6021:6034  transactionId */\n      dup2\n        /* \"contracts/MultiSigWalletWithDailyLimit.sol\":1777:1778  0 */\n      0x0\n        /* \"contracts/MultiSigWalletWithDailyLimit.sol\":1734:1746  transactions */\n      dup1\n        /* \"contracts/MultiSigWalletWithDailyLimit.sol\":1734:1761  transactions[transactionId] */\n      0x0\n        /* \"contracts/MultiSigWalletWithDailyLimit.sol\":1747:1760  transactionId */\n      dup4\n        /* \"contracts/MultiSigWalletWithDailyLimit.sol\":1734:1761  transactions[transactionId] */\n      dup2\n      mstore\n      0x20\n      add\n      swap1\n      dup2\n      mstore\n      0x20\n      add\n      0x0\n      keccak256\n        /* \"contracts/MultiSigWalletWithDailyLimit.sol\":1734:1773  transactions[transactionId].destination */\n      0x0\n      add\n      0x0\n      swap1\n      sload\n      swap1\n      0x100\n      exp\n      swap1\n      div\n      0xffffffffffffffffffffffffffffffffffffffff\n      and\n        /* \"contracts/MultiSigWalletWithDailyLimit.sol\":1734:1778  transactions[transactionId].destination != 0 */\n      0xffffffffffffffffffffffffffffffffffffffff\n      and\n      eq\n      iszero\n        /* \"contracts/MultiSigWalletWithDailyLimit.sol\":1726:1779  require(transactions[transactionId].destination != 0) */\n      iszero\n      iszero\n      tag_225\n      jumpi\n      0x0\n      dup1\n      revert\n    tag_225:\n        /* \"contracts/MultiSigWalletWithDailyLimit.sol\":6057:6070  transactionId */\n      dup3\n        /* \"contracts/MultiSigWalletWithDailyLimit.sol\":6072:6082  msg.sender */\n      caller\n        /* \"contracts/MultiSigWalletWithDailyLimit.sol\":2011:2024  confirmations */\n      0x1\n        /* \"contracts/MultiSigWalletWithDailyLimit.sol\":2011:2039  confirmations[transactionId] */\n      0x0\n        /* \"contracts/MultiSigWalletWithDailyLimit.sol\":2025:2038  transactionId */\n      dup4\n        /* \"contracts/MultiSigWalletWithDailyLimit.sol\":2011:2039  confirmations[transactionId] */\n      dup2\n      mstore\n      0x20\n      add\n      swap1\n      dup2\n      mstore\n      0x20\n      add\n      0x0\n      keccak256\n        /* \"contracts/MultiSigWalletWithDailyLimit.sol\":2011:2046  confirmations[transactionId][owner] */\n      0x0\n        /* \"contracts/MultiSigWalletWithDailyLimit.sol\":2040:2045  owner */\n      dup3\n        /* \"contracts/MultiSigWalletWithDailyLimit.sol\":2011:2046  confirmations[transactionId][owner] */\n      0xffffffffffffffffffffffffffffffffffffffff\n      and\n      0xffffffffffffffffffffffffffffffffffffffff\n      and\n      dup2\n      mstore\n      0x20\n      add\n      swap1\n      dup2\n      mstore\n      0x20\n      add\n      0x0\n      keccak256\n      0x0\n      swap1\n      sload\n      swap1\n      0x100\n      exp\n      swap1\n      div\n      0xff\n      and\n        /* \"contracts/MultiSigWalletWithDailyLimit.sol\":2010:2046  !confirmations[transactionId][owner] */\n      iszero\n        /* \"contracts/MultiSigWalletWithDailyLimit.sol\":2002:2047  require(!confirmations[transactionId][owner]) */\n      iszero\n      iszero\n      tag_227\n      jumpi\n      0x0\n      dup1\n      revert\n    tag_227:\n        /* \"contracts/MultiSigWalletWithDailyLimit.sol\":6141:6145  true */\n      0x1\n        /* \"contracts/MultiSigWalletWithDailyLimit.sol\":6098:6111  confirmations */\n      dup1\n        /* \"contracts/MultiSigWalletWithDailyLimit.sol\":6098:6126  confirmations[transactionId] */\n      0x0\n        /* \"contracts/MultiSigWalletWithDailyLimit.sol\":6112:6125  transactionId */\n      dup8\n        /* \"contracts/MultiSigWalletWithDailyLimit.sol\":6098:6126  confirmations[transactionId] */\n      dup2\n      mstore\n      0x20\n      add\n      swap1\n      dup2\n      mstore\n      0x20\n      add\n      0x0\n      keccak256\n        /* \"contracts/MultiSigWalletWithDailyLimit.sol\":6098:6138  confirmations[transactionId][msg.sender] */\n      0x0\n        /* \"contracts/MultiSigWalletWithDailyLimit.sol\":6127:6137  msg.sender */\n      caller\n        /* \"contracts/MultiSigWalletWithDailyLimit.sol\":6098:6138  confirmations[transactionId][msg.sender] */\n      0xffffffffffffffffffffffffffffffffffffffff\n      and\n      0xffffffffffffffffffffffffffffffffffffffff\n      and\n      dup2\n      mstore\n      0x20\n      add\n      swap1\n      dup2\n      mstore\n      0x20\n      add\n      0x0\n      keccak256\n      0x0\n        /* \"contracts/MultiSigWalletWithDailyLimit.sol\":6098:6145  confirmations[transactionId][msg.sender] = true */\n      0x100\n      exp\n      dup2\n      sload\n      dup2\n      0xff\n      mul\n      not\n      and\n      swap1\n      dup4\n      iszero\n      iszero\n      mul\n      or\n      swap1\n      sstore\n      pop\n        /* \"contracts/MultiSigWalletWithDailyLimit.sol\":6180:6193  transactionId */\n      dup5\n        /* \"contracts/MultiSigWalletWithDailyLimit.sol\":6168:6178  msg.sender */\n      caller\n        /* \"contracts/MultiSigWalletWithDailyLimit.sol\":6155:6194  Confirmation(msg.sender, transactionId) */\n      0xffffffffffffffffffffffffffffffffffffffff\n      and\n      0x4a504a94899432a9846e1aa406dceb1bcfd538bb839071d49d1e5e23f5be30ef\n      mload(0x40)\n      mload(0x40)\n      dup1\n      swap2\n      sub\n      swap1\n      log3\n        /* \"contracts/MultiSigWalletWithDailyLimit.sol\":6204:6237  executeTransaction(transactionId) */\n      tag_229\n        /* \"contracts/MultiSigWalletWithDailyLimit.sol\":6223:6236  transactionId */\n      dup6\n        /* \"contracts/MultiSigWalletWithDailyLimit.sol\":6204:6222  executeTransaction */\n      tag_100\n        /* \"contracts/MultiSigWalletWithDailyLimit.sol\":6204:6237  executeTransaction(transactionId) */\n      jump\t// in\n    tag_229:\n        /* \"contracts/MultiSigWalletWithDailyLimit.sol\":2057:2058  _ */\n    tag_228:\n        /* \"contracts/MultiSigWalletWithDailyLimit.sol\":1789:1790  _ */\n    tag_226:\n      pop\n      pop\n        /* \"contracts/MultiSigWalletWithDailyLimit.sol\":1655:1656  _ */\n    tag_224:\n      pop\n        /* \"contracts/MultiSigWalletWithDailyLimit.sol\":5900:6244  function confirmTransaction(uint transactionId)... */\n    tag_222:\n      pop\n      pop\n      jump\t// out\n        /* \"contracts/MultiSigWalletWithDailyLimit.sol\":5550:5794  function submitTransaction(address destination, uint value, bytes data)... */\n    tag_88:\n        /* \"contracts/MultiSigWalletWithDailyLimit.sol\":5654:5672  uint transactionId */\n      0x0\n        /* \"contracts/MultiSigWalletWithDailyLimit.sol\":5704:5744  addTransaction(destination, value, data) */\n      tag_231\n        /* \"contracts/MultiSigWalletWithDailyLimit.sol\":5719:5730  destination */\n      dup5\n        /* \"contracts/MultiSigWalletWithDailyLimit.sol\":5732:5737  value */\n      dup5\n        /* \"contracts/MultiSigWalletWithDailyLimit.sol\":5739:5743  data */\n      dup5\n        /* \"contracts/MultiSigWalletWithDailyLimit.sol\":5704:5718  addTransaction */\n      tag_232\n        /* \"contracts/MultiSigWalletWithDailyLimit.sol\":5704:5744  addTransaction(destination, value, data) */\n      jump\t// in\n    tag_231:\n        /* \"contracts/MultiSigWalletWithDailyLimit.sol\":5688:5744  transactionId = addTransaction(destination, value, data) */\n      swap1\n      pop\n        /* \"contracts/MultiSigWalletWithDailyLimit.sol\":5754:5787  confirmTransaction(transactionId) */\n      tag_233\n        /* \"contracts/MultiSigWalletWithDailyLimit.sol\":5773:5786  transactionId */\n      dup2\n        /* \"contracts/MultiSigWalletWithDailyLimit.sol\":5754:5772  confirmTransaction */\n      tag_85\n        /* \"contracts/MultiSigWalletWithDailyLimit.sol\":5754:5787  confirmTransaction(transactionId) */\n      jump\t// in\n    tag_233:\n        /* \"contracts/MultiSigWalletWithDailyLimit.sol\":5550:5794  function submitTransaction(address destination, uint value, bytes data)... */\n    tag_230:\n      swap4\n      swap3\n      pop\n      pop\n      pop\n      jump\t// out\n        /* \"contracts/MultiSigWalletWithDailyLimit.sol\":887:928  uint constant public MAX_OWNER_COUNT = 50 */\n    tag_91:\n        /* \"contracts/MultiSigWalletWithDailyLimit.sol\":926:928  50 */\n      0x32\n        /* \"contracts/MultiSigWalletWithDailyLimit.sol\":887:928  uint constant public MAX_OWNER_COUNT = 50 */\n      dup2\n      jump\t// out\n        /* \"contracts/MultiSigWalletWithDailyLimit.sol\":1166:1186  uint public required */\n    tag_94:\n      sload(0x4)\n      dup2\n      jump\t// out\n        /* \"contracts/MultiSigWalletWithDailyLimit.sol\":4464:4913  function replaceOwner(address owner, address newOwner)... */\n    tag_97:\n        /* \"contracts/MultiSigWalletWithDailyLimit.sol\":4635:4641  uint i */\n      0x0\n        /* \"contracts/MultiSigWalletWithDailyLimit.sol\":1446:1450  this */\n      address\n        /* \"contracts/MultiSigWalletWithDailyLimit.sol\":1424:1451  msg.sender == address(this) */\n      0xffffffffffffffffffffffffffffffffffffffff\n      and\n        /* \"contracts/MultiSigWalletWithDailyLimit.sol\":1424:1434  msg.sender */\n      caller\n        /* \"contracts/MultiSigWalletWithDailyLimit.sol\":1424:1451  msg.sender == address(this) */\n      0xffffffffffffffffffffffffffffffffffffffff\n      and\n      eq\n        /* \"contracts/MultiSigWalletWithDailyLimit.sol\":1416:1452  require(msg.sender == address(this)) */\n      iszero\n      iszero\n      tag_235\n      jumpi\n      0x0\n      dup1\n      revert\n    tag_235:\n        /* \"contracts/MultiSigWalletWithDailyLimit.sol\":4573:4578  owner */\n      dup3\n        /* \"contracts/MultiSigWalletWithDailyLimit.sol\":1630:1637  isOwner */\n      0x2\n        /* \"contracts/MultiSigWalletWithDailyLimit.sol\":1630:1644  isOwner[owner] */\n      0x0\n        /* \"contracts/MultiSigWalletWithDailyLimit.sol\":1638:1643  owner */\n      dup3\n        /* \"contracts/MultiSigWalletWithDailyLimit.sol\":1630:1644  isOwner[owner] */\n      0xffffffffffffffffffffffffffffffffffffffff\n      and\n      0xffffffffffffffffffffffffffffffffffffffff\n      and\n      dup2\n      mstore\n      0x20\n      add\n      swap1\n      dup2\n      mstore\n      0x20\n      add\n      0x0\n      keccak256\n      0x0\n      swap1\n      sload\n      swap1\n      0x100\n      exp\n      swap1\n      div\n      0xff\n      and\n        /* \"contracts/MultiSigWalletWithDailyLimit.sol\":1622:1645  require(isOwner[owner]) */\n      iszero\n      iszero\n      tag_237\n      jumpi\n      0x0\n      dup1\n      revert\n    tag_237:\n        /* \"contracts/MultiSigWalletWithDailyLimit.sol\":4606:4614  newOwner */\n      dup3\n        /* \"contracts/MultiSigWalletWithDailyLimit.sol\":1537:1544  isOwner */\n      0x2\n        /* \"contracts/MultiSigWalletWithDailyLimit.sol\":1537:1551  isOwner[owner] */\n      0x0\n        /* \"contracts/MultiSigWalletWithDailyLimit.sol\":1545:1550  owner */\n      dup3\n        /* \"contracts/MultiSigWalletWithDailyLimit.sol\":1537:1551  isOwner[owner] */\n      0xffffffffffffffffffffffffffffffffffffffff\n      and\n      0xffffffffffffffffffffffffffffffffffffffff\n      and\n      dup2\n      mstore\n      0x20\n      add\n      swap1\n      dup2\n      mstore\n      0x20\n      add\n      0x0\n      keccak256\n      0x0\n      swap1\n      sload\n      swap1\n      0x100\n      exp\n      swap1\n      div\n      0xff\n      and\n        /* \"contracts/MultiSigWalletWithDailyLimit.sol\":1536:1551  !isOwner[owner] */\n      iszero\n        /* \"contracts/MultiSigWalletWithDailyLimit.sol\":1528:1552  require(!isOwner[owner]) */\n      iszero\n      iszero\n      tag_239\n      jumpi\n      0x0\n      dup1\n      revert\n    tag_239:\n        /* \"contracts/MultiSigWalletWithDailyLimit.sol\":4642:4643  0 */\n      0x0\n        /* \"contracts/MultiSigWalletWithDailyLimit.sol\":4635:4643  uint i=0 */\n      swap3\n      pop\n        /* \"contracts/MultiSigWalletWithDailyLimit.sol\":4630:4779  for (uint i=0; i<owners.length; i++)... */\n    tag_241:\n        /* \"contracts/MultiSigWalletWithDailyLimit.sol\":4647:4653  owners */\n      0x3\n        /* \"contracts/MultiSigWalletWithDailyLimit.sol\":4647:4660  owners.length */\n      dup1\n      sload\n      swap1\n      pop\n        /* \"contracts/MultiSigWalletWithDailyLimit.sol\":4645:4646  i */\n      dup4\n        /* \"contracts/MultiSigWalletWithDailyLimit.sol\":4645:4660  i<owners.length */\n      lt\n        /* \"contracts/MultiSigWalletWithDailyLimit.sol\":4630:4779  for (uint i=0; i<owners.length; i++)... */\n      iszero\n      tag_242\n      jumpi\n        /* \"contracts/MultiSigWalletWithDailyLimit.sol\":4696:4701  owner */\n      dup5\n        /* \"contracts/MultiSigWalletWithDailyLimit.sol\":4683:4701  owners[i] == owner */\n      0xffffffffffffffffffffffffffffffffffffffff\n      and\n        /* \"contracts/MultiSigWalletWithDailyLimit.sol\":4683:4689  owners */\n      0x3\n        /* \"contracts/MultiSigWalletWithDailyLimit.sol\":4690:4691  i */\n      dup5\n        /* \"contracts/MultiSigWalletWithDailyLimit.sol\":4683:4692  owners[i] */\n      dup2\n      sload\n      dup2\n      lt\n      iszero\n      iszero\n      tag_244\n      jumpi\n      invalid\n    tag_244:\n      swap1\n      0x0\n      mstore\n      keccak256(0x0, 0x20)\n      swap1\n      add\n      0x0\n    tag_245:\n      swap1\n      sload\n      swap1\n      0x100\n      exp\n      swap1\n      div\n      0xffffffffffffffffffffffffffffffffffffffff\n      and\n        /* \"contracts/MultiSigWalletWithDailyLimit.sol\":4683:4701  owners[i] == owner */\n      0xffffffffffffffffffffffffffffffffffffffff\n      and\n      eq\n        /* \"contracts/MultiSigWalletWithDailyLimit.sol\":4679:4779  if (owners[i] == owner) {... */\n      iszero\n      tag_246\n      jumpi\n        /* \"contracts/MultiSigWalletWithDailyLimit.sol\":4733:4741  newOwner */\n      dup4\n        /* \"contracts/MultiSigWalletWithDailyLimit.sol\":4721:4727  owners */\n      0x3\n        /* \"contracts/MultiSigWalletWithDailyLimit.sol\":4728:4729  i */\n      dup5\n        /* \"contracts/MultiSigWalletWithDailyLimit.sol\":4721:4730  owners[i] */\n      dup2\n      sload\n      dup2\n      lt\n      iszero\n      iszero\n      tag_247\n      jumpi\n      invalid\n    tag_247:\n      swap1\n      0x0\n      mstore\n      keccak256(0x0, 0x20)\n      swap1\n      add\n      0x0\n    tag_248:\n        /* \"contracts/MultiSigWalletWithDailyLimit.sol\":4721:4741  owners[i] = newOwner */\n      0x100\n      exp\n      dup2\n      sload\n      dup2\n      0xffffffffffffffffffffffffffffffffffffffff\n      mul\n      not\n      and\n      swap1\n      dup4\n      0xffffffffffffffffffffffffffffffffffffffff\n      and\n      mul\n      or\n      swap1\n      sstore\n      pop\n        /* \"contracts/MultiSigWalletWithDailyLimit.sol\":4759:4764  break */\n      jump(tag_242)\n        /* \"contracts/MultiSigWalletWithDailyLimit.sol\":4679:4779  if (owners[i] == owner) {... */\n    tag_246:\n        /* \"contracts/MultiSigWalletWithDailyLimit.sol\":4630:4779  for (uint i=0; i<owners.length; i++)... */\n    tag_243:\n        /* \"contracts/MultiSigWalletWithDailyLimit.sol\":4662:4665  i++ */\n      dup3\n      dup1\n      0x1\n      add\n      swap4\n      pop\n      pop\n        /* \"contracts/MultiSigWalletWithDailyLimit.sol\":4630:4779  for (uint i=0; i<owners.length; i++)... */\n      jump(tag_241)\n    tag_242:\n        /* \"contracts/MultiSigWalletWithDailyLimit.sol\":4805:4810  false */\n      0x0\n        /* \"contracts/MultiSigWalletWithDailyLimit.sol\":4788:4795  isOwner */\n      0x2\n        /* \"contracts/MultiSigWalletWithDailyLimit.sol\":4788:4802  isOwner[owner] */\n      0x0\n        /* \"contracts/MultiSigWalletWithDailyLimit.sol\":4796:4801  owner */\n      dup8\n        /* \"contracts/MultiSigWalletWithDailyLimit.sol\":4788:4802  isOwner[owner] */\n      0xffffffffffffffffffffffffffffffffffffffff\n      and\n      0xffffffffffffffffffffffffffffffffffffffff\n      and\n      dup2\n      mstore\n      0x20\n      add\n      swap1\n      dup2\n      mstore\n      0x20\n      add\n      0x0\n      keccak256\n      0x0\n        /* \"contracts/MultiSigWalletWithDailyLimit.sol\":4788:4810  isOwner[owner] = false */\n      0x100\n      exp\n      dup2\n      sload\n      dup2\n      0xff\n      mul\n      not\n      and\n      swap1\n      dup4\n      iszero\n      iszero\n      mul\n      or\n      swap1\n      sstore\n      pop\n        /* \"contracts/MultiSigWalletWithDailyLimit.sol\":4840:4844  true */\n      0x1\n        /* \"contracts/MultiSigWalletWithDailyLimit.sol\":4820:4827  isOwner */\n      0x2\n        /* \"contracts/MultiSigWalletWithDailyLimit.sol\":4820:4837  isOwner[newOwner] */\n      0x0\n        /* \"contracts/MultiSigWalletWithDailyLimit.sol\":4828:4836  newOwner */\n      dup7\n        /* \"contracts/MultiSigWalletWithDailyLimit.sol\":4820:4837  isOwner[newOwner] */\n      0xffffffffffffffffffffffffffffffffffffffff\n      and\n      0xffffffffffffffffffffffffffffffffffffffff\n      and\n      dup2\n      mstore\n      0x20\n      add\n      swap1\n      dup2\n      mstore\n      0x20\n      add\n      0x0\n      keccak256\n      0x0\n        /* \"contracts/MultiSigWalletWithDailyLimit.sol\":4820:4844  isOwner[newOwner] = true */\n      0x100\n      exp\n      dup2\n      sload\n      dup2\n      0xff\n      mul\n      not\n      and\n      swap1\n      dup4\n      iszero\n      iszero\n      mul\n      or\n      swap1\n      sstore\n      pop\n        /* \"contracts/MultiSigWalletWithDailyLimit.sol\":4867:4872  owner */\n      dup5\n        /* \"contracts/MultiSigWalletWithDailyLimit.sol\":4854:4873  OwnerRemoval(owner) */\n      0xffffffffffffffffffffffffffffffffffffffff\n      and\n      0x8001553a916ef2f495d26a907cc54d96ed840d7bda71e73194bf5a9df7a76b90\n      mload(0x40)\n      mload(0x40)\n      dup1\n      swap2\n      sub\n      swap1\n      log2\n        /* \"contracts/MultiSigWalletWithDailyLimit.sol\":4897:4905  newOwner */\n      dup4\n        /* \"contracts/MultiSigWalletWithDailyLimit.sol\":4883:4906  OwnerAddition(newOwner) */\n      0xffffffffffffffffffffffffffffffffffffffff\n      and\n      0xf39e6e1eb0edcf53c221607b54b00cd28f3196fed0a24994dc308b8f611b682d\n      mload(0x40)\n      mload(0x40)\n      dup1\n      swap2\n      sub\n      swap1\n      log2\n        /* \"contracts/MultiSigWalletWithDailyLimit.sol\":1562:1563  _ */\n    tag_240:\n        /* \"contracts/MultiSigWalletWithDailyLimit.sol\":1655:1656  _ */\n    tag_238:\n      pop\n        /* \"contracts/MultiSigWalletWithDailyLimit.sol\":1462:1463  _ */\n    tag_236:\n      pop\n        /* \"contracts/MultiSigWalletWithDailyLimit.sol\":4464:4913  function replaceOwner(address owner, address newOwner)... */\n    tag_234:\n      pop\n      pop\n      pop\n      jump\t// out\n        /* \"contracts/MultiSigWalletWithDailyLimit.sol\":6773:7359  function executeTransaction(uint transactionId)... */\n    tag_100:\n        /* \"contracts/MultiSigWalletWithDailyLimit.sol\":7008:7031  Transaction storage txn */\n      0x0\n        /* \"contracts/MultiSigWalletWithDailyLimit.sol\":6856:6866  msg.sender */\n      caller\n        /* \"contracts/MultiSigWalletWithDailyLimit.sol\":1630:1637  isOwner */\n      0x2\n        /* \"contracts/MultiSigWalletWithDailyLimit.sol\":1630:1644  isOwner[owner] */\n      0x0\n        /* \"contracts/MultiSigWalletWithDailyLimit.sol\":1638:1643  owner */\n      dup3\n        /* \"contracts/MultiSigWalletWithDailyLimit.sol\":1630:1644  isOwner[owner] */\n      0xffffffffffffffffffffffffffffffffffffffff\n      and\n      0xffffffffffffffffffffffffffffffffffffffff\n      and\n      dup2\n      mstore\n      0x20\n      add\n      swap1\n      dup2\n      mstore\n      0x20\n      add\n      0x0\n      keccak256\n      0x0\n      swap1\n      sload\n      swap1\n      0x100\n      exp\n      swap1\n      div\n      0xff\n      and\n        /* \"contracts/MultiSigWalletWithDailyLimit.sol\":1622:1645  require(isOwner[owner]) */\n      iszero\n      iszero\n      tag_250\n      jumpi\n      0x0\n      dup1\n      revert\n    tag_250:\n        /* \"contracts/MultiSigWalletWithDailyLimit.sol\":6886:6899  transactionId */\n      dup3\n        /* \"contracts/MultiSigWalletWithDailyLimit.sol\":6901:6911  msg.sender */\n      caller\n        /* \"contracts/MultiSigWalletWithDailyLimit.sol\":1875:1888  confirmations */\n      0x1\n        /* \"contracts/MultiSigWalletWithDailyLimit.sol\":1875:1903  confirmations[transactionId] */\n      0x0\n        /* \"contracts/MultiSigWalletWithDailyLimit.sol\":1889:1902  transactionId */\n      dup4\n        /* \"contracts/MultiSigWalletWithDailyLimit.sol\":1875:1903  confirmations[transactionId] */\n      dup2\n      mstore\n      0x20\n      add\n      swap1\n      dup2\n      mstore\n      0x20\n      add\n      0x0\n      keccak256\n        /* \"contracts/MultiSigWalletWithDailyLimit.sol\":1875:1910  confirmations[transactionId][owner] */\n      0x0\n        /* \"contracts/MultiSigWalletWithDailyLimit.sol\":1904:1909  owner */\n      dup3\n        /* \"contracts/MultiSigWalletWithDailyLimit.sol\":1875:1910  confirmations[transactionId][owner] */\n      0xffffffffffffffffffffffffffffffffffffffff\n      and\n      0xffffffffffffffffffffffffffffffffffffffff\n      and\n      dup2\n      mstore\n      0x20\n      add\n      swap1\n      dup2\n      mstore\n      0x20\n      add\n      0x0\n      keccak256\n      0x0\n      swap1\n      sload\n      swap1\n      0x100\n      exp\n      swap1\n      div\n      0xff\n      and\n        /* \"contracts/MultiSigWalletWithDailyLimit.sol\":1867:1911  require(confirmations[transactionId][owner]) */\n      iszero\n      iszero\n      tag_252\n      jumpi\n      0x0\n      dup1\n      revert\n    tag_252:\n        /* \"contracts/MultiSigWalletWithDailyLimit.sol\":6933:6946  transactionId */\n      dup5\n        /* \"contracts/MultiSigWalletWithDailyLimit.sol\":2131:2143  transactions */\n      0x0\n        /* \"contracts/MultiSigWalletWithDailyLimit.sol\":2131:2158  transactions[transactionId] */\n      dup1\n        /* \"contracts/MultiSigWalletWithDailyLimit.sol\":2144:2157  transactionId */\n      dup3\n        /* \"contracts/MultiSigWalletWithDailyLimit.sol\":2131:2158  transactions[transactionId] */\n      dup2\n      mstore\n      0x20\n      add\n      swap1\n      dup2\n      mstore\n      0x20\n      add\n      0x0\n      keccak256\n        /* \"contracts/MultiSigWalletWithDailyLimit.sol\":2131:2167  transactions[transactionId].executed */\n      0x3\n      add\n      0x0\n      swap1\n      sload\n      swap1\n      0x100\n      exp\n      swap1\n      div\n      0xff\n      and\n        /* \"contracts/MultiSigWalletWithDailyLimit.sol\":2130:2167  !transactions[transactionId].executed */\n      iszero\n        /* \"contracts/MultiSigWalletWithDailyLimit.sol\":2122:2168  require(!transactions[transactionId].executed) */\n      iszero\n      iszero\n      tag_254\n      jumpi\n      0x0\n      dup1\n      revert\n    tag_254:\n        /* \"contracts/MultiSigWalletWithDailyLimit.sol\":6966:6992  isConfirmed(transactionId) */\n      tag_256\n        /* \"contracts/MultiSigWalletWithDailyLimit.sol\":6978:6991  transactionId */\n      dup7\n        /* \"contracts/MultiSigWalletWithDailyLimit.sol\":6966:6977  isConfirmed */\n      tag_49\n        /* \"contracts/MultiSigWalletWithDailyLimit.sol\":6966:6992  isConfirmed(transactionId) */\n      jump\t// in\n    tag_256:\n        /* \"contracts/MultiSigWalletWithDailyLimit.sol\":6962:7353  if (isConfirmed(transactionId)) {... */\n      iszero\n      tag_257\n      jumpi\n        /* \"contracts/MultiSigWalletWithDailyLimit.sol\":7034:7046  transactions */\n      0x0\n        /* \"contracts/MultiSigWalletWithDailyLimit.sol\":7034:7061  transactions[transactionId] */\n      dup1\n        /* \"contracts/MultiSigWalletWithDailyLimit.sol\":7047:7060  transactionId */\n      dup8\n        /* \"contracts/MultiSigWalletWithDailyLimit.sol\":7034:7061  transactions[transactionId] */\n      dup2\n      mstore\n      0x20\n      add\n      swap1\n      dup2\n      mstore\n      0x20\n      add\n      0x0\n      keccak256\n        /* \"contracts/MultiSigWalletWithDailyLimit.sol\":7008:7061  Transaction storage txn = transactions[transactionId] */\n      swap5\n      pop\n        /* \"contracts/MultiSigWalletWithDailyLimit.sol\":7090:7094  true */\n      0x1\n        /* \"contracts/MultiSigWalletWithDailyLimit.sol\":7075:7078  txn */\n      dup6\n        /* \"contracts/MultiSigWalletWithDailyLimit.sol\":7075:7087  txn.executed */\n      0x3\n      add\n      0x0\n        /* \"contracts/MultiSigWalletWithDailyLimit.sol\":7075:7094  txn.executed = true */\n      0x100\n      exp\n      dup2\n      sload\n      dup2\n      0xff\n      mul\n      not\n      and\n      swap1\n      dup4\n      iszero\n      iszero\n      mul\n      or\n      swap1\n      sstore\n      pop\n        /* \"contracts/MultiSigWalletWithDailyLimit.sol\":7112:7180  external_call(txn.destination, txn.value, txn.data.length, txn.data) */\n      tag_258\n        /* \"contracts/MultiSigWalletWithDailyLimit.sol\":7126:7129  txn */\n      dup6\n        /* \"contracts/MultiSigWalletWithDailyLimit.sol\":7126:7141  txn.destination */\n      0x0\n      add\n      0x0\n      swap1\n      sload\n      swap1\n      0x100\n      exp\n      swap1\n      div\n      0xffffffffffffffffffffffffffffffffffffffff\n      and\n        /* \"contracts/MultiSigWalletWithDailyLimit.sol\":7143:7146  txn */\n      dup7\n        /* \"contracts/MultiSigWalletWithDailyLimit.sol\":7143:7152  txn.value */\n      0x1\n      add\n      sload\n        /* \"contracts/MultiSigWalletWithDailyLimit.sol\":7154:7157  txn */\n      dup8\n        /* \"contracts/MultiSigWalletWithDailyLimit.sol\":7154:7162  txn.data */\n      0x2\n      add\n        /* \"contracts/MultiSigWalletWithDailyLimit.sol\":7154:7169  txn.data.length */\n      dup1\n      sload\n      0x1\n      dup2\n      0x1\n      and\n      iszero\n      0x100\n      mul\n      sub\n      and\n      0x2\n      swap1\n      div\n      swap1\n      pop\n        /* \"contracts/MultiSigWalletWithDailyLimit.sol\":7171:7174  txn */\n      dup9\n        /* \"contracts/MultiSigWalletWithDailyLimit.sol\":7171:7179  txn.data */\n      0x2\n      add\n        /* \"contracts/MultiSigWalletWithDailyLimit.sol\":7112:7180  external_call(txn.destination, txn.value, txn.data.length, txn.data) */\n      dup1\n      sload\n      0x1\n      dup2\n      0x1\n      and\n      iszero\n      0x100\n      mul\n      sub\n      and\n      0x2\n      swap1\n      div\n      dup1\n      0x1f\n      add\n      0x20\n      dup1\n      swap2\n      div\n      mul\n      0x20\n      add\n      mload(0x40)\n      swap1\n      dup2\n      add\n      0x40\n      mstore\n      dup1\n      swap3\n      swap2\n      swap1\n      dup2\n      dup2\n      mstore\n      0x20\n      add\n      dup3\n      dup1\n      sload\n      0x1\n      dup2\n      0x1\n      and\n      iszero\n      0x100\n      mul\n      sub\n      and\n      0x2\n      swap1\n      div\n      dup1\n      iszero\n      tag_259\n      jumpi\n      dup1\n      0x1f\n      lt\n      tag_260\n      jumpi\n      0x100\n      dup1\n      dup4\n      sload\n      div\n      mul\n      dup4\n      mstore\n      swap2\n      0x20\n      add\n      swap2\n      jump(tag_259)\n    tag_260:\n      dup3\n      add\n      swap2\n      swap1\n      0x0\n      mstore\n      keccak256(0x0, 0x20)\n      swap1\n    tag_261:\n      dup2\n      sload\n      dup2\n      mstore\n      swap1\n      0x1\n      add\n      swap1\n      0x20\n      add\n      dup1\n      dup4\n      gt\n      tag_261\n      jumpi\n      dup3\n      swap1\n      sub\n      0x1f\n      and\n      dup3\n      add\n      swap2\n    tag_259:\n      pop\n      pop\n      pop\n      pop\n      pop\n        /* \"contracts/MultiSigWalletWithDailyLimit.sol\":7112:7125  external_call */\n      tag_262\n        /* \"contracts/MultiSigWalletWithDailyLimit.sol\":7112:7180  external_call(txn.destination, txn.value, txn.data.length, txn.data) */\n      jump\t// in\n    tag_258:\n        /* \"contracts/MultiSigWalletWithDailyLimit.sol\":7108:7343  if (external_call(txn.destination, txn.value, txn.data.length, txn.data))... */\n      iszero\n      tag_263\n      jumpi\n        /* \"contracts/MultiSigWalletWithDailyLimit.sol\":7208:7221  transactionId */\n      dup6\n        /* \"contracts/MultiSigWalletWithDailyLimit.sol\":7198:7222  Execution(transactionId) */\n      0x33e13ecb54c3076d8e8bb8c2881800a4d972b792045ffae98fdf46df365fed75\n      mload(0x40)\n      mload(0x40)\n      dup1\n      swap2\n      sub\n      swap1\n      log2\n        /* \"contracts/MultiSigWalletWithDailyLimit.sol\":7108:7343  if (external_call(txn.destination, txn.value, txn.data.length, txn.data))... */\n      jump(tag_264)\n    tag_263:\n        /* \"contracts/MultiSigWalletWithDailyLimit.sol\":7276:7289  transactionId */\n      dup6\n        /* \"contracts/MultiSigWalletWithDailyLimit.sol\":7259:7290  ExecutionFailure(transactionId) */\n      0x526441bb6c1aba3c9a4a6ca1d6545da9c2333c8c48343ef398eb858d72b79236\n      mload(0x40)\n      mload(0x40)\n      dup1\n      swap2\n      sub\n      swap1\n      log2\n        /* \"contracts/MultiSigWalletWithDailyLimit.sol\":7323:7328  false */\n      0x0\n        /* \"contracts/MultiSigWalletWithDailyLimit.sol\":7308:7311  txn */\n      dup6\n        /* \"contracts/MultiSigWalletWithDailyLimit.sol\":7308:7320  txn.executed */\n      0x3\n      add\n      0x0\n        /* \"contracts/MultiSigWalletWithDailyLimit.sol\":7308:7328  txn.executed = false */\n      0x100\n      exp\n      dup2\n      sload\n      dup2\n      0xff\n      mul\n      not\n      and\n      swap1\n      dup4\n      iszero\n      iszero\n      mul\n      or\n      swap1\n      sstore\n      pop\n        /* \"contracts/MultiSigWalletWithDailyLimit.sol\":7108:7343  if (external_call(txn.destination, txn.value, txn.data.length, txn.data))... */\n    tag_264:\n        /* \"contracts/MultiSigWalletWithDailyLimit.sol\":6962:7353  if (isConfirmed(transactionId)) {... */\n    tag_257:\n        /* \"contracts/MultiSigWalletWithDailyLimit.sol\":2178:2179  _ */\n    tag_255:\n        /* \"contracts/MultiSigWalletWithDailyLimit.sol\":1921:1922  _ */\n    tag_253:\n      pop\n        /* \"contracts/MultiSigWalletWithDailyLimit.sol\":1655:1656  _ */\n    tag_251:\n      pop\n      pop\n        /* \"contracts/MultiSigWalletWithDailyLimit.sol\":6773:7359  function executeTransaction(uint transactionId)... */\n    tag_249:\n      pop\n      pop\n      pop\n      jump\t// out\n        /* \"contracts/MultiSigWalletWithDailyLimit.sol\":9460:9911  function addTransaction(address destination, uint value, bytes data)... */\n    tag_232:\n        /* \"contracts/MultiSigWalletWithDailyLimit.sol\":9592:9610  uint transactionId */\n      0x0\n        /* \"contracts/MultiSigWalletWithDailyLimit.sol\":9562:9573  destination */\n      dup4\n        /* \"contracts/MultiSigWalletWithDailyLimit.sol\":2257:2258  0 */\n      0x0\n        /* \"contracts/MultiSigWalletWithDailyLimit.sol\":2245:2253  _address */\n      dup2\n        /* \"contracts/MultiSigWalletWithDailyLimit.sol\":2245:2258  _address != 0 */\n      0xffffffffffffffffffffffffffffffffffffffff\n      and\n      eq\n      iszero\n        /* \"contracts/MultiSigWalletWithDailyLimit.sol\":2237:2259  require(_address != 0) */\n      iszero\n      iszero\n      tag_266\n      jumpi\n      0x0\n      dup1\n      revert\n    tag_266:\n        /* \"contracts/MultiSigWalletWithDailyLimit.sol\":9642:9658  transactionCount */\n      sload(0x5)\n        /* \"contracts/MultiSigWalletWithDailyLimit.sol\":9626:9658  transactionId = transactionCount */\n      swap2\n      pop\n        /* \"contracts/MultiSigWalletWithDailyLimit.sol\":9698:9838  Transaction({... */\n      0x80\n      mload(0x40)\n      swap1\n      dup2\n      add\n      0x40\n      mstore\n      dup1\n        /* \"contracts/MultiSigWalletWithDailyLimit.sol\":9737:9748  destination */\n      dup7\n        /* \"contracts/MultiSigWalletWithDailyLimit.sol\":9698:9838  Transaction({... */\n      0xffffffffffffffffffffffffffffffffffffffff\n      and\n      dup2\n      mstore\n      0x20\n      add\n        /* \"contracts/MultiSigWalletWithDailyLimit.sol\":9769:9774  value */\n      dup6\n        /* \"contracts/MultiSigWalletWithDailyLimit.sol\":9698:9838  Transaction({... */\n      dup2\n      mstore\n      0x20\n      add\n        /* \"contracts/MultiSigWalletWithDailyLimit.sol\":9794:9798  data */\n      dup5\n        /* \"contracts/MultiSigWalletWithDailyLimit.sol\":9698:9838  Transaction({... */\n      dup2\n      mstore\n      0x20\n      add\n        /* \"contracts/MultiSigWalletWithDailyLimit.sol\":9822:9827  false */\n      0x0\n        /* \"contracts/MultiSigWalletWithDailyLimit.sol\":9698:9838  Transaction({... */\n      iszero\n      iszero\n      dup2\n      mstore\n      pop\n        /* \"contracts/MultiSigWalletWithDailyLimit.sol\":9668:9680  transactions */\n      0x0\n        /* \"contracts/MultiSigWalletWithDailyLimit.sol\":9668:9695  transactions[transactionId] */\n      dup1\n        /* \"contracts/MultiSigWalletWithDailyLimit.sol\":9681:9694  transactionId */\n      dup5\n        /* \"contracts/MultiSigWalletWithDailyLimit.sol\":9668:9695  transactions[transactionId] */\n      dup2\n      mstore\n      0x20\n      add\n      swap1\n      dup2\n      mstore\n      0x20\n      add\n      0x0\n      keccak256\n        /* \"contracts/MultiSigWalletWithDailyLimit.sol\":9668:9838  transactions[transactionId] = Transaction({... */\n      0x0\n      dup3\n      add\n      mload\n      dup2\n      0x0\n      add\n      exp(0x100, 0x0)\n      dup2\n      sload\n      dup2\n      0xffffffffffffffffffffffffffffffffffffffff\n      mul\n      not\n      and\n      swap1\n      dup4\n      0xffffffffffffffffffffffffffffffffffffffff\n      and\n      mul\n      or\n      swap1\n      sstore\n      pop\n      0x20\n      dup3\n      add\n      mload\n      dup2\n      0x1\n      add\n      sstore\n      0x40\n      dup3\n      add\n      mload\n      dup2\n      0x2\n      add\n      swap1\n      dup1\n      mload\n      swap1\n      0x20\n      add\n      swap1\n      tag_268\n      swap3\n      swap2\n      swap1\n      jump\t// in(tag_269)\n    tag_268:\n      pop\n      0x60\n      dup3\n      add\n      mload\n      dup2\n      0x3\n      add\n      exp(0x100, 0x0)\n      dup2\n      sload\n      dup2\n      0xff\n      mul\n      not\n      and\n      swap1\n      dup4\n      iszero\n      iszero\n      mul\n      or\n      swap1\n      sstore\n      pop\n      swap1\n      pop\n      pop\n        /* \"contracts/MultiSigWalletWithDailyLimit.sol\":9868:9869  1 */\n      0x1\n        /* \"contracts/MultiSigWalletWithDailyLimit.sol\":9848:9864  transactionCount */\n      0x5\n      0x0\n        /* \"contracts/MultiSigWalletWithDailyLimit.sol\":9848:9869  transactionCount += 1 */\n      dup3\n      dup3\n      sload\n      add\n      swap3\n      pop\n      pop\n      dup2\n      swap1\n      sstore\n      pop\n        /* \"contracts/MultiSigWalletWithDailyLimit.sol\":9890:9903  transactionId */\n      dup2\n        /* \"contracts/MultiSigWalletWithDailyLimit.sol\":9879:9904  Submission(transactionId) */\n      0xc0ba8fe4b176c1714197d43b9cc6bcf797a4a7461c5fe8d0ef6e184ae7601e51\n      mload(0x40)\n      mload(0x40)\n      dup1\n      swap2\n      sub\n      swap1\n      log2\n        /* \"contracts/MultiSigWalletWithDailyLimit.sol\":2269:2270  _ */\n    tag_267:\n        /* \"contracts/MultiSigWalletWithDailyLimit.sol\":9460:9911  function addTransaction(address destination, uint value, bytes data)... */\n    tag_265:\n      pop\n      swap4\n      swap3\n      pop\n      pop\n      pop\n      jump\t// out\n        /* \"contracts/MultiSigWalletWithDailyLimit.sol\":7536:8639  function external_call(address destination, uint value, uint dataLength, bytes data) internal returns (bool) {... */\n    tag_262:\n        /* \"contracts/MultiSigWalletWithDailyLimit.sol\":7639:7643  bool */\n      0x0\n        /* \"contracts/MultiSigWalletWithDailyLimit.sol\":7655:7666  bool result */\n      dup1\n        /* \"contracts/MultiSigWalletWithDailyLimit.sol\":7714:7718  0x40 */\n      0x40\n        /* \"contracts/MultiSigWalletWithDailyLimit.sol\":7708:7713  mload */\n      mload\n        /* \"contracts/MultiSigWalletWithDailyLimit.sol\":7847:7849  32 */\n      0x20\n        /* \"contracts/MultiSigWalletWithDailyLimit.sol\":7841:7845  data */\n      dup5\n        /* \"contracts/MultiSigWalletWithDailyLimit.sol\":7837:7840  add */\n      add\n        /* \"contracts/MultiSigWalletWithDailyLimit.sol\":8512:8513  0 */\n      0x0\n        /* \"contracts/MultiSigWalletWithDailyLimit.sol\":8493:8494  x */\n      dup3\n        /* \"contracts/MultiSigWalletWithDailyLimit.sol\":8385:8395  dataLength */\n      dup8\n        /* \"contracts/MultiSigWalletWithDailyLimit.sol\":8366:8367  d */\n      dup4\n        /* \"contracts/MultiSigWalletWithDailyLimit.sol\":8343:8348  value */\n      dup11\n        /* \"contracts/MultiSigWalletWithDailyLimit.sol\":8314:8325  destination */\n      dup13\n        /* \"contracts/MultiSigWalletWithDailyLimit.sol\":7969:7974  34710 */\n      0x8796\n        /* \"contracts/MultiSigWalletWithDailyLimit.sol\":7964:7967  gas */\n      gas\n        /* \"contracts/MultiSigWalletWithDailyLimit.sol\":7960:7963  sub */\n      sub\n        /* \"contracts/MultiSigWalletWithDailyLimit.sol\":7938:7942  call */\n      call\n        /* \"contracts/MultiSigWalletWithDailyLimit.sol\":7928:8600  result := call(... */\n      swap3\n      pop\n        /* \"contracts/MultiSigWalletWithDailyLimit.sol\":7685:8610  {... */\n      pop\n      pop\n        /* \"contracts/MultiSigWalletWithDailyLimit.sol\":8626:8632  result */\n      dup1\n        /* \"contracts/MultiSigWalletWithDailyLimit.sol\":8619:8632  return result */\n      swap2\n      pop\n        /* \"contracts/MultiSigWalletWithDailyLimit.sol\":7536:8639  function external_call(address destination, uint value, uint dataLength, bytes data) internal returns (bool) {... */\n    tag_270:\n      pop\n      swap5\n      swap4\n      pop\n      pop\n      pop\n      pop\n      jump\t// out\n        /* \"contracts/MultiSigWalletWithDailyLimit.sol\":293:12921  contract MultiSigWallet {... */\n    tag_119:\n      dup2\n      sload\n      dup2\n      dup4\n      sstore\n      dup2\n      dup2\n      iszero\n      gt\n      tag_271\n      jumpi\n      dup2\n      dup4\n      0x0\n      mstore\n      keccak256(0x0, 0x20)\n      swap2\n      dup3\n      add\n      swap2\n      add\n      tag_272\n      swap2\n      swap1\n      jump\t// in(tag_273)\n    tag_272:\n    tag_271:\n      pop\n      pop\n      pop\n      jump\t// out\n    tag_150:\n      dup2\n      sload\n      dup2\n      dup4\n      sstore\n      dup2\n      dup2\n      iszero\n      gt\n      tag_274\n      jumpi\n      dup2\n      dup4\n      0x0\n      mstore\n      keccak256(0x0, 0x20)\n      swap2\n      dup3\n      add\n      swap2\n      add\n      tag_275\n      swap2\n      swap1\n      jump\t// in(tag_273)\n    tag_275:\n    tag_274:\n      pop\n      pop\n      pop\n      jump\t// out\n    tag_168:\n      0x20\n      mload(0x40)\n      swap1\n      dup2\n      add\n      0x40\n      mstore\n      dup1\n      0x0\n      dup2\n      mstore\n      pop\n      swap1\n      jump\t// out\n    tag_173:\n      0x20\n      mload(0x40)\n      swap1\n      dup2\n      add\n      0x40\n      mstore\n      dup1\n      0x0\n      dup2\n      mstore\n      pop\n      swap1\n      jump\t// out\n    tag_269:\n      dup3\n      dup1\n      sload\n      0x1\n      dup2\n      0x1\n      and\n      iszero\n      0x100\n      mul\n      sub\n      and\n      0x2\n      swap1\n      div\n      swap1\n      0x0\n      mstore\n      keccak256(0x0, 0x20)\n      swap1\n      0x1f\n      add\n      0x20\n      swap1\n      div\n      dup2\n      add\n      swap3\n      dup3\n      0x1f\n      lt\n      tag_277\n      jumpi\n      dup1\n      mload\n      not(0xff)\n      and\n      dup4\n      dup1\n      add\n      or\n      dup6\n      sstore\n      jump(tag_276)\n    tag_277:\n      dup3\n      dup1\n      add\n      0x1\n      add\n      dup6\n      sstore\n      dup3\n      iszero\n      tag_276\n      jumpi\n      swap2\n      dup3\n      add\n    tag_278:\n      dup3\n      dup2\n      gt\n      iszero\n      tag_279\n      jumpi\n      dup3\n      mload\n      dup3\n      sstore\n      swap2\n      0x20\n      add\n      swap2\n      swap1\n      0x1\n      add\n      swap1\n      jump(tag_278)\n    tag_279:\n    tag_276:\n      pop\n      swap1\n      pop\n      tag_280\n      swap2\n      swap1\n      jump\t// in(tag_273)\n    tag_280:\n      pop\n      swap1\n      jump\t// out\n    tag_273:\n      tag_281\n      swap2\n      swap1\n    tag_282:\n      dup1\n      dup3\n      gt\n      iszero\n      tag_283\n      jumpi\n      0x0\n      dup2\n      0x0\n      swap1\n      sstore\n      pop\n      0x1\n      add\n      jump(tag_282)\n    tag_283:\n      pop\n      swap1\n      jump\n    tag_281:\n      swap1\n      jump\t// out\n\n    auxdata: 0xa165627a7a72305820ad636848efea2bb76ba58251131f51e99a9ff8007cc5bcde3154f783d1cb4d990029\n}\n",
        "bytecode": {
          "linkReferences": {},
          "object": "606060405234156200001057600080fd5b6040516200240138038062002401833981016040528080518201919060200180519060200190919050505b600082518260328211158015620000525750818111155b801562000060575060008114155b80156200006e575060008214155b15156200007a57600080fd5b600092505b8451831015620001b6576002600086858151811015156200009c57fe5b9060200190602002015173ffffffffffffffffffffffffffffffffffffffff1673ffffffffffffffffffffffffffffffffffffffff16815260200190815260200160002060009054906101000a900460ff161580156200012b5750600085848151811015156200010857fe5b9060200190602002015173ffffffffffffffffffffffffffffffffffffffff1614155b15156200013757600080fd5b60016002600087868151811015156200014c57fe5b9060200190602002015173ffffffffffffffffffffffffffffffffffffffff1673ffffffffffffffffffffffffffffffffffffffff16815260200190815260200160002060006101000a81548160ff0219169083151502179055505b82806001019350506200007f565b8460039080519060200190620001ce929190620001e3565b50836004819055505b5b5050505050620002b8565b8280548282559060005260206000209081019282156200025f579160200282015b828111156200025e5782518260006101000a81548173ffffffffffffffffffffffffffffffffffffffff021916908373ffffffffffffffffffffffffffffffffffffffff1602179055509160200191906001019062000204565b5b5090506200026e919062000272565b5090565b620002b591905b80821115620002b157600081816101000a81549073ffffffffffffffffffffffffffffffffffffffff02191690555060010162000279565b5090565b90565b61213980620002c86000396000f3006060604052361561011b576000357c0100000000000000000000000000000000000000000000000000000000900463ffffffff168063025e7c2714610177578063173825d9146101da57806320ea8d86146102135780632f54bf6e146102365780633411c81c1461028757806354741525146102e15780637065cb4814610325578063784547a71461035e5780638b51d13f146103995780639ace38c2146103d0578063a0e67e2b146104ce578063a8abe69a14610539578063b5dc40c3146105d1578063b77bf6001461064a578063ba51a6df14610673578063c01a8c8414610696578063c6427474146106b9578063d74f8edd14610752578063dc8452cd1461077b578063e20056e6146107a4578063ee22610b146107fc575b5b6000341115610174573373ffffffffffffffffffffffffffffffffffffffff167fe1fffcc4923d04b559f4d29a8bfc6cda04eb5b0d3c460751c2402c5c5cc9109c346040518082815260200191505060405180910390a25b5b005b341561018257600080fd5b610198600480803590602001909190505061081f565b604051808273ffffffffffffffffffffffffffffffffffffffff1673ffffffffffffffffffffffffffffffffffffffff16815260200191505060405180910390f35b34156101e557600080fd5b610211600480803573ffffffffffffffffffffffffffffffffffffffff1690602001909190505061085f565b005b341561021e57600080fd5b6102346004808035906020019091905050610b02565b005b341561024157600080fd5b61026d600480803573ffffffffffffffffffffffffffffffffffffffff16906020019091905050610cae565b604051808215151515815260200191505060405180910390f35b341561029257600080fd5b6102c7600480803590602001909190803573ffffffffffffffffffffffffffffffffffffffff16906020019091905050610cce565b604051808215151515815260200191505060405180910390f35b34156102ec57600080fd5b61030f600480803515159060200190919080351515906020019091905050610cfd565b6040518082815260200191505060405180910390f35b341561033057600080fd5b61035c600480803573ffffffffffffffffffffffffffffffffffffffff16906020019091905050610d91565b005b341561036957600080fd5b61037f6004808035906020019091905050610f99565b604051808215151515815260200191505060405180910390f35b34156103a457600080fd5b6103ba6004808035906020019091905050611081565b6040518082815260200191505060405180910390f35b34156103db57600080fd5b6103f16004808035906020019091905050611150565b604051808573ffffffffffffffffffffffffffffffffffffffff1673ffffffffffffffffffffffffffffffffffffffff16815260200184815260200180602001831515151581526020018281038252848181546001816001161561010002031660029004815260200191508054600181600116156101000203166002900480156104bc5780601f10610491576101008083540402835291602001916104bc565b820191906000526020600020905b81548152906001019060200180831161049f57829003601f168201915b50509550505050505060405180910390f35b34156104d957600080fd5b6104e16111ac565b6040518080602001828103825283818151815260200191508051906020019060200280838360005b838110156105255780820151818401525b602081019050610509565b505050509050019250505060405180910390f35b341561054457600080fd5b610579600480803590602001909190803590602001909190803515159060200190919080351515906020019091905050611241565b6040518080602001828103825283818151815260200191508051906020019060200280838360005b838110156105bd5780820151818401525b6020810190506105a1565b505050509050019250505060405180910390f35b34156105dc57600080fd5b6105f260048080359060200190919050506113a2565b6040518080602001828103825283818151815260200191508051906020019060200280838360005b838110156106365780820151818401525b60208101905061061a565b505050509050019250505060405180910390f35b341561065557600080fd5b61065d6115d3565b6040518082815260200191505060405180910390f35b341561067e57600080fd5b61069460048080359060200190919050506115d9565b005b34156106a157600080fd5b6106b76004808035906020019091905050611696565b005b34156106c457600080fd5b61073c600480803573ffffffffffffffffffffffffffffffffffffffff1690602001909190803590602001909190803590602001908201803590602001908080601f01602080910402602001604051908101604052809392919081815260200183838082843782019150505050505091905050611877565b6040518082815260200191505060405180910390f35b341561075d57600080fd5b610765611897565b6040518082815260200191505060405180910390f35b341561078657600080fd5b61078e61189c565b6040518082815260200191505060405180910390f35b34156107af57600080fd5b6107fa600480803573ffffffffffffffffffffffffffffffffffffffff1690602001909190803573ffffffffffffffffffffffffffffffffffffffff169060200190919050506118a2565b005b341561080757600080fd5b61081d6004808035906020019091905050611bc0565b005b60038181548110151561082e57fe5b906000526020600020900160005b915054906101000a900473ffffffffffffffffffffffffffffffffffffffff1681565b60003073ffffffffffffffffffffffffffffffffffffffff163373ffffffffffffffffffffffffffffffffffffffff1614151561089b57600080fd5b81600260008273ffffffffffffffffffffffffffffffffffffffff1673ffffffffffffffffffffffffffffffffffffffff16815260200190815260200160002060009054906101000a900460ff1615156108f457600080fd5b6000600260008573ffffffffffffffffffffffffffffffffffffffff1673ffffffffffffffffffffffffffffffffffffffff16815260200190815260200160002060006101000a81548160ff021916908315150217905550600091505b600160038054905003821015610a80578273ffffffffffffffffffffffffffffffffffffffff1660038381548110151561098757fe5b906000526020600020900160005b9054906101000a900473ffffffffffffffffffffffffffffffffffffffff1673ffffffffffffffffffffffffffffffffffffffff161415610a725760036001600380549050038154811015156109e757fe5b906000526020600020900160005b9054906101000a900473ffffffffffffffffffffffffffffffffffffffff16600383815481101515610a2357fe5b906000526020600020900160005b6101000a81548173ffffffffffffffffffffffffffffffffffffffff021916908373ffffffffffffffffffffffffffffffffffffffff160217905550610a80565b5b8180600101925050610951565b6001600381818054905003915081610a989190611fe8565b506003805490506004541115610ab757610ab66003805490506115d9565b5b8273ffffffffffffffffffffffffffffffffffffffff167f8001553a916ef2f495d26a907cc54d96ed840d7bda71e73194bf5a9df7a76b9060405160405180910390a25b5b505b5050565b33600260008273ffffffffffffffffffffffffffffffffffffffff1673ffffffffffffffffffffffffffffffffffffffff16815260200190815260200160002060009054906101000a900460ff161515610b5b57600080fd5b81336001600083815260200190815260200160002060008273ffffffffffffffffffffffffffffffffffffffff1673ffffffffffffffffffffffffffffffffffffffff16815260200190815260200160002060009054906101000a900460ff161515610bc657600080fd5b8360008082815260200190815260200160002060030160009054906101000a900460ff16151515610bf657600080fd5b60006001600087815260200190815260200160002060003373ffffffffffffffffffffffffffffffffffffffff1673ffffffffffffffffffffffffffffffffffffffff16815260200190815260200160002060006101000a81548160ff021916908315150217905550843373ffffffffffffffffffffffffffffffffffffffff167ff6a317157440607f36269043eb55f1287a5a19ba2216afeab88cd46cbcfb88e960405160405180910390a35b5b505b50505b5050565b60026020528060005260406000206000915054906101000a900460ff1681565b60016020528160005260406000206020528060005260406000206000915091509054906101000a900460ff1681565b600080600090505b600554811015610d8957838015610d3c575060008082815260200190815260200160002060030160009054906101000a900460ff16155b80610d6f5750828015610d6e575060008082815260200190815260200160002060030160009054906101000a900460ff165b5b15610d7b576001820191505b5b8080600101915050610d05565b5b5092915050565b3073ffffffffffffffffffffffffffffffffffffffff163373ffffffffffffffffffffffffffffffffffffffff16141515610dcb57600080fd5b80600260008273ffffffffffffffffffffffffffffffffffffffff1673ffffffffffffffffffffffffffffffffffffffff16815260200190815260200160002060009054906101000a900460ff16151515610e2557600080fd5b8160008173ffffffffffffffffffffffffffffffffffffffff1614151515610e4c57600080fd5b60016003805490500160045460328211158015610e695750818111155b8015610e76575060008114155b8015610e83575060008214155b1515610e8e57600080fd5b6001600260008773ffffffffffffffffffffffffffffffffffffffff1673ffffffffffffffffffffffffffffffffffffffff16815260200190815260200160002060006101000a81548160ff02191690831515021790555060038054806001018281610efa9190612014565b916000526020600020900160005b87909190916101000a81548173ffffffffffffffffffffffffffffffffffffffff021916908373ffffffffffffffffffffffffffffffffffffffff160217905550508473ffffffffffffffffffffffffffffffffffffffff167ff39e6e1eb0edcf53c221607b54b00cd28f3196fed0a24994dc308b8f611b682d60405160405180910390a25b5b50505b505b505b50565b6000806000809150600090505b60038054905081101561107957600160008581526020019081526020016000206000600383815481101515610fd757fe5b906000526020600020900160005b9054906101000a900473ffffffffffffffffffffffffffffffffffffffff1673ffffffffffffffffffffffffffffffffffffffff1673ffffffffffffffffffffffffffffffffffffffff16815260200190815260200160002060009054906101000a900460ff1615611058576001820191505b60045482141561106b576001925061107a565b5b8080600101915050610fa6565b5b5050919050565b600080600090505b600380549050811015611149576001600084815260200190815260200160002060006003838154811015156110ba57fe5b906000526020600020900160005b9054906101000a900473ffffffffffffffffffffffffffffffffffffffff1673ffffffffffffffffffffffffffffffffffffffff1673ffffffffffffffffffffffffffffffffffffffff16815260200190815260200160002060009054906101000a900460ff161561113b576001820191505b5b8080600101915050611089565b5b50919050565b60006020528060005260406000206000915090508060000160009054906101000a900473ffffffffffffffffffffffffffffffffffffffff169080600101549080600201908060030160009054906101000a900460ff16905084565b6111b4612040565b600380548060200260200160405190810160405280929190818152602001828054801561123657602002820191906000526020600020905b8160009054906101000a900473ffffffffffffffffffffffffffffffffffffffff1673ffffffffffffffffffffffffffffffffffffffff16815260200190600101908083116111ec575b505050505090505b90565b611249612054565b611251612054565b6000806005546040518059106112645750595b908082528060200260200182016040525b50925060009150600090505b600554811015611322578580156112b8575060008082815260200190815260200160002060030160009054906101000a900460ff16155b806112eb57508480156112ea575060008082815260200190815260200160002060030160009054906101000a900460ff165b5b15611314578083838151811015156112ff57fe5b90602001906020020181815250506001820191505b5b8080600101915050611281565b8787036040518059106113325750595b908082528060200260200182016040525b5093508790505b8681101561139657828181518110151561136057fe5b906020019060200201518489830381518110151561137a57fe5b90602001906020020181815250505b808060010191505061134a565b5b505050949350505050565b6113aa612040565b6113b2612040565b6000806003805490506040518059106113c85750595b908082528060200260200182016040525b50925060009150600090505b60038054905081101561152b5760016000868152602001908152602001600020600060038381548110151561141657fe5b906000526020600020900160005b9054906101000a900473ffffffffffffffffffffffffffffffffffffffff1673ffffffffffffffffffffffffffffffffffffffff1673ffffffffffffffffffffffffffffffffffffffff16815260200190815260200160002060009054906101000a900460ff161561151d5760038181548110151561149f57fe5b906000526020600020900160005b9054906101000a900473ffffffffffffffffffffffffffffffffffffffff1683838151811015156114da57fe5b9060200190602002019073ffffffffffffffffffffffffffffffffffffffff16908173ffffffffffffffffffffffffffffffffffffffff16815250506001820191505b5b80806001019150506113e5565b816040518059106115395750595b908082528060200260200182016040525b509350600090505b818110156115ca57828181518110151561156857fe5b90602001906020020151848281518110151561158057fe5b9060200190602002019073ffffffffffffffffffffffffffffffffffffffff16908173ffffffffffffffffffffffffffffffffffffffff16815250505b8080600101915050611552565b5b505050919050565b60055481565b3073ffffffffffffffffffffffffffffffffffffffff163373ffffffffffffffffffffffffffffffffffffffff1614151561161357600080fd5b600380549050816032821115801561162b5750818111155b8015611638575060008114155b8015611645575060008214155b151561165057600080fd5b826004819055507fa3f1ee9126a074d9326c682f561767f710e927faa811f7a99829d49dc421797a836040518082815260200191505060405180910390a15b5b50505b50565b33600260008273ffffffffffffffffffffffffffffffffffffffff1673ffffffffffffffffffffffffffffffffffffffff16815260200190815260200160002060009054906101000a900460ff1615156116ef57600080fd5b81600080600083815260200190815260200160002060000160009054906101000a900473ffffffffffffffffffffffffffffffffffffffff1673ffffffffffffffffffffffffffffffffffffffff161415151561174b57600080fd5b82336001600083815260200190815260200160002060008273ffffffffffffffffffffffffffffffffffffffff1673ffffffffffffffffffffffffffffffffffffffff16815260200190815260200160002060009054906101000a900460ff161515156117b757600080fd5b600180600087815260200190815260200160002060003373ffffffffffffffffffffffffffffffffffffffff1673ffffffffffffffffffffffffffffffffffffffff16815260200190815260200160002060006101000a81548160ff021916908315150217905550843373ffffffffffffffffffffffffffffffffffffffff167f4a504a94899432a9846e1aa406dceb1bcfd538bb839071d49d1e5e23f5be30ef60405160405180910390a361186c85611bc0565b5b5b50505b505b5050565b6000611884848484611e6c565b905061188f81611696565b5b9392505050565b603281565b60045481565b60003073ffffffffffffffffffffffffffffffffffffffff163373ffffffffffffffffffffffffffffffffffffffff161415156118de57600080fd5b82600260008273ffffffffffffffffffffffffffffffffffffffff1673ffffffffffffffffffffffffffffffffffffffff16815260200190815260200160002060009054906101000a900460ff16151561193757600080fd5b82600260008273ffffffffffffffffffffffffffffffffffffffff1673ffffffffffffffffffffffffffffffffffffffff16815260200190815260200160002060009054906101000a900460ff1615151561199157600080fd5b600092505b600380549050831015611a7f578473ffffffffffffffffffffffffffffffffffffffff166003848154811015156119c957fe5b906000526020600020900160005b9054906101000a900473ffffffffffffffffffffffffffffffffffffffff1673ffffffffffffffffffffffffffffffffffffffff161415611a715783600384815481101515611a2257fe5b906000526020600020900160005b6101000a81548173ffffffffffffffffffffffffffffffffffffffff021916908373ffffffffffffffffffffffffffffffffffffffff160217905550611a7f565b5b8280600101935050611996565b6000600260008773ffffffffffffffffffffffffffffffffffffffff1673ffffffffffffffffffffffffffffffffffffffff16815260200190815260200160002060006101000a81548160ff0219169083151502179055506001600260008673ffffffffffffffffffffffffffffffffffffffff1673ffffffffffffffffffffffffffffffffffffffff16815260200190815260200160002060006101000a81548160ff0219169083151502179055508473ffffffffffffffffffffffffffffffffffffffff167f8001553a916ef2f495d26a907cc54d96ed840d7bda71e73194bf5a9df7a76b9060405160405180910390a28373ffffffffffffffffffffffffffffffffffffffff167ff39e6e1eb0edcf53c221607b54b00cd28f3196fed0a24994dc308b8f611b682d60405160405180910390a25b5b505b505b505050565b600033600260008273ffffffffffffffffffffffffffffffffffffffff1673ffffffffffffffffffffffffffffffffffffffff16815260200190815260200160002060009054906101000a900460ff161515611c1b57600080fd5b82336001600083815260200190815260200160002060008273ffffffffffffffffffffffffffffffffffffffff1673ffffffffffffffffffffffffffffffffffffffff16815260200190815260200160002060009054906101000a900460ff161515611c8657600080fd5b8460008082815260200190815260200160002060030160009054906101000a900460ff16151515611cb657600080fd5b611cbf86610f99565b15611e6057600080878152602001908152602001600020945060018560030160006101000a81548160ff021916908315150217905550611ddd8560000160009054906101000a900473ffffffffffffffffffffffffffffffffffffffff16866001015487600201805460018160011615610100020316600290049050886002018054600181600116156101000203166002900480601f016020809104026020016040519081016040528092919081815260200182805460018160011615610100020316600290048015611dd35780601f10611da857610100808354040283529160200191611dd3565b820191906000526020600020905b815481529060010190602001808311611db657829003601f168201915b5050505050611fc0565b15611e1457857f33e13ecb54c3076d8e8bb8c2881800a4d972b792045ffae98fdf46df365fed7560405160405180910390a2611e5f565b857f526441bb6c1aba3c9a4a6ca1d6545da9c2333c8c48343ef398eb858d72b7923660405160405180910390a260008560030160006101000a81548160ff0219169083151502179055505b5b5b5b505b50505b505050565b60008360008173ffffffffffffffffffffffffffffffffffffffff1614151515611e9557600080fd5b60055491506080604051908101604052808673ffffffffffffffffffffffffffffffffffffffff1681526020018581526020018481526020016000151581525060008084815260200190815260200160002060008201518160000160006101000a81548173ffffffffffffffffffffffffffffffffffffffff021916908373ffffffffffffffffffffffffffffffffffffffff160217905550602082015181600101556040820151816002019080519060200190611f54929190612068565b5060608201518160030160006101000a81548160ff0219169083151502179055509050506001600560008282540192505081905550817fc0ba8fe4b176c1714197d43b9cc6bcf797a4a7461c5fe8d0ef6e184ae7601e5160405160405180910390a25b5b509392505050565b6000806040516020840160008287838a8c6187965a03f1925050508091505b50949350505050565b81548183558181151161200f5781836000526020600020918201910161200e91906120e8565b5b505050565b81548183558181151161203b5781836000526020600020918201910161203a91906120e8565b5b505050565b602060405190810160405280600081525090565b602060405190810160405280600081525090565b828054600181600116156101000203166002900490600052602060002090601f016020900481019282601f106120a957805160ff19168380011785556120d7565b828001600101855582156120d7579182015b828111156120d65782518255916020019190600101906120bb565b5b5090506120e491906120e8565b5090565b61210a91905b808211156121065760008160009055506001016120ee565b5090565b905600a165627a7a72305820ad636848efea2bb76ba58251131f51e99a9ff8007cc5bcde3154f783d1cb4d990029",
          "opcodes": "PUSH1 0x60 PUSH1 0x40 MSTORE CALLVALUE ISZERO PUSH3 0x10 JUMPI PUSH1 0x0 DUP1 REVERT JUMPDEST PUSH1 0x40 MLOAD PUSH3 0x2401 CODESIZE SUB DUP1 PUSH3 0x2401 DUP4 CODECOPY DUP2 ADD PUSH1 0x40 MSTORE DUP1 DUP1 MLOAD DUP3 ADD SWAP2 SWAP1 PUSH1 0x20 ADD DUP1 MLOAD SWAP1 PUSH1 0x20 ADD SWAP1 SWAP2 SWAP1 POP POP JUMPDEST PUSH1 0x0 DUP3 MLOAD DUP3 PUSH1 0x32 DUP3 GT ISZERO DUP1 ISZERO PUSH3 0x52 JUMPI POP DUP2 DUP2 GT ISZERO JUMPDEST DUP1 ISZERO PUSH3 0x60 JUMPI POP PUSH1 0x0 DUP2 EQ ISZERO JUMPDEST DUP1 ISZERO PUSH3 0x6E JUMPI POP PUSH1 0x0 DUP3 EQ ISZERO JUMPDEST ISZERO ISZERO PUSH3 0x7A JUMPI PUSH1 0x0 DUP1 REVERT JUMPDEST PUSH1 0x0 SWAP3 POP JUMPDEST DUP5 MLOAD DUP4 LT ISZERO PUSH3 0x1B6 JUMPI PUSH1 0x2 PUSH1 0x0 DUP7 DUP6 DUP2 MLOAD DUP2 LT ISZERO ISZERO PUSH3 0x9C JUMPI INVALID JUMPDEST SWAP1 PUSH1 0x20 ADD SWAP1 PUSH1 0x20 MUL ADD MLOAD PUSH20 0xFFFFFFFFFFFFFFFFFFFFFFFFFFFFFFFFFFFFFFFF AND PUSH20 0xFFFFFFFFFFFFFFFFFFFFFFFFFFFFFFFFFFFFFFFF AND DUP2 MSTORE PUSH1 0x20 ADD SWAP1 DUP2 MSTORE PUSH1 0x20 ADD PUSH1 0x0 KECCAK256 PUSH1 0x0 SWAP1 SLOAD SWAP1 PUSH2 0x100 EXP SWAP1 DIV PUSH1 0xFF AND ISZERO DUP1 ISZERO PUSH3 0x12B JUMPI POP PUSH1 0x0 DUP6 DUP5 DUP2 MLOAD DUP2 LT ISZERO ISZERO PUSH3 0x108 JUMPI INVALID JUMPDEST SWAP1 PUSH1 0x20 ADD SWAP1 PUSH1 0x20 MUL ADD MLOAD PUSH20 0xFFFFFFFFFFFFFFFFFFFFFFFFFFFFFFFFFFFFFFFF AND EQ ISZERO JUMPDEST ISZERO ISZERO PUSH3 0x137 JUMPI PUSH1 0x0 DUP1 REVERT JUMPDEST PUSH1 0x1 PUSH1 0x2 PUSH1 0x0 DUP8 DUP7 DUP2 MLOAD DUP2 LT ISZERO ISZERO PUSH3 0x14C JUMPI INVALID JUMPDEST SWAP1 PUSH1 0x20 ADD SWAP1 PUSH1 0x20 MUL ADD MLOAD PUSH20 0xFFFFFFFFFFFFFFFFFFFFFFFFFFFFFFFFFFFFFFFF AND PUSH20 0xFFFFFFFFFFFFFFFFFFFFFFFFFFFFFFFFFFFFFFFF AND DUP2 MSTORE PUSH1 0x20 ADD SWAP1 DUP2 MSTORE PUSH1 0x20 ADD PUSH1 0x0 KECCAK256 PUSH1 0x0 PUSH2 0x100 EXP DUP2 SLOAD DUP2 PUSH1 0xFF MUL NOT AND SWAP1 DUP4 ISZERO ISZERO MUL OR SWAP1 SSTORE POP JUMPDEST DUP3 DUP1 PUSH1 0x1 ADD SWAP4 POP POP PUSH3 0x7F JUMP JUMPDEST DUP5 PUSH1 0x3 SWAP1 DUP1 MLOAD SWAP1 PUSH1 0x20 ADD SWAP1 PUSH3 0x1CE SWAP3 SWAP2 SWAP1 PUSH3 0x1E3 JUMP JUMPDEST POP DUP4 PUSH1 0x4 DUP2 SWAP1 SSTORE POP JUMPDEST JUMPDEST POP POP POP POP POP PUSH3 0x2B8 JUMP JUMPDEST DUP3 DUP1 SLOAD DUP3 DUP3 SSTORE SWAP1 PUSH1 0x0 MSTORE PUSH1 0x20 PUSH1 0x0 KECCAK256 SWAP1 DUP2 ADD SWAP3 DUP3 ISZERO PUSH3 0x25F JUMPI SWAP2 PUSH1 0x20 MUL DUP3 ADD JUMPDEST DUP3 DUP2 GT ISZERO PUSH3 0x25E JUMPI DUP3 MLOAD DUP3 PUSH1 0x0 PUSH2 0x100 EXP DUP2 SLOAD DUP2 PUSH20 0xFFFFFFFFFFFFFFFFFFFFFFFFFFFFFFFFFFFFFFFF MUL NOT AND SWAP1 DUP4 PUSH20 0xFFFFFFFFFFFFFFFFFFFFFFFFFFFFFFFFFFFFFFFF AND MUL OR SWAP1 SSTORE POP SWAP2 PUSH1 0x20 ADD SWAP2 SWAP1 PUSH1 0x1 ADD SWAP1 PUSH3 0x204 JUMP JUMPDEST JUMPDEST POP SWAP1 POP PUSH3 0x26E SWAP2 SWAP1 PUSH3 0x272 JUMP JUMPDEST POP SWAP1 JUMP JUMPDEST PUSH3 0x2B5 SWAP2 SWAP1 JUMPDEST DUP1 DUP3 GT ISZERO PUSH3 0x2B1 JUMPI PUSH1 0x0 DUP2 DUP2 PUSH2 0x100 EXP DUP2 SLOAD SWAP1 PUSH20 0xFFFFFFFFFFFFFFFFFFFFFFFFFFFFFFFFFFFFFFFF MUL NOT AND SWAP1 SSTORE POP PUSH1 0x1 ADD PUSH3 0x279 JUMP JUMPDEST POP SWAP1 JUMP JUMPDEST SWAP1 JUMP JUMPDEST PUSH2 0x2139 DUP1 PUSH3 0x2C8 PUSH1 0x0 CODECOPY PUSH1 0x0 RETURN STOP PUSH1 0x60 PUSH1 0x40 MSTORE CALLDATASIZE ISZERO PUSH2 0x11B JUMPI PUSH1 0x0 CALLDATALOAD PUSH29 0x100000000000000000000000000000000000000000000000000000000 SWAP1 DIV PUSH4 0xFFFFFFFF AND DUP1 PUSH4 0x25E7C27 EQ PUSH2 0x177 JUMPI DUP1 PUSH4 0x173825D9 EQ PUSH2 0x1DA JUMPI DUP1 PUSH4 0x20EA8D86 EQ PUSH2 0x213 JUMPI DUP1 PUSH4 0x2F54BF6E EQ PUSH2 0x236 JUMPI DUP1 PUSH4 0x3411C81C EQ PUSH2 0x287 JUMPI DUP1 PUSH4 0x54741525 EQ PUSH2 0x2E1 JUMPI DUP1 PUSH4 0x7065CB48 EQ PUSH2 0x325 JUMPI DUP1 PUSH4 0x784547A7 EQ PUSH2 0x35E JUMPI DUP1 PUSH4 0x8B51D13F EQ PUSH2 0x399 JUMPI DUP1 PUSH4 0x9ACE38C2 EQ PUSH2 0x3D0 JUMPI DUP1 PUSH4 0xA0E67E2B EQ PUSH2 0x4CE JUMPI DUP1 PUSH4 0xA8ABE69A EQ PUSH2 0x539 JUMPI DUP1 PUSH4 0xB5DC40C3 EQ PUSH2 0x5D1 JUMPI DUP1 PUSH4 0xB77BF600 EQ PUSH2 0x64A JUMPI DUP1 PUSH4 0xBA51A6DF EQ PUSH2 0x673 JUMPI DUP1 PUSH4 0xC01A8C84 EQ PUSH2 0x696 JUMPI DUP1 PUSH4 0xC6427474 EQ PUSH2 0x6B9 JUMPI DUP1 PUSH4 0xD74F8EDD EQ PUSH2 0x752 JUMPI DUP1 PUSH4 0xDC8452CD EQ PUSH2 0x77B JUMPI DUP1 PUSH4 0xE20056E6 EQ PUSH2 0x7A4 JUMPI DUP1 PUSH4 0xEE22610B EQ PUSH2 0x7FC JUMPI JUMPDEST JUMPDEST PUSH1 0x0 CALLVALUE GT ISZERO PUSH2 0x174 JUMPI CALLER PUSH20 0xFFFFFFFFFFFFFFFFFFFFFFFFFFFFFFFFFFFFFFFF AND PUSH32 0xE1FFFCC4923D04B559F4D29A8BFC6CDA04EB5B0D3C460751C2402C5C5CC9109C CALLVALUE PUSH1 0x40 MLOAD DUP1 DUP3 DUP2 MSTORE PUSH1 0x20 ADD SWAP2 POP POP PUSH1 0x40 MLOAD DUP1 SWAP2 SUB SWAP1 LOG2 JUMPDEST JUMPDEST STOP JUMPDEST CALLVALUE ISZERO PUSH2 0x182 JUMPI PUSH1 0x0 DUP1 REVERT JUMPDEST PUSH2 0x198 PUSH1 0x4 DUP1 DUP1 CALLDATALOAD SWAP1 PUSH1 0x20 ADD SWAP1 SWAP2 SWAP1 POP POP PUSH2 0x81F JUMP JUMPDEST PUSH1 0x40 MLOAD DUP1 DUP3 PUSH20 0xFFFFFFFFFFFFFFFFFFFFFFFFFFFFFFFFFFFFFFFF AND PUSH20 0xFFFFFFFFFFFFFFFFFFFFFFFFFFFFFFFFFFFFFFFF AND DUP2 MSTORE PUSH1 0x20 ADD SWAP2 POP POP PUSH1 0x40 MLOAD DUP1 SWAP2 SUB SWAP1 RETURN JUMPDEST CALLVALUE ISZERO PUSH2 0x1E5 JUMPI PUSH1 0x0 DUP1 REVERT JUMPDEST PUSH2 0x211 PUSH1 0x4 DUP1 DUP1 CALLDATALOAD PUSH20 0xFFFFFFFFFFFFFFFFFFFFFFFFFFFFFFFFFFFFFFFF AND SWAP1 PUSH1 0x20 ADD SWAP1 SWAP2 SWAP1 POP POP PUSH2 0x85F JUMP JUMPDEST STOP JUMPDEST CALLVALUE ISZERO PUSH2 0x21E JUMPI PUSH1 0x0 DUP1 REVERT JUMPDEST PUSH2 0x234 PUSH1 0x4 DUP1 DUP1 CALLDATALOAD SWAP1 PUSH1 0x20 ADD SWAP1 SWAP2 SWAP1 POP POP PUSH2 0xB02 JUMP JUMPDEST STOP JUMPDEST CALLVALUE ISZERO PUSH2 0x241 JUMPI PUSH1 0x0 DUP1 REVERT JUMPDEST PUSH2 0x26D PUSH1 0x4 DUP1 DUP1 CALLDATALOAD PUSH20 0xFFFFFFFFFFFFFFFFFFFFFFFFFFFFFFFFFFFFFFFF AND SWAP1 PUSH1 0x20 ADD SWAP1 SWAP2 SWAP1 POP POP PUSH2 0xCAE JUMP JUMPDEST PUSH1 0x40 MLOAD DUP1 DUP3 ISZERO ISZERO ISZERO ISZERO DUP2 MSTORE PUSH1 0x20 ADD SWAP2 POP POP PUSH1 0x40 MLOAD DUP1 SWAP2 SUB SWAP1 RETURN JUMPDEST CALLVALUE ISZERO PUSH2 0x292 JUMPI PUSH1 0x0 DUP1 REVERT JUMPDEST PUSH2 0x2C7 PUSH1 0x4 DUP1 DUP1 CALLDATALOAD SWAP1 PUSH1 0x20 ADD SWAP1 SWAP2 SWAP1 DUP1 CALLDATALOAD PUSH20 0xFFFFFFFFFFFFFFFFFFFFFFFFFFFFFFFFFFFFFFFF AND SWAP1 PUSH1 0x20 ADD SWAP1 SWAP2 SWAP1 POP POP PUSH2 0xCCE JUMP JUMPDEST PUSH1 0x40 MLOAD DUP1 DUP3 ISZERO ISZERO ISZERO ISZERO DUP2 MSTORE PUSH1 0x20 ADD SWAP2 POP POP PUSH1 0x40 MLOAD DUP1 SWAP2 SUB SWAP1 RETURN JUMPDEST CALLVALUE ISZERO PUSH2 0x2EC JUMPI PUSH1 0x0 DUP1 REVERT JUMPDEST PUSH2 0x30F PUSH1 0x4 DUP1 DUP1 CALLDATALOAD ISZERO ISZERO SWAP1 PUSH1 0x20 ADD SWAP1 SWAP2 SWAP1 DUP1 CALLDATALOAD ISZERO ISZERO SWAP1 PUSH1 0x20 ADD SWAP1 SWAP2 SWAP1 POP POP PUSH2 0xCFD JUMP JUMPDEST PUSH1 0x40 MLOAD DUP1 DUP3 DUP2 MSTORE PUSH1 0x20 ADD SWAP2 POP POP PUSH1 0x40 MLOAD DUP1 SWAP2 SUB SWAP1 RETURN JUMPDEST CALLVALUE ISZERO PUSH2 0x330 JUMPI PUSH1 0x0 DUP1 REVERT JUMPDEST PUSH2 0x35C PUSH1 0x4 DUP1 DUP1 CALLDATALOAD PUSH20 0xFFFFFFFFFFFFFFFFFFFFFFFFFFFFFFFFFFFFFFFF AND SWAP1 PUSH1 0x20 ADD SWAP1 SWAP2 SWAP1 POP POP PUSH2 0xD91 JUMP JUMPDEST STOP JUMPDEST CALLVALUE ISZERO PUSH2 0x369 JUMPI PUSH1 0x0 DUP1 REVERT JUMPDEST PUSH2 0x37F PUSH1 0x4 DUP1 DUP1 CALLDATALOAD SWAP1 PUSH1 0x20 ADD SWAP1 SWAP2 SWAP1 POP POP PUSH2 0xF99 JUMP JUMPDEST PUSH1 0x40 MLOAD DUP1 DUP3 ISZERO ISZERO ISZERO ISZERO DUP2 MSTORE PUSH1 0x20 ADD SWAP2 POP POP PUSH1 0x40 MLOAD DUP1 SWAP2 SUB SWAP1 RETURN JUMPDEST CALLVALUE ISZERO PUSH2 0x3A4 JUMPI PUSH1 0x0 DUP1 REVERT JUMPDEST PUSH2 0x3BA PUSH1 0x4 DUP1 DUP1 CALLDATALOAD SWAP1 PUSH1 0x20 ADD SWAP1 SWAP2 SWAP1 POP POP PUSH2 0x1081 JUMP JUMPDEST PUSH1 0x40 MLOAD DUP1 DUP3 DUP2 MSTORE PUSH1 0x20 ADD SWAP2 POP POP PUSH1 0x40 MLOAD DUP1 SWAP2 SUB SWAP1 RETURN JUMPDEST CALLVALUE ISZERO PUSH2 0x3DB JUMPI PUSH1 0x0 DUP1 REVERT JUMPDEST PUSH2 0x3F1 PUSH1 0x4 DUP1 DUP1 CALLDATALOAD SWAP1 PUSH1 0x20 ADD SWAP1 SWAP2 SWAP1 POP POP PUSH2 0x1150 JUMP JUMPDEST PUSH1 0x40 MLOAD DUP1 DUP6 PUSH20 0xFFFFFFFFFFFFFFFFFFFFFFFFFFFFFFFFFFFFFFFF AND PUSH20 0xFFFFFFFFFFFFFFFFFFFFFFFFFFFFFFFFFFFFFFFF AND DUP2 MSTORE PUSH1 0x20 ADD DUP5 DUP2 MSTORE PUSH1 0x20 ADD DUP1 PUSH1 0x20 ADD DUP4 ISZERO ISZERO ISZERO ISZERO DUP2 MSTORE PUSH1 0x20 ADD DUP3 DUP2 SUB DUP3 MSTORE DUP5 DUP2 DUP2 SLOAD PUSH1 0x1 DUP2 PUSH1 0x1 AND ISZERO PUSH2 0x100 MUL SUB AND PUSH1 0x2 SWAP1 DIV DUP2 MSTORE PUSH1 0x20 ADD SWAP2 POP DUP1 SLOAD PUSH1 0x1 DUP2 PUSH1 0x1 AND ISZERO PUSH2 0x100 MUL SUB AND PUSH1 0x2 SWAP1 DIV DUP1 ISZERO PUSH2 0x4BC JUMPI DUP1 PUSH1 0x1F LT PUSH2 0x491 JUMPI PUSH2 0x100 DUP1 DUP4 SLOAD DIV MUL DUP4 MSTORE SWAP2 PUSH1 0x20 ADD SWAP2 PUSH2 0x4BC JUMP JUMPDEST DUP3 ADD SWAP2 SWAP1 PUSH1 0x0 MSTORE PUSH1 0x20 PUSH1 0x0 KECCAK256 SWAP1 JUMPDEST DUP2 SLOAD DUP2 MSTORE SWAP1 PUSH1 0x1 ADD SWAP1 PUSH1 0x20 ADD DUP1 DUP4 GT PUSH2 0x49F JUMPI DUP3 SWAP1 SUB PUSH1 0x1F AND DUP3 ADD SWAP2 JUMPDEST POP POP SWAP6 POP POP POP POP POP POP PUSH1 0x40 MLOAD DUP1 SWAP2 SUB SWAP1 RETURN JUMPDEST CALLVALUE ISZERO PUSH2 0x4D9 JUMPI PUSH1 0x0 DUP1 REVERT JUMPDEST PUSH2 0x4E1 PUSH2 0x11AC JUMP JUMPDEST PUSH1 0x40 MLOAD DUP1 DUP1 PUSH1 0x20 ADD DUP3 DUP2 SUB DUP3 MSTORE DUP4 DUP2 DUP2 MLOAD DUP2 MSTORE PUSH1 0x20 ADD SWAP2 POP DUP1 MLOAD SWAP1 PUSH1 0x20 ADD SWAP1 PUSH1 0x20 MUL DUP1 DUP4 DUP4 PUSH1 0x0 JUMPDEST DUP4 DUP2 LT ISZERO PUSH2 0x525 JUMPI DUP1 DUP3 ADD MLOAD DUP2 DUP5 ADD MSTORE JUMPDEST PUSH1 0x20 DUP2 ADD SWAP1 POP PUSH2 0x509 JUMP JUMPDEST POP POP POP POP SWAP1 POP ADD SWAP3 POP POP POP PUSH1 0x40 MLOAD DUP1 SWAP2 SUB SWAP1 RETURN JUMPDEST CALLVALUE ISZERO PUSH2 0x544 JUMPI PUSH1 0x0 DUP1 REVERT JUMPDEST PUSH2 0x579 PUSH1 0x4 DUP1 DUP1 CALLDATALOAD SWAP1 PUSH1 0x20 ADD SWAP1 SWAP2 SWAP1 DUP1 CALLDATALOAD SWAP1 PUSH1 0x20 ADD SWAP1 SWAP2 SWAP1 DUP1 CALLDATALOAD ISZERO ISZERO SWAP1 PUSH1 0x20 ADD SWAP1 SWAP2 SWAP1 DUP1 CALLDATALOAD ISZERO ISZERO SWAP1 PUSH1 0x20 ADD SWAP1 SWAP2 SWAP1 POP POP PUSH2 0x1241 JUMP JUMPDEST PUSH1 0x40 MLOAD DUP1 DUP1 PUSH1 0x20 ADD DUP3 DUP2 SUB DUP3 MSTORE DUP4 DUP2 DUP2 MLOAD DUP2 MSTORE PUSH1 0x20 ADD SWAP2 POP DUP1 MLOAD SWAP1 PUSH1 0x20 ADD SWAP1 PUSH1 0x20 MUL DUP1 DUP4 DUP4 PUSH1 0x0 JUMPDEST DUP4 DUP2 LT ISZERO PUSH2 0x5BD JUMPI DUP1 DUP3 ADD MLOAD DUP2 DUP5 ADD MSTORE JUMPDEST PUSH1 0x20 DUP2 ADD SWAP1 POP PUSH2 0x5A1 JUMP JUMPDEST POP POP POP POP SWAP1 POP ADD SWAP3 POP POP POP PUSH1 0x40 MLOAD DUP1 SWAP2 SUB SWAP1 RETURN JUMPDEST CALLVALUE ISZERO PUSH2 0x5DC JUMPI PUSH1 0x0 DUP1 REVERT JUMPDEST PUSH2 0x5F2 PUSH1 0x4 DUP1 DUP1 CALLDATALOAD SWAP1 PUSH1 0x20 ADD SWAP1 SWAP2 SWAP1 POP POP PUSH2 0x13A2 JUMP JUMPDEST PUSH1 0x40 MLOAD DUP1 DUP1 PUSH1 0x20 ADD DUP3 DUP2 SUB DUP3 MSTORE DUP4 DUP2 DUP2 MLOAD DUP2 MSTORE PUSH1 0x20 ADD SWAP2 POP DUP1 MLOAD SWAP1 PUSH1 0x20 ADD SWAP1 PUSH1 0x20 MUL DUP1 DUP4 DUP4 PUSH1 0x0 JUMPDEST DUP4 DUP2 LT ISZERO PUSH2 0x636 JUMPI DUP1 DUP3 ADD MLOAD DUP2 DUP5 ADD MSTORE JUMPDEST PUSH1 0x20 DUP2 ADD SWAP1 POP PUSH2 0x61A JUMP JUMPDEST POP POP POP POP SWAP1 POP ADD SWAP3 POP POP POP PUSH1 0x40 MLOAD DUP1 SWAP2 SUB SWAP1 RETURN JUMPDEST CALLVALUE ISZERO PUSH2 0x655 JUMPI PUSH1 0x0 DUP1 REVERT JUMPDEST PUSH2 0x65D PUSH2 0x15D3 JUMP JUMPDEST PUSH1 0x40 MLOAD DUP1 DUP3 DUP2 MSTORE PUSH1 0x20 ADD SWAP2 POP POP PUSH1 0x40 MLOAD DUP1 SWAP2 SUB SWAP1 RETURN JUMPDEST CALLVALUE ISZERO PUSH2 0x67E JUMPI PUSH1 0x0 DUP1 REVERT JUMPDEST PUSH2 0x694 PUSH1 0x4 DUP1 DUP1 CALLDATALOAD SWAP1 PUSH1 0x20 ADD SWAP1 SWAP2 SWAP1 POP POP PUSH2 0x15D9 JUMP JUMPDEST STOP JUMPDEST CALLVALUE ISZERO PUSH2 0x6A1 JUMPI PUSH1 0x0 DUP1 REVERT JUMPDEST PUSH2 0x6B7 PUSH1 0x4 DUP1 DUP1 CALLDATALOAD SWAP1 PUSH1 0x20 ADD SWAP1 SWAP2 SWAP1 POP POP PUSH2 0x1696 JUMP JUMPDEST STOP JUMPDEST CALLVALUE ISZERO PUSH2 0x6C4 JUMPI PUSH1 0x0 DUP1 REVERT JUMPDEST PUSH2 0x73C PUSH1 0x4 DUP1 DUP1 CALLDATALOAD PUSH20 0xFFFFFFFFFFFFFFFFFFFFFFFFFFFFFFFFFFFFFFFF AND SWAP1 PUSH1 0x20 ADD SWAP1 SWAP2 SWAP1 DUP1 CALLDATALOAD SWAP1 PUSH1 0x20 ADD SWAP1 SWAP2 SWAP1 DUP1 CALLDATALOAD SWAP1 PUSH1 0x20 ADD SWAP1 DUP3 ADD DUP1 CALLDATALOAD SWAP1 PUSH1 0x20 ADD SWAP1 DUP1 DUP1 PUSH1 0x1F ADD PUSH1 0x20 DUP1 SWAP2 DIV MUL PUSH1 0x20 ADD PUSH1 0x40 MLOAD SWAP1 DUP2 ADD PUSH1 0x40 MSTORE DUP1 SWAP4 SWAP3 SWAP2 SWAP1 DUP2 DUP2 MSTORE PUSH1 0x20 ADD DUP4 DUP4 DUP1 DUP3 DUP5 CALLDATACOPY DUP3 ADD SWAP2 POP POP POP POP POP POP SWAP2 SWAP1 POP POP PUSH2 0x1877 JUMP JUMPDEST PUSH1 0x40 MLOAD DUP1 DUP3 DUP2 MSTORE PUSH1 0x20 ADD SWAP2 POP POP PUSH1 0x40 MLOAD DUP1 SWAP2 SUB SWAP1 RETURN JUMPDEST CALLVALUE ISZERO PUSH2 0x75D JUMPI PUSH1 0x0 DUP1 REVERT JUMPDEST PUSH2 0x765 PUSH2 0x1897 JUMP JUMPDEST PUSH1 0x40 MLOAD DUP1 DUP3 DUP2 MSTORE PUSH1 0x20 ADD SWAP2 POP POP PUSH1 0x40 MLOAD DUP1 SWAP2 SUB SWAP1 RETURN JUMPDEST CALLVALUE ISZERO PUSH2 0x786 JUMPI PUSH1 0x0 DUP1 REVERT JUMPDEST PUSH2 0x78E PUSH2 0x189C JUMP JUMPDEST PUSH1 0x40 MLOAD DUP1 DUP3 DUP2 MSTORE PUSH1 0x20 ADD SWAP2 POP POP PUSH1 0x40 MLOAD DUP1 SWAP2 SUB SWAP1 RETURN JUMPDEST CALLVALUE ISZERO PUSH2 0x7AF JUMPI PUSH1 0x0 DUP1 REVERT JUMPDEST PUSH2 0x7FA PUSH1 0x4 DUP1 DUP1 CALLDATALOAD PUSH20 0xFFFFFFFFFFFFFFFFFFFFFFFFFFFFFFFFFFFFFFFF AND SWAP1 PUSH1 0x20 ADD SWAP1 SWAP2 SWAP1 DUP1 CALLDATALOAD PUSH20 0xFFFFFFFFFFFFFFFFFFFFFFFFFFFFFFFFFFFFFFFF AND SWAP1 PUSH1 0x20 ADD SWAP1 SWAP2 SWAP1 POP POP PUSH2 0x18A2 JUMP JUMPDEST STOP JUMPDEST CALLVALUE ISZERO PUSH2 0x807 JUMPI PUSH1 0x0 DUP1 REVERT JUMPDEST PUSH2 0x81D PUSH1 0x4 DUP1 DUP1 CALLDATALOAD SWAP1 PUSH1 0x20 ADD SWAP1 SWAP2 SWAP1 POP POP PUSH2 0x1BC0 JUMP JUMPDEST STOP JUMPDEST PUSH1 0x3 DUP2 DUP2 SLOAD DUP2 LT ISZERO ISZERO PUSH2 0x82E JUMPI INVALID JUMPDEST SWAP1 PUSH1 0x0 MSTORE PUSH1 0x20 PUSH1 0x0 KECCAK256 SWAP1 ADD PUSH1 0x0 JUMPDEST SWAP2 POP SLOAD SWAP1 PUSH2 0x100 EXP SWAP1 DIV PUSH20 0xFFFFFFFFFFFFFFFFFFFFFFFFFFFFFFFFFFFFFFFF AND DUP2 JUMP JUMPDEST PUSH1 0x0 ADDRESS PUSH20 0xFFFFFFFFFFFFFFFFFFFFFFFFFFFFFFFFFFFFFFFF AND CALLER PUSH20 0xFFFFFFFFFFFFFFFFFFFFFFFFFFFFFFFFFFFFFFFF AND EQ ISZERO ISZERO PUSH2 0x89B JUMPI PUSH1 0x0 DUP1 REVERT JUMPDEST DUP2 PUSH1 0x2 PUSH1 0x0 DUP3 PUSH20 0xFFFFFFFFFFFFFFFFFFFFFFFFFFFFFFFFFFFFFFFF AND PUSH20 0xFFFFFFFFFFFFFFFFFFFFFFFFFFFFFFFFFFFFFFFF AND DUP2 MSTORE PUSH1 0x20 ADD SWAP1 DUP2 MSTORE PUSH1 0x20 ADD PUSH1 0x0 KECCAK256 PUSH1 0x0 SWAP1 SLOAD SWAP1 PUSH2 0x100 EXP SWAP1 DIV PUSH1 0xFF AND ISZERO ISZERO PUSH2 0x8F4 JUMPI PUSH1 0x0 DUP1 REVERT JUMPDEST PUSH1 0x0 PUSH1 0x2 PUSH1 0x0 DUP6 PUSH20 0xFFFFFFFFFFFFFFFFFFFFFFFFFFFFFFFFFFFFFFFF AND PUSH20 0xFFFFFFFFFFFFFFFFFFFFFFFFFFFFFFFFFFFFFFFF AND DUP2 MSTORE PUSH1 0x20 ADD SWAP1 DUP2 MSTORE PUSH1 0x20 ADD PUSH1 0x0 KECCAK256 PUSH1 0x0 PUSH2 0x100 EXP DUP2 SLOAD DUP2 PUSH1 0xFF MUL NOT AND SWAP1 DUP4 ISZERO ISZERO MUL OR SWAP1 SSTORE POP PUSH1 0x0 SWAP2 POP JUMPDEST PUSH1 0x1 PUSH1 0x3 DUP1 SLOAD SWAP1 POP SUB DUP3 LT ISZERO PUSH2 0xA80 JUMPI DUP3 PUSH20 0xFFFFFFFFFFFFFFFFFFFFFFFFFFFFFFFFFFFFFFFF AND PUSH1 0x3 DUP4 DUP2 SLOAD DUP2 LT ISZERO ISZERO PUSH2 0x987 JUMPI INVALID JUMPDEST SWAP1 PUSH1 0x0 MSTORE PUSH1 0x20 PUSH1 0x0 KECCAK256 SWAP1 ADD PUSH1 0x0 JUMPDEST SWAP1 SLOAD SWAP1 PUSH2 0x100 EXP SWAP1 DIV PUSH20 0xFFFFFFFFFFFFFFFFFFFFFFFFFFFFFFFFFFFFFFFF AND PUSH20 0xFFFFFFFFFFFFFFFFFFFFFFFFFFFFFFFFFFFFFFFF AND EQ ISZERO PUSH2 0xA72 JUMPI PUSH1 0x3 PUSH1 0x1 PUSH1 0x3 DUP1 SLOAD SWAP1 POP SUB DUP2 SLOAD DUP2 LT ISZERO ISZERO PUSH2 0x9E7 JUMPI INVALID JUMPDEST SWAP1 PUSH1 0x0 MSTORE PUSH1 0x20 PUSH1 0x0 KECCAK256 SWAP1 ADD PUSH1 0x0 JUMPDEST SWAP1 SLOAD SWAP1 PUSH2 0x100 EXP SWAP1 DIV PUSH20 0xFFFFFFFFFFFFFFFFFFFFFFFFFFFFFFFFFFFFFFFF AND PUSH1 0x3 DUP4 DUP2 SLOAD DUP2 LT ISZERO ISZERO PUSH2 0xA23 JUMPI INVALID JUMPDEST SWAP1 PUSH1 0x0 MSTORE PUSH1 0x20 PUSH1 0x0 KECCAK256 SWAP1 ADD PUSH1 0x0 JUMPDEST PUSH2 0x100 EXP DUP2 SLOAD DUP2 PUSH20 0xFFFFFFFFFFFFFFFFFFFFFFFFFFFFFFFFFFFFFFFF MUL NOT AND SWAP1 DUP4 PUSH20 0xFFFFFFFFFFFFFFFFFFFFFFFFFFFFFFFFFFFFFFFF AND MUL OR SWAP1 SSTORE POP PUSH2 0xA80 JUMP JUMPDEST JUMPDEST DUP2 DUP1 PUSH1 0x1 ADD SWAP3 POP POP PUSH2 0x951 JUMP JUMPDEST PUSH1 0x1 PUSH1 0x3 DUP2 DUP2 DUP1 SLOAD SWAP1 POP SUB SWAP2 POP DUP2 PUSH2 0xA98 SWAP2 SWAP1 PUSH2 0x1FE8 JUMP JUMPDEST POP PUSH1 0x3 DUP1 SLOAD SWAP1 POP PUSH1 0x4 SLOAD GT ISZERO PUSH2 0xAB7 JUMPI PUSH2 0xAB6 PUSH1 0x3 DUP1 SLOAD SWAP1 POP PUSH2 0x15D9 JUMP JUMPDEST JUMPDEST DUP3 PUSH20 0xFFFFFFFFFFFFFFFFFFFFFFFFFFFFFFFFFFFFFFFF AND PUSH32 0x8001553A916EF2F495D26A907CC54D96ED840D7BDA71E73194BF5A9DF7A76B90 PUSH1 0x40 MLOAD PUSH1 0x40 MLOAD DUP1 SWAP2 SUB SWAP1 LOG2 JUMPDEST JUMPDEST POP JUMPDEST POP POP JUMP JUMPDEST CALLER PUSH1 0x2 PUSH1 0x0 DUP3 PUSH20 0xFFFFFFFFFFFFFFFFFFFFFFFFFFFFFFFFFFFFFFFF AND PUSH20 0xFFFFFFFFFFFFFFFFFFFFFFFFFFFFFFFFFFFFFFFF AND DUP2 MSTORE PUSH1 0x20 ADD SWAP1 DUP2 MSTORE PUSH1 0x20 ADD PUSH1 0x0 KECCAK256 PUSH1 0x0 SWAP1 SLOAD SWAP1 PUSH2 0x100 EXP SWAP1 DIV PUSH1 0xFF AND ISZERO ISZERO PUSH2 0xB5B JUMPI PUSH1 0x0 DUP1 REVERT JUMPDEST DUP2 CALLER PUSH1 0x1 PUSH1 0x0 DUP4 DUP2 MSTORE PUSH1 0x20 ADD SWAP1 DUP2 MSTORE PUSH1 0x20 ADD PUSH1 0x0 KECCAK256 PUSH1 0x0 DUP3 PUSH20 0xFFFFFFFFFFFFFFFFFFFFFFFFFFFFFFFFFFFFFFFF AND PUSH20 0xFFFFFFFFFFFFFFFFFFFFFFFFFFFFFFFFFFFFFFFF AND DUP2 MSTORE PUSH1 0x20 ADD SWAP1 DUP2 MSTORE PUSH1 0x20 ADD PUSH1 0x0 KECCAK256 PUSH1 0x0 SWAP1 SLOAD SWAP1 PUSH2 0x100 EXP SWAP1 DIV PUSH1 0xFF AND ISZERO ISZERO PUSH2 0xBC6 JUMPI PUSH1 0x0 DUP1 REVERT JUMPDEST DUP4 PUSH1 0x0 DUP1 DUP3 DUP2 MSTORE PUSH1 0x20 ADD SWAP1 DUP2 MSTORE PUSH1 0x20 ADD PUSH1 0x0 KECCAK256 PUSH1 0x3 ADD PUSH1 0x0 SWAP1 SLOAD SWAP1 PUSH2 0x100 EXP SWAP1 DIV PUSH1 0xFF AND ISZERO ISZERO ISZERO PUSH2 0xBF6 JUMPI PUSH1 0x0 DUP1 REVERT JUMPDEST PUSH1 0x0 PUSH1 0x1 PUSH1 0x0 DUP8 DUP2 MSTORE PUSH1 0x20 ADD SWAP1 DUP2 MSTORE PUSH1 0x20 ADD PUSH1 0x0 KECCAK256 PUSH1 0x0 CALLER PUSH20 0xFFFFFFFFFFFFFFFFFFFFFFFFFFFFFFFFFFFFFFFF AND PUSH20 0xFFFFFFFFFFFFFFFFFFFFFFFFFFFFFFFFFFFFFFFF AND DUP2 MSTORE PUSH1 0x20 ADD SWAP1 DUP2 MSTORE PUSH1 0x20 ADD PUSH1 0x0 KECCAK256 PUSH1 0x0 PUSH2 0x100 EXP DUP2 SLOAD DUP2 PUSH1 0xFF MUL NOT AND SWAP1 DUP4 ISZERO ISZERO MUL OR SWAP1 SSTORE POP DUP5 CALLER PUSH20 0xFFFFFFFFFFFFFFFFFFFFFFFFFFFFFFFFFFFFFFFF AND PUSH32 0xF6A317157440607F36269043EB55F1287A5A19BA2216AFEAB88CD46CBCFB88E9 PUSH1 0x40 MLOAD PUSH1 0x40 MLOAD DUP1 SWAP2 SUB SWAP1 LOG3 JUMPDEST JUMPDEST POP JUMPDEST POP POP JUMPDEST POP POP JUMP JUMPDEST PUSH1 0x2 PUSH1 0x20 MSTORE DUP1 PUSH1 0x0 MSTORE PUSH1 0x40 PUSH1 0x0 KECCAK256 PUSH1 0x0 SWAP2 POP SLOAD SWAP1 PUSH2 0x100 EXP SWAP1 DIV PUSH1 0xFF AND DUP2 JUMP JUMPDEST PUSH1 0x1 PUSH1 0x20 MSTORE DUP2 PUSH1 0x0 MSTORE PUSH1 0x40 PUSH1 0x0 KECCAK256 PUSH1 0x20 MSTORE DUP1 PUSH1 0x0 MSTORE PUSH1 0x40 PUSH1 0x0 KECCAK256 PUSH1 0x0 SWAP2 POP SWAP2 POP SWAP1 SLOAD SWAP1 PUSH2 0x100 EXP SWAP1 DIV PUSH1 0xFF AND DUP2 JUMP JUMPDEST PUSH1 0x0 DUP1 PUSH1 0x0 SWAP1 POP JUMPDEST PUSH1 0x5 SLOAD DUP2 LT ISZERO PUSH2 0xD89 JUMPI DUP4 DUP1 ISZERO PUSH2 0xD3C JUMPI POP PUSH1 0x0 DUP1 DUP3 DUP2 MSTORE PUSH1 0x20 ADD SWAP1 DUP2 MSTORE PUSH1 0x20 ADD PUSH1 0x0 KECCAK256 PUSH1 0x3 ADD PUSH1 0x0 SWAP1 SLOAD SWAP1 PUSH2 0x100 EXP SWAP1 DIV PUSH1 0xFF AND ISZERO JUMPDEST DUP1 PUSH2 0xD6F JUMPI POP DUP3 DUP1 ISZERO PUSH2 0xD6E JUMPI POP PUSH1 0x0 DUP1 DUP3 DUP2 MSTORE PUSH1 0x20 ADD SWAP1 DUP2 MSTORE PUSH1 0x20 ADD PUSH1 0x0 KECCAK256 PUSH1 0x3 ADD PUSH1 0x0 SWAP1 SLOAD SWAP1 PUSH2 0x100 EXP SWAP1 DIV PUSH1 0xFF AND JUMPDEST JUMPDEST ISZERO PUSH2 0xD7B JUMPI PUSH1 0x1 DUP3 ADD SWAP2 POP JUMPDEST JUMPDEST DUP1 DUP1 PUSH1 0x1 ADD SWAP2 POP POP PUSH2 0xD05 JUMP JUMPDEST JUMPDEST POP SWAP3 SWAP2 POP POP JUMP JUMPDEST ADDRESS PUSH20 0xFFFFFFFFFFFFFFFFFFFFFFFFFFFFFFFFFFFFFFFF AND CALLER PUSH20 0xFFFFFFFFFFFFFFFFFFFFFFFFFFFFFFFFFFFFFFFF AND EQ ISZERO ISZERO PUSH2 0xDCB JUMPI PUSH1 0x0 DUP1 REVERT JUMPDEST DUP1 PUSH1 0x2 PUSH1 0x0 DUP3 PUSH20 0xFFFFFFFFFFFFFFFFFFFFFFFFFFFFFFFFFFFFFFFF AND PUSH20 0xFFFFFFFFFFFFFFFFFFFFFFFFFFFFFFFFFFFFFFFF AND DUP2 MSTORE PUSH1 0x20 ADD SWAP1 DUP2 MSTORE PUSH1 0x20 ADD PUSH1 0x0 KECCAK256 PUSH1 0x0 SWAP1 SLOAD SWAP1 PUSH2 0x100 EXP SWAP1 DIV PUSH1 0xFF AND ISZERO ISZERO ISZERO PUSH2 0xE25 JUMPI PUSH1 0x0 DUP1 REVERT JUMPDEST DUP2 PUSH1 0x0 DUP2 PUSH20 0xFFFFFFFFFFFFFFFFFFFFFFFFFFFFFFFFFFFFFFFF AND EQ ISZERO ISZERO ISZERO PUSH2 0xE4C JUMPI PUSH1 0x0 DUP1 REVERT JUMPDEST PUSH1 0x1 PUSH1 0x3 DUP1 SLOAD SWAP1 POP ADD PUSH1 0x4 SLOAD PUSH1 0x32 DUP3 GT ISZERO DUP1 ISZERO PUSH2 0xE69 JUMPI POP DUP2 DUP2 GT ISZERO JUMPDEST DUP1 ISZERO PUSH2 0xE76 JUMPI POP PUSH1 0x0 DUP2 EQ ISZERO JUMPDEST DUP1 ISZERO PUSH2 0xE83 JUMPI POP PUSH1 0x0 DUP3 EQ ISZERO JUMPDEST ISZERO ISZERO PUSH2 0xE8E JUMPI PUSH1 0x0 DUP1 REVERT JUMPDEST PUSH1 0x1 PUSH1 0x2 PUSH1 0x0 DUP8 PUSH20 0xFFFFFFFFFFFFFFFFFFFFFFFFFFFFFFFFFFFFFFFF AND PUSH20 0xFFFFFFFFFFFFFFFFFFFFFFFFFFFFFFFFFFFFFFFF AND DUP2 MSTORE PUSH1 0x20 ADD SWAP1 DUP2 MSTORE PUSH1 0x20 ADD PUSH1 0x0 KECCAK256 PUSH1 0x0 PUSH2 0x100 EXP DUP2 SLOAD DUP2 PUSH1 0xFF MUL NOT AND SWAP1 DUP4 ISZERO ISZERO MUL OR SWAP1 SSTORE POP PUSH1 0x3 DUP1 SLOAD DUP1 PUSH1 0x1 ADD DUP3 DUP2 PUSH2 0xEFA SWAP2 SWAP1 PUSH2 0x2014 JUMP JUMPDEST SWAP2 PUSH1 0x0 MSTORE PUSH1 0x20 PUSH1 0x0 KECCAK256 SWAP1 ADD PUSH1 0x0 JUMPDEST DUP8 SWAP1 SWAP2 SWAP1 SWAP2 PUSH2 0x100 EXP DUP2 SLOAD DUP2 PUSH20 0xFFFFFFFFFFFFFFFFFFFFFFFFFFFFFFFFFFFFFFFF MUL NOT AND SWAP1 DUP4 PUSH20 0xFFFFFFFFFFFFFFFFFFFFFFFFFFFFFFFFFFFFFFFF AND MUL OR SWAP1 SSTORE POP POP DUP5 PUSH20 0xFFFFFFFFFFFFFFFFFFFFFFFFFFFFFFFFFFFFFFFF AND PUSH32 0xF39E6E1EB0EDCF53C221607B54B00CD28F3196FED0A24994DC308B8F611B682D PUSH1 0x40 MLOAD PUSH1 0x40 MLOAD DUP1 SWAP2 SUB SWAP1 LOG2 JUMPDEST JUMPDEST POP POP JUMPDEST POP JUMPDEST POP JUMPDEST POP JUMP JUMPDEST PUSH1 0x0 DUP1 PUSH1 0x0 DUP1 SWAP2 POP PUSH1 0x0 SWAP1 POP JUMPDEST PUSH1 0x3 DUP1 SLOAD SWAP1 POP DUP2 LT ISZERO PUSH2 0x1079 JUMPI PUSH1 0x1 PUSH1 0x0 DUP6 DUP2 MSTORE PUSH1 0x20 ADD SWAP1 DUP2 MSTORE PUSH1 0x20 ADD PUSH1 0x0 KECCAK256 PUSH1 0x0 PUSH1 0x3 DUP4 DUP2 SLOAD DUP2 LT ISZERO ISZERO PUSH2 0xFD7 JUMPI INVALID JUMPDEST SWAP1 PUSH1 0x0 MSTORE PUSH1 0x20 PUSH1 0x0 KECCAK256 SWAP1 ADD PUSH1 0x0 JUMPDEST SWAP1 SLOAD SWAP1 PUSH2 0x100 EXP SWAP1 DIV PUSH20 0xFFFFFFFFFFFFFFFFFFFFFFFFFFFFFFFFFFFFFFFF AND PUSH20 0xFFFFFFFFFFFFFFFFFFFFFFFFFFFFFFFFFFFFFFFF AND PUSH20 0xFFFFFFFFFFFFFFFFFFFFFFFFFFFFFFFFFFFFFFFF AND DUP2 MSTORE PUSH1 0x20 ADD SWAP1 DUP2 MSTORE PUSH1 0x20 ADD PUSH1 0x0 KECCAK256 PUSH1 0x0 SWAP1 SLOAD SWAP1 PUSH2 0x100 EXP SWAP1 DIV PUSH1 0xFF AND ISZERO PUSH2 0x1058 JUMPI PUSH1 0x1 DUP3 ADD SWAP2 POP JUMPDEST PUSH1 0x4 SLOAD DUP3 EQ ISZERO PUSH2 0x106B JUMPI PUSH1 0x1 SWAP3 POP PUSH2 0x107A JUMP JUMPDEST JUMPDEST DUP1 DUP1 PUSH1 0x1 ADD SWAP2 POP POP PUSH2 0xFA6 JUMP JUMPDEST JUMPDEST POP POP SWAP2 SWAP1 POP JUMP JUMPDEST PUSH1 0x0 DUP1 PUSH1 0x0 SWAP1 POP JUMPDEST PUSH1 0x3 DUP1 SLOAD SWAP1 POP DUP2 LT ISZERO PUSH2 0x1149 JUMPI PUSH1 0x1 PUSH1 0x0 DUP5 DUP2 MSTORE PUSH1 0x20 ADD SWAP1 DUP2 MSTORE PUSH1 0x20 ADD PUSH1 0x0 KECCAK256 PUSH1 0x0 PUSH1 0x3 DUP4 DUP2 SLOAD DUP2 LT ISZERO ISZERO PUSH2 0x10BA JUMPI INVALID JUMPDEST SWAP1 PUSH1 0x0 MSTORE PUSH1 0x20 PUSH1 0x0 KECCAK256 SWAP1 ADD PUSH1 0x0 JUMPDEST SWAP1 SLOAD SWAP1 PUSH2 0x100 EXP SWAP1 DIV PUSH20 0xFFFFFFFFFFFFFFFFFFFFFFFFFFFFFFFFFFFFFFFF AND PUSH20 0xFFFFFFFFFFFFFFFFFFFFFFFFFFFFFFFFFFFFFFFF AND PUSH20 0xFFFFFFFFFFFFFFFFFFFFFFFFFFFFFFFFFFFFFFFF AND DUP2 MSTORE PUSH1 0x20 ADD SWAP1 DUP2 MSTORE PUSH1 0x20 ADD PUSH1 0x0 KECCAK256 PUSH1 0x0 SWAP1 SLOAD SWAP1 PUSH2 0x100 EXP SWAP1 DIV PUSH1 0xFF AND ISZERO PUSH2 0x113B JUMPI PUSH1 0x1 DUP3 ADD SWAP2 POP JUMPDEST JUMPDEST DUP1 DUP1 PUSH1 0x1 ADD SWAP2 POP POP PUSH2 0x1089 JUMP JUMPDEST JUMPDEST POP SWAP2 SWAP1 POP JUMP JUMPDEST PUSH1 0x0 PUSH1 0x20 MSTORE DUP1 PUSH1 0x0 MSTORE PUSH1 0x40 PUSH1 0x0 KECCAK256 PUSH1 0x0 SWAP2 POP SWAP1 POP DUP1 PUSH1 0x0 ADD PUSH1 0x0 SWAP1 SLOAD SWAP1 PUSH2 0x100 EXP SWAP1 DIV PUSH20 0xFFFFFFFFFFFFFFFFFFFFFFFFFFFFFFFFFFFFFFFF AND SWAP1 DUP1 PUSH1 0x1 ADD SLOAD SWAP1 DUP1 PUSH1 0x2 ADD SWAP1 DUP1 PUSH1 0x3 ADD PUSH1 0x0 SWAP1 SLOAD SWAP1 PUSH2 0x100 EXP SWAP1 DIV PUSH1 0xFF AND SWAP1 POP DUP5 JUMP JUMPDEST PUSH2 0x11B4 PUSH2 0x2040 JUMP JUMPDEST PUSH1 0x3 DUP1 SLOAD DUP1 PUSH1 0x20 MUL PUSH1 0x20 ADD PUSH1 0x40 MLOAD SWAP1 DUP2 ADD PUSH1 0x40 MSTORE DUP1 SWAP3 SWAP2 SWAP1 DUP2 DUP2 MSTORE PUSH1 0x20 ADD DUP3 DUP1 SLOAD DUP1 ISZERO PUSH2 0x1236 JUMPI PUSH1 0x20 MUL DUP3 ADD SWAP2 SWAP1 PUSH1 0x0 MSTORE PUSH1 0x20 PUSH1 0x0 KECCAK256 SWAP1 JUMPDEST DUP2 PUSH1 0x0 SWAP1 SLOAD SWAP1 PUSH2 0x100 EXP SWAP1 DIV PUSH20 0xFFFFFFFFFFFFFFFFFFFFFFFFFFFFFFFFFFFFFFFF AND PUSH20 0xFFFFFFFFFFFFFFFFFFFFFFFFFFFFFFFFFFFFFFFF AND DUP2 MSTORE PUSH1 0x20 ADD SWAP1 PUSH1 0x1 ADD SWAP1 DUP1 DUP4 GT PUSH2 0x11EC JUMPI JUMPDEST POP POP POP POP POP SWAP1 POP JUMPDEST SWAP1 JUMP JUMPDEST PUSH2 0x1249 PUSH2 0x2054 JUMP JUMPDEST PUSH2 0x1251 PUSH2 0x2054 JUMP JUMPDEST PUSH1 0x0 DUP1 PUSH1 0x5 SLOAD PUSH1 0x40 MLOAD DUP1 MSIZE LT PUSH2 0x1264 JUMPI POP MSIZE JUMPDEST SWAP1 DUP1 DUP3 MSTORE DUP1 PUSH1 0x20 MUL PUSH1 0x20 ADD DUP3 ADD PUSH1 0x40 MSTORE JUMPDEST POP SWAP3 POP PUSH1 0x0 SWAP2 POP PUSH1 0x0 SWAP1 POP JUMPDEST PUSH1 0x5 SLOAD DUP2 LT ISZERO PUSH2 0x1322 JUMPI DUP6 DUP1 ISZERO PUSH2 0x12B8 JUMPI POP PUSH1 0x0 DUP1 DUP3 DUP2 MSTORE PUSH1 0x20 ADD SWAP1 DUP2 MSTORE PUSH1 0x20 ADD PUSH1 0x0 KECCAK256 PUSH1 0x3 ADD PUSH1 0x0 SWAP1 SLOAD SWAP1 PUSH2 0x100 EXP SWAP1 DIV PUSH1 0xFF AND ISZERO JUMPDEST DUP1 PUSH2 0x12EB JUMPI POP DUP5 DUP1 ISZERO PUSH2 0x12EA JUMPI POP PUSH1 0x0 DUP1 DUP3 DUP2 MSTORE PUSH1 0x20 ADD SWAP1 DUP2 MSTORE PUSH1 0x20 ADD PUSH1 0x0 KECCAK256 PUSH1 0x3 ADD PUSH1 0x0 SWAP1 SLOAD SWAP1 PUSH2 0x100 EXP SWAP1 DIV PUSH1 0xFF AND JUMPDEST JUMPDEST ISZERO PUSH2 0x1314 JUMPI DUP1 DUP4 DUP4 DUP2 MLOAD DUP2 LT ISZERO ISZERO PUSH2 0x12FF JUMPI INVALID JUMPDEST SWAP1 PUSH1 0x20 ADD SWAP1 PUSH1 0x20 MUL ADD DUP2 DUP2 MSTORE POP POP PUSH1 0x1 DUP3 ADD SWAP2 POP JUMPDEST JUMPDEST DUP1 DUP1 PUSH1 0x1 ADD SWAP2 POP POP PUSH2 0x1281 JUMP JUMPDEST DUP8 DUP8 SUB PUSH1 0x40 MLOAD DUP1 MSIZE LT PUSH2 0x1332 JUMPI POP MSIZE JUMPDEST SWAP1 DUP1 DUP3 MSTORE DUP1 PUSH1 0x20 MUL PUSH1 0x20 ADD DUP3 ADD PUSH1 0x40 MSTORE JUMPDEST POP SWAP4 POP DUP8 SWAP1 POP JUMPDEST DUP7 DUP2 LT ISZERO PUSH2 0x1396 JUMPI DUP3 DUP2 DUP2 MLOAD DUP2 LT ISZERO ISZERO PUSH2 0x1360 JUMPI INVALID JUMPDEST SWAP1 PUSH1 0x20 ADD SWAP1 PUSH1 0x20 MUL ADD MLOAD DUP5 DUP10 DUP4 SUB DUP2 MLOAD DUP2 LT ISZERO ISZERO PUSH2 0x137A JUMPI INVALID JUMPDEST SWAP1 PUSH1 0x20 ADD SWAP1 PUSH1 0x20 MUL ADD DUP2 DUP2 MSTORE POP POP JUMPDEST DUP1 DUP1 PUSH1 0x1 ADD SWAP2 POP POP PUSH2 0x134A JUMP JUMPDEST JUMPDEST POP POP POP SWAP5 SWAP4 POP POP POP POP JUMP JUMPDEST PUSH2 0x13AA PUSH2 0x2040 JUMP JUMPDEST PUSH2 0x13B2 PUSH2 0x2040 JUMP JUMPDEST PUSH1 0x0 DUP1 PUSH1 0x3 DUP1 SLOAD SWAP1 POP PUSH1 0x40 MLOAD DUP1 MSIZE LT PUSH2 0x13C8 JUMPI POP MSIZE JUMPDEST SWAP1 DUP1 DUP3 MSTORE DUP1 PUSH1 0x20 MUL PUSH1 0x20 ADD DUP3 ADD PUSH1 0x40 MSTORE JUMPDEST POP SWAP3 POP PUSH1 0x0 SWAP2 POP PUSH1 0x0 SWAP1 POP JUMPDEST PUSH1 0x3 DUP1 SLOAD SWAP1 POP DUP2 LT ISZERO PUSH2 0x152B JUMPI PUSH1 0x1 PUSH1 0x0 DUP7 DUP2 MSTORE PUSH1 0x20 ADD SWAP1 DUP2 MSTORE PUSH1 0x20 ADD PUSH1 0x0 KECCAK256 PUSH1 0x0 PUSH1 0x3 DUP4 DUP2 SLOAD DUP2 LT ISZERO ISZERO PUSH2 0x1416 JUMPI INVALID JUMPDEST SWAP1 PUSH1 0x0 MSTORE PUSH1 0x20 PUSH1 0x0 KECCAK256 SWAP1 ADD PUSH1 0x0 JUMPDEST SWAP1 SLOAD SWAP1 PUSH2 0x100 EXP SWAP1 DIV PUSH20 0xFFFFFFFFFFFFFFFFFFFFFFFFFFFFFFFFFFFFFFFF AND PUSH20 0xFFFFFFFFFFFFFFFFFFFFFFFFFFFFFFFFFFFFFFFF AND PUSH20 0xFFFFFFFFFFFFFFFFFFFFFFFFFFFFFFFFFFFFFFFF AND DUP2 MSTORE PUSH1 0x20 ADD SWAP1 DUP2 MSTORE PUSH1 0x20 ADD PUSH1 0x0 KECCAK256 PUSH1 0x0 SWAP1 SLOAD SWAP1 PUSH2 0x100 EXP SWAP1 DIV PUSH1 0xFF AND ISZERO PUSH2 0x151D JUMPI PUSH1 0x3 DUP2 DUP2 SLOAD DUP2 LT ISZERO ISZERO PUSH2 0x149F JUMPI INVALID JUMPDEST SWAP1 PUSH1 0x0 MSTORE PUSH1 0x20 PUSH1 0x0 KECCAK256 SWAP1 ADD PUSH1 0x0 JUMPDEST SWAP1 SLOAD SWAP1 PUSH2 0x100 EXP SWAP1 DIV PUSH20 0xFFFFFFFFFFFFFFFFFFFFFFFFFFFFFFFFFFFFFFFF AND DUP4 DUP4 DUP2 MLOAD DUP2 LT ISZERO ISZERO PUSH2 0x14DA JUMPI INVALID JUMPDEST SWAP1 PUSH1 0x20 ADD SWAP1 PUSH1 0x20 MUL ADD SWAP1 PUSH20 0xFFFFFFFFFFFFFFFFFFFFFFFFFFFFFFFFFFFFFFFF AND SWAP1 DUP2 PUSH20 0xFFFFFFFFFFFFFFFFFFFFFFFFFFFFFFFFFFFFFFFF AND DUP2 MSTORE POP POP PUSH1 0x1 DUP3 ADD SWAP2 POP JUMPDEST JUMPDEST DUP1 DUP1 PUSH1 0x1 ADD SWAP2 POP POP PUSH2 0x13E5 JUMP JUMPDEST DUP2 PUSH1 0x40 MLOAD DUP1 MSIZE LT PUSH2 0x1539 JUMPI POP MSIZE JUMPDEST SWAP1 DUP1 DUP3 MSTORE DUP1 PUSH1 0x20 MUL PUSH1 0x20 ADD DUP3 ADD PUSH1 0x40 MSTORE JUMPDEST POP SWAP4 POP PUSH1 0x0 SWAP1 POP JUMPDEST DUP2 DUP2 LT ISZERO PUSH2 0x15CA JUMPI DUP3 DUP2 DUP2 MLOAD DUP2 LT ISZERO ISZERO PUSH2 0x1568 JUMPI INVALID JUMPDEST SWAP1 PUSH1 0x20 ADD SWAP1 PUSH1 0x20 MUL ADD MLOAD DUP5 DUP3 DUP2 MLOAD DUP2 LT ISZERO ISZERO PUSH2 0x1580 JUMPI INVALID JUMPDEST SWAP1 PUSH1 0x20 ADD SWAP1 PUSH1 0x20 MUL ADD SWAP1 PUSH20 0xFFFFFFFFFFFFFFFFFFFFFFFFFFFFFFFFFFFFFFFF AND SWAP1 DUP2 PUSH20 0xFFFFFFFFFFFFFFFFFFFFFFFFFFFFFFFFFFFFFFFF AND DUP2 MSTORE POP POP JUMPDEST DUP1 DUP1 PUSH1 0x1 ADD SWAP2 POP POP PUSH2 0x1552 JUMP JUMPDEST JUMPDEST POP POP POP SWAP2 SWAP1 POP JUMP JUMPDEST PUSH1 0x5 SLOAD DUP2 JUMP JUMPDEST ADDRESS PUSH20 0xFFFFFFFFFFFFFFFFFFFFFFFFFFFFFFFFFFFFFFFF AND CALLER PUSH20 0xFFFFFFFFFFFFFFFFFFFFFFFFFFFFFFFFFFFFFFFF AND EQ ISZERO ISZERO PUSH2 0x1613 JUMPI PUSH1 0x0 DUP1 REVERT JUMPDEST PUSH1 0x3 DUP1 SLOAD SWAP1 POP DUP2 PUSH1 0x32 DUP3 GT ISZERO DUP1 ISZERO PUSH2 0x162B JUMPI POP DUP2 DUP2 GT ISZERO JUMPDEST DUP1 ISZERO PUSH2 0x1638 JUMPI POP PUSH1 0x0 DUP2 EQ ISZERO JUMPDEST DUP1 ISZERO PUSH2 0x1645 JUMPI POP PUSH1 0x0 DUP3 EQ ISZERO JUMPDEST ISZERO ISZERO PUSH2 0x1650 JUMPI PUSH1 0x0 DUP1 REVERT JUMPDEST DUP3 PUSH1 0x4 DUP2 SWAP1 SSTORE POP PUSH32 0xA3F1EE9126A074D9326C682F561767F710E927FAA811F7A99829D49DC421797A DUP4 PUSH1 0x40 MLOAD DUP1 DUP3 DUP2 MSTORE PUSH1 0x20 ADD SWAP2 POP POP PUSH1 0x40 MLOAD DUP1 SWAP2 SUB SWAP1 LOG1 JUMPDEST JUMPDEST POP POP JUMPDEST POP JUMP JUMPDEST CALLER PUSH1 0x2 PUSH1 0x0 DUP3 PUSH20 0xFFFFFFFFFFFFFFFFFFFFFFFFFFFFFFFFFFFFFFFF AND PUSH20 0xFFFFFFFFFFFFFFFFFFFFFFFFFFFFFFFFFFFFFFFF AND DUP2 MSTORE PUSH1 0x20 ADD SWAP1 DUP2 MSTORE PUSH1 0x20 ADD PUSH1 0x0 KECCAK256 PUSH1 0x0 SWAP1 SLOAD SWAP1 PUSH2 0x100 EXP SWAP1 DIV PUSH1 0xFF AND ISZERO ISZERO PUSH2 0x16EF JUMPI PUSH1 0x0 DUP1 REVERT JUMPDEST DUP2 PUSH1 0x0 DUP1 PUSH1 0x0 DUP4 DUP2 MSTORE PUSH1 0x20 ADD SWAP1 DUP2 MSTORE PUSH1 0x20 ADD PUSH1 0x0 KECCAK256 PUSH1 0x0 ADD PUSH1 0x0 SWAP1 SLOAD SWAP1 PUSH2 0x100 EXP SWAP1 DIV PUSH20 0xFFFFFFFFFFFFFFFFFFFFFFFFFFFFFFFFFFFFFFFF AND PUSH20 0xFFFFFFFFFFFFFFFFFFFFFFFFFFFFFFFFFFFFFFFF AND EQ ISZERO ISZERO ISZERO PUSH2 0x174B JUMPI PUSH1 0x0 DUP1 REVERT JUMPDEST DUP3 CALLER PUSH1 0x1 PUSH1 0x0 DUP4 DUP2 MSTORE PUSH1 0x20 ADD SWAP1 DUP2 MSTORE PUSH1 0x20 ADD PUSH1 0x0 KECCAK256 PUSH1 0x0 DUP3 PUSH20 0xFFFFFFFFFFFFFFFFFFFFFFFFFFFFFFFFFFFFFFFF AND PUSH20 0xFFFFFFFFFFFFFFFFFFFFFFFFFFFFFFFFFFFFFFFF AND DUP2 MSTORE PUSH1 0x20 ADD SWAP1 DUP2 MSTORE PUSH1 0x20 ADD PUSH1 0x0 KECCAK256 PUSH1 0x0 SWAP1 SLOAD SWAP1 PUSH2 0x100 EXP SWAP1 DIV PUSH1 0xFF AND ISZERO ISZERO ISZERO PUSH2 0x17B7 JUMPI PUSH1 0x0 DUP1 REVERT JUMPDEST PUSH1 0x1 DUP1 PUSH1 0x0 DUP8 DUP2 MSTORE PUSH1 0x20 ADD SWAP1 DUP2 MSTORE PUSH1 0x20 ADD PUSH1 0x0 KECCAK256 PUSH1 0x0 CALLER PUSH20 0xFFFFFFFFFFFFFFFFFFFFFFFFFFFFFFFFFFFFFFFF AND PUSH20 0xFFFFFFFFFFFFFFFFFFFFFFFFFFFFFFFFFFFFFFFF AND DUP2 MSTORE PUSH1 0x20 ADD SWAP1 DUP2 MSTORE PUSH1 0x20 ADD PUSH1 0x0 KECCAK256 PUSH1 0x0 PUSH2 0x100 EXP DUP2 SLOAD DUP2 PUSH1 0xFF MUL NOT AND SWAP1 DUP4 ISZERO ISZERO MUL OR SWAP1 SSTORE POP DUP5 CALLER PUSH20 0xFFFFFFFFFFFFFFFFFFFFFFFFFFFFFFFFFFFFFFFF AND PUSH32 0x4A504A94899432A9846E1AA406DCEB1BCFD538BB839071D49D1E5E23F5BE30EF PUSH1 0x40 MLOAD PUSH1 0x40 MLOAD DUP1 SWAP2 SUB SWAP1 LOG3 PUSH2 0x186C DUP6 PUSH2 0x1BC0 JUMP JUMPDEST JUMPDEST JUMPDEST POP POP JUMPDEST POP JUMPDEST POP POP JUMP JUMPDEST PUSH1 0x0 PUSH2 0x1884 DUP5 DUP5 DUP5 PUSH2 0x1E6C JUMP JUMPDEST SWAP1 POP PUSH2 0x188F DUP2 PUSH2 0x1696 JUMP JUMPDEST JUMPDEST SWAP4 SWAP3 POP POP POP JUMP JUMPDEST PUSH1 0x32 DUP2 JUMP JUMPDEST PUSH1 0x4 SLOAD DUP2 JUMP JUMPDEST PUSH1 0x0 ADDRESS PUSH20 0xFFFFFFFFFFFFFFFFFFFFFFFFFFFFFFFFFFFFFFFF AND CALLER PUSH20 0xFFFFFFFFFFFFFFFFFFFFFFFFFFFFFFFFFFFFFFFF AND EQ ISZERO ISZERO PUSH2 0x18DE JUMPI PUSH1 0x0 DUP1 REVERT JUMPDEST DUP3 PUSH1 0x2 PUSH1 0x0 DUP3 PUSH20 0xFFFFFFFFFFFFFFFFFFFFFFFFFFFFFFFFFFFFFFFF AND PUSH20 0xFFFFFFFFFFFFFFFFFFFFFFFFFFFFFFFFFFFFFFFF AND DUP2 MSTORE PUSH1 0x20 ADD SWAP1 DUP2 MSTORE PUSH1 0x20 ADD PUSH1 0x0 KECCAK256 PUSH1 0x0 SWAP1 SLOAD SWAP1 PUSH2 0x100 EXP SWAP1 DIV PUSH1 0xFF AND ISZERO ISZERO PUSH2 0x1937 JUMPI PUSH1 0x0 DUP1 REVERT JUMPDEST DUP3 PUSH1 0x2 PUSH1 0x0 DUP3 PUSH20 0xFFFFFFFFFFFFFFFFFFFFFFFFFFFFFFFFFFFFFFFF AND PUSH20 0xFFFFFFFFFFFFFFFFFFFFFFFFFFFFFFFFFFFFFFFF AND DUP2 MSTORE PUSH1 0x20 ADD SWAP1 DUP2 MSTORE PUSH1 0x20 ADD PUSH1 0x0 KECCAK256 PUSH1 0x0 SWAP1 SLOAD SWAP1 PUSH2 0x100 EXP SWAP1 DIV PUSH1 0xFF AND ISZERO ISZERO ISZERO PUSH2 0x1991 JUMPI PUSH1 0x0 DUP1 REVERT JUMPDEST PUSH1 0x0 SWAP3 POP JUMPDEST PUSH1 0x3 DUP1 SLOAD SWAP1 POP DUP4 LT ISZERO PUSH2 0x1A7F JUMPI DUP5 PUSH20 0xFFFFFFFFFFFFFFFFFFFFFFFFFFFFFFFFFFFFFFFF AND PUSH1 0x3 DUP5 DUP2 SLOAD DUP2 LT ISZERO ISZERO PUSH2 0x19C9 JUMPI INVALID JUMPDEST SWAP1 PUSH1 0x0 MSTORE PUSH1 0x20 PUSH1 0x0 KECCAK256 SWAP1 ADD PUSH1 0x0 JUMPDEST SWAP1 SLOAD SWAP1 PUSH2 0x100 EXP SWAP1 DIV PUSH20 0xFFFFFFFFFFFFFFFFFFFFFFFFFFFFFFFFFFFFFFFF AND PUSH20 0xFFFFFFFFFFFFFFFFFFFFFFFFFFFFFFFFFFFFFFFF AND EQ ISZERO PUSH2 0x1A71 JUMPI DUP4 PUSH1 0x3 DUP5 DUP2 SLOAD DUP2 LT ISZERO ISZERO PUSH2 0x1A22 JUMPI INVALID JUMPDEST SWAP1 PUSH1 0x0 MSTORE PUSH1 0x20 PUSH1 0x0 KECCAK256 SWAP1 ADD PUSH1 0x0 JUMPDEST PUSH2 0x100 EXP DUP2 SLOAD DUP2 PUSH20 0xFFFFFFFFFFFFFFFFFFFFFFFFFFFFFFFFFFFFFFFF MUL NOT AND SWAP1 DUP4 PUSH20 0xFFFFFFFFFFFFFFFFFFFFFFFFFFFFFFFFFFFFFFFF AND MUL OR SWAP1 SSTORE POP PUSH2 0x1A7F JUMP JUMPDEST JUMPDEST DUP3 DUP1 PUSH1 0x1 ADD SWAP4 POP POP PUSH2 0x1996 JUMP JUMPDEST PUSH1 0x0 PUSH1 0x2 PUSH1 0x0 DUP8 PUSH20 0xFFFFFFFFFFFFFFFFFFFFFFFFFFFFFFFFFFFFFFFF AND PUSH20 0xFFFFFFFFFFFFFFFFFFFFFFFFFFFFFFFFFFFFFFFF AND DUP2 MSTORE PUSH1 0x20 ADD SWAP1 DUP2 MSTORE PUSH1 0x20 ADD PUSH1 0x0 KECCAK256 PUSH1 0x0 PUSH2 0x100 EXP DUP2 SLOAD DUP2 PUSH1 0xFF MUL NOT AND SWAP1 DUP4 ISZERO ISZERO MUL OR SWAP1 SSTORE POP PUSH1 0x1 PUSH1 0x2 PUSH1 0x0 DUP7 PUSH20 0xFFFFFFFFFFFFFFFFFFFFFFFFFFFFFFFFFFFFFFFF AND PUSH20 0xFFFFFFFFFFFFFFFFFFFFFFFFFFFFFFFFFFFFFFFF AND DUP2 MSTORE PUSH1 0x20 ADD SWAP1 DUP2 MSTORE PUSH1 0x20 ADD PUSH1 0x0 KECCAK256 PUSH1 0x0 PUSH2 0x100 EXP DUP2 SLOAD DUP2 PUSH1 0xFF MUL NOT AND SWAP1 DUP4 ISZERO ISZERO MUL OR SWAP1 SSTORE POP DUP5 PUSH20 0xFFFFFFFFFFFFFFFFFFFFFFFFFFFFFFFFFFFFFFFF AND PUSH32 0x8001553A916EF2F495D26A907CC54D96ED840D7BDA71E73194BF5A9DF7A76B90 PUSH1 0x40 MLOAD PUSH1 0x40 MLOAD DUP1 SWAP2 SUB SWAP1 LOG2 DUP4 PUSH20 0xFFFFFFFFFFFFFFFFFFFFFFFFFFFFFFFFFFFFFFFF AND PUSH32 0xF39E6E1EB0EDCF53C221607B54B00CD28F3196FED0A24994DC308B8F611B682D PUSH1 0x40 MLOAD PUSH1 0x40 MLOAD DUP1 SWAP2 SUB SWAP1 LOG2 JUMPDEST JUMPDEST POP JUMPDEST POP JUMPDEST POP POP POP JUMP JUMPDEST PUSH1 0x0 CALLER PUSH1 0x2 PUSH1 0x0 DUP3 PUSH20 0xFFFFFFFFFFFFFFFFFFFFFFFFFFFFFFFFFFFFFFFF AND PUSH20 0xFFFFFFFFFFFFFFFFFFFFFFFFFFFFFFFFFFFFFFFF AND DUP2 MSTORE PUSH1 0x20 ADD SWAP1 DUP2 MSTORE PUSH1 0x20 ADD PUSH1 0x0 KECCAK256 PUSH1 0x0 SWAP1 SLOAD SWAP1 PUSH2 0x100 EXP SWAP1 DIV PUSH1 0xFF AND ISZERO ISZERO PUSH2 0x1C1B JUMPI PUSH1 0x0 DUP1 REVERT JUMPDEST DUP3 CALLER PUSH1 0x1 PUSH1 0x0 DUP4 DUP2 MSTORE PUSH1 0x20 ADD SWAP1 DUP2 MSTORE PUSH1 0x20 ADD PUSH1 0x0 KECCAK256 PUSH1 0x0 DUP3 PUSH20 0xFFFFFFFFFFFFFFFFFFFFFFFFFFFFFFFFFFFFFFFF AND PUSH20 0xFFFFFFFFFFFFFFFFFFFFFFFFFFFFFFFFFFFFFFFF AND DUP2 MSTORE PUSH1 0x20 ADD SWAP1 DUP2 MSTORE PUSH1 0x20 ADD PUSH1 0x0 KECCAK256 PUSH1 0x0 SWAP1 SLOAD SWAP1 PUSH2 0x100 EXP SWAP1 DIV PUSH1 0xFF AND ISZERO ISZERO PUSH2 0x1C86 JUMPI PUSH1 0x0 DUP1 REVERT JUMPDEST DUP5 PUSH1 0x0 DUP1 DUP3 DUP2 MSTORE PUSH1 0x20 ADD SWAP1 DUP2 MSTORE PUSH1 0x20 ADD PUSH1 0x0 KECCAK256 PUSH1 0x3 ADD PUSH1 0x0 SWAP1 SLOAD SWAP1 PUSH2 0x100 EXP SWAP1 DIV PUSH1 0xFF AND ISZERO ISZERO ISZERO PUSH2 0x1CB6 JUMPI PUSH1 0x0 DUP1 REVERT JUMPDEST PUSH2 0x1CBF DUP7 PUSH2 0xF99 JUMP JUMPDEST ISZERO PUSH2 0x1E60 JUMPI PUSH1 0x0 DUP1 DUP8 DUP2 MSTORE PUSH1 0x20 ADD SWAP1 DUP2 MSTORE PUSH1 0x20 ADD PUSH1 0x0 KECCAK256 SWAP5 POP PUSH1 0x1 DUP6 PUSH1 0x3 ADD PUSH1 0x0 PUSH2 0x100 EXP DUP2 SLOAD DUP2 PUSH1 0xFF MUL NOT AND SWAP1 DUP4 ISZERO ISZERO MUL OR SWAP1 SSTORE POP PUSH2 0x1DDD DUP6 PUSH1 0x0 ADD PUSH1 0x0 SWAP1 SLOAD SWAP1 PUSH2 0x100 EXP SWAP1 DIV PUSH20 0xFFFFFFFFFFFFFFFFFFFFFFFFFFFFFFFFFFFFFFFF AND DUP7 PUSH1 0x1 ADD SLOAD DUP8 PUSH1 0x2 ADD DUP1 SLOAD PUSH1 0x1 DUP2 PUSH1 0x1 AND ISZERO PUSH2 0x100 MUL SUB AND PUSH1 0x2 SWAP1 DIV SWAP1 POP DUP9 PUSH1 0x2 ADD DUP1 SLOAD PUSH1 0x1 DUP2 PUSH1 0x1 AND ISZERO PUSH2 0x100 MUL SUB AND PUSH1 0x2 SWAP1 DIV DUP1 PUSH1 0x1F ADD PUSH1 0x20 DUP1 SWAP2 DIV MUL PUSH1 0x20 ADD PUSH1 0x40 MLOAD SWAP1 DUP2 ADD PUSH1 0x40 MSTORE DUP1 SWAP3 SWAP2 SWAP1 DUP2 DUP2 MSTORE PUSH1 0x20 ADD DUP3 DUP1 SLOAD PUSH1 0x1 DUP2 PUSH1 0x1 AND ISZERO PUSH2 0x100 MUL SUB AND PUSH1 0x2 SWAP1 DIV DUP1 ISZERO PUSH2 0x1DD3 JUMPI DUP1 PUSH1 0x1F LT PUSH2 0x1DA8 JUMPI PUSH2 0x100 DUP1 DUP4 SLOAD DIV MUL DUP4 MSTORE SWAP2 PUSH1 0x20 ADD SWAP2 PUSH2 0x1DD3 JUMP JUMPDEST DUP3 ADD SWAP2 SWAP1 PUSH1 0x0 MSTORE PUSH1 0x20 PUSH1 0x0 KECCAK256 SWAP1 JUMPDEST DUP2 SLOAD DUP2 MSTORE SWAP1 PUSH1 0x1 ADD SWAP1 PUSH1 0x20 ADD DUP1 DUP4 GT PUSH2 0x1DB6 JUMPI DUP3 SWAP1 SUB PUSH1 0x1F AND DUP3 ADD SWAP2 JUMPDEST POP POP POP POP POP PUSH2 0x1FC0 JUMP JUMPDEST ISZERO PUSH2 0x1E14 JUMPI DUP6 PUSH32 0x33E13ECB54C3076D8E8BB8C2881800A4D972B792045FFAE98FDF46DF365FED75 PUSH1 0x40 MLOAD PUSH1 0x40 MLOAD DUP1 SWAP2 SUB SWAP1 LOG2 PUSH2 0x1E5F JUMP JUMPDEST DUP6 PUSH32 0x526441BB6C1ABA3C9A4A6CA1D6545DA9C2333C8C48343EF398EB858D72B79236 PUSH1 0x40 MLOAD PUSH1 0x40 MLOAD DUP1 SWAP2 SUB SWAP1 LOG2 PUSH1 0x0 DUP6 PUSH1 0x3 ADD PUSH1 0x0 PUSH2 0x100 EXP DUP2 SLOAD DUP2 PUSH1 0xFF MUL NOT AND SWAP1 DUP4 ISZERO ISZERO MUL OR SWAP1 SSTORE POP JUMPDEST JUMPDEST JUMPDEST JUMPDEST POP JUMPDEST POP POP JUMPDEST POP POP POP JUMP JUMPDEST PUSH1 0x0 DUP4 PUSH1 0x0 DUP2 PUSH20 0xFFFFFFFFFFFFFFFFFFFFFFFFFFFFFFFFFFFFFFFF AND EQ ISZERO ISZERO ISZERO PUSH2 0x1E95 JUMPI PUSH1 0x0 DUP1 REVERT JUMPDEST PUSH1 0x5 SLOAD SWAP2 POP PUSH1 0x80 PUSH1 0x40 MLOAD SWAP1 DUP2 ADD PUSH1 0x40 MSTORE DUP1 DUP7 PUSH20 0xFFFFFFFFFFFFFFFFFFFFFFFFFFFFFFFFFFFFFFFF AND DUP2 MSTORE PUSH1 0x20 ADD DUP6 DUP2 MSTORE PUSH1 0x20 ADD DUP5 DUP2 MSTORE PUSH1 0x20 ADD PUSH1 0x0 ISZERO ISZERO DUP2 MSTORE POP PUSH1 0x0 DUP1 DUP5 DUP2 MSTORE PUSH1 0x20 ADD SWAP1 DUP2 MSTORE PUSH1 0x20 ADD PUSH1 0x0 KECCAK256 PUSH1 0x0 DUP3 ADD MLOAD DUP2 PUSH1 0x0 ADD PUSH1 0x0 PUSH2 0x100 EXP DUP2 SLOAD DUP2 PUSH20 0xFFFFFFFFFFFFFFFFFFFFFFFFFFFFFFFFFFFFFFFF MUL NOT AND SWAP1 DUP4 PUSH20 0xFFFFFFFFFFFFFFFFFFFFFFFFFFFFFFFFFFFFFFFF AND MUL OR SWAP1 SSTORE POP PUSH1 0x20 DUP3 ADD MLOAD DUP2 PUSH1 0x1 ADD SSTORE PUSH1 0x40 DUP3 ADD MLOAD DUP2 PUSH1 0x2 ADD SWAP1 DUP1 MLOAD SWAP1 PUSH1 0x20 ADD SWAP1 PUSH2 0x1F54 SWAP3 SWAP2 SWAP1 PUSH2 0x2068 JUMP JUMPDEST POP PUSH1 0x60 DUP3 ADD MLOAD DUP2 PUSH1 0x3 ADD PUSH1 0x0 PUSH2 0x100 EXP DUP2 SLOAD DUP2 PUSH1 0xFF MUL NOT AND SWAP1 DUP4 ISZERO ISZERO MUL OR SWAP1 SSTORE POP SWAP1 POP POP PUSH1 0x1 PUSH1 0x5 PUSH1 0x0 DUP3 DUP3 SLOAD ADD SWAP3 POP POP DUP2 SWAP1 SSTORE POP DUP2 PUSH32 0xC0BA8FE4B176C1714197D43B9CC6BCF797A4A7461C5FE8D0EF6E184AE7601E51 PUSH1 0x40 MLOAD PUSH1 0x40 MLOAD DUP1 SWAP2 SUB SWAP1 LOG2 JUMPDEST JUMPDEST POP SWAP4 SWAP3 POP POP POP JUMP JUMPDEST PUSH1 0x0 DUP1 PUSH1 0x40 MLOAD PUSH1 0x20 DUP5 ADD PUSH1 0x0 DUP3 DUP8 DUP4 DUP11 DUP13 PUSH2 0x8796 GAS SUB CALL SWAP3 POP POP POP DUP1 SWAP2 POP JUMPDEST POP SWAP5 SWAP4 POP POP POP POP JUMP JUMPDEST DUP2 SLOAD DUP2 DUP4 SSTORE DUP2 DUP2 ISZERO GT PUSH2 0x200F JUMPI DUP2 DUP4 PUSH1 0x0 MSTORE PUSH1 0x20 PUSH1 0x0 KECCAK256 SWAP2 DUP3 ADD SWAP2 ADD PUSH2 0x200E SWAP2 SWAP1 PUSH2 0x20E8 JUMP JUMPDEST JUMPDEST POP POP POP JUMP JUMPDEST DUP2 SLOAD DUP2 DUP4 SSTORE DUP2 DUP2 ISZERO GT PUSH2 0x203B JUMPI DUP2 DUP4 PUSH1 0x0 MSTORE PUSH1 0x20 PUSH1 0x0 KECCAK256 SWAP2 DUP3 ADD SWAP2 ADD PUSH2 0x203A SWAP2 SWAP1 PUSH2 0x20E8 JUMP JUMPDEST JUMPDEST POP POP POP JUMP JUMPDEST PUSH1 0x20 PUSH1 0x40 MLOAD SWAP1 DUP2 ADD PUSH1 0x40 MSTORE DUP1 PUSH1 0x0 DUP2 MSTORE POP SWAP1 JUMP JUMPDEST PUSH1 0x20 PUSH1 0x40 MLOAD SWAP1 DUP2 ADD PUSH1 0x40 MSTORE DUP1 PUSH1 0x0 DUP2 MSTORE POP SWAP1 JUMP JUMPDEST DUP3 DUP1 SLOAD PUSH1 0x1 DUP2 PUSH1 0x1 AND ISZERO PUSH2 0x100 MUL SUB AND PUSH1 0x2 SWAP1 DIV SWAP1 PUSH1 0x0 MSTORE PUSH1 0x20 PUSH1 0x0 KECCAK256 SWAP1 PUSH1 0x1F ADD PUSH1 0x20 SWAP1 DIV DUP2 ADD SWAP3 DUP3 PUSH1 0x1F LT PUSH2 0x20A9 JUMPI DUP1 MLOAD PUSH1 0xFF NOT AND DUP4 DUP1 ADD OR DUP6 SSTORE PUSH2 0x20D7 JUMP JUMPDEST DUP3 DUP1 ADD PUSH1 0x1 ADD DUP6 SSTORE DUP3 ISZERO PUSH2 0x20D7 JUMPI SWAP2 DUP3 ADD JUMPDEST DUP3 DUP2 GT ISZERO PUSH2 0x20D6 JUMPI DUP3 MLOAD DUP3 SSTORE SWAP2 PUSH1 0x20 ADD SWAP2 SWAP1 PUSH1 0x1 ADD SWAP1 PUSH2 0x20BB JUMP JUMPDEST JUMPDEST POP SWAP1 POP PUSH2 0x20E4 SWAP2 SWAP1 PUSH2 0x20E8 JUMP JUMPDEST POP SWAP1 JUMP JUMPDEST PUSH2 0x210A SWAP2 SWAP1 JUMPDEST DUP1 DUP3 GT ISZERO PUSH2 0x2106 JUMPI PUSH1 0x0 DUP2 PUSH1 0x0 SWAP1 SSTORE POP PUSH1 0x1 ADD PUSH2 0x20EE JUMP JUMPDEST POP SWAP1 JUMP JUMPDEST SWAP1 JUMP STOP LOG1 PUSH6 0x627A7A723058 KECCAK256 0xad PUSH4 0x6848EFEA 0x2b 0xb7 PUSH12 0xA58251131F51E99A9FF8007C 0xc5 0xbc 0xde BALANCE SLOAD 0xf7 DUP4 0xd1 0xcb 0x4d SWAP10 STOP 0x29 "
        },
        "gasEstimates": {
          "creation": {
            "codeDepositCost": "1701000",
            "executionCost": "infinite",
            "totalCost": "infinite"
          },
          "external": {
            "": "1995",
            "MAX_OWNER_COUNT()": "1510",
            "addOwner(address)": "infinite",
            "changeRequirement(uint256)": "21941",
            "confirmTransaction(uint256)": "infinite",
            "confirmations(uint256,address)": "1510",
            "executeTransaction(uint256)": "infinite",
            "getConfirmationCount(uint256)": "infinite",
            "getConfirmations(uint256)": "infinite",
            "getOwners()": "infinite",
            "getTransactionCount(bool,bool)": "infinite",
            "getTransactionIds(uint256,uint256,bool,bool)": "infinite",
            "isConfirmed(uint256)": "infinite",
            "isOwner(address)": "1510",
            "owners(uint256)": "1510",
            "removeOwner(address)": "infinite",
            "replaceOwner(address,address)": "infinite",
            "required()": "1510",
            "revokeConfirmation(uint256)": "23321",
            "submitTransaction(address,uint256,bytes)": "infinite",
            "transactionCount()": "1510",
            "transactions(uint256)": "infinite"
          },
          "internal": {
            "addTransaction(address,uint256,bytes memory)": "infinite",
            "external_call(address,uint256,uint256,bytes memory)": "infinite"
          }
        },
        "methodIdentifiers": {
          "MAX_OWNER_COUNT()": "d74f8edd",
          "addOwner(address)": "7065cb48",
          "changeRequirement(uint256)": "ba51a6df",
          "confirmTransaction(uint256)": "c01a8c84",
          "confirmations(uint256,address)": "3411c81c",
          "executeTransaction(uint256)": "ee22610b",
          "getConfirmationCount(uint256)": "8b51d13f",
          "getConfirmations(uint256)": "b5dc40c3",
          "getOwners()": "a0e67e2b",
          "getTransactionCount(bool,bool)": "54741525",
          "getTransactionIds(uint256,uint256,bool,bool)": "a8abe69a",
          "isConfirmed(uint256)": "784547a7",
          "isOwner(address)": "2f54bf6e",
          "owners(uint256)": "025e7c27",
          "removeOwner(address)": "173825d9",
          "replaceOwner(address,address)": "e20056e6",
          "required()": "dc8452cd",
          "revokeConfirmation(uint256)": "20ea8d86",
          "submitTransaction(address,uint256,bytes)": "c6427474",
          "transactionCount()": "b77bf600",
          "transactions(uint256)": "9ace38c2"
        }
      },
      "userdoc": {
        "methods": {}
      }
    }
  }
}