{
  "contracts/MultiSigWalletWithDailyLimit.sol": {
    "MultiSigWalletWithDailyLimit": {
      "abi": [
        {
          "constant": true,
          "inputs": [
            {
              "name": "",
              "type": "uint256"
            }
          ],
          "name": "owners",
          "outputs": [
            {
              "name": "",
              "type": "address"
            }
          ],
          "payable": false,
          "type": "function"
        },
        {
          "constant": false,
          "inputs": [
            {
              "name": "owner",
              "type": "address"
            }
          ],
          "name": "removeOwner",
          "outputs": [],
          "payable": false,
          "type": "function"
        },
        {
          "constant": false,
          "inputs": [
            {
              "name": "transactionId",
              "type": "uint256"
            }
          ],
          "name": "revokeConfirmation",
          "outputs": [],
          "payable": false,
          "type": "function"
        },
        {
          "constant": true,
          "inputs": [
            {
              "name": "",
              "type": "address"
            }
          ],
          "name": "isOwner",
          "outputs": [
            {
              "name": "",
              "type": "bool"
            }
          ],
          "payable": false,
          "type": "function"
        },
        {
          "constant": true,
          "inputs": [
            {
              "name": "",
              "type": "uint256"
            },
            {
              "name": "",
              "type": "address"
            }
          ],
          "name": "confirmations",
          "outputs": [
            {
              "name": "",
              "type": "bool"
            }
          ],
          "payable": false,
          "type": "function"
        },
        {
          "constant": true,
          "inputs": [],
          "name": "calcMaxWithdraw",
          "outputs": [
            {
              "name": "",
              "type": "uint256"
            }
          ],
          "payable": false,
          "type": "function"
        },
        {
          "constant": true,
          "inputs": [
            {
              "name": "pending",
              "type": "bool"
            },
            {
              "name": "executed",
              "type": "bool"
            }
          ],
          "name": "getTransactionCount",
          "outputs": [
            {
              "name": "count",
              "type": "uint256"
            }
          ],
          "payable": false,
          "type": "function"
        },
        {
          "constant": true,
          "inputs": [],
          "name": "dailyLimit",
          "outputs": [
            {
              "name": "",
              "type": "uint256"
            }
          ],
          "payable": false,
          "type": "function"
        },
        {
          "constant": true,
          "inputs": [],
          "name": "lastDay",
          "outputs": [
            {
              "name": "",
              "type": "uint256"
            }
          ],
          "payable": false,
          "type": "function"
        },
        {
          "constant": false,
          "inputs": [
            {
              "name": "owner",
              "type": "address"
            }
          ],
          "name": "addOwner",
          "outputs": [],
          "payable": false,
          "type": "function"
        },
        {
          "constant": true,
          "inputs": [
            {
              "name": "transactionId",
              "type": "uint256"
            }
          ],
          "name": "isConfirmed",
          "outputs": [
            {
              "name": "",
              "type": "bool"
            }
          ],
          "payable": false,
          "type": "function"
        },
        {
          "constant": true,
          "inputs": [
            {
              "name": "transactionId",
              "type": "uint256"
            }
          ],
          "name": "getConfirmationCount",
          "outputs": [
            {
              "name": "count",
              "type": "uint256"
            }
          ],
          "payable": false,
          "type": "function"
        },
        {
          "constant": true,
          "inputs": [
            {
              "name": "",
              "type": "uint256"
            }
          ],
          "name": "transactions",
          "outputs": [
            {
              "name": "destination",
              "type": "address"
            },
            {
              "name": "value",
              "type": "uint256"
            },
            {
              "name": "data",
              "type": "bytes"
            },
            {
              "name": "executed",
              "type": "bool"
            }
          ],
          "payable": false,
          "type": "function"
        },
        {
          "constant": true,
          "inputs": [],
          "name": "getOwners",
          "outputs": [
            {
              "name": "",
              "type": "address[]"
            }
          ],
          "payable": false,
          "type": "function"
        },
        {
          "constant": true,
          "inputs": [
            {
              "name": "from",
              "type": "uint256"
            },
            {
              "name": "to",
              "type": "uint256"
            },
            {
              "name": "pending",
              "type": "bool"
            },
            {
              "name": "executed",
              "type": "bool"
            }
          ],
          "name": "getTransactionIds",
          "outputs": [
            {
              "name": "_transactionIds",
              "type": "uint256[]"
            }
          ],
          "payable": false,
          "type": "function"
        },
        {
          "constant": true,
          "inputs": [
            {
              "name": "transactionId",
              "type": "uint256"
            }
          ],
          "name": "getConfirmations",
          "outputs": [
            {
              "name": "_confirmations",
              "type": "address[]"
            }
          ],
          "payable": false,
          "type": "function"
        },
        {
          "constant": true,
          "inputs": [],
          "name": "transactionCount",
          "outputs": [
            {
              "name": "",
              "type": "uint256"
            }
          ],
          "payable": false,
          "type": "function"
        },
        {
          "constant": false,
          "inputs": [
            {
              "name": "_required",
              "type": "uint256"
            }
          ],
          "name": "changeRequirement",
          "outputs": [],
          "payable": false,
          "type": "function"
        },
        {
          "constant": false,
          "inputs": [
            {
              "name": "transactionId",
              "type": "uint256"
            }
          ],
          "name": "confirmTransaction",
          "outputs": [],
          "payable": false,
          "type": "function"
        },
        {
          "constant": false,
          "inputs": [
            {
              "name": "destination",
              "type": "address"
            },
            {
              "name": "value",
              "type": "uint256"
            },
            {
              "name": "data",
              "type": "bytes"
            }
          ],
          "name": "submitTransaction",
          "outputs": [
            {
              "name": "transactionId",
              "type": "uint256"
            }
          ],
          "payable": false,
          "type": "function"
        },
        {
          "constant": false,
          "inputs": [
            {
              "name": "_dailyLimit",
              "type": "uint256"
            }
          ],
          "name": "changeDailyLimit",
          "outputs": [],
          "payable": false,
          "type": "function"
        },
        {
          "constant": true,
          "inputs": [],
          "name": "MAX_OWNER_COUNT",
          "outputs": [
            {
              "name": "",
              "type": "uint256"
            }
          ],
          "payable": false,
          "type": "function"
        },
        {
          "constant": true,
          "inputs": [],
          "name": "required",
          "outputs": [
            {
              "name": "",
              "type": "uint256"
            }
          ],
          "payable": false,
          "type": "function"
        },
        {
          "constant": false,
          "inputs": [
            {
              "name": "owner",
              "type": "address"
            },
            {
              "name": "newOwner",
              "type": "address"
            }
          ],
          "name": "replaceOwner",
          "outputs": [],
          "payable": false,
          "type": "function"
        },
        {
          "constant": false,
          "inputs": [
            {
              "name": "transactionId",
              "type": "uint256"
            }
          ],
          "name": "executeTransaction",
          "outputs": [],
          "payable": false,
          "type": "function"
        },
        {
          "constant": true,
          "inputs": [],
          "name": "spentToday",
          "outputs": [
            {
              "name": "",
              "type": "uint256"
            }
          ],
          "payable": false,
          "type": "function"
        },
        {
          "inputs": [
            {
              "name": "_owners",
              "type": "address[]"
            },
            {
              "name": "_required",
              "type": "uint256"
            },
            {
              "name": "_dailyLimit",
              "type": "uint256"
            }
          ],
          "payable": false,
          "type": "constructor"
        },
        {
          "payable": true,
          "type": "fallback"
        },
        {
          "anonymous": false,
          "inputs": [
            {
              "indexed": false,
              "name": "dailyLimit",
              "type": "uint256"
            }
          ],
          "name": "DailyLimitChange",
          "type": "event"
        },
        {
          "anonymous": false,
          "inputs": [
            {
              "indexed": true,
              "name": "sender",
              "type": "address"
            },
            {
              "indexed": true,
              "name": "transactionId",
              "type": "uint256"
            }
          ],
          "name": "Confirmation",
          "type": "event"
        },
        {
          "anonymous": false,
          "inputs": [
            {
              "indexed": true,
              "name": "sender",
              "type": "address"
            },
            {
              "indexed": true,
              "name": "transactionId",
              "type": "uint256"
            }
          ],
          "name": "Revocation",
          "type": "event"
        },
        {
          "anonymous": false,
          "inputs": [
            {
              "indexed": true,
              "name": "transactionId",
              "type": "uint256"
            }
          ],
          "name": "Submission",
          "type": "event"
        },
        {
          "anonymous": false,
          "inputs": [
            {
              "indexed": true,
              "name": "transactionId",
              "type": "uint256"
            }
          ],
          "name": "Execution",
          "type": "event"
        },
        {
          "anonymous": false,
          "inputs": [
            {
              "indexed": true,
              "name": "transactionId",
              "type": "uint256"
            }
          ],
          "name": "ExecutionFailure",
          "type": "event"
        },
        {
          "anonymous": false,
          "inputs": [
            {
              "indexed": true,
              "name": "sender",
              "type": "address"
            },
            {
              "indexed": false,
              "name": "value",
              "type": "uint256"
            }
          ],
          "name": "Deposit",
          "type": "event"
        },
        {
          "anonymous": false,
          "inputs": [
            {
              "indexed": true,
              "name": "owner",
              "type": "address"
            }
          ],
          "name": "OwnerAddition",
          "type": "event"
        },
        {
          "anonymous": false,
          "inputs": [
            {
              "indexed": true,
              "name": "owner",
              "type": "address"
            }
          ],
          "name": "OwnerRemoval",
          "type": "event"
        },
        {
          "anonymous": false,
          "inputs": [
            {
              "indexed": false,
              "name": "required",
              "type": "uint256"
            }
          ],
          "name": "RequirementChange",
          "type": "event"
        }
      ],
      "devdoc": {
        "author": "Stefan George - <stefan.george@consensys.net>",
        "methods": {
          "addOwner(address)": {
            "details": "Allows to add a new owner. Transaction has to be sent by wallet.",
            "params": {
              "owner": "Address of new owner."
            }
          },
          "calcMaxWithdraw()": {
            "details": "Returns maximum withdraw amount.",
            "return": "Returns amount."
          },
          "changeDailyLimit(uint256)": {
            "details": "Allows to change the daily limit. Transaction has to be sent by wallet.",
            "params": {
              "_dailyLimit": "Amount in wei."
            }
          },
          "changeRequirement(uint256)": {
            "details": "Allows to change the number of required confirmations. Transaction has to be sent by wallet.",
            "params": {
              "_required": "Number of required confirmations."
            }
          },
          "confirmTransaction(uint256)": {
            "details": "Allows an owner to confirm a transaction.",
            "params": {
              "transactionId": "Transaction ID."
            }
          },
          "executeTransaction(uint256)": {
            "details": "Allows anyone to execute a confirmed transaction or ether withdraws until daily limit is reached.",
            "params": {
              "transactionId": "Transaction ID."
            }
          },
          "getConfirmationCount(uint256)": {
            "details": "Returns number of confirmations of a transaction.",
            "params": {
              "transactionId": "Transaction ID."
            },
            "return": "Number of confirmations."
          },
          "getConfirmations(uint256)": {
            "details": "Returns array with owner addresses, which confirmed transaction.",
            "params": {
              "transactionId": "Transaction ID."
            },
            "return": "Returns array of owner addresses."
          },
          "getOwners()": {
            "details": "Returns list of owners.",
            "return": "List of owner addresses."
          },
          "getTransactionCount(bool,bool)": {
            "details": "Returns total number of transactions after filers are applied.",
            "params": {
              "executed": "Include executed transactions.",
              "pending": "Include pending transactions."
            },
            "return": "Total number of transactions after filters are applied."
          },
          "getTransactionIds(uint256,uint256,bool,bool)": {
            "details": "Returns list of transaction IDs in defined range.",
            "params": {
              "executed": "Include executed transactions.",
              "from": "Index start position of transaction array.",
              "pending": "Include pending transactions.",
              "to": "Index end position of transaction array."
            },
            "return": "Returns array of transaction IDs."
          },
          "isConfirmed(uint256)": {
            "details": "Returns the confirmation status of a transaction.",
            "params": {
              "transactionId": "Transaction ID."
            },
            "return": "Confirmation status."
          },
          "removeOwner(address)": {
            "details": "Allows to remove an owner. Transaction has to be sent by wallet.",
            "params": {
              "owner": "Address of owner."
            }
          },
          "replaceOwner(address,address)": {
            "details": "Allows to replace an owner with a new owner. Transaction has to be sent by wallet.",
            "params": {
              "newOwner": "Address of new owner.",
              "owner": "Address of owner to be replaced."
            }
          },
          "revokeConfirmation(uint256)": {
            "details": "Allows an owner to revoke a confirmation for a transaction.",
            "params": {
              "transactionId": "Transaction ID."
            }
          },
          "submitTransaction(address,uint256,bytes)": {
            "details": "Allows an owner to submit and confirm a transaction.",
            "params": {
              "data": "Transaction data payload.",
              "destination": "Transaction target address.",
              "value": "Transaction ether value."
            },
            "return": "Returns transaction ID."
          }
        },
        "title": "Multisignature wallet with daily limit - Allows an owner to withdraw a daily limit without multisig."
      },
      "evm": {
        "assembly": "    /* \"contracts/MultiSigWalletWithDailyLimit.sol\":13174:16204  contract MultiSigWalletWithDailyLimit is MultiSigWallet {... */\n  mstore(0x40, 0x60)\n    /* \"contracts/MultiSigWalletWithDailyLimit.sol\":13790:13984  function MultiSigWalletWithDailyLimit(address[] _owners, uint _required, uint _dailyLimit)... */\n  jumpi(tag_1, iszero(callvalue))\n  0x0\n  dup1\n  revert\ntag_1:\n  mload(0x40)\n  sub(codesize, bytecodeSize)\n  dup1\n  bytecodeSize\n  dup4\n  codecopy\n  dup2\n  add\n  0x40\n  mstore\n  dup1\n  dup1\n  mload\n  dup3\n  add\n  swap2\n  swap1\n  0x20\n  add\n  dup1\n  mload\n  swap1\n  0x20\n  add\n  swap1\n  swap2\n  swap1\n  dup1\n  mload\n  swap1\n  0x20\n  add\n  swap1\n  swap2\n  swap1\n  pop\n  pop\ntag_2:\n    /* \"contracts/MultiSigWalletWithDailyLimit.sol\":13919:13926  _owners */\n  dup3\n    /* \"contracts/MultiSigWalletWithDailyLimit.sol\":13928:13937  _required */\n  dup3\n    /* \"contracts/MultiSigWalletWithDailyLimit.sol\":2922:3275  function MultiSigWallet(address[] _owners, uint _required)... */\ntag_3:\n    /* \"contracts/MultiSigWalletWithDailyLimit.sol\":3067:3073  uint i */\n  0x0\n    /* \"contracts/MultiSigWalletWithDailyLimit.sol\":3021:3028  _owners */\n  dup3\n    /* \"contracts/MultiSigWalletWithDailyLimit.sol\":3021:3035  _owners.length */\n  mload\n    /* \"contracts/MultiSigWalletWithDailyLimit.sol\":3037:3046  _required */\n  dup3\n    /* \"contracts/MultiSigWalletWithDailyLimit.sol\":926:928  50 */\n  0x32\n    /* \"contracts/MultiSigWalletWithDailyLimit.sol\":2360:2370  ownerCount */\n  dup3\n    /* \"contracts/MultiSigWalletWithDailyLimit.sol\":2360:2389  ownerCount <= MAX_OWNER_COUNT */\n  gt\n  iszero\n    /* \"contracts/MultiSigWalletWithDailyLimit.sol\":2360:2428  ownerCount <= MAX_OWNER_COUNT... */\n  dup1\n  iszero\n  tag_5\n  jumpi\n  pop\n    /* \"contracts/MultiSigWalletWithDailyLimit.sol\":2418:2428  ownerCount */\n  dup2\n    /* \"contracts/MultiSigWalletWithDailyLimit.sol\":2405:2414  _required */\n  dup2\n    /* \"contracts/MultiSigWalletWithDailyLimit.sol\":2405:2428  _required <= ownerCount */\n  gt\n  iszero\n    /* \"contracts/MultiSigWalletWithDailyLimit.sol\":2360:2428  ownerCount <= MAX_OWNER_COUNT... */\ntag_5:\n    /* \"contracts/MultiSigWalletWithDailyLimit.sol\":2360:2458  ownerCount <= MAX_OWNER_COUNT... */\n  dup1\n  iszero\n  tag_6\n  jumpi\n  pop\n    /* \"contracts/MultiSigWalletWithDailyLimit.sol\":2457:2458  0 */\n  0x0\n    /* \"contracts/MultiSigWalletWithDailyLimit.sol\":2444:2453  _required */\n  dup2\n    /* \"contracts/MultiSigWalletWithDailyLimit.sol\":2444:2458  _required != 0 */\n  eq\n  iszero\n    /* \"contracts/MultiSigWalletWithDailyLimit.sol\":2360:2458  ownerCount <= MAX_OWNER_COUNT... */\ntag_6:\n    /* \"contracts/MultiSigWalletWithDailyLimit.sol\":2360:2489  ownerCount <= MAX_OWNER_COUNT... */\n  dup1\n  iszero\n  tag_7\n  jumpi\n  pop\n    /* \"contracts/MultiSigWalletWithDailyLimit.sol\":2488:2489  0 */\n  0x0\n    /* \"contracts/MultiSigWalletWithDailyLimit.sol\":2474:2484  ownerCount */\n  dup3\n    /* \"contracts/MultiSigWalletWithDailyLimit.sol\":2474:2489  ownerCount != 0 */\n  eq\n  iszero\n    /* \"contracts/MultiSigWalletWithDailyLimit.sol\":2360:2489  ownerCount <= MAX_OWNER_COUNT... */\ntag_7:\n    /* \"contracts/MultiSigWalletWithDailyLimit.sol\":2352:2490  require(ownerCount <= MAX_OWNER_COUNT... */\n  iszero\n  iszero\n  tag_8\n  jumpi\n  0x0\n  dup1\n  revert\ntag_8:\n    /* \"contracts/MultiSigWalletWithDailyLimit.sol\":3074:3075  0 */\n  0x0\n    /* \"contracts/MultiSigWalletWithDailyLimit.sol\":3067:3075  uint i=0 */\n  swap3\n  pop\n    /* \"contracts/MultiSigWalletWithDailyLimit.sol\":3062:3213  for (uint i=0; i<_owners.length; i++) {... */\ntag_10:\n    /* \"contracts/MultiSigWalletWithDailyLimit.sol\":3079:3086  _owners */\n  dup5\n    /* \"contracts/MultiSigWalletWithDailyLimit.sol\":3079:3093  _owners.length */\n  mload\n    /* \"contracts/MultiSigWalletWithDailyLimit.sol\":3077:3078  i */\n  dup4\n    /* \"contracts/MultiSigWalletWithDailyLimit.sol\":3077:3093  i<_owners.length */\n  lt\n    /* \"contracts/MultiSigWalletWithDailyLimit.sol\":3062:3213  for (uint i=0; i<_owners.length; i++) {... */\n  iszero\n  tag_11\n  jumpi\n    /* \"contracts/MultiSigWalletWithDailyLimit.sol\":3123:3130  isOwner */\n  0x2\n    /* \"contracts/MultiSigWalletWithDailyLimit.sol\":3123:3142  isOwner[_owners[i]] */\n  0x0\n    /* \"contracts/MultiSigWalletWithDailyLimit.sol\":3131:3138  _owners */\n  dup7\n    /* \"contracts/MultiSigWalletWithDailyLimit.sol\":3139:3140  i */\n  dup6\n    /* \"contracts/MultiSigWalletWithDailyLimit.sol\":3131:3141  _owners[i] */\n  dup2\n  mload\n  dup2\n  lt\n  iszero\n  iszero\n  tag_13\n  jumpi\n  invalid\ntag_13:\n  swap1\n  0x20\n  add\n  swap1\n  0x20\n  mul\n  add\n  mload\n    /* \"contracts/MultiSigWalletWithDailyLimit.sol\":3123:3142  isOwner[_owners[i]] */\n  0xffffffffffffffffffffffffffffffffffffffff\n  and\n  0xffffffffffffffffffffffffffffffffffffffff\n  and\n  dup2\n  mstore\n  0x20\n  add\n  swap1\n  dup2\n  mstore\n  0x20\n  add\n  0x0\n  keccak256\n  0x0\n  swap1\n  sload\n  swap1\n  0x100\n  exp\n  swap1\n  div\n  0xff\n  and\n    /* \"contracts/MultiSigWalletWithDailyLimit.sol\":3122:3142  !isOwner[_owners[i]] */\n  iszero\n    /* \"contracts/MultiSigWalletWithDailyLimit.sol\":3122:3161  !isOwner[_owners[i]] && _owners[i] != 0 */\n  dup1\n  iszero\n  tag_14\n  jumpi\n  pop\n    /* \"contracts/MultiSigWalletWithDailyLimit.sol\":3160:3161  0 */\n  0x0\n    /* \"contracts/MultiSigWalletWithDailyLimit.sol\":3146:3153  _owners */\n  dup6\n    /* \"contracts/MultiSigWalletWithDailyLimit.sol\":3154:3155  i */\n  dup5\n    /* \"contracts/MultiSigWalletWithDailyLimit.sol\":3146:3156  _owners[i] */\n  dup2\n  mload\n  dup2\n  lt\n  iszero\n  iszero\n  tag_15\n  jumpi\n  invalid\ntag_15:\n  swap1\n  0x20\n  add\n  swap1\n  0x20\n  mul\n  add\n  mload\n    /* \"contracts/MultiSigWalletWithDailyLimit.sol\":3146:3161  _owners[i] != 0 */\n  0xffffffffffffffffffffffffffffffffffffffff\n  and\n  eq\n  iszero\n    /* \"contracts/MultiSigWalletWithDailyLimit.sol\":3122:3161  !isOwner[_owners[i]] && _owners[i] != 0 */\ntag_14:\n    /* \"contracts/MultiSigWalletWithDailyLimit.sol\":3114:3162  require(!isOwner[_owners[i]] && _owners[i] != 0) */\n  iszero\n  iszero\n  tag_16\n  jumpi\n  0x0\n  dup1\n  revert\ntag_16:\n    /* \"contracts/MultiSigWalletWithDailyLimit.sol\":3198:3202  true */\n  0x1\n    /* \"contracts/MultiSigWalletWithDailyLimit.sol\":3176:3183  isOwner */\n  0x2\n    /* \"contracts/MultiSigWalletWithDailyLimit.sol\":3176:3195  isOwner[_owners[i]] */\n  0x0\n    /* \"contracts/MultiSigWalletWithDailyLimit.sol\":3184:3191  _owners */\n  dup8\n    /* \"contracts/MultiSigWalletWithDailyLimit.sol\":3192:3193  i */\n  dup7\n    /* \"contracts/MultiSigWalletWithDailyLimit.sol\":3184:3194  _owners[i] */\n  dup2\n  mload\n  dup2\n  lt\n  iszero\n  iszero\n  tag_17\n  jumpi\n  invalid\ntag_17:\n  swap1\n  0x20\n  add\n  swap1\n  0x20\n  mul\n  add\n  mload\n    /* \"contracts/MultiSigWalletWithDailyLimit.sol\":3176:3195  isOwner[_owners[i]] */\n  0xffffffffffffffffffffffffffffffffffffffff\n  and\n  0xffffffffffffffffffffffffffffffffffffffff\n  and\n  dup2\n  mstore\n  0x20\n  add\n  swap1\n  dup2\n  mstore\n  0x20\n  add\n  0x0\n  keccak256\n  0x0\n    /* \"contracts/MultiSigWalletWithDailyLimit.sol\":3176:3202  isOwner[_owners[i]] = true */\n  0x100\n  exp\n  dup2\n  sload\n  dup2\n  0xff\n  mul\n  not\n  and\n  swap1\n  dup4\n  iszero\n  iszero\n  mul\n  or\n  swap1\n  sstore\n  pop\n    /* \"contracts/MultiSigWalletWithDailyLimit.sol\":3062:3213  for (uint i=0; i<_owners.length; i++) {... */\ntag_12:\n    /* \"contracts/MultiSigWalletWithDailyLimit.sol\":3095:3098  i++ */\n  dup3\n  dup1\n  0x1\n  add\n  swap4\n  pop\n  pop\n    /* \"contracts/MultiSigWalletWithDailyLimit.sol\":3062:3213  for (uint i=0; i<_owners.length; i++) {... */\n  jump(tag_10)\ntag_11:\n    /* \"contracts/MultiSigWalletWithDailyLimit.sol\":3231:3238  _owners */\n  dup5\n    /* \"contracts/MultiSigWalletWithDailyLimit.sol\":3222:3228  owners */\n  0x3\n    /* \"contracts/MultiSigWalletWithDailyLimit.sol\":3222:3238  owners = _owners */\n  swap1\n  dup1\n  mload\n  swap1\n  0x20\n  add\n  swap1\n  tag_18\n  swap3\n  swap2\n  swap1\n  jump\t// in(tag_19)\ntag_18:\n  pop\n    /* \"contracts/MultiSigWalletWithDailyLimit.sol\":3259:3268  _required */\n  dup4\n    /* \"contracts/MultiSigWalletWithDailyLimit.sol\":3248:3256  required */\n  0x4\n    /* \"contracts/MultiSigWalletWithDailyLimit.sol\":3248:3268  required = _required */\n  dup2\n  swap1\n  sstore\n  pop\n    /* \"contracts/MultiSigWalletWithDailyLimit.sol\":2500:2501  _ */\ntag_9:\n    /* \"contracts/MultiSigWalletWithDailyLimit.sol\":2922:3275  function MultiSigWallet(address[] _owners, uint _required)... */\ntag_4:\n  pop\n  pop\n  pop\n  pop\n  pop\n    /* \"contracts/MultiSigWalletWithDailyLimit.sol\":13966:13977  _dailyLimit */\n  dup1\n    /* \"contracts/MultiSigWalletWithDailyLimit.sol\":13953:13963  dailyLimit */\n  0x6\n    /* \"contracts/MultiSigWalletWithDailyLimit.sol\":13953:13977  dailyLimit = _dailyLimit */\n  dup2\n  swap1\n  sstore\n  pop\n    /* \"contracts/MultiSigWalletWithDailyLimit.sol\":13790:13984  function MultiSigWalletWithDailyLimit(address[] _owners, uint _required, uint _dailyLimit)... */\ntag_20:\n  pop\n  pop\n  pop\n    /* \"contracts/MultiSigWalletWithDailyLimit.sol\":13174:16204  contract MultiSigWalletWithDailyLimit is MultiSigWallet {... */\n  jump(tag_21)\ntag_19:\n  dup3\n  dup1\n  sload\n  dup3\n  dup3\n  sstore\n  swap1\n  0x0\n  mstore\n  keccak256(0x0, 0x20)\n  swap1\n  dup2\n  add\n  swap3\n  dup3\n  iszero\n  tag_22\n  jumpi\n  swap2\n  0x20\n  mul\n  dup3\n  add\ntag_23:\n  dup3\n  dup2\n  gt\n  iszero\n  tag_24\n  jumpi\n  dup3\n  mload\n  dup3\n  exp(0x100, 0x0)\n  dup2\n  sload\n  dup2\n  0xffffffffffffffffffffffffffffffffffffffff\n  mul\n  not\n  and\n  swap1\n  dup4\n  0xffffffffffffffffffffffffffffffffffffffff\n  and\n  mul\n  or\n  swap1\n  sstore\n  pop\n  swap2\n  0x20\n  add\n  swap2\n  swap1\n  0x1\n  add\n  swap1\n  jump(tag_23)\ntag_24:\ntag_22:\n  pop\n  swap1\n  pop\n  tag_25\n  swap2\n  swap1\n  jump\t// in(tag_26)\ntag_25:\n  pop\n  swap1\n  jump\t// out\ntag_26:\n  tag_27\n  swap2\n  swap1\ntag_28:\n  dup1\n  dup3\n  gt\n  iszero\n  tag_29\n  jumpi\n  0x0\n  dup2\n  dup2\n  0x100\n  exp\n  dup2\n  sload\n  swap1\n  0xffffffffffffffffffffffffffffffffffffffff\n  mul\n  not\n  and\n  swap1\n  sstore\n  pop\n  0x1\n  add\n  jump(tag_28)\ntag_29:\n  pop\n  swap1\n  jump\ntag_27:\n  swap1\n  jump\t// out\ntag_21:\n  dataSize(sub_0)\n  dup1\n  dataOffset(sub_0)\n  0x0\n  codecopy\n  0x0\n  return\nstop\n\nsub_0: assembly {\n        /* \"contracts/MultiSigWalletWithDailyLimit.sol\":13174:16204  contract MultiSigWalletWithDailyLimit is MultiSigWallet {... */\n      mstore(0x40, 0x60)\n      jumpi(tag_1, iszero(calldatasize))\n      calldataload(0x0)\n      0x100000000000000000000000000000000000000000000000000000000\n      swap1\n      div\n      0xffffffff\n      and\n      dup1\n      0x25e7c27\n      eq\n      tag_2\n      jumpi\n      dup1\n      0x173825d9\n      eq\n      tag_3\n      jumpi\n      dup1\n      0x20ea8d86\n      eq\n      tag_4\n      jumpi\n      dup1\n      0x2f54bf6e\n      eq\n      tag_5\n      jumpi\n      dup1\n      0x3411c81c\n      eq\n      tag_6\n      jumpi\n      dup1\n      0x4bc9fdc2\n      eq\n      tag_7\n      jumpi\n      dup1\n      0x54741525\n      eq\n      tag_8\n      jumpi\n      dup1\n      0x67eeba0c\n      eq\n      tag_9\n      jumpi\n      dup1\n      0x6b0c932d\n      eq\n      tag_10\n      jumpi\n      dup1\n      0x7065cb48\n      eq\n      tag_11\n      jumpi\n      dup1\n      0x784547a7\n      eq\n      tag_12\n      jumpi\n      dup1\n      0x8b51d13f\n      eq\n      tag_13\n      jumpi\n      dup1\n      0x9ace38c2\n      eq\n      tag_14\n      jumpi\n      dup1\n      0xa0e67e2b\n      eq\n      tag_15\n      jumpi\n      dup1\n      0xa8abe69a\n      eq\n      tag_16\n      jumpi\n      dup1\n      0xb5dc40c3\n      eq\n      tag_17\n      jumpi\n      dup1\n      0xb77bf600\n      eq\n      tag_18\n      jumpi\n      dup1\n      0xba51a6df\n      eq\n      tag_19\n      jumpi\n      dup1\n      0xc01a8c84\n      eq\n      tag_20\n      jumpi\n      dup1\n      0xc6427474\n      eq\n      tag_21\n      jumpi\n      dup1\n      0xcea08621\n      eq\n      tag_22\n      jumpi\n      dup1\n      0xd74f8edd\n      eq\n      tag_23\n      jumpi\n      dup1\n      0xdc8452cd\n      eq\n      tag_24\n      jumpi\n      dup1\n      0xe20056e6\n      eq\n      tag_25\n      jumpi\n      dup1\n      0xee22610b\n      eq\n      tag_26\n      jumpi\n      dup1\n      0xf059cf2b\n      eq\n      tag_27\n      jumpi\n    tag_1:\n        /* \"contracts/MultiSigWalletWithDailyLimit.sol\":2570:2679  function()... */\n    tag_28:\n        /* \"contracts/MultiSigWalletWithDailyLimit.sol\":2627:2628  0 */\n      0x0\n        /* \"contracts/MultiSigWalletWithDailyLimit.sol\":2615:2624  msg.value */\n      callvalue\n        /* \"contracts/MultiSigWalletWithDailyLimit.sol\":2615:2628  msg.value > 0 */\n      gt\n        /* \"contracts/MultiSigWalletWithDailyLimit.sol\":2611:2672  if (msg.value > 0)... */\n      iszero\n      tag_30\n      jumpi\n        /* \"contracts/MultiSigWalletWithDailyLimit.sol\":2650:2660  msg.sender */\n      caller\n        /* \"contracts/MultiSigWalletWithDailyLimit.sol\":2642:2672  Deposit(msg.sender, msg.value) */\n      0xffffffffffffffffffffffffffffffffffffffff\n      and\n      0xe1fffcc4923d04b559f4d29a8bfc6cda04eb5b0d3c460751c2402c5c5cc9109c\n        /* \"contracts/MultiSigWalletWithDailyLimit.sol\":2662:2671  msg.value */\n      callvalue\n        /* \"contracts/MultiSigWalletWithDailyLimit.sol\":2642:2672  Deposit(msg.sender, msg.value) */\n      mload(0x40)\n      dup1\n      dup3\n      dup2\n      mstore\n      0x20\n      add\n      swap2\n      pop\n      pop\n      mload(0x40)\n      dup1\n      swap2\n      sub\n      swap1\n      log2\n        /* \"contracts/MultiSigWalletWithDailyLimit.sol\":2611:2672  if (msg.value > 0)... */\n    tag_30:\n        /* \"contracts/MultiSigWalletWithDailyLimit.sol\":2570:2679  function()... */\n    tag_29:\n        /* \"contracts/MultiSigWalletWithDailyLimit.sol\":13174:16204  contract MultiSigWalletWithDailyLimit is MultiSigWallet {... */\n      stop\n        /* \"contracts/MultiSigWalletWithDailyLimit.sol\":1137:1160  address[] public owners */\n    tag_2:\n      jumpi(tag_31, iszero(callvalue))\n      0x0\n      dup1\n      revert\n    tag_31:\n      tag_32\n      0x4\n      dup1\n      dup1\n      calldataload\n      swap1\n      0x20\n      add\n      swap1\n      swap2\n      swap1\n      pop\n      pop\n      jump(tag_33)\n    tag_32:\n      mload(0x40)\n      dup1\n      dup3\n      0xffffffffffffffffffffffffffffffffffffffff\n      and\n      0xffffffffffffffffffffffffffffffffffffffff\n      and\n      dup2\n      mstore\n      0x20\n      add\n      swap2\n      pop\n      pop\n      mload(0x40)\n      dup1\n      swap2\n      sub\n      swap1\n      return\n        /* \"contracts/MultiSigWalletWithDailyLimit.sol\":3802:4262  function removeOwner(address owner)... */\n    tag_3:\n      jumpi(tag_34, iszero(callvalue))\n      0x0\n      dup1\n      revert\n    tag_34:\n      tag_35\n      0x4\n      dup1\n      dup1\n      calldataload\n      0xffffffffffffffffffffffffffffffffffffffff\n      and\n      swap1\n      0x20\n      add\n      swap1\n      swap2\n      swap1\n      pop\n      pop\n      jump(tag_36)\n    tag_35:\n      stop\n        /* \"contracts/MultiSigWalletWithDailyLimit.sol\":6368:6659  function revokeConfirmation(uint transactionId)... */\n    tag_4:\n      jumpi(tag_37, iszero(callvalue))\n      0x0\n      dup1\n      revert\n    tag_37:\n      tag_38\n      0x4\n      dup1\n      dup1\n      calldataload\n      swap1\n      0x20\n      add\n      swap1\n      swap2\n      swap1\n      pop\n      pop\n      jump(tag_39)\n    tag_38:\n      stop\n        /* \"contracts/MultiSigWalletWithDailyLimit.sol\":1091:1131  mapping (address => bool) public isOwner */\n    tag_5:\n      jumpi(tag_40, iszero(callvalue))\n      0x0\n      dup1\n      revert\n    tag_40:\n      tag_41\n      0x4\n      dup1\n      dup1\n      calldataload\n      0xffffffffffffffffffffffffffffffffffffffff\n      and\n      swap1\n      0x20\n      add\n      swap1\n      swap2\n      swap1\n      pop\n      pop\n      jump(tag_42)\n    tag_41:\n      mload(0x40)\n      dup1\n      dup3\n      iszero\n      iszero\n      iszero\n      iszero\n      dup2\n      mstore\n      0x20\n      add\n      swap2\n      pop\n      pop\n      mload(0x40)\n      dup1\n      swap2\n      sub\n      swap1\n      return\n        /* \"contracts/MultiSigWalletWithDailyLimit.sol\":1021:1085  mapping (uint => mapping (address => bool)) public confirmations */\n    tag_6:\n      jumpi(tag_43, iszero(callvalue))\n      0x0\n      dup1\n      revert\n    tag_43:\n      tag_44\n      0x4\n      dup1\n      dup1\n      calldataload\n      swap1\n      0x20\n      add\n      swap1\n      swap2\n      swap1\n      dup1\n      calldataload\n      0xffffffffffffffffffffffffffffffffffffffff\n      and\n      swap1\n      0x20\n      add\n      swap1\n      swap2\n      swap1\n      pop\n      pop\n      jump(tag_45)\n    tag_44:\n      mload(0x40)\n      dup1\n      dup3\n      iszero\n      iszero\n      iszero\n      iszero\n      dup2\n      mstore\n      0x20\n      add\n      swap2\n      pop\n      pop\n      mload(0x40)\n      dup1\n      swap2\n      sub\n      swap1\n      return\n        /* \"contracts/MultiSigWalletWithDailyLimit.sol\":15941:16202  function calcMaxWithdraw()... */\n    tag_7:\n      jumpi(tag_46, iszero(callvalue))\n      0x0\n      dup1\n      revert\n    tag_46:\n      tag_47\n      jump(tag_48)\n    tag_47:\n      mload(0x40)\n      dup1\n      dup3\n      dup2\n      mstore\n      0x20\n      add\n      swap2\n      pop\n      pop\n      mload(0x40)\n      dup1\n      swap2\n      sub\n      swap1\n      return\n        /* \"contracts/MultiSigWalletWithDailyLimit.sol\":10622:10941  function getTransactionCount(bool pending, bool executed)... */\n    tag_8:\n      jumpi(tag_49, iszero(callvalue))\n      0x0\n      dup1\n      revert\n    tag_49:\n      tag_50\n      0x4\n      dup1\n      dup1\n      calldataload\n      iszero\n      iszero\n      swap1\n      0x20\n      add\n      swap1\n      swap2\n      swap1\n      dup1\n      calldataload\n      iszero\n      iszero\n      swap1\n      0x20\n      add\n      swap1\n      swap2\n      swap1\n      pop\n      pop\n      jump(tag_51)\n    tag_50:\n      mload(0x40)\n      dup1\n      dup3\n      dup2\n      mstore\n      0x20\n      add\n      swap2\n      pop\n      pop\n      mload(0x40)\n      dup1\n      swap2\n      sub\n      swap1\n      return\n        /* \"contracts/MultiSigWalletWithDailyLimit.sol\":13344:13366  uint public dailyLimit */\n    tag_9:\n      jumpi(tag_52, iszero(callvalue))\n      0x0\n      dup1\n      revert\n    tag_52:\n      tag_53\n      jump(tag_54)\n    tag_53:\n      mload(0x40)\n      dup1\n      dup3\n      dup2\n      mstore\n      0x20\n      add\n      swap2\n      pop\n      pop\n      mload(0x40)\n      dup1\n      swap2\n      sub\n      swap1\n      return\n        /* \"contracts/MultiSigWalletWithDailyLimit.sol\":13372:13391  uint public lastDay */\n    tag_10:\n      jumpi(tag_55, iszero(callvalue))\n      0x0\n      dup1\n      revert\n    tag_55:\n      tag_56\n      jump(tag_57)\n    tag_56:\n      mload(0x40)\n      dup1\n      dup3\n      dup2\n      mstore\n      0x20\n      add\n      swap2\n      pop\n      pop\n      mload(0x40)\n      dup1\n      swap2\n      sub\n      swap1\n      return\n        /* \"contracts/MultiSigWalletWithDailyLimit.sol\":3402:3679  function addOwner(address owner)... */\n    tag_11:\n      jumpi(tag_58, iszero(callvalue))\n      0x0\n      dup1\n      revert\n    tag_58:\n      tag_59\n      0x4\n      dup1\n      dup1\n      calldataload\n      0xffffffffffffffffffffffffffffffffffffffff\n      and\n      swap1\n      0x20\n      add\n      swap1\n      swap2\n      swap1\n      pop\n      pop\n      jump(tag_60)\n    tag_59:\n      stop\n        /* \"contracts/MultiSigWalletWithDailyLimit.sol\":8790:9127  function isConfirmed(uint transactionId)... */\n    tag_12:\n      jumpi(tag_61, iszero(callvalue))\n      0x0\n      dup1\n      revert\n    tag_61:\n      tag_62\n      0x4\n      dup1\n      dup1\n      calldataload\n      swap1\n      0x20\n      add\n      swap1\n      swap2\n      swap1\n      pop\n      pop\n      jump(tag_63)\n    tag_62:\n      mload(0x40)\n      dup1\n      dup3\n      iszero\n      iszero\n      iszero\n      iszero\n      dup2\n      mstore\n      0x20\n      add\n      swap2\n      pop\n      pop\n      mload(0x40)\n      dup1\n      swap2\n      sub\n      swap1\n      return\n        /* \"contracts/MultiSigWalletWithDailyLimit.sol\":10108:10360  function getConfirmationCount(uint transactionId)... */\n    tag_13:\n      jumpi(tag_64, iszero(callvalue))\n      0x0\n      dup1\n      revert\n    tag_64:\n      tag_65\n      0x4\n      dup1\n      dup1\n      calldataload\n      swap1\n      0x20\n      add\n      swap1\n      swap2\n      swap1\n      pop\n      pop\n      jump(tag_66)\n    tag_65:\n      mload(0x40)\n      dup1\n      dup3\n      dup2\n      mstore\n      0x20\n      add\n      swap2\n      pop\n      pop\n      mload(0x40)\n      dup1\n      swap2\n      sub\n      swap1\n      return\n        /* \"contracts/MultiSigWalletWithDailyLimit.sol\":966:1015  mapping (uint => Transaction) public transactions */\n    tag_14:\n      jumpi(tag_67, iszero(callvalue))\n      0x0\n      dup1\n      revert\n    tag_67:\n      tag_68\n      0x4\n      dup1\n      dup1\n      calldataload\n      swap1\n      0x20\n      add\n      swap1\n      swap2\n      swap1\n      pop\n      pop\n      jump(tag_69)\n    tag_68:\n      mload(0x40)\n      dup1\n      dup6\n      0xffffffffffffffffffffffffffffffffffffffff\n      and\n      0xffffffffffffffffffffffffffffffffffffffff\n      and\n      dup2\n      mstore\n      0x20\n      add\n      dup5\n      dup2\n      mstore\n      0x20\n      add\n      dup1\n      0x20\n      add\n      dup4\n      iszero\n      iszero\n      iszero\n      iszero\n      dup2\n      mstore\n      0x20\n      add\n      dup3\n      dup2\n      sub\n      dup3\n      mstore\n      dup5\n      dup2\n      dup2\n      sload\n      0x1\n      dup2\n      0x1\n      and\n      iszero\n      0x100\n      mul\n      sub\n      and\n      0x2\n      swap1\n      div\n      dup2\n      mstore\n      0x20\n      add\n      swap2\n      pop\n      dup1\n      sload\n      0x1\n      dup2\n      0x1\n      and\n      iszero\n      0x100\n      mul\n      sub\n      and\n      0x2\n      swap1\n      div\n      dup1\n      iszero\n      tag_70\n      jumpi\n      dup1\n      0x1f\n      lt\n      tag_71\n      jumpi\n      0x100\n      dup1\n      dup4\n      sload\n      div\n      mul\n      dup4\n      mstore\n      swap2\n      0x20\n      add\n      swap2\n      jump(tag_70)\n    tag_71:\n      dup3\n      add\n      swap2\n      swap1\n      0x0\n      mstore\n      keccak256(0x0, 0x20)\n      swap1\n    tag_72:\n      dup2\n      sload\n      dup2\n      mstore\n      swap1\n      0x1\n      add\n      swap1\n      0x20\n      add\n      dup1\n      dup4\n      gt\n      tag_72\n      jumpi\n      dup3\n      swap1\n      sub\n      0x1f\n      and\n      dup3\n      add\n      swap2\n    tag_70:\n      pop\n      pop\n      swap6\n      pop\n      pop\n      pop\n      pop\n      pop\n      pop\n      mload(0x40)\n      dup1\n      swap2\n      sub\n      swap1\n      return\n        /* \"contracts/MultiSigWalletWithDailyLimit.sol\":11025:11140  function getOwners()... */\n    tag_15:\n      jumpi(tag_73, iszero(callvalue))\n      0x0\n      dup1\n      revert\n    tag_73:\n      tag_74\n      jump(tag_75)\n    tag_74:\n      mload(0x40)\n      dup1\n      dup1\n      0x20\n      add\n      dup3\n      dup2\n      sub\n      dup3\n      mstore\n      dup4\n      dup2\n      dup2\n      mload\n      dup2\n      mstore\n      0x20\n      add\n      swap2\n      pop\n      dup1\n      mload\n      swap1\n      0x20\n      add\n      swap1\n      0x20\n      mul\n      dup1\n      dup4\n      dup4\n        /* \"--CODEGEN--\":23:24   */\n      0x0\n        /* \"--CODEGEN--\":8:108   */\n    tag_76:\n        /* \"--CODEGEN--\":33:36   */\n      dup4\n        /* \"--CODEGEN--\":30:31   */\n      dup2\n        /* \"--CODEGEN--\":27:29   */\n      lt\n        /* \"--CODEGEN--\":8:108   */\n      iszero\n      tag_77\n      jumpi\n        /* \"--CODEGEN--\":99:100   */\n      dup1\n        /* \"--CODEGEN--\":94:97   */\n      dup3\n        /* \"--CODEGEN--\":90:93   */\n      add\n        /* \"--CODEGEN--\":84:89   */\n      mload\n        /* \"--CODEGEN--\":80:81   */\n      dup2\n        /* \"--CODEGEN--\":75:78   */\n      dup5\n        /* \"--CODEGEN--\":71:74   */\n      add\n        /* \"--CODEGEN--\":64:70   */\n      mstore\n        /* \"--CODEGEN--\":8:108   */\n    tag_78:\n        /* \"--CODEGEN--\":52:54   */\n      0x20\n        /* \"--CODEGEN--\":49:50   */\n      dup2\n        /* \"--CODEGEN--\":45:48   */\n      add\n        /* \"--CODEGEN--\":40:55   */\n      swap1\n      pop\n        /* \"--CODEGEN--\":8:108   */\n      jump(tag_76)\n    tag_77:\n        /* \"--CODEGEN--\":12:26   */\n      pop\n        /* \"--CODEGEN--\":3:112   */\n      pop\n      pop\n      pop\n      swap1\n      pop\n      add\n      swap3\n      pop\n      pop\n      pop\n      mload(0x40)\n      dup1\n      swap2\n      sub\n      swap1\n      return\n        /* \"contracts/MultiSigWalletWithDailyLimit.sol\":12243:12919  function getTransactionIds(uint from, uint to, bool pending, bool executed)... */\n    tag_16:\n      jumpi(tag_79, iszero(callvalue))\n      0x0\n      dup1\n      revert\n    tag_79:\n      tag_80\n      0x4\n      dup1\n      dup1\n      calldataload\n      swap1\n      0x20\n      add\n      swap1\n      swap2\n      swap1\n      dup1\n      calldataload\n      swap1\n      0x20\n      add\n      swap1\n      swap2\n      swap1\n      dup1\n      calldataload\n      iszero\n      iszero\n      swap1\n      0x20\n      add\n      swap1\n      swap2\n      swap1\n      dup1\n      calldataload\n      iszero\n      iszero\n      swap1\n      0x20\n      add\n      swap1\n      swap2\n      swap1\n      pop\n      pop\n      jump(tag_81)\n    tag_80:\n      mload(0x40)\n      dup1\n      dup1\n      0x20\n      add\n      dup3\n      dup2\n      sub\n      dup3\n      mstore\n      dup4\n      dup2\n      dup2\n      mload\n      dup2\n      mstore\n      0x20\n      add\n      swap2\n      pop\n      dup1\n      mload\n      swap1\n      0x20\n      add\n      swap1\n      0x20\n      mul\n      dup1\n      dup4\n      dup4\n        /* \"--CODEGEN--\":23:24   */\n      0x0\n        /* \"--CODEGEN--\":8:108   */\n    tag_82:\n        /* \"--CODEGEN--\":33:36   */\n      dup4\n        /* \"--CODEGEN--\":30:31   */\n      dup2\n        /* \"--CODEGEN--\":27:29   */\n      lt\n        /* \"--CODEGEN--\":8:108   */\n      iszero\n      tag_83\n      jumpi\n        /* \"--CODEGEN--\":99:100   */\n      dup1\n        /* \"--CODEGEN--\":94:97   */\n      dup3\n        /* \"--CODEGEN--\":90:93   */\n      add\n        /* \"--CODEGEN--\":84:89   */\n      mload\n        /* \"--CODEGEN--\":80:81   */\n      dup2\n        /* \"--CODEGEN--\":75:78   */\n      dup5\n        /* \"--CODEGEN--\":71:74   */\n      add\n        /* \"--CODEGEN--\":64:70   */\n      mstore\n        /* \"--CODEGEN--\":8:108   */\n    tag_84:\n        /* \"--CODEGEN--\":52:54   */\n      0x20\n        /* \"--CODEGEN--\":49:50   */\n      dup2\n        /* \"--CODEGEN--\":45:48   */\n      add\n        /* \"--CODEGEN--\":40:55   */\n      swap1\n      pop\n        /* \"--CODEGEN--\":8:108   */\n      jump(tag_82)\n    tag_83:\n        /* \"--CODEGEN--\":12:26   */\n      pop\n        /* \"--CODEGEN--\":3:112   */\n      pop\n      pop\n      pop\n      swap1\n      pop\n      add\n      swap3\n      pop\n      pop\n      pop\n      mload(0x40)\n      dup1\n      swap2\n      sub\n      swap1\n      return\n        /* \"contracts/MultiSigWalletWithDailyLimit.sol\":11319:11894  function getConfirmations(uint transactionId)... */\n    tag_17:\n      jumpi(tag_85, iszero(callvalue))\n      0x0\n      dup1\n      revert\n    tag_85:\n      tag_86\n      0x4\n      dup1\n      dup1\n      calldataload\n      swap1\n      0x20\n      add\n      swap1\n      swap2\n      swap1\n      pop\n      pop\n      jump(tag_87)\n    tag_86:\n      mload(0x40)\n      dup1\n      dup1\n      0x20\n      add\n      dup3\n      dup2\n      sub\n      dup3\n      mstore\n      dup4\n      dup2\n      dup2\n      mload\n      dup2\n      mstore\n      0x20\n      add\n      swap2\n      pop\n      dup1\n      mload\n      swap1\n      0x20\n      add\n      swap1\n      0x20\n      mul\n      dup1\n      dup4\n      dup4\n        /* \"--CODEGEN--\":23:24   */\n      0x0\n        /* \"--CODEGEN--\":8:108   */\n    tag_88:\n        /* \"--CODEGEN--\":33:36   */\n      dup4\n        /* \"--CODEGEN--\":30:31   */\n      dup2\n        /* \"--CODEGEN--\":27:29   */\n      lt\n        /* \"--CODEGEN--\":8:108   */\n      iszero\n      tag_89\n      jumpi\n        /* \"--CODEGEN--\":99:100   */\n      dup1\n        /* \"--CODEGEN--\":94:97   */\n      dup3\n        /* \"--CODEGEN--\":90:93   */\n      add\n        /* \"--CODEGEN--\":84:89   */\n      mload\n        /* \"--CODEGEN--\":80:81   */\n      dup2\n        /* \"--CODEGEN--\":75:78   */\n      dup5\n        /* \"--CODEGEN--\":71:74   */\n      add\n        /* \"--CODEGEN--\":64:70   */\n      mstore\n        /* \"--CODEGEN--\":8:108   */\n    tag_90:\n        /* \"--CODEGEN--\":52:54   */\n      0x20\n        /* \"--CODEGEN--\":49:50   */\n      dup2\n        /* \"--CODEGEN--\":45:48   */\n      add\n        /* \"--CODEGEN--\":40:55   */\n      swap1\n      pop\n        /* \"--CODEGEN--\":8:108   */\n      jump(tag_88)\n    tag_89:\n        /* \"--CODEGEN--\":12:26   */\n      pop\n        /* \"--CODEGEN--\":3:112   */\n      pop\n      pop\n      pop\n      swap1\n      pop\n      add\n      swap3\n      pop\n      pop\n      pop\n      mload(0x40)\n      dup1\n      swap2\n      sub\n      swap1\n      return\n        /* \"contracts/MultiSigWalletWithDailyLimit.sol\":1192:1220  uint public transactionCount */\n    tag_18:\n      jumpi(tag_91, iszero(callvalue))\n      0x0\n      dup1\n      revert\n    tag_91:\n      tag_92\n      jump(tag_93)\n    tag_92:\n      mload(0x40)\n      dup1\n      dup3\n      dup2\n      mstore\n      0x20\n      add\n      swap2\n      pop\n      pop\n      mload(0x40)\n      dup1\n      swap2\n      sub\n      swap1\n      return\n        /* \"contracts/MultiSigWalletWithDailyLimit.sol\":5084:5291  function changeRequirement(uint _required)... */\n    tag_19:\n      jumpi(tag_94, iszero(callvalue))\n      0x0\n      dup1\n      revert\n    tag_94:\n      tag_95\n      0x4\n      dup1\n      dup1\n      calldataload\n      swap1\n      0x20\n      add\n      swap1\n      swap2\n      swap1\n      pop\n      pop\n      jump(tag_96)\n    tag_95:\n      stop\n        /* \"contracts/MultiSigWalletWithDailyLimit.sol\":5900:6244  function confirmTransaction(uint transactionId)... */\n    tag_20:\n      jumpi(tag_97, iszero(callvalue))\n      0x0\n      dup1\n      revert\n    tag_97:\n      tag_98\n      0x4\n      dup1\n      dup1\n      calldataload\n      swap1\n      0x20\n      add\n      swap1\n      swap2\n      swap1\n      pop\n      pop\n      jump(tag_99)\n    tag_98:\n      stop\n        /* \"contracts/MultiSigWalletWithDailyLimit.sol\":5550:5794  function submitTransaction(address destination, uint value, bytes data)... */\n    tag_21:\n      jumpi(tag_100, iszero(callvalue))\n      0x0\n      dup1\n      revert\n    tag_100:\n      tag_101\n      0x4\n      dup1\n      dup1\n      calldataload\n      0xffffffffffffffffffffffffffffffffffffffff\n      and\n      swap1\n      0x20\n      add\n      swap1\n      swap2\n      swap1\n      dup1\n      calldataload\n      swap1\n      0x20\n      add\n      swap1\n      swap2\n      swap1\n      dup1\n      calldataload\n      swap1\n      0x20\n      add\n      swap1\n      dup3\n      add\n      dup1\n      calldataload\n      swap1\n      0x20\n      add\n      swap1\n      dup1\n      dup1\n      0x1f\n      add\n      0x20\n      dup1\n      swap2\n      div\n      mul\n      0x20\n      add\n      mload(0x40)\n      swap1\n      dup2\n      add\n      0x40\n      mstore\n      dup1\n      swap4\n      swap3\n      swap2\n      swap1\n      dup2\n      dup2\n      mstore\n      0x20\n      add\n      dup4\n      dup4\n      dup1\n      dup3\n      dup5\n      calldatacopy\n      dup3\n      add\n      swap2\n      pop\n      pop\n      pop\n      pop\n      pop\n      pop\n      swap2\n      swap1\n      pop\n      pop\n      jump(tag_102)\n    tag_101:\n      mload(0x40)\n      dup1\n      dup3\n      dup2\n      mstore\n      0x20\n      add\n      swap2\n      pop\n      pop\n      mload(0x40)\n      dup1\n      swap2\n      sub\n      swap1\n      return\n        /* \"contracts/MultiSigWalletWithDailyLimit.sol\":14117:14279  function changeDailyLimit(uint _dailyLimit)... */\n    tag_22:\n      jumpi(tag_103, iszero(callvalue))\n      0x0\n      dup1\n      revert\n    tag_103:\n      tag_104\n      0x4\n      dup1\n      dup1\n      calldataload\n      swap1\n      0x20\n      add\n      swap1\n      swap2\n      swap1\n      pop\n      pop\n      jump(tag_105)\n    tag_104:\n      stop\n        /* \"contracts/MultiSigWalletWithDailyLimit.sol\":887:928  uint constant public MAX_OWNER_COUNT = 50 */\n    tag_23:\n      jumpi(tag_106, iszero(callvalue))\n      0x0\n      dup1\n      revert\n    tag_106:\n      tag_107\n      jump(tag_108)\n    tag_107:\n      mload(0x40)\n      dup1\n      dup3\n      dup2\n      mstore\n      0x20\n      add\n      swap2\n      pop\n      pop\n      mload(0x40)\n      dup1\n      swap2\n      sub\n      swap1\n      return\n        /* \"contracts/MultiSigWalletWithDailyLimit.sol\":1166:1186  uint public required */\n    tag_24:\n      jumpi(tag_109, iszero(callvalue))\n      0x0\n      dup1\n      revert\n    tag_109:\n      tag_110\n      jump(tag_111)\n    tag_110:\n      mload(0x40)\n      dup1\n      dup3\n      dup2\n      mstore\n      0x20\n      add\n      swap2\n      pop\n      pop\n      mload(0x40)\n      dup1\n      swap2\n      sub\n      swap1\n      return\n        /* \"contracts/MultiSigWalletWithDailyLimit.sol\":4464:4913  function replaceOwner(address owner, address newOwner)... */\n    tag_25:\n      jumpi(tag_112, iszero(callvalue))\n      0x0\n      dup1\n      revert\n    tag_112:\n      tag_113\n      0x4\n      dup1\n      dup1\n      calldataload\n      0xffffffffffffffffffffffffffffffffffffffff\n      and\n      swap1\n      0x20\n      add\n      swap1\n      swap2\n      swap1\n      dup1\n      calldataload\n      0xffffffffffffffffffffffffffffffffffffffff\n      and\n      swap1\n      0x20\n      add\n      swap1\n      swap2\n      swap1\n      pop\n      pop\n      jump(tag_114)\n    tag_113:\n      stop\n        /* \"contracts/MultiSigWalletWithDailyLimit.sol\":14441:15260  function executeTransaction(uint transactionId)... */\n    tag_26:\n      jumpi(tag_115, iszero(callvalue))\n      0x0\n      dup1\n      revert\n    tag_115:\n      tag_116\n      0x4\n      dup1\n      dup1\n      calldataload\n      swap1\n      0x20\n      add\n      swap1\n      swap2\n      swap1\n      pop\n      pop\n      jump(tag_117)\n    tag_116:\n      stop\n        /* \"contracts/MultiSigWalletWithDailyLimit.sol\":13397:13419  uint public spentToday */\n    tag_27:\n      jumpi(tag_118, iszero(callvalue))\n      0x0\n      dup1\n      revert\n    tag_118:\n      tag_119\n      jump(tag_120)\n    tag_119:\n      mload(0x40)\n      dup1\n      dup3\n      dup2\n      mstore\n      0x20\n      add\n      swap2\n      pop\n      pop\n      mload(0x40)\n      dup1\n      swap2\n      sub\n      swap1\n      return\n        /* \"contracts/MultiSigWalletWithDailyLimit.sol\":1137:1160  address[] public owners */\n    tag_33:\n      0x3\n      dup2\n      dup2\n      sload\n      dup2\n      lt\n      iszero\n      iszero\n      tag_121\n      jumpi\n      invalid\n    tag_121:\n      swap1\n      0x0\n      mstore\n      keccak256(0x0, 0x20)\n      swap1\n      add\n      0x0\n    tag_122:\n      swap2\n      pop\n      sload\n      swap1\n      0x100\n      exp\n      swap1\n      div\n      0xffffffffffffffffffffffffffffffffffffffff\n      and\n      dup2\n      jump\t// out\n        /* \"contracts/MultiSigWalletWithDailyLimit.sol\":3802:4262  function removeOwner(address owner)... */\n    tag_36:\n        /* \"contracts/MultiSigWalletWithDailyLimit.sol\":3950:3956  uint i */\n      0x0\n        /* \"contracts/MultiSigWalletWithDailyLimit.sol\":1446:1450  this */\n      address\n        /* \"contracts/MultiSigWalletWithDailyLimit.sol\":1424:1451  msg.sender == address(this) */\n      0xffffffffffffffffffffffffffffffffffffffff\n      and\n        /* \"contracts/MultiSigWalletWithDailyLimit.sol\":1424:1434  msg.sender */\n      caller\n        /* \"contracts/MultiSigWalletWithDailyLimit.sol\":1424:1451  msg.sender == address(this) */\n      0xffffffffffffffffffffffffffffffffffffffff\n      and\n      eq\n        /* \"contracts/MultiSigWalletWithDailyLimit.sol\":1416:1452  require(msg.sender == address(this)) */\n      iszero\n      iszero\n      tag_124\n      jumpi\n      0x0\n      dup1\n      revert\n    tag_124:\n        /* \"contracts/MultiSigWalletWithDailyLimit.sol\":3892:3897  owner */\n      dup2\n        /* \"contracts/MultiSigWalletWithDailyLimit.sol\":1630:1637  isOwner */\n      0x2\n        /* \"contracts/MultiSigWalletWithDailyLimit.sol\":1630:1644  isOwner[owner] */\n      0x0\n        /* \"contracts/MultiSigWalletWithDailyLimit.sol\":1638:1643  owner */\n      dup3\n        /* \"contracts/MultiSigWalletWithDailyLimit.sol\":1630:1644  isOwner[owner] */\n      0xffffffffffffffffffffffffffffffffffffffff\n      and\n      0xffffffffffffffffffffffffffffffffffffffff\n      and\n      dup2\n      mstore\n      0x20\n      add\n      swap1\n      dup2\n      mstore\n      0x20\n      add\n      0x0\n      keccak256\n      0x0\n      swap1\n      sload\n      swap1\n      0x100\n      exp\n      swap1\n      div\n      0xff\n      and\n        /* \"contracts/MultiSigWalletWithDailyLimit.sol\":1622:1645  require(isOwner[owner]) */\n      iszero\n      iszero\n      tag_126\n      jumpi\n      0x0\n      dup1\n      revert\n    tag_126:\n        /* \"contracts/MultiSigWalletWithDailyLimit.sol\":3930:3935  false */\n      0x0\n        /* \"contracts/MultiSigWalletWithDailyLimit.sol\":3913:3920  isOwner */\n      0x2\n        /* \"contracts/MultiSigWalletWithDailyLimit.sol\":3913:3927  isOwner[owner] */\n      0x0\n        /* \"contracts/MultiSigWalletWithDailyLimit.sol\":3921:3926  owner */\n      dup6\n        /* \"contracts/MultiSigWalletWithDailyLimit.sol\":3913:3927  isOwner[owner] */\n      0xffffffffffffffffffffffffffffffffffffffff\n      and\n      0xffffffffffffffffffffffffffffffffffffffff\n      and\n      dup2\n      mstore\n      0x20\n      add\n      swap1\n      dup2\n      mstore\n      0x20\n      add\n      0x0\n      keccak256\n      0x0\n        /* \"contracts/MultiSigWalletWithDailyLimit.sol\":3913:3935  isOwner[owner] = false */\n      0x100\n      exp\n      dup2\n      sload\n      dup2\n      0xff\n      mul\n      not\n      and\n      swap1\n      dup4\n      iszero\n      iszero\n      mul\n      or\n      swap1\n      sstore\n      pop\n        /* \"contracts/MultiSigWalletWithDailyLimit.sol\":3957:3958  0 */\n      0x0\n        /* \"contracts/MultiSigWalletWithDailyLimit.sol\":3950:3958  uint i=0 */\n      swap2\n      pop\n        /* \"contracts/MultiSigWalletWithDailyLimit.sol\":3945:4115  for (uint i=0; i<owners.length - 1; i++)... */\n    tag_128:\n        /* \"contracts/MultiSigWalletWithDailyLimit.sol\":3978:3979  1 */\n      0x1\n        /* \"contracts/MultiSigWalletWithDailyLimit.sol\":3962:3968  owners */\n      0x3\n        /* \"contracts/MultiSigWalletWithDailyLimit.sol\":3962:3975  owners.length */\n      dup1\n      sload\n      swap1\n      pop\n        /* \"contracts/MultiSigWalletWithDailyLimit.sol\":3962:3979  owners.length - 1 */\n      sub\n        /* \"contracts/MultiSigWalletWithDailyLimit.sol\":3960:3961  i */\n      dup3\n        /* \"contracts/MultiSigWalletWithDailyLimit.sol\":3960:3979  i<owners.length - 1 */\n      lt\n        /* \"contracts/MultiSigWalletWithDailyLimit.sol\":3945:4115  for (uint i=0; i<owners.length - 1; i++)... */\n      iszero\n      tag_129\n      jumpi\n        /* \"contracts/MultiSigWalletWithDailyLimit.sol\":4015:4020  owner */\n      dup3\n        /* \"contracts/MultiSigWalletWithDailyLimit.sol\":4002:4020  owners[i] == owner */\n      0xffffffffffffffffffffffffffffffffffffffff\n      and\n        /* \"contracts/MultiSigWalletWithDailyLimit.sol\":4002:4008  owners */\n      0x3\n        /* \"contracts/MultiSigWalletWithDailyLimit.sol\":4009:4010  i */\n      dup4\n        /* \"contracts/MultiSigWalletWithDailyLimit.sol\":4002:4011  owners[i] */\n      dup2\n      sload\n      dup2\n      lt\n      iszero\n      iszero\n      tag_131\n      jumpi\n      invalid\n    tag_131:\n      swap1\n      0x0\n      mstore\n      keccak256(0x0, 0x20)\n      swap1\n      add\n      0x0\n    tag_132:\n      swap1\n      sload\n      swap1\n      0x100\n      exp\n      swap1\n      div\n      0xffffffffffffffffffffffffffffffffffffffff\n      and\n        /* \"contracts/MultiSigWalletWithDailyLimit.sol\":4002:4020  owners[i] == owner */\n      0xffffffffffffffffffffffffffffffffffffffff\n      and\n      eq\n        /* \"contracts/MultiSigWalletWithDailyLimit.sol\":3998:4115  if (owners[i] == owner) {... */\n      iszero\n      tag_133\n      jumpi\n        /* \"contracts/MultiSigWalletWithDailyLimit.sol\":4052:4058  owners */\n      0x3\n        /* \"contracts/MultiSigWalletWithDailyLimit.sol\":4075:4076  1 */\n      0x1\n        /* \"contracts/MultiSigWalletWithDailyLimit.sol\":4059:4065  owners */\n      0x3\n        /* \"contracts/MultiSigWalletWithDailyLimit.sol\":4059:4072  owners.length */\n      dup1\n      sload\n      swap1\n      pop\n        /* \"contracts/MultiSigWalletWithDailyLimit.sol\":4059:4076  owners.length - 1 */\n      sub\n        /* \"contracts/MultiSigWalletWithDailyLimit.sol\":4052:4077  owners[owners.length - 1] */\n      dup2\n      sload\n      dup2\n      lt\n      iszero\n      iszero\n      tag_134\n      jumpi\n      invalid\n    tag_134:\n      swap1\n      0x0\n      mstore\n      keccak256(0x0, 0x20)\n      swap1\n      add\n      0x0\n    tag_135:\n      swap1\n      sload\n      swap1\n      0x100\n      exp\n      swap1\n      div\n      0xffffffffffffffffffffffffffffffffffffffff\n      and\n        /* \"contracts/MultiSigWalletWithDailyLimit.sol\":4040:4046  owners */\n      0x3\n        /* \"contracts/MultiSigWalletWithDailyLimit.sol\":4047:4048  i */\n      dup4\n        /* \"contracts/MultiSigWalletWithDailyLimit.sol\":4040:4049  owners[i] */\n      dup2\n      sload\n      dup2\n      lt\n      iszero\n      iszero\n      tag_136\n      jumpi\n      invalid\n    tag_136:\n      swap1\n      0x0\n      mstore\n      keccak256(0x0, 0x20)\n      swap1\n      add\n      0x0\n    tag_137:\n        /* \"contracts/MultiSigWalletWithDailyLimit.sol\":4040:4077  owners[i] = owners[owners.length - 1] */\n      0x100\n      exp\n      dup2\n      sload\n      dup2\n      0xffffffffffffffffffffffffffffffffffffffff\n      mul\n      not\n      and\n      swap1\n      dup4\n      0xffffffffffffffffffffffffffffffffffffffff\n      and\n      mul\n      or\n      swap1\n      sstore\n      pop\n        /* \"contracts/MultiSigWalletWithDailyLimit.sol\":4095:4100  break */\n      jump(tag_129)\n        /* \"contracts/MultiSigWalletWithDailyLimit.sol\":3998:4115  if (owners[i] == owner) {... */\n    tag_133:\n        /* \"contracts/MultiSigWalletWithDailyLimit.sol\":3945:4115  for (uint i=0; i<owners.length - 1; i++)... */\n    tag_130:\n        /* \"contracts/MultiSigWalletWithDailyLimit.sol\":3981:3984  i++ */\n      dup2\n      dup1\n      0x1\n      add\n      swap3\n      pop\n      pop\n        /* \"contracts/MultiSigWalletWithDailyLimit.sol\":3945:4115  for (uint i=0; i<owners.length - 1; i++)... */\n      jump(tag_128)\n    tag_129:\n        /* \"contracts/MultiSigWalletWithDailyLimit.sol\":4141:4142  1 */\n      0x1\n        /* \"contracts/MultiSigWalletWithDailyLimit.sol\":4124:4130  owners */\n      0x3\n        /* \"contracts/MultiSigWalletWithDailyLimit.sol\":4124:4142  owners.length -= 1 */\n      dup2\n      dup2\n      dup1\n      sload\n      swap1\n      pop\n      sub\n      swap2\n      pop\n      dup2\n      tag_138\n      swap2\n      swap1\n      jump\t// in(tag_139)\n    tag_138:\n      pop\n        /* \"contracts/MultiSigWalletWithDailyLimit.sol\":4167:4173  owners */\n      0x3\n        /* \"contracts/MultiSigWalletWithDailyLimit.sol\":4167:4180  owners.length */\n      dup1\n      sload\n      swap1\n      pop\n        /* \"contracts/MultiSigWalletWithDailyLimit.sol\":4156:4164  required */\n      sload(0x4)\n        /* \"contracts/MultiSigWalletWithDailyLimit.sol\":4156:4180  required > owners.length */\n      gt\n        /* \"contracts/MultiSigWalletWithDailyLimit.sol\":4152:4226  if (required > owners.length)... */\n      iszero\n      tag_140\n      jumpi\n        /* \"contracts/MultiSigWalletWithDailyLimit.sol\":4194:4226  changeRequirement(owners.length) */\n      tag_141\n        /* \"contracts/MultiSigWalletWithDailyLimit.sol\":4212:4218  owners */\n      0x3\n        /* \"contracts/MultiSigWalletWithDailyLimit.sol\":4212:4225  owners.length */\n      dup1\n      sload\n      swap1\n      pop\n        /* \"contracts/MultiSigWalletWithDailyLimit.sol\":4194:4211  changeRequirement */\n      tag_96\n        /* \"contracts/MultiSigWalletWithDailyLimit.sol\":4194:4226  changeRequirement(owners.length) */\n      jump\t// in\n    tag_141:\n        /* \"contracts/MultiSigWalletWithDailyLimit.sol\":4152:4226  if (required > owners.length)... */\n    tag_140:\n        /* \"contracts/MultiSigWalletWithDailyLimit.sol\":4249:4254  owner */\n      dup3\n        /* \"contracts/MultiSigWalletWithDailyLimit.sol\":4236:4255  OwnerRemoval(owner) */\n      0xffffffffffffffffffffffffffffffffffffffff\n      and\n      0x8001553a916ef2f495d26a907cc54d96ed840d7bda71e73194bf5a9df7a76b90\n      mload(0x40)\n      mload(0x40)\n      dup1\n      swap2\n      sub\n      swap1\n      log2\n        /* \"contracts/MultiSigWalletWithDailyLimit.sol\":1655:1656  _ */\n    tag_127:\n        /* \"contracts/MultiSigWalletWithDailyLimit.sol\":1462:1463  _ */\n    tag_125:\n      pop\n        /* \"contracts/MultiSigWalletWithDailyLimit.sol\":3802:4262  function removeOwner(address owner)... */\n    tag_123:\n      pop\n      pop\n      jump\t// out\n        /* \"contracts/MultiSigWalletWithDailyLimit.sol\":6368:6659  function revokeConfirmation(uint transactionId)... */\n    tag_39:\n        /* \"contracts/MultiSigWalletWithDailyLimit.sol\":6451:6461  msg.sender */\n      caller\n        /* \"contracts/MultiSigWalletWithDailyLimit.sol\":1630:1637  isOwner */\n      0x2\n        /* \"contracts/MultiSigWalletWithDailyLimit.sol\":1630:1644  isOwner[owner] */\n      0x0\n        /* \"contracts/MultiSigWalletWithDailyLimit.sol\":1638:1643  owner */\n      dup3\n        /* \"contracts/MultiSigWalletWithDailyLimit.sol\":1630:1644  isOwner[owner] */\n      0xffffffffffffffffffffffffffffffffffffffff\n      and\n      0xffffffffffffffffffffffffffffffffffffffff\n      and\n      dup2\n      mstore\n      0x20\n      add\n      swap1\n      dup2\n      mstore\n      0x20\n      add\n      0x0\n      keccak256\n      0x0\n      swap1\n      sload\n      swap1\n      0x100\n      exp\n      swap1\n      div\n      0xff\n      and\n        /* \"contracts/MultiSigWalletWithDailyLimit.sol\":1622:1645  require(isOwner[owner]) */\n      iszero\n      iszero\n      tag_143\n      jumpi\n      0x0\n      dup1\n      revert\n    tag_143:\n        /* \"contracts/MultiSigWalletWithDailyLimit.sol\":6481:6494  transactionId */\n      dup2\n        /* \"contracts/MultiSigWalletWithDailyLimit.sol\":6496:6506  msg.sender */\n      caller\n        /* \"contracts/MultiSigWalletWithDailyLimit.sol\":1875:1888  confirmations */\n      0x1\n        /* \"contracts/MultiSigWalletWithDailyLimit.sol\":1875:1903  confirmations[transactionId] */\n      0x0\n        /* \"contracts/MultiSigWalletWithDailyLimit.sol\":1889:1902  transactionId */\n      dup4\n        /* \"contracts/MultiSigWalletWithDailyLimit.sol\":1875:1903  confirmations[transactionId] */\n      dup2\n      mstore\n      0x20\n      add\n      swap1\n      dup2\n      mstore\n      0x20\n      add\n      0x0\n      keccak256\n        /* \"contracts/MultiSigWalletWithDailyLimit.sol\":1875:1910  confirmations[transactionId][owner] */\n      0x0\n        /* \"contracts/MultiSigWalletWithDailyLimit.sol\":1904:1909  owner */\n      dup3\n        /* \"contracts/MultiSigWalletWithDailyLimit.sol\":1875:1910  confirmations[transactionId][owner] */\n      0xffffffffffffffffffffffffffffffffffffffff\n      and\n      0xffffffffffffffffffffffffffffffffffffffff\n      and\n      dup2\n      mstore\n      0x20\n      add\n      swap1\n      dup2\n      mstore\n      0x20\n      add\n      0x0\n      keccak256\n      0x0\n      swap1\n      sload\n      swap1\n      0x100\n      exp\n      swap1\n      div\n      0xff\n      and\n        /* \"contracts/MultiSigWalletWithDailyLimit.sol\":1867:1911  require(confirmations[transactionId][owner]) */\n      iszero\n      iszero\n      tag_145\n      jumpi\n      0x0\n      dup1\n      revert\n    tag_145:\n        /* \"contracts/MultiSigWalletWithDailyLimit.sol\":6528:6541  transactionId */\n      dup4\n        /* \"contracts/MultiSigWalletWithDailyLimit.sol\":2131:2143  transactions */\n      0x0\n        /* \"contracts/MultiSigWalletWithDailyLimit.sol\":2131:2158  transactions[transactionId] */\n      dup1\n        /* \"contracts/MultiSigWalletWithDailyLimit.sol\":2144:2157  transactionId */\n      dup3\n        /* \"contracts/MultiSigWalletWithDailyLimit.sol\":2131:2158  transactions[transactionId] */\n      dup2\n      mstore\n      0x20\n      add\n      swap1\n      dup2\n      mstore\n      0x20\n      add\n      0x0\n      keccak256\n        /* \"contracts/MultiSigWalletWithDailyLimit.sol\":2131:2167  transactions[transactionId].executed */\n      0x3\n      add\n      0x0\n      swap1\n      sload\n      swap1\n      0x100\n      exp\n      swap1\n      div\n      0xff\n      and\n        /* \"contracts/MultiSigWalletWithDailyLimit.sol\":2130:2167  !transactions[transactionId].executed */\n      iszero\n        /* \"contracts/MultiSigWalletWithDailyLimit.sol\":2122:2168  require(!transactions[transactionId].executed) */\n      iszero\n      iszero\n      tag_147\n      jumpi\n      0x0\n      dup1\n      revert\n    tag_147:\n        /* \"contracts/MultiSigWalletWithDailyLimit.sol\":6600:6605  false */\n      0x0\n        /* \"contracts/MultiSigWalletWithDailyLimit.sol\":6557:6570  confirmations */\n      0x1\n        /* \"contracts/MultiSigWalletWithDailyLimit.sol\":6557:6585  confirmations[transactionId] */\n      0x0\n        /* \"contracts/MultiSigWalletWithDailyLimit.sol\":6571:6584  transactionId */\n      dup8\n        /* \"contracts/MultiSigWalletWithDailyLimit.sol\":6557:6585  confirmations[transactionId] */\n      dup2\n      mstore\n      0x20\n      add\n      swap1\n      dup2\n      mstore\n      0x20\n      add\n      0x0\n      keccak256\n        /* \"contracts/MultiSigWalletWithDailyLimit.sol\":6557:6597  confirmations[transactionId][msg.sender] */\n      0x0\n        /* \"contracts/MultiSigWalletWithDailyLimit.sol\":6586:6596  msg.sender */\n      caller\n        /* \"contracts/MultiSigWalletWithDailyLimit.sol\":6557:6597  confirmations[transactionId][msg.sender] */\n      0xffffffffffffffffffffffffffffffffffffffff\n      and\n      0xffffffffffffffffffffffffffffffffffffffff\n      and\n      dup2\n      mstore\n      0x20\n      add\n      swap1\n      dup2\n      mstore\n      0x20\n      add\n      0x0\n      keccak256\n      0x0\n        /* \"contracts/MultiSigWalletWithDailyLimit.sol\":6557:6605  confirmations[transactionId][msg.sender] = false */\n      0x100\n      exp\n      dup2\n      sload\n      dup2\n      0xff\n      mul\n      not\n      and\n      swap1\n      dup4\n      iszero\n      iszero\n      mul\n      or\n      swap1\n      sstore\n      pop\n        /* \"contracts/MultiSigWalletWithDailyLimit.sol\":6638:6651  transactionId */\n      dup5\n        /* \"contracts/MultiSigWalletWithDailyLimit.sol\":6626:6636  msg.sender */\n      caller\n        /* \"contracts/MultiSigWalletWithDailyLimit.sol\":6615:6652  Revocation(msg.sender, transactionId) */\n      0xffffffffffffffffffffffffffffffffffffffff\n      and\n      0xf6a317157440607f36269043eb55f1287a5a19ba2216afeab88cd46cbcfb88e9\n      mload(0x40)\n      mload(0x40)\n      dup1\n      swap2\n      sub\n      swap1\n      log3\n        /* \"contracts/MultiSigWalletWithDailyLimit.sol\":2178:2179  _ */\n    tag_148:\n        /* \"contracts/MultiSigWalletWithDailyLimit.sol\":1921:1922  _ */\n    tag_146:\n      pop\n        /* \"contracts/MultiSigWalletWithDailyLimit.sol\":1655:1656  _ */\n    tag_144:\n      pop\n      pop\n        /* \"contracts/MultiSigWalletWithDailyLimit.sol\":6368:6659  function revokeConfirmation(uint transactionId)... */\n    tag_142:\n      pop\n      pop\n      jump\t// out\n        /* \"contracts/MultiSigWalletWithDailyLimit.sol\":1091:1131  mapping (address => bool) public isOwner */\n    tag_42:\n      mstore(0x20, 0x2)\n      dup1\n      0x0\n      mstore\n      keccak256(0x0, 0x40)\n      0x0\n      swap2\n      pop\n      sload\n      swap1\n      0x100\n      exp\n      swap1\n      div\n      0xff\n      and\n      dup2\n      jump\t// out\n        /* \"contracts/MultiSigWalletWithDailyLimit.sol\":1021:1085  mapping (uint => mapping (address => bool)) public confirmations */\n    tag_45:\n      mstore(0x20, 0x1)\n      dup2\n      0x0\n      mstore\n      mstore(0x20, keccak256(0x0, 0x40))\n      dup1\n      0x0\n      mstore\n      keccak256(0x0, 0x40)\n      0x0\n      swap2\n      pop\n      swap2\n      pop\n      swap1\n      sload\n      swap1\n      0x100\n      exp\n      swap1\n      div\n      0xff\n      and\n      dup2\n      jump\t// out\n        /* \"contracts/MultiSigWalletWithDailyLimit.sol\":15941:16202  function calcMaxWithdraw()... */\n    tag_48:\n        /* \"contracts/MultiSigWalletWithDailyLimit.sol\":16017:16021  uint */\n      0x0\n        /* \"contracts/MultiSigWalletWithDailyLimit.sol\":16057:16065  24 hours */\n      0x15180\n        /* \"contracts/MultiSigWalletWithDailyLimit.sol\":16047:16054  lastDay */\n      sload(0x7)\n        /* \"contracts/MultiSigWalletWithDailyLimit.sol\":16047:16065  lastDay + 24 hours */\n      add\n        /* \"contracts/MultiSigWalletWithDailyLimit.sol\":16041:16044  now */\n      timestamp\n        /* \"contracts/MultiSigWalletWithDailyLimit.sol\":16041:16065  now > lastDay + 24 hours */\n      gt\n        /* \"contracts/MultiSigWalletWithDailyLimit.sol\":16037:16096  if (now > lastDay + 24 hours)... */\n      iszero\n      tag_150\n      jumpi\n        /* \"contracts/MultiSigWalletWithDailyLimit.sol\":16086:16096  dailyLimit */\n      sload(0x6)\n        /* \"contracts/MultiSigWalletWithDailyLimit.sol\":16079:16096  return dailyLimit */\n      swap1\n      pop\n      jump(tag_149)\n        /* \"contracts/MultiSigWalletWithDailyLimit.sol\":16037:16096  if (now > lastDay + 24 hours)... */\n    tag_150:\n        /* \"contracts/MultiSigWalletWithDailyLimit.sol\":16123:16133  spentToday */\n      sload(0x8)\n        /* \"contracts/MultiSigWalletWithDailyLimit.sol\":16110:16120  dailyLimit */\n      sload(0x6)\n        /* \"contracts/MultiSigWalletWithDailyLimit.sol\":16110:16133  dailyLimit < spentToday */\n      lt\n        /* \"contracts/MultiSigWalletWithDailyLimit.sol\":16106:16155  if (dailyLimit < spentToday)... */\n      iszero\n      tag_151\n      jumpi\n        /* \"contracts/MultiSigWalletWithDailyLimit.sol\":16154:16155  0 */\n      0x0\n        /* \"contracts/MultiSigWalletWithDailyLimit.sol\":16147:16155  return 0 */\n      swap1\n      pop\n      jump(tag_149)\n        /* \"contracts/MultiSigWalletWithDailyLimit.sol\":16106:16155  if (dailyLimit < spentToday)... */\n    tag_151:\n        /* \"contracts/MultiSigWalletWithDailyLimit.sol\":16185:16195  spentToday */\n      sload(0x8)\n        /* \"contracts/MultiSigWalletWithDailyLimit.sol\":16172:16182  dailyLimit */\n      sload(0x6)\n        /* \"contracts/MultiSigWalletWithDailyLimit.sol\":16172:16195  dailyLimit - spentToday */\n      sub\n        /* \"contracts/MultiSigWalletWithDailyLimit.sol\":16165:16195  return dailyLimit - spentToday */\n      swap1\n      pop\n        /* \"contracts/MultiSigWalletWithDailyLimit.sol\":15941:16202  function calcMaxWithdraw()... */\n    tag_149:\n      swap1\n      jump\t// out\n        /* \"contracts/MultiSigWalletWithDailyLimit.sol\":10622:10941  function getTransactionCount(bool pending, bool executed)... */\n    tag_51:\n        /* \"contracts/MultiSigWalletWithDailyLimit.sol\":10729:10739  uint count */\n      0x0\n        /* \"contracts/MultiSigWalletWithDailyLimit.sol\":10760:10766  uint i */\n      dup1\n        /* \"contracts/MultiSigWalletWithDailyLimit.sol\":10767:10768  0 */\n      0x0\n        /* \"contracts/MultiSigWalletWithDailyLimit.sol\":10760:10768  uint i=0 */\n      swap1\n      pop\n        /* \"contracts/MultiSigWalletWithDailyLimit.sol\":10755:10934  for (uint i=0; i<transactionCount; i++)... */\n    tag_153:\n        /* \"contracts/MultiSigWalletWithDailyLimit.sol\":10772:10788  transactionCount */\n      sload(0x5)\n        /* \"contracts/MultiSigWalletWithDailyLimit.sol\":10770:10771  i */\n      dup2\n        /* \"contracts/MultiSigWalletWithDailyLimit.sol\":10770:10788  i<transactionCount */\n      lt\n        /* \"contracts/MultiSigWalletWithDailyLimit.sol\":10755:10934  for (uint i=0; i<transactionCount; i++)... */\n      iszero\n      tag_154\n      jumpi\n        /* \"contracts/MultiSigWalletWithDailyLimit.sol\":10814:10821  pending */\n      dup4\n        /* \"contracts/MultiSigWalletWithDailyLimit.sol\":10814:10850  pending && !transactions[i].executed */\n      dup1\n      iszero\n      tag_156\n      jumpi\n      pop\n        /* \"contracts/MultiSigWalletWithDailyLimit.sol\":10826:10838  transactions */\n      0x0\n        /* \"contracts/MultiSigWalletWithDailyLimit.sol\":10826:10841  transactions[i] */\n      dup1\n        /* \"contracts/MultiSigWalletWithDailyLimit.sol\":10839:10840  i */\n      dup3\n        /* \"contracts/MultiSigWalletWithDailyLimit.sol\":10826:10841  transactions[i] */\n      dup2\n      mstore\n      0x20\n      add\n      swap1\n      dup2\n      mstore\n      0x20\n      add\n      0x0\n      keccak256\n        /* \"contracts/MultiSigWalletWithDailyLimit.sol\":10826:10850  transactions[i].executed */\n      0x3\n      add\n      0x0\n      swap1\n      sload\n      swap1\n      0x100\n      exp\n      swap1\n      div\n      0xff\n      and\n        /* \"contracts/MultiSigWalletWithDailyLimit.sol\":10825:10850  !transactions[i].executed */\n      iszero\n        /* \"contracts/MultiSigWalletWithDailyLimit.sol\":10814:10850  pending && !transactions[i].executed */\n    tag_156:\n        /* \"contracts/MultiSigWalletWithDailyLimit.sol\":10814:10906  pending && !transactions[i].executed... */\n      dup1\n      tag_157\n      jumpi\n      pop\n        /* \"contracts/MultiSigWalletWithDailyLimit.sol\":10870:10878  executed */\n      dup3\n        /* \"contracts/MultiSigWalletWithDailyLimit.sol\":10870:10906  executed && transactions[i].executed */\n      dup1\n      iszero\n      tag_158\n      jumpi\n      pop\n        /* \"contracts/MultiSigWalletWithDailyLimit.sol\":10882:10894  transactions */\n      0x0\n        /* \"contracts/MultiSigWalletWithDailyLimit.sol\":10882:10897  transactions[i] */\n      dup1\n        /* \"contracts/MultiSigWalletWithDailyLimit.sol\":10895:10896  i */\n      dup3\n        /* \"contracts/MultiSigWalletWithDailyLimit.sol\":10882:10897  transactions[i] */\n      dup2\n      mstore\n      0x20\n      add\n      swap1\n      dup2\n      mstore\n      0x20\n      add\n      0x0\n      keccak256\n        /* \"contracts/MultiSigWalletWithDailyLimit.sol\":10882:10906  transactions[i].executed */\n      0x3\n      add\n      0x0\n      swap1\n      sload\n      swap1\n      0x100\n      exp\n      swap1\n      div\n      0xff\n      and\n        /* \"contracts/MultiSigWalletWithDailyLimit.sol\":10870:10906  executed && transactions[i].executed */\n    tag_158:\n        /* \"contracts/MultiSigWalletWithDailyLimit.sol\":10814:10906  pending && !transactions[i].executed... */\n    tag_157:\n        /* \"contracts/MultiSigWalletWithDailyLimit.sol\":10807:10934  if (   pending && !transactions[i].executed... */\n      iszero\n      tag_159\n      jumpi\n        /* \"contracts/MultiSigWalletWithDailyLimit.sol\":10933:10934  1 */\n      0x1\n        /* \"contracts/MultiSigWalletWithDailyLimit.sol\":10924:10934  count += 1 */\n      dup3\n      add\n      swap2\n      pop\n        /* \"contracts/MultiSigWalletWithDailyLimit.sol\":10807:10934  if (   pending && !transactions[i].executed... */\n    tag_159:\n        /* \"contracts/MultiSigWalletWithDailyLimit.sol\":10755:10934  for (uint i=0; i<transactionCount; i++)... */\n    tag_155:\n        /* \"contracts/MultiSigWalletWithDailyLimit.sol\":10790:10793  i++ */\n      dup1\n      dup1\n      0x1\n      add\n      swap2\n      pop\n      pop\n        /* \"contracts/MultiSigWalletWithDailyLimit.sol\":10755:10934  for (uint i=0; i<transactionCount; i++)... */\n      jump(tag_153)\n    tag_154:\n        /* \"contracts/MultiSigWalletWithDailyLimit.sol\":10622:10941  function getTransactionCount(bool pending, bool executed)... */\n    tag_152:\n      pop\n      swap3\n      swap2\n      pop\n      pop\n      jump\t// out\n        /* \"contracts/MultiSigWalletWithDailyLimit.sol\":13344:13366  uint public dailyLimit */\n    tag_54:\n      sload(0x6)\n      dup2\n      jump\t// out\n        /* \"contracts/MultiSigWalletWithDailyLimit.sol\":13372:13391  uint public lastDay */\n    tag_57:\n      sload(0x7)\n      dup2\n      jump\t// out\n        /* \"contracts/MultiSigWalletWithDailyLimit.sol\":3402:3679  function addOwner(address owner)... */\n    tag_60:\n        /* \"contracts/MultiSigWalletWithDailyLimit.sol\":1446:1450  this */\n      address\n        /* \"contracts/MultiSigWalletWithDailyLimit.sol\":1424:1451  msg.sender == address(this) */\n      0xffffffffffffffffffffffffffffffffffffffff\n      and\n        /* \"contracts/MultiSigWalletWithDailyLimit.sol\":1424:1434  msg.sender */\n      caller\n        /* \"contracts/MultiSigWalletWithDailyLimit.sol\":1424:1451  msg.sender == address(this) */\n      0xffffffffffffffffffffffffffffffffffffffff\n      and\n      eq\n        /* \"contracts/MultiSigWalletWithDailyLimit.sol\":1416:1452  require(msg.sender == address(this)) */\n      iszero\n      iszero\n      tag_161\n      jumpi\n      0x0\n      dup1\n      revert\n    tag_161:\n        /* \"contracts/MultiSigWalletWithDailyLimit.sol\":3495:3500  owner */\n      dup1\n        /* \"contracts/MultiSigWalletWithDailyLimit.sol\":1537:1544  isOwner */\n      0x2\n        /* \"contracts/MultiSigWalletWithDailyLimit.sol\":1537:1551  isOwner[owner] */\n      0x0\n        /* \"contracts/MultiSigWalletWithDailyLimit.sol\":1545:1550  owner */\n      dup3\n        /* \"contracts/MultiSigWalletWithDailyLimit.sol\":1537:1551  isOwner[owner] */\n      0xffffffffffffffffffffffffffffffffffffffff\n      and\n      0xffffffffffffffffffffffffffffffffffffffff\n      and\n      dup2\n      mstore\n      0x20\n      add\n      swap1\n      dup2\n      mstore\n      0x20\n      add\n      0x0\n      keccak256\n      0x0\n      swap1\n      sload\n      swap1\n      0x100\n      exp\n      swap1\n      div\n      0xff\n      and\n        /* \"contracts/MultiSigWalletWithDailyLimit.sol\":1536:1551  !isOwner[owner] */\n      iszero\n        /* \"contracts/MultiSigWalletWithDailyLimit.sol\":1528:1552  require(!isOwner[owner]) */\n      iszero\n      iszero\n      tag_163\n      jumpi\n      0x0\n      dup1\n      revert\n    tag_163:\n        /* \"contracts/MultiSigWalletWithDailyLimit.sol\":3518:3523  owner */\n      dup2\n        /* \"contracts/MultiSigWalletWithDailyLimit.sol\":2257:2258  0 */\n      0x0\n        /* \"contracts/MultiSigWalletWithDailyLimit.sol\":2245:2253  _address */\n      dup2\n        /* \"contracts/MultiSigWalletWithDailyLimit.sol\":2245:2258  _address != 0 */\n      0xffffffffffffffffffffffffffffffffffffffff\n      and\n      eq\n      iszero\n        /* \"contracts/MultiSigWalletWithDailyLimit.sol\":2237:2259  require(_address != 0) */\n      iszero\n      iszero\n      tag_165\n      jumpi\n      0x0\n      dup1\n      revert\n    tag_165:\n        /* \"contracts/MultiSigWalletWithDailyLimit.sol\":3566:3567  1 */\n      0x1\n        /* \"contracts/MultiSigWalletWithDailyLimit.sol\":3550:3556  owners */\n      0x3\n        /* \"contracts/MultiSigWalletWithDailyLimit.sol\":3550:3563  owners.length */\n      dup1\n      sload\n      swap1\n      pop\n        /* \"contracts/MultiSigWalletWithDailyLimit.sol\":3550:3567  owners.length + 1 */\n      add\n        /* \"contracts/MultiSigWalletWithDailyLimit.sol\":3569:3577  required */\n      sload(0x4)\n        /* \"contracts/MultiSigWalletWithDailyLimit.sol\":926:928  50 */\n      0x32\n        /* \"contracts/MultiSigWalletWithDailyLimit.sol\":2360:2370  ownerCount */\n      dup3\n        /* \"contracts/MultiSigWalletWithDailyLimit.sol\":2360:2389  ownerCount <= MAX_OWNER_COUNT */\n      gt\n      iszero\n        /* \"contracts/MultiSigWalletWithDailyLimit.sol\":2360:2428  ownerCount <= MAX_OWNER_COUNT... */\n      dup1\n      iszero\n      tag_167\n      jumpi\n      pop\n        /* \"contracts/MultiSigWalletWithDailyLimit.sol\":2418:2428  ownerCount */\n      dup2\n        /* \"contracts/MultiSigWalletWithDailyLimit.sol\":2405:2414  _required */\n      dup2\n        /* \"contracts/MultiSigWalletWithDailyLimit.sol\":2405:2428  _required <= ownerCount */\n      gt\n      iszero\n        /* \"contracts/MultiSigWalletWithDailyLimit.sol\":2360:2428  ownerCount <= MAX_OWNER_COUNT... */\n    tag_167:\n        /* \"contracts/MultiSigWalletWithDailyLimit.sol\":2360:2458  ownerCount <= MAX_OWNER_COUNT... */\n      dup1\n      iszero\n      tag_168\n      jumpi\n      pop\n        /* \"contracts/MultiSigWalletWithDailyLimit.sol\":2457:2458  0 */\n      0x0\n        /* \"contracts/MultiSigWalletWithDailyLimit.sol\":2444:2453  _required */\n      dup2\n        /* \"contracts/MultiSigWalletWithDailyLimit.sol\":2444:2458  _required != 0 */\n      eq\n      iszero\n        /* \"contracts/MultiSigWalletWithDailyLimit.sol\":2360:2458  ownerCount <= MAX_OWNER_COUNT... */\n    tag_168:\n        /* \"contracts/MultiSigWalletWithDailyLimit.sol\":2360:2489  ownerCount <= MAX_OWNER_COUNT... */\n      dup1\n      iszero\n      tag_169\n      jumpi\n      pop\n        /* \"contracts/MultiSigWalletWithDailyLimit.sol\":2488:2489  0 */\n      0x0\n        /* \"contracts/MultiSigWalletWithDailyLimit.sol\":2474:2484  ownerCount */\n      dup3\n        /* \"contracts/MultiSigWalletWithDailyLimit.sol\":2474:2489  ownerCount != 0 */\n      eq\n      iszero\n        /* \"contracts/MultiSigWalletWithDailyLimit.sol\":2360:2489  ownerCount <= MAX_OWNER_COUNT... */\n    tag_169:\n        /* \"contracts/MultiSigWalletWithDailyLimit.sol\":2352:2490  require(ownerCount <= MAX_OWNER_COUNT... */\n      iszero\n      iszero\n      tag_170\n      jumpi\n      0x0\n      dup1\n      revert\n    tag_170:\n        /* \"contracts/MultiSigWalletWithDailyLimit.sol\":3610:3614  true */\n      0x1\n        /* \"contracts/MultiSigWalletWithDailyLimit.sol\":3593:3600  isOwner */\n      0x2\n        /* \"contracts/MultiSigWalletWithDailyLimit.sol\":3593:3607  isOwner[owner] */\n      0x0\n        /* \"contracts/MultiSigWalletWithDailyLimit.sol\":3601:3606  owner */\n      dup8\n        /* \"contracts/MultiSigWalletWithDailyLimit.sol\":3593:3607  isOwner[owner] */\n      0xffffffffffffffffffffffffffffffffffffffff\n      and\n      0xffffffffffffffffffffffffffffffffffffffff\n      and\n      dup2\n      mstore\n      0x20\n      add\n      swap1\n      dup2\n      mstore\n      0x20\n      add\n      0x0\n      keccak256\n      0x0\n        /* \"contracts/MultiSigWalletWithDailyLimit.sol\":3593:3614  isOwner[owner] = true */\n      0x100\n      exp\n      dup2\n      sload\n      dup2\n      0xff\n      mul\n      not\n      and\n      swap1\n      dup4\n      iszero\n      iszero\n      mul\n      or\n      swap1\n      sstore\n      pop\n        /* \"contracts/MultiSigWalletWithDailyLimit.sol\":3624:3630  owners */\n      0x3\n        /* \"contracts/MultiSigWalletWithDailyLimit.sol\":3624:3642  owners.push(owner) */\n      dup1\n      sload\n      dup1\n      0x1\n      add\n      dup3\n      dup2\n      tag_172\n      swap2\n      swap1\n      jump\t// in(tag_173)\n    tag_172:\n      swap2\n      0x0\n      mstore\n      keccak256(0x0, 0x20)\n      swap1\n      add\n      0x0\n    tag_174:\n        /* \"contracts/MultiSigWalletWithDailyLimit.sol\":3636:3641  owner */\n      dup8\n        /* \"contracts/MultiSigWalletWithDailyLimit.sol\":3624:3642  owners.push(owner) */\n      swap1\n      swap2\n      swap1\n      swap2\n      0x100\n      exp\n      dup2\n      sload\n      dup2\n      0xffffffffffffffffffffffffffffffffffffffff\n      mul\n      not\n      and\n      swap1\n      dup4\n      0xffffffffffffffffffffffffffffffffffffffff\n      and\n      mul\n      or\n      swap1\n      sstore\n      pop\n      pop\n        /* \"contracts/MultiSigWalletWithDailyLimit.sol\":3666:3671  owner */\n      dup5\n        /* \"contracts/MultiSigWalletWithDailyLimit.sol\":3652:3672  OwnerAddition(owner) */\n      0xffffffffffffffffffffffffffffffffffffffff\n      and\n      0xf39e6e1eb0edcf53c221607b54b00cd28f3196fed0a24994dc308b8f611b682d\n      mload(0x40)\n      mload(0x40)\n      dup1\n      swap2\n      sub\n      swap1\n      log2\n        /* \"contracts/MultiSigWalletWithDailyLimit.sol\":2500:2501  _ */\n    tag_171:\n        /* \"contracts/MultiSigWalletWithDailyLimit.sol\":2269:2270  _ */\n    tag_166:\n      pop\n      pop\n        /* \"contracts/MultiSigWalletWithDailyLimit.sol\":1562:1563  _ */\n    tag_164:\n      pop\n        /* \"contracts/MultiSigWalletWithDailyLimit.sol\":1462:1463  _ */\n    tag_162:\n      pop\n        /* \"contracts/MultiSigWalletWithDailyLimit.sol\":3402:3679  function addOwner(address owner)... */\n    tag_160:\n      pop\n      jump\t// out\n        /* \"contracts/MultiSigWalletWithDailyLimit.sol\":8790:9127  function isConfirmed(uint transactionId)... */\n    tag_63:\n        /* \"contracts/MultiSigWalletWithDailyLimit.sol\":8880:8884  bool */\n      0x0\n        /* \"contracts/MultiSigWalletWithDailyLimit.sol\":8900:8910  uint count */\n      dup1\n        /* \"contracts/MultiSigWalletWithDailyLimit.sol\":8929:8935  uint i */\n      0x0\n        /* \"contracts/MultiSigWalletWithDailyLimit.sol\":8913:8914  0 */\n      dup1\n        /* \"contracts/MultiSigWalletWithDailyLimit.sol\":8900:8914  uint count = 0 */\n      swap2\n      pop\n        /* \"contracts/MultiSigWalletWithDailyLimit.sol\":8936:8937  0 */\n      0x0\n        /* \"contracts/MultiSigWalletWithDailyLimit.sol\":8929:8937  uint i=0 */\n      swap1\n      pop\n        /* \"contracts/MultiSigWalletWithDailyLimit.sol\":8924:9121  for (uint i=0; i<owners.length; i++) {... */\n    tag_176:\n        /* \"contracts/MultiSigWalletWithDailyLimit.sol\":8941:8947  owners */\n      0x3\n        /* \"contracts/MultiSigWalletWithDailyLimit.sol\":8941:8954  owners.length */\n      dup1\n      sload\n      swap1\n      pop\n        /* \"contracts/MultiSigWalletWithDailyLimit.sol\":8939:8940  i */\n      dup2\n        /* \"contracts/MultiSigWalletWithDailyLimit.sol\":8939:8954  i<owners.length */\n      lt\n        /* \"contracts/MultiSigWalletWithDailyLimit.sol\":8924:9121  for (uint i=0; i<owners.length; i++) {... */\n      iszero\n      tag_177\n      jumpi\n        /* \"contracts/MultiSigWalletWithDailyLimit.sol\":8979:8992  confirmations */\n      0x1\n        /* \"contracts/MultiSigWalletWithDailyLimit.sol\":8979:9007  confirmations[transactionId] */\n      0x0\n        /* \"contracts/MultiSigWalletWithDailyLimit.sol\":8993:9006  transactionId */\n      dup6\n        /* \"contracts/MultiSigWalletWithDailyLimit.sol\":8979:9007  confirmations[transactionId] */\n      dup2\n      mstore\n      0x20\n      add\n      swap1\n      dup2\n      mstore\n      0x20\n      add\n      0x0\n      keccak256\n        /* \"contracts/MultiSigWalletWithDailyLimit.sol\":8979:9018  confirmations[transactionId][owners[i]] */\n      0x0\n        /* \"contracts/MultiSigWalletWithDailyLimit.sol\":9008:9014  owners */\n      0x3\n        /* \"contracts/MultiSigWalletWithDailyLimit.sol\":9015:9016  i */\n      dup4\n        /* \"contracts/MultiSigWalletWithDailyLimit.sol\":9008:9017  owners[i] */\n      dup2\n      sload\n      dup2\n      lt\n      iszero\n      iszero\n      tag_179\n      jumpi\n      invalid\n    tag_179:\n      swap1\n      0x0\n      mstore\n      keccak256(0x0, 0x20)\n      swap1\n      add\n      0x0\n    tag_180:\n      swap1\n      sload\n      swap1\n      0x100\n      exp\n      swap1\n      div\n      0xffffffffffffffffffffffffffffffffffffffff\n      and\n        /* \"contracts/MultiSigWalletWithDailyLimit.sol\":8979:9018  confirmations[transactionId][owners[i]] */\n      0xffffffffffffffffffffffffffffffffffffffff\n      and\n      0xffffffffffffffffffffffffffffffffffffffff\n      and\n      dup2\n      mstore\n      0x20\n      add\n      swap1\n      dup2\n      mstore\n      0x20\n      add\n      0x0\n      keccak256\n      0x0\n      swap1\n      sload\n      swap1\n      0x100\n      exp\n      swap1\n      div\n      0xff\n      and\n        /* \"contracts/MultiSigWalletWithDailyLimit.sol\":8975:9046  if (confirmations[transactionId][owners[i]])... */\n      iszero\n      tag_181\n      jumpi\n        /* \"contracts/MultiSigWalletWithDailyLimit.sol\":9045:9046  1 */\n      0x1\n        /* \"contracts/MultiSigWalletWithDailyLimit.sol\":9036:9046  count += 1 */\n      dup3\n      add\n      swap2\n      pop\n        /* \"contracts/MultiSigWalletWithDailyLimit.sol\":8975:9046  if (confirmations[transactionId][owners[i]])... */\n    tag_181:\n        /* \"contracts/MultiSigWalletWithDailyLimit.sol\":9073:9081  required */\n      sload(0x4)\n        /* \"contracts/MultiSigWalletWithDailyLimit.sol\":9064:9069  count */\n      dup3\n        /* \"contracts/MultiSigWalletWithDailyLimit.sol\":9064:9081  count == required */\n      eq\n        /* \"contracts/MultiSigWalletWithDailyLimit.sol\":9060:9110  if (count == required)... */\n      iszero\n      tag_182\n      jumpi\n        /* \"contracts/MultiSigWalletWithDailyLimit.sol\":9106:9110  true */\n      0x1\n        /* \"contracts/MultiSigWalletWithDailyLimit.sol\":9099:9110  return true */\n      swap3\n      pop\n      jump(tag_175)\n        /* \"contracts/MultiSigWalletWithDailyLimit.sol\":9060:9110  if (count == required)... */\n    tag_182:\n        /* \"contracts/MultiSigWalletWithDailyLimit.sol\":8924:9121  for (uint i=0; i<owners.length; i++) {... */\n    tag_178:\n        /* \"contracts/MultiSigWalletWithDailyLimit.sol\":8956:8959  i++ */\n      dup1\n      dup1\n      0x1\n      add\n      swap2\n      pop\n      pop\n        /* \"contracts/MultiSigWalletWithDailyLimit.sol\":8924:9121  for (uint i=0; i<owners.length; i++) {... */\n      jump(tag_176)\n    tag_177:\n        /* \"contracts/MultiSigWalletWithDailyLimit.sol\":8790:9127  function isConfirmed(uint transactionId)... */\n    tag_175:\n      pop\n      pop\n      swap2\n      swap1\n      pop\n      jump\t// out\n        /* \"contracts/MultiSigWalletWithDailyLimit.sol\":10108:10360  function getConfirmationCount(uint transactionId)... */\n    tag_66:\n        /* \"contracts/MultiSigWalletWithDailyLimit.sol\":10207:10217  uint count */\n      0x0\n        /* \"contracts/MultiSigWalletWithDailyLimit.sol\":10238:10244  uint i */\n      dup1\n        /* \"contracts/MultiSigWalletWithDailyLimit.sol\":10245:10246  0 */\n      0x0\n        /* \"contracts/MultiSigWalletWithDailyLimit.sol\":10238:10246  uint i=0 */\n      swap1\n      pop\n        /* \"contracts/MultiSigWalletWithDailyLimit.sol\":10233:10353  for (uint i=0; i<owners.length; i++)... */\n    tag_184:\n        /* \"contracts/MultiSigWalletWithDailyLimit.sol\":10250:10256  owners */\n      0x3\n        /* \"contracts/MultiSigWalletWithDailyLimit.sol\":10250:10263  owners.length */\n      dup1\n      sload\n      swap1\n      pop\n        /* \"contracts/MultiSigWalletWithDailyLimit.sol\":10248:10249  i */\n      dup2\n        /* \"contracts/MultiSigWalletWithDailyLimit.sol\":10248:10263  i<owners.length */\n      lt\n        /* \"contracts/MultiSigWalletWithDailyLimit.sol\":10233:10353  for (uint i=0; i<owners.length; i++)... */\n      iszero\n      tag_185\n      jumpi\n        /* \"contracts/MultiSigWalletWithDailyLimit.sol\":10286:10299  confirmations */\n      0x1\n        /* \"contracts/MultiSigWalletWithDailyLimit.sol\":10286:10314  confirmations[transactionId] */\n      0x0\n        /* \"contracts/MultiSigWalletWithDailyLimit.sol\":10300:10313  transactionId */\n      dup5\n        /* \"contracts/MultiSigWalletWithDailyLimit.sol\":10286:10314  confirmations[transactionId] */\n      dup2\n      mstore\n      0x20\n      add\n      swap1\n      dup2\n      mstore\n      0x20\n      add\n      0x0\n      keccak256\n        /* \"contracts/MultiSigWalletWithDailyLimit.sol\":10286:10325  confirmations[transactionId][owners[i]] */\n      0x0\n        /* \"contracts/MultiSigWalletWithDailyLimit.sol\":10315:10321  owners */\n      0x3\n        /* \"contracts/MultiSigWalletWithDailyLimit.sol\":10322:10323  i */\n      dup4\n        /* \"contracts/MultiSigWalletWithDailyLimit.sol\":10315:10324  owners[i] */\n      dup2\n      sload\n      dup2\n      lt\n      iszero\n      iszero\n      tag_187\n      jumpi\n      invalid\n    tag_187:\n      swap1\n      0x0\n      mstore\n      keccak256(0x0, 0x20)\n      swap1\n      add\n      0x0\n    tag_188:\n      swap1\n      sload\n      swap1\n      0x100\n      exp\n      swap1\n      div\n      0xffffffffffffffffffffffffffffffffffffffff\n      and\n        /* \"contracts/MultiSigWalletWithDailyLimit.sol\":10286:10325  confirmations[transactionId][owners[i]] */\n      0xffffffffffffffffffffffffffffffffffffffff\n      and\n      0xffffffffffffffffffffffffffffffffffffffff\n      and\n      dup2\n      mstore\n      0x20\n      add\n      swap1\n      dup2\n      mstore\n      0x20\n      add\n      0x0\n      keccak256\n      0x0\n      swap1\n      sload\n      swap1\n      0x100\n      exp\n      swap1\n      div\n      0xff\n      and\n        /* \"contracts/MultiSigWalletWithDailyLimit.sol\":10282:10353  if (confirmations[transactionId][owners[i]])... */\n      iszero\n      tag_189\n      jumpi\n        /* \"contracts/MultiSigWalletWithDailyLimit.sol\":10352:10353  1 */\n      0x1\n        /* \"contracts/MultiSigWalletWithDailyLimit.sol\":10343:10353  count += 1 */\n      dup3\n      add\n      swap2\n      pop\n        /* \"contracts/MultiSigWalletWithDailyLimit.sol\":10282:10353  if (confirmations[transactionId][owners[i]])... */\n    tag_189:\n        /* \"contracts/MultiSigWalletWithDailyLimit.sol\":10233:10353  for (uint i=0; i<owners.length; i++)... */\n    tag_186:\n        /* \"contracts/MultiSigWalletWithDailyLimit.sol\":10265:10268  i++ */\n      dup1\n      dup1\n      0x1\n      add\n      swap2\n      pop\n      pop\n        /* \"contracts/MultiSigWalletWithDailyLimit.sol\":10233:10353  for (uint i=0; i<owners.length; i++)... */\n      jump(tag_184)\n    tag_185:\n        /* \"contracts/MultiSigWalletWithDailyLimit.sol\":10108:10360  function getConfirmationCount(uint transactionId)... */\n    tag_183:\n      pop\n      swap2\n      swap1\n      pop\n      jump\t// out\n        /* \"contracts/MultiSigWalletWithDailyLimit.sol\":966:1015  mapping (uint => Transaction) public transactions */\n    tag_69:\n      mstore(0x20, 0x0)\n      dup1\n      0x0\n      mstore\n      keccak256(0x0, 0x40)\n      0x0\n      swap2\n      pop\n      swap1\n      pop\n      dup1\n      0x0\n      add\n      0x0\n      swap1\n      sload\n      swap1\n      0x100\n      exp\n      swap1\n      div\n      0xffffffffffffffffffffffffffffffffffffffff\n      and\n      swap1\n      dup1\n      0x1\n      add\n      sload\n      swap1\n      dup1\n      0x2\n      add\n      swap1\n      dup1\n      0x3\n      add\n      0x0\n      swap1\n      sload\n      swap1\n      0x100\n      exp\n      swap1\n      div\n      0xff\n      and\n      swap1\n      pop\n      dup5\n      jump\t// out\n        /* \"contracts/MultiSigWalletWithDailyLimit.sol\":11025:11140  function getOwners()... */\n    tag_75:\n        /* \"contracts/MultiSigWalletWithDailyLimit.sol\":11095:11104  address[] */\n      tag_190\n      jump\t// in(tag_191)\n    tag_190:\n        /* \"contracts/MultiSigWalletWithDailyLimit.sol\":11127:11133  owners */\n      0x3\n        /* \"contracts/MultiSigWalletWithDailyLimit.sol\":11120:11133  return owners */\n      dup1\n      sload\n      dup1\n      0x20\n      mul\n      0x20\n      add\n      mload(0x40)\n      swap1\n      dup2\n      add\n      0x40\n      mstore\n      dup1\n      swap3\n      swap2\n      swap1\n      dup2\n      dup2\n      mstore\n      0x20\n      add\n      dup3\n      dup1\n      sload\n      dup1\n      iszero\n      tag_193\n      jumpi\n      0x20\n      mul\n      dup3\n      add\n      swap2\n      swap1\n      0x0\n      mstore\n      keccak256(0x0, 0x20)\n      swap1\n    tag_194:\n      dup2\n      0x0\n      swap1\n      sload\n      swap1\n      0x100\n      exp\n      swap1\n      div\n      0xffffffffffffffffffffffffffffffffffffffff\n      and\n      0xffffffffffffffffffffffffffffffffffffffff\n      and\n      dup2\n      mstore\n      0x20\n      add\n      swap1\n      0x1\n      add\n      swap1\n      dup1\n      dup4\n      gt\n      tag_194\n      jumpi\n    tag_193:\n      pop\n      pop\n      pop\n      pop\n      pop\n      swap1\n      pop\n        /* \"contracts/MultiSigWalletWithDailyLimit.sol\":11025:11140  function getOwners()... */\n    tag_192:\n      swap1\n      jump\t// out\n        /* \"contracts/MultiSigWalletWithDailyLimit.sol\":12243:12919  function getTransactionIds(uint from, uint to, bool pending, bool executed)... */\n    tag_81:\n        /* \"contracts/MultiSigWalletWithDailyLimit.sol\":12368:12390  uint[] _transactionIds */\n      tag_195\n      jump\t// in(tag_196)\n    tag_195:\n        /* \"contracts/MultiSigWalletWithDailyLimit.sol\":12406:12438  uint[] memory transactionIdsTemp */\n      tag_197\n      jump\t// in(tag_196)\n    tag_197:\n        /* \"contracts/MultiSigWalletWithDailyLimit.sol\":12479:12489  uint count */\n      0x0\n        /* \"contracts/MultiSigWalletWithDailyLimit.sol\":12503:12509  uint i */\n      dup1\n        /* \"contracts/MultiSigWalletWithDailyLimit.sol\":12452:12468  transactionCount */\n      sload(0x5)\n        /* \"contracts/MultiSigWalletWithDailyLimit.sol\":12441:12469  new uint[](transactionCount) */\n      mload(0x40)\n      dup1\n      msize\n      lt\n      tag_199\n      jumpi\n      pop\n      msize\n    tag_199:\n      swap1\n      dup1\n      dup3\n      mstore\n      dup1\n      0x20\n      mul\n      0x20\n      add\n      dup3\n      add\n      0x40\n      mstore\n    tag_200:\n      pop\n        /* \"contracts/MultiSigWalletWithDailyLimit.sol\":12406:12469  uint[] memory transactionIdsTemp = new uint[](transactionCount) */\n      swap3\n      pop\n        /* \"contracts/MultiSigWalletWithDailyLimit.sol\":12492:12493  0 */\n      0x0\n        /* \"contracts/MultiSigWalletWithDailyLimit.sol\":12479:12493  uint count = 0 */\n      swap2\n      pop\n        /* \"contracts/MultiSigWalletWithDailyLimit.sol\":12526:12527  0 */\n      0x0\n        /* \"contracts/MultiSigWalletWithDailyLimit.sol\":12524:12527  i=0 */\n      swap1\n      pop\n        /* \"contracts/MultiSigWalletWithDailyLimit.sol\":12519:12769  for (i=0; i<transactionCount; i++)... */\n    tag_201:\n        /* \"contracts/MultiSigWalletWithDailyLimit.sol\":12531:12547  transactionCount */\n      sload(0x5)\n        /* \"contracts/MultiSigWalletWithDailyLimit.sol\":12529:12530  i */\n      dup2\n        /* \"contracts/MultiSigWalletWithDailyLimit.sol\":12529:12547  i<transactionCount */\n      lt\n        /* \"contracts/MultiSigWalletWithDailyLimit.sol\":12519:12769  for (i=0; i<transactionCount; i++)... */\n      iszero\n      tag_202\n      jumpi\n        /* \"contracts/MultiSigWalletWithDailyLimit.sol\":12573:12580  pending */\n      dup6\n        /* \"contracts/MultiSigWalletWithDailyLimit.sol\":12573:12609  pending && !transactions[i].executed */\n      dup1\n      iszero\n      tag_204\n      jumpi\n      pop\n        /* \"contracts/MultiSigWalletWithDailyLimit.sol\":12585:12597  transactions */\n      0x0\n        /* \"contracts/MultiSigWalletWithDailyLimit.sol\":12585:12600  transactions[i] */\n      dup1\n        /* \"contracts/MultiSigWalletWithDailyLimit.sol\":12598:12599  i */\n      dup3\n        /* \"contracts/MultiSigWalletWithDailyLimit.sol\":12585:12600  transactions[i] */\n      dup2\n      mstore\n      0x20\n      add\n      swap1\n      dup2\n      mstore\n      0x20\n      add\n      0x0\n      keccak256\n        /* \"contracts/MultiSigWalletWithDailyLimit.sol\":12585:12609  transactions[i].executed */\n      0x3\n      add\n      0x0\n      swap1\n      sload\n      swap1\n      0x100\n      exp\n      swap1\n      div\n      0xff\n      and\n        /* \"contracts/MultiSigWalletWithDailyLimit.sol\":12584:12609  !transactions[i].executed */\n      iszero\n        /* \"contracts/MultiSigWalletWithDailyLimit.sol\":12573:12609  pending && !transactions[i].executed */\n    tag_204:\n        /* \"contracts/MultiSigWalletWithDailyLimit.sol\":12573:12665  pending && !transactions[i].executed... */\n      dup1\n      tag_205\n      jumpi\n      pop\n        /* \"contracts/MultiSigWalletWithDailyLimit.sol\":12629:12637  executed */\n      dup5\n        /* \"contracts/MultiSigWalletWithDailyLimit.sol\":12629:12665  executed && transactions[i].executed */\n      dup1\n      iszero\n      tag_206\n      jumpi\n      pop\n        /* \"contracts/MultiSigWalletWithDailyLimit.sol\":12641:12653  transactions */\n      0x0\n        /* \"contracts/MultiSigWalletWithDailyLimit.sol\":12641:12656  transactions[i] */\n      dup1\n        /* \"contracts/MultiSigWalletWithDailyLimit.sol\":12654:12655  i */\n      dup3\n        /* \"contracts/MultiSigWalletWithDailyLimit.sol\":12641:12656  transactions[i] */\n      dup2\n      mstore\n      0x20\n      add\n      swap1\n      dup2\n      mstore\n      0x20\n      add\n      0x0\n      keccak256\n        /* \"contracts/MultiSigWalletWithDailyLimit.sol\":12641:12665  transactions[i].executed */\n      0x3\n      add\n      0x0\n      swap1\n      sload\n      swap1\n      0x100\n      exp\n      swap1\n      div\n      0xff\n      and\n        /* \"contracts/MultiSigWalletWithDailyLimit.sol\":12629:12665  executed && transactions[i].executed */\n    tag_206:\n        /* \"contracts/MultiSigWalletWithDailyLimit.sol\":12573:12665  pending && !transactions[i].executed... */\n    tag_205:\n        /* \"contracts/MultiSigWalletWithDailyLimit.sol\":12566:12769  if (   pending && !transactions[i].executed... */\n      iszero\n      tag_207\n      jumpi\n        /* \"contracts/MultiSigWalletWithDailyLimit.sol\":12725:12726  i */\n      dup1\n        /* \"contracts/MultiSigWalletWithDailyLimit.sol\":12697:12715  transactionIdsTemp */\n      dup4\n        /* \"contracts/MultiSigWalletWithDailyLimit.sol\":12716:12721  count */\n      dup4\n        /* \"contracts/MultiSigWalletWithDailyLimit.sol\":12697:12722  transactionIdsTemp[count] */\n      dup2\n      mload\n      dup2\n      lt\n      iszero\n      iszero\n      tag_208\n      jumpi\n      invalid\n    tag_208:\n      swap1\n      0x20\n      add\n      swap1\n      0x20\n      mul\n      add\n        /* \"contracts/MultiSigWalletWithDailyLimit.sol\":12697:12726  transactionIdsTemp[count] = i */\n      dup2\n      dup2\n      mstore\n      pop\n      pop\n        /* \"contracts/MultiSigWalletWithDailyLimit.sol\":12753:12754  1 */\n      0x1\n        /* \"contracts/MultiSigWalletWithDailyLimit.sol\":12744:12754  count += 1 */\n      dup3\n      add\n      swap2\n      pop\n        /* \"contracts/MultiSigWalletWithDailyLimit.sol\":12566:12769  if (   pending && !transactions[i].executed... */\n    tag_207:\n        /* \"contracts/MultiSigWalletWithDailyLimit.sol\":12519:12769  for (i=0; i<transactionCount; i++)... */\n    tag_203:\n        /* \"contracts/MultiSigWalletWithDailyLimit.sol\":12549:12552  i++ */\n      dup1\n      dup1\n      0x1\n      add\n      swap2\n      pop\n      pop\n        /* \"contracts/MultiSigWalletWithDailyLimit.sol\":12519:12769  for (i=0; i<transactionCount; i++)... */\n      jump(tag_201)\n    tag_202:\n        /* \"contracts/MultiSigWalletWithDailyLimit.sol\":12812:12816  from */\n      dup8\n        /* \"contracts/MultiSigWalletWithDailyLimit.sol\":12807:12809  to */\n      dup8\n        /* \"contracts/MultiSigWalletWithDailyLimit.sol\":12807:12816  to - from */\n      sub\n        /* \"contracts/MultiSigWalletWithDailyLimit.sol\":12796:12817  new uint[](to - from) */\n      mload(0x40)\n      dup1\n      msize\n      lt\n      tag_209\n      jumpi\n      pop\n      msize\n    tag_209:\n      swap1\n      dup1\n      dup3\n      mstore\n      dup1\n      0x20\n      mul\n      0x20\n      add\n      dup3\n      add\n      0x40\n      mstore\n    tag_210:\n      pop\n        /* \"contracts/MultiSigWalletWithDailyLimit.sol\":12778:12817  _transactionIds = new uint[](to - from) */\n      swap4\n      pop\n        /* \"contracts/MultiSigWalletWithDailyLimit.sol\":12834:12838  from */\n      dup8\n        /* \"contracts/MultiSigWalletWithDailyLimit.sol\":12832:12838  i=from */\n      swap1\n      pop\n        /* \"contracts/MultiSigWalletWithDailyLimit.sol\":12827:12912  for (i=from; i<to; i++)... */\n    tag_211:\n        /* \"contracts/MultiSigWalletWithDailyLimit.sol\":12842:12844  to */\n      dup7\n        /* \"contracts/MultiSigWalletWithDailyLimit.sol\":12840:12841  i */\n      dup2\n        /* \"contracts/MultiSigWalletWithDailyLimit.sol\":12840:12844  i<to */\n      lt\n        /* \"contracts/MultiSigWalletWithDailyLimit.sol\":12827:12912  for (i=from; i<to; i++)... */\n      iszero\n      tag_212\n      jumpi\n        /* \"contracts/MultiSigWalletWithDailyLimit.sol\":12891:12909  transactionIdsTemp */\n      dup3\n        /* \"contracts/MultiSigWalletWithDailyLimit.sol\":12910:12911  i */\n      dup2\n        /* \"contracts/MultiSigWalletWithDailyLimit.sol\":12891:12912  transactionIdsTemp[i] */\n      dup2\n      mload\n      dup2\n      lt\n      iszero\n      iszero\n      tag_214\n      jumpi\n      invalid\n    tag_214:\n      swap1\n      0x20\n      add\n      swap1\n      0x20\n      mul\n      add\n      mload\n        /* \"contracts/MultiSigWalletWithDailyLimit.sol\":12863:12878  _transactionIds */\n      dup5\n        /* \"contracts/MultiSigWalletWithDailyLimit.sol\":12883:12887  from */\n      dup10\n        /* \"contracts/MultiSigWalletWithDailyLimit.sol\":12879:12880  i */\n      dup4\n        /* \"contracts/MultiSigWalletWithDailyLimit.sol\":12879:12887  i - from */\n      sub\n        /* \"contracts/MultiSigWalletWithDailyLimit.sol\":12863:12888  _transactionIds[i - from] */\n      dup2\n      mload\n      dup2\n      lt\n      iszero\n      iszero\n      tag_215\n      jumpi\n      invalid\n    tag_215:\n      swap1\n      0x20\n      add\n      swap1\n      0x20\n      mul\n      add\n        /* \"contracts/MultiSigWalletWithDailyLimit.sol\":12863:12912  _transactionIds[i - from] = transactionIdsTemp[i] */\n      dup2\n      dup2\n      mstore\n      pop\n      pop\n        /* \"contracts/MultiSigWalletWithDailyLimit.sol\":12827:12912  for (i=from; i<to; i++)... */\n    tag_213:\n        /* \"contracts/MultiSigWalletWithDailyLimit.sol\":12846:12849  i++ */\n      dup1\n      dup1\n      0x1\n      add\n      swap2\n      pop\n      pop\n        /* \"contracts/MultiSigWalletWithDailyLimit.sol\":12827:12912  for (i=from; i<to; i++)... */\n      jump(tag_211)\n    tag_212:\n        /* \"contracts/MultiSigWalletWithDailyLimit.sol\":12243:12919  function getTransactionIds(uint from, uint to, bool pending, bool executed)... */\n    tag_198:\n      pop\n      pop\n      pop\n      swap5\n      swap4\n      pop\n      pop\n      pop\n      pop\n      jump\t// out\n        /* \"contracts/MultiSigWalletWithDailyLimit.sol\":11319:11894  function getConfirmations(uint transactionId)... */\n    tag_87:\n        /* \"contracts/MultiSigWalletWithDailyLimit.sol\":11414:11438  address[] _confirmations */\n      tag_216\n      jump\t// in(tag_191)\n    tag_216:\n        /* \"contracts/MultiSigWalletWithDailyLimit.sol\":11454:11488  address[] memory confirmationsTemp */\n      tag_217\n      jump\t// in(tag_191)\n    tag_217:\n        /* \"contracts/MultiSigWalletWithDailyLimit.sol\":11529:11539  uint count */\n      0x0\n        /* \"contracts/MultiSigWalletWithDailyLimit.sol\":11553:11559  uint i */\n      dup1\n        /* \"contracts/MultiSigWalletWithDailyLimit.sol\":11505:11511  owners */\n      0x3\n        /* \"contracts/MultiSigWalletWithDailyLimit.sol\":11505:11518  owners.length */\n      dup1\n      sload\n      swap1\n      pop\n        /* \"contracts/MultiSigWalletWithDailyLimit.sol\":11491:11519  new address[](owners.length) */\n      mload(0x40)\n      dup1\n      msize\n      lt\n      tag_219\n      jumpi\n      pop\n      msize\n    tag_219:\n      swap1\n      dup1\n      dup3\n      mstore\n      dup1\n      0x20\n      mul\n      0x20\n      add\n      dup3\n      add\n      0x40\n      mstore\n    tag_220:\n      pop\n        /* \"contracts/MultiSigWalletWithDailyLimit.sol\":11454:11519  address[] memory confirmationsTemp = new address[](owners.length) */\n      swap3\n      pop\n        /* \"contracts/MultiSigWalletWithDailyLimit.sol\":11542:11543  0 */\n      0x0\n        /* \"contracts/MultiSigWalletWithDailyLimit.sol\":11529:11543  uint count = 0 */\n      swap2\n      pop\n        /* \"contracts/MultiSigWalletWithDailyLimit.sol\":11576:11577  0 */\n      0x0\n        /* \"contracts/MultiSigWalletWithDailyLimit.sol\":11574:11577  i=0 */\n      swap1\n      pop\n        /* \"contracts/MultiSigWalletWithDailyLimit.sol\":11569:11755  for (i=0; i<owners.length; i++)... */\n    tag_221:\n        /* \"contracts/MultiSigWalletWithDailyLimit.sol\":11581:11587  owners */\n      0x3\n        /* \"contracts/MultiSigWalletWithDailyLimit.sol\":11581:11594  owners.length */\n      dup1\n      sload\n      swap1\n      pop\n        /* \"contracts/MultiSigWalletWithDailyLimit.sol\":11579:11580  i */\n      dup2\n        /* \"contracts/MultiSigWalletWithDailyLimit.sol\":11579:11594  i<owners.length */\n      lt\n        /* \"contracts/MultiSigWalletWithDailyLimit.sol\":11569:11755  for (i=0; i<owners.length; i++)... */\n      iszero\n      tag_222\n      jumpi\n        /* \"contracts/MultiSigWalletWithDailyLimit.sol\":11617:11630  confirmations */\n      0x1\n        /* \"contracts/MultiSigWalletWithDailyLimit.sol\":11617:11645  confirmations[transactionId] */\n      0x0\n        /* \"contracts/MultiSigWalletWithDailyLimit.sol\":11631:11644  transactionId */\n      dup7\n        /* \"contracts/MultiSigWalletWithDailyLimit.sol\":11617:11645  confirmations[transactionId] */\n      dup2\n      mstore\n      0x20\n      add\n      swap1\n      dup2\n      mstore\n      0x20\n      add\n      0x0\n      keccak256\n        /* \"contracts/MultiSigWalletWithDailyLimit.sol\":11617:11656  confirmations[transactionId][owners[i]] */\n      0x0\n        /* \"contracts/MultiSigWalletWithDailyLimit.sol\":11646:11652  owners */\n      0x3\n        /* \"contracts/MultiSigWalletWithDailyLimit.sol\":11653:11654  i */\n      dup4\n        /* \"contracts/MultiSigWalletWithDailyLimit.sol\":11646:11655  owners[i] */\n      dup2\n      sload\n      dup2\n      lt\n      iszero\n      iszero\n      tag_224\n      jumpi\n      invalid\n    tag_224:\n      swap1\n      0x0\n      mstore\n      keccak256(0x0, 0x20)\n      swap1\n      add\n      0x0\n    tag_225:\n      swap1\n      sload\n      swap1\n      0x100\n      exp\n      swap1\n      div\n      0xffffffffffffffffffffffffffffffffffffffff\n      and\n        /* \"contracts/MultiSigWalletWithDailyLimit.sol\":11617:11656  confirmations[transactionId][owners[i]] */\n      0xffffffffffffffffffffffffffffffffffffffff\n      and\n      0xffffffffffffffffffffffffffffffffffffffff\n      and\n      dup2\n      mstore\n      0x20\n      add\n      swap1\n      dup2\n      mstore\n      0x20\n      add\n      0x0\n      keccak256\n      0x0\n      swap1\n      sload\n      swap1\n      0x100\n      exp\n      swap1\n      div\n      0xff\n      and\n        /* \"contracts/MultiSigWalletWithDailyLimit.sol\":11613:11755  if (confirmations[transactionId][owners[i]]) {... */\n      iszero\n      tag_226\n      jumpi\n        /* \"contracts/MultiSigWalletWithDailyLimit.sol\":11703:11709  owners */\n      0x3\n        /* \"contracts/MultiSigWalletWithDailyLimit.sol\":11710:11711  i */\n      dup2\n        /* \"contracts/MultiSigWalletWithDailyLimit.sol\":11703:11712  owners[i] */\n      dup2\n      sload\n      dup2\n      lt\n      iszero\n      iszero\n      tag_227\n      jumpi\n      invalid\n    tag_227:\n      swap1\n      0x0\n      mstore\n      keccak256(0x0, 0x20)\n      swap1\n      add\n      0x0\n    tag_228:\n      swap1\n      sload\n      swap1\n      0x100\n      exp\n      swap1\n      div\n      0xffffffffffffffffffffffffffffffffffffffff\n      and\n        /* \"contracts/MultiSigWalletWithDailyLimit.sol\":11676:11693  confirmationsTemp */\n      dup4\n        /* \"contracts/MultiSigWalletWithDailyLimit.sol\":11694:11699  count */\n      dup4\n        /* \"contracts/MultiSigWalletWithDailyLimit.sol\":11676:11700  confirmationsTemp[count] */\n      dup2\n      mload\n      dup2\n      lt\n      iszero\n      iszero\n      tag_229\n      jumpi\n      invalid\n    tag_229:\n      swap1\n      0x20\n      add\n      swap1\n      0x20\n      mul\n      add\n        /* \"contracts/MultiSigWalletWithDailyLimit.sol\":11676:11712  confirmationsTemp[count] = owners[i] */\n      swap1\n      0xffffffffffffffffffffffffffffffffffffffff\n      and\n      swap1\n      dup2\n      0xffffffffffffffffffffffffffffffffffffffff\n      and\n      dup2\n      mstore\n      pop\n      pop\n        /* \"contracts/MultiSigWalletWithDailyLimit.sol\":11739:11740  1 */\n      0x1\n        /* \"contracts/MultiSigWalletWithDailyLimit.sol\":11730:11740  count += 1 */\n      dup3\n      add\n      swap2\n      pop\n        /* \"contracts/MultiSigWalletWithDailyLimit.sol\":11613:11755  if (confirmations[transactionId][owners[i]]) {... */\n    tag_226:\n        /* \"contracts/MultiSigWalletWithDailyLimit.sol\":11569:11755  for (i=0; i<owners.length; i++)... */\n    tag_223:\n        /* \"contracts/MultiSigWalletWithDailyLimit.sol\":11596:11599  i++ */\n      dup1\n      dup1\n      0x1\n      add\n      swap2\n      pop\n      pop\n        /* \"contracts/MultiSigWalletWithDailyLimit.sol\":11569:11755  for (i=0; i<owners.length; i++)... */\n      jump(tag_221)\n    tag_222:\n        /* \"contracts/MultiSigWalletWithDailyLimit.sol\":11795:11800  count */\n      dup2\n        /* \"contracts/MultiSigWalletWithDailyLimit.sol\":11781:11801  new address[](count) */\n      mload(0x40)\n      dup1\n      msize\n      lt\n      tag_230\n      jumpi\n      pop\n      msize\n    tag_230:\n      swap1\n      dup1\n      dup3\n      mstore\n      dup1\n      0x20\n      mul\n      0x20\n      add\n      dup3\n      add\n      0x40\n      mstore\n    tag_231:\n      pop\n        /* \"contracts/MultiSigWalletWithDailyLimit.sol\":11764:11801  _confirmations = new address[](count) */\n      swap4\n      pop\n        /* \"contracts/MultiSigWalletWithDailyLimit.sol\":11818:11819  0 */\n      0x0\n        /* \"contracts/MultiSigWalletWithDailyLimit.sol\":11816:11819  i=0 */\n      swap1\n      pop\n        /* \"contracts/MultiSigWalletWithDailyLimit.sol\":11811:11887  for (i=0; i<count; i++)... */\n    tag_232:\n        /* \"contracts/MultiSigWalletWithDailyLimit.sol\":11823:11828  count */\n      dup2\n        /* \"contracts/MultiSigWalletWithDailyLimit.sol\":11821:11822  i */\n      dup2\n        /* \"contracts/MultiSigWalletWithDailyLimit.sol\":11821:11828  i<count */\n      lt\n        /* \"contracts/MultiSigWalletWithDailyLimit.sol\":11811:11887  for (i=0; i<count; i++)... */\n      iszero\n      tag_233\n      jumpi\n        /* \"contracts/MultiSigWalletWithDailyLimit.sol\":11867:11884  confirmationsTemp */\n      dup3\n        /* \"contracts/MultiSigWalletWithDailyLimit.sol\":11885:11886  i */\n      dup2\n        /* \"contracts/MultiSigWalletWithDailyLimit.sol\":11867:11887  confirmationsTemp[i] */\n      dup2\n      mload\n      dup2\n      lt\n      iszero\n      iszero\n      tag_235\n      jumpi\n      invalid\n    tag_235:\n      swap1\n      0x20\n      add\n      swap1\n      0x20\n      mul\n      add\n      mload\n        /* \"contracts/MultiSigWalletWithDailyLimit.sol\":11847:11861  _confirmations */\n      dup5\n        /* \"contracts/MultiSigWalletWithDailyLimit.sol\":11862:11863  i */\n      dup3\n        /* \"contracts/MultiSigWalletWithDailyLimit.sol\":11847:11864  _confirmations[i] */\n      dup2\n      mload\n      dup2\n      lt\n      iszero\n      iszero\n      tag_236\n      jumpi\n      invalid\n    tag_236:\n      swap1\n      0x20\n      add\n      swap1\n      0x20\n      mul\n      add\n        /* \"contracts/MultiSigWalletWithDailyLimit.sol\":11847:11887  _confirmations[i] = confirmationsTemp[i] */\n      swap1\n      0xffffffffffffffffffffffffffffffffffffffff\n      and\n      swap1\n      dup2\n      0xffffffffffffffffffffffffffffffffffffffff\n      and\n      dup2\n      mstore\n      pop\n      pop\n        /* \"contracts/MultiSigWalletWithDailyLimit.sol\":11811:11887  for (i=0; i<count; i++)... */\n    tag_234:\n        /* \"contracts/MultiSigWalletWithDailyLimit.sol\":11830:11833  i++ */\n      dup1\n      dup1\n      0x1\n      add\n      swap2\n      pop\n      pop\n        /* \"contracts/MultiSigWalletWithDailyLimit.sol\":11811:11887  for (i=0; i<count; i++)... */\n      jump(tag_232)\n    tag_233:\n        /* \"contracts/MultiSigWalletWithDailyLimit.sol\":11319:11894  function getConfirmations(uint transactionId)... */\n    tag_218:\n      pop\n      pop\n      pop\n      swap2\n      swap1\n      pop\n      jump\t// out\n        /* \"contracts/MultiSigWalletWithDailyLimit.sol\":1192:1220  uint public transactionCount */\n    tag_93:\n      sload(0x5)\n      dup2\n      jump\t// out\n        /* \"contracts/MultiSigWalletWithDailyLimit.sol\":5084:5291  function changeRequirement(uint _required)... */\n    tag_96:\n        /* \"contracts/MultiSigWalletWithDailyLimit.sol\":1446:1450  this */\n      address\n        /* \"contracts/MultiSigWalletWithDailyLimit.sol\":1424:1451  msg.sender == address(this) */\n      0xffffffffffffffffffffffffffffffffffffffff\n      and\n        /* \"contracts/MultiSigWalletWithDailyLimit.sol\":1424:1434  msg.sender */\n      caller\n        /* \"contracts/MultiSigWalletWithDailyLimit.sol\":1424:1451  msg.sender == address(this) */\n      0xffffffffffffffffffffffffffffffffffffffff\n      and\n      eq\n        /* \"contracts/MultiSigWalletWithDailyLimit.sol\":1416:1452  require(msg.sender == address(this)) */\n      iszero\n      iszero\n      tag_238\n      jumpi\n      0x0\n      dup1\n      revert\n    tag_238:\n        /* \"contracts/MultiSigWalletWithDailyLimit.sol\":5186:5192  owners */\n      0x3\n        /* \"contracts/MultiSigWalletWithDailyLimit.sol\":5186:5199  owners.length */\n      dup1\n      sload\n      swap1\n      pop\n        /* \"contracts/MultiSigWalletWithDailyLimit.sol\":5201:5210  _required */\n      dup2\n        /* \"contracts/MultiSigWalletWithDailyLimit.sol\":926:928  50 */\n      0x32\n        /* \"contracts/MultiSigWalletWithDailyLimit.sol\":2360:2370  ownerCount */\n      dup3\n        /* \"contracts/MultiSigWalletWithDailyLimit.sol\":2360:2389  ownerCount <= MAX_OWNER_COUNT */\n      gt\n      iszero\n        /* \"contracts/MultiSigWalletWithDailyLimit.sol\":2360:2428  ownerCount <= MAX_OWNER_COUNT... */\n      dup1\n      iszero\n      tag_240\n      jumpi\n      pop\n        /* \"contracts/MultiSigWalletWithDailyLimit.sol\":2418:2428  ownerCount */\n      dup2\n        /* \"contracts/MultiSigWalletWithDailyLimit.sol\":2405:2414  _required */\n      dup2\n        /* \"contracts/MultiSigWalletWithDailyLimit.sol\":2405:2428  _required <= ownerCount */\n      gt\n      iszero\n        /* \"contracts/MultiSigWalletWithDailyLimit.sol\":2360:2428  ownerCount <= MAX_OWNER_COUNT... */\n    tag_240:\n        /* \"contracts/MultiSigWalletWithDailyLimit.sol\":2360:2458  ownerCount <= MAX_OWNER_COUNT... */\n      dup1\n      iszero\n      tag_241\n      jumpi\n      pop\n        /* \"contracts/MultiSigWalletWithDailyLimit.sol\":2457:2458  0 */\n      0x0\n        /* \"contracts/MultiSigWalletWithDailyLimit.sol\":2444:2453  _required */\n      dup2\n        /* \"contracts/MultiSigWalletWithDailyLimit.sol\":2444:2458  _required != 0 */\n      eq\n      iszero\n        /* \"contracts/MultiSigWalletWithDailyLimit.sol\":2360:2458  ownerCount <= MAX_OWNER_COUNT... */\n    tag_241:\n        /* \"contracts/MultiSigWalletWithDailyLimit.sol\":2360:2489  ownerCount <= MAX_OWNER_COUNT... */\n      dup1\n      iszero\n      tag_242\n      jumpi\n      pop\n        /* \"contracts/MultiSigWalletWithDailyLimit.sol\":2488:2489  0 */\n      0x0\n        /* \"contracts/MultiSigWalletWithDailyLimit.sol\":2474:2484  ownerCount */\n      dup3\n        /* \"contracts/MultiSigWalletWithDailyLimit.sol\":2474:2489  ownerCount != 0 */\n      eq\n      iszero\n        /* \"contracts/MultiSigWalletWithDailyLimit.sol\":2360:2489  ownerCount <= MAX_OWNER_COUNT... */\n    tag_242:\n        /* \"contracts/MultiSigWalletWithDailyLimit.sol\":2352:2490  require(ownerCount <= MAX_OWNER_COUNT... */\n      iszero\n      iszero\n      tag_243\n      jumpi\n      0x0\n      dup1\n      revert\n    tag_243:\n        /* \"contracts/MultiSigWalletWithDailyLimit.sol\":5237:5246  _required */\n      dup3\n        /* \"contracts/MultiSigWalletWithDailyLimit.sol\":5226:5234  required */\n      0x4\n        /* \"contracts/MultiSigWalletWithDailyLimit.sol\":5226:5246  required = _required */\n      dup2\n      swap1\n      sstore\n      pop\n        /* \"contracts/MultiSigWalletWithDailyLimit.sol\":5256:5284  RequirementChange(_required) */\n      0xa3f1ee9126a074d9326c682f561767f710e927faa811f7a99829d49dc421797a\n        /* \"contracts/MultiSigWalletWithDailyLimit.sol\":5274:5283  _required */\n      dup4\n        /* \"contracts/MultiSigWalletWithDailyLimit.sol\":5256:5284  RequirementChange(_required) */\n      mload(0x40)\n      dup1\n      dup3\n      dup2\n      mstore\n      0x20\n      add\n      swap2\n      pop\n      pop\n      mload(0x40)\n      dup1\n      swap2\n      sub\n      swap1\n      log1\n        /* \"contracts/MultiSigWalletWithDailyLimit.sol\":2500:2501  _ */\n    tag_244:\n        /* \"contracts/MultiSigWalletWithDailyLimit.sol\":1462:1463  _ */\n    tag_239:\n      pop\n      pop\n        /* \"contracts/MultiSigWalletWithDailyLimit.sol\":5084:5291  function changeRequirement(uint _required)... */\n    tag_237:\n      pop\n      jump\t// out\n        /* \"contracts/MultiSigWalletWithDailyLimit.sol\":5900:6244  function confirmTransaction(uint transactionId)... */\n    tag_99:\n        /* \"contracts/MultiSigWalletWithDailyLimit.sol\":5983:5993  msg.sender */\n      caller\n        /* \"contracts/MultiSigWalletWithDailyLimit.sol\":1630:1637  isOwner */\n      0x2\n        /* \"contracts/MultiSigWalletWithDailyLimit.sol\":1630:1644  isOwner[owner] */\n      0x0\n        /* \"contracts/MultiSigWalletWithDailyLimit.sol\":1638:1643  owner */\n      dup3\n        /* \"contracts/MultiSigWalletWithDailyLimit.sol\":1630:1644  isOwner[owner] */\n      0xffffffffffffffffffffffffffffffffffffffff\n      and\n      0xffffffffffffffffffffffffffffffffffffffff\n      and\n      dup2\n      mstore\n      0x20\n      add\n      swap1\n      dup2\n      mstore\n      0x20\n      add\n      0x0\n      keccak256\n      0x0\n      swap1\n      sload\n      swap1\n      0x100\n      exp\n      swap1\n      div\n      0xff\n      and\n        /* \"contracts/MultiSigWalletWithDailyLimit.sol\":1622:1645  require(isOwner[owner]) */\n      iszero\n      iszero\n      tag_246\n      jumpi\n      0x0\n      dup1\n      revert\n    tag_246:\n        /* \"contracts/MultiSigWalletWithDailyLimit.sol\":6021:6034  transactionId */\n      dup2\n        /* \"contracts/MultiSigWalletWithDailyLimit.sol\":1777:1778  0 */\n      0x0\n        /* \"contracts/MultiSigWalletWithDailyLimit.sol\":1734:1746  transactions */\n      dup1\n        /* \"contracts/MultiSigWalletWithDailyLimit.sol\":1734:1761  transactions[transactionId] */\n      0x0\n        /* \"contracts/MultiSigWalletWithDailyLimit.sol\":1747:1760  transactionId */\n      dup4\n        /* \"contracts/MultiSigWalletWithDailyLimit.sol\":1734:1761  transactions[transactionId] */\n      dup2\n      mstore\n      0x20\n      add\n      swap1\n      dup2\n      mstore\n      0x20\n      add\n      0x0\n      keccak256\n        /* \"contracts/MultiSigWalletWithDailyLimit.sol\":1734:1773  transactions[transactionId].destination */\n      0x0\n      add\n      0x0\n      swap1\n      sload\n      swap1\n      0x100\n      exp\n      swap1\n      div\n      0xffffffffffffffffffffffffffffffffffffffff\n      and\n        /* \"contracts/MultiSigWalletWithDailyLimit.sol\":1734:1778  transactions[transactionId].destination != 0 */\n      0xffffffffffffffffffffffffffffffffffffffff\n      and\n      eq\n      iszero\n        /* \"contracts/MultiSigWalletWithDailyLimit.sol\":1726:1779  require(transactions[transactionId].destination != 0) */\n      iszero\n      iszero\n      tag_248\n      jumpi\n      0x0\n      dup1\n      revert\n    tag_248:\n        /* \"contracts/MultiSigWalletWithDailyLimit.sol\":6057:6070  transactionId */\n      dup3\n        /* \"contracts/MultiSigWalletWithDailyLimit.sol\":6072:6082  msg.sender */\n      caller\n        /* \"contracts/MultiSigWalletWithDailyLimit.sol\":2011:2024  confirmations */\n      0x1\n        /* \"contracts/MultiSigWalletWithDailyLimit.sol\":2011:2039  confirmations[transactionId] */\n      0x0\n        /* \"contracts/MultiSigWalletWithDailyLimit.sol\":2025:2038  transactionId */\n      dup4\n        /* \"contracts/MultiSigWalletWithDailyLimit.sol\":2011:2039  confirmations[transactionId] */\n      dup2\n      mstore\n      0x20\n      add\n      swap1\n      dup2\n      mstore\n      0x20\n      add\n      0x0\n      keccak256\n        /* \"contracts/MultiSigWalletWithDailyLimit.sol\":2011:2046  confirmations[transactionId][owner] */\n      0x0\n        /* \"contracts/MultiSigWalletWithDailyLimit.sol\":2040:2045  owner */\n      dup3\n        /* \"contracts/MultiSigWalletWithDailyLimit.sol\":2011:2046  confirmations[transactionId][owner] */\n      0xffffffffffffffffffffffffffffffffffffffff\n      and\n      0xffffffffffffffffffffffffffffffffffffffff\n      and\n      dup2\n      mstore\n      0x20\n      add\n      swap1\n      dup2\n      mstore\n      0x20\n      add\n      0x0\n      keccak256\n      0x0\n      swap1\n      sload\n      swap1\n      0x100\n      exp\n      swap1\n      div\n      0xff\n      and\n        /* \"contracts/MultiSigWalletWithDailyLimit.sol\":2010:2046  !confirmations[transactionId][owner] */\n      iszero\n        /* \"contracts/MultiSigWalletWithDailyLimit.sol\":2002:2047  require(!confirmations[transactionId][owner]) */\n      iszero\n      iszero\n      tag_250\n      jumpi\n      0x0\n      dup1\n      revert\n    tag_250:\n        /* \"contracts/MultiSigWalletWithDailyLimit.sol\":6141:6145  true */\n      0x1\n        /* \"contracts/MultiSigWalletWithDailyLimit.sol\":6098:6111  confirmations */\n      dup1\n        /* \"contracts/MultiSigWalletWithDailyLimit.sol\":6098:6126  confirmations[transactionId] */\n      0x0\n        /* \"contracts/MultiSigWalletWithDailyLimit.sol\":6112:6125  transactionId */\n      dup8\n        /* \"contracts/MultiSigWalletWithDailyLimit.sol\":6098:6126  confirmations[transactionId] */\n      dup2\n      mstore\n      0x20\n      add\n      swap1\n      dup2\n      mstore\n      0x20\n      add\n      0x0\n      keccak256\n        /* \"contracts/MultiSigWalletWithDailyLimit.sol\":6098:6138  confirmations[transactionId][msg.sender] */\n      0x0\n        /* \"contracts/MultiSigWalletWithDailyLimit.sol\":6127:6137  msg.sender */\n      caller\n        /* \"contracts/MultiSigWalletWithDailyLimit.sol\":6098:6138  confirmations[transactionId][msg.sender] */\n      0xffffffffffffffffffffffffffffffffffffffff\n      and\n      0xffffffffffffffffffffffffffffffffffffffff\n      and\n      dup2\n      mstore\n      0x20\n      add\n      swap1\n      dup2\n      mstore\n      0x20\n      add\n      0x0\n      keccak256\n      0x0\n        /* \"contracts/MultiSigWalletWithDailyLimit.sol\":6098:6145  confirmations[transactionId][msg.sender] = true */\n      0x100\n      exp\n      dup2\n      sload\n      dup2\n      0xff\n      mul\n      not\n      and\n      swap1\n      dup4\n      iszero\n      iszero\n      mul\n      or\n      swap1\n      sstore\n      pop\n        /* \"contracts/MultiSigWalletWithDailyLimit.sol\":6180:6193  transactionId */\n      dup5\n        /* \"contracts/MultiSigWalletWithDailyLimit.sol\":6168:6178  msg.sender */\n      caller\n        /* \"contracts/MultiSigWalletWithDailyLimit.sol\":6155:6194  Confirmation(msg.sender, transactionId) */\n      0xffffffffffffffffffffffffffffffffffffffff\n      and\n      0x4a504a94899432a9846e1aa406dceb1bcfd538bb839071d49d1e5e23f5be30ef\n      mload(0x40)\n      mload(0x40)\n      dup1\n      swap2\n      sub\n      swap1\n      log3\n        /* \"contracts/MultiSigWalletWithDailyLimit.sol\":6204:6237  executeTransaction(transactionId) */\n      tag_252\n        /* \"contracts/MultiSigWalletWithDailyLimit.sol\":6223:6236  transactionId */\n      dup6\n        /* \"contracts/MultiSigWalletWithDailyLimit.sol\":6204:6222  executeTransaction */\n      tag_117\n        /* \"contracts/MultiSigWalletWithDailyLimit.sol\":6204:6237  executeTransaction(transactionId) */\n      jump\t// in\n    tag_252:\n        /* \"contracts/MultiSigWalletWithDailyLimit.sol\":2057:2058  _ */\n    tag_251:\n        /* \"contracts/MultiSigWalletWithDailyLimit.sol\":1789:1790  _ */\n    tag_249:\n      pop\n      pop\n        /* \"contracts/MultiSigWalletWithDailyLimit.sol\":1655:1656  _ */\n    tag_247:\n      pop\n        /* \"contracts/MultiSigWalletWithDailyLimit.sol\":5900:6244  function confirmTransaction(uint transactionId)... */\n    tag_245:\n      pop\n      pop\n      jump\t// out\n        /* \"contracts/MultiSigWalletWithDailyLimit.sol\":5550:5794  function submitTransaction(address destination, uint value, bytes data)... */\n    tag_102:\n        /* \"contracts/MultiSigWalletWithDailyLimit.sol\":5654:5672  uint transactionId */\n      0x0\n        /* \"contracts/MultiSigWalletWithDailyLimit.sol\":5704:5744  addTransaction(destination, value, data) */\n      tag_254\n        /* \"contracts/MultiSigWalletWithDailyLimit.sol\":5719:5730  destination */\n      dup5\n        /* \"contracts/MultiSigWalletWithDailyLimit.sol\":5732:5737  value */\n      dup5\n        /* \"contracts/MultiSigWalletWithDailyLimit.sol\":5739:5743  data */\n      dup5\n        /* \"contracts/MultiSigWalletWithDailyLimit.sol\":5704:5718  addTransaction */\n      tag_255\n        /* \"contracts/MultiSigWalletWithDailyLimit.sol\":5704:5744  addTransaction(destination, value, data) */\n      jump\t// in\n    tag_254:\n        /* \"contracts/MultiSigWalletWithDailyLimit.sol\":5688:5744  transactionId = addTransaction(destination, value, data) */\n      swap1\n      pop\n        /* \"contracts/MultiSigWalletWithDailyLimit.sol\":5754:5787  confirmTransaction(transactionId) */\n      tag_256\n        /* \"contracts/MultiSigWalletWithDailyLimit.sol\":5773:5786  transactionId */\n      dup2\n        /* \"contracts/MultiSigWalletWithDailyLimit.sol\":5754:5772  confirmTransaction */\n      tag_99\n        /* \"contracts/MultiSigWalletWithDailyLimit.sol\":5754:5787  confirmTransaction(transactionId) */\n      jump\t// in\n    tag_256:\n        /* \"contracts/MultiSigWalletWithDailyLimit.sol\":5550:5794  function submitTransaction(address destination, uint value, bytes data)... */\n    tag_253:\n      swap4\n      swap3\n      pop\n      pop\n      pop\n      jump\t// out\n        /* \"contracts/MultiSigWalletWithDailyLimit.sol\":14117:14279  function changeDailyLimit(uint _dailyLimit)... */\n    tag_105:\n        /* \"contracts/MultiSigWalletWithDailyLimit.sol\":1446:1450  this */\n      address\n        /* \"contracts/MultiSigWalletWithDailyLimit.sol\":1424:1451  msg.sender == address(this) */\n      0xffffffffffffffffffffffffffffffffffffffff\n      and\n        /* \"contracts/MultiSigWalletWithDailyLimit.sol\":1424:1434  msg.sender */\n      caller\n        /* \"contracts/MultiSigWalletWithDailyLimit.sol\":1424:1451  msg.sender == address(this) */\n      0xffffffffffffffffffffffffffffffffffffffff\n      and\n      eq\n        /* \"contracts/MultiSigWalletWithDailyLimit.sol\":1416:1452  require(msg.sender == address(this)) */\n      iszero\n      iszero\n      tag_258\n      jumpi\n      0x0\n      dup1\n      revert\n    tag_258:\n        /* \"contracts/MultiSigWalletWithDailyLimit.sol\":14222:14233  _dailyLimit */\n      dup1\n        /* \"contracts/MultiSigWalletWithDailyLimit.sol\":14209:14219  dailyLimit */\n      0x6\n        /* \"contracts/MultiSigWalletWithDailyLimit.sol\":14209:14233  dailyLimit = _dailyLimit */\n      dup2\n      swap1\n      sstore\n      pop\n        /* \"contracts/MultiSigWalletWithDailyLimit.sol\":14243:14272  DailyLimitChange(_dailyLimit) */\n      0xc71bdc6afaf9b1aa90a7078191d4fc1adf3bf680fca3183697df6b0dc226bca2\n        /* \"contracts/MultiSigWalletWithDailyLimit.sol\":14260:14271  _dailyLimit */\n      dup2\n        /* \"contracts/MultiSigWalletWithDailyLimit.sol\":14243:14272  DailyLimitChange(_dailyLimit) */\n      mload(0x40)\n      dup1\n      dup3\n      dup2\n      mstore\n      0x20\n      add\n      swap2\n      pop\n      pop\n      mload(0x40)\n      dup1\n      swap2\n      sub\n      swap1\n      log1\n        /* \"contracts/MultiSigWalletWithDailyLimit.sol\":1462:1463  _ */\n    tag_259:\n        /* \"contracts/MultiSigWalletWithDailyLimit.sol\":14117:14279  function changeDailyLimit(uint _dailyLimit)... */\n    tag_257:\n      pop\n      jump\t// out\n        /* \"contracts/MultiSigWalletWithDailyLimit.sol\":887:928  uint constant public MAX_OWNER_COUNT = 50 */\n    tag_108:\n        /* \"contracts/MultiSigWalletWithDailyLimit.sol\":926:928  50 */\n      0x32\n        /* \"contracts/MultiSigWalletWithDailyLimit.sol\":887:928  uint constant public MAX_OWNER_COUNT = 50 */\n      dup2\n      jump\t// out\n        /* \"contracts/MultiSigWalletWithDailyLimit.sol\":1166:1186  uint public required */\n    tag_111:\n      sload(0x4)\n      dup2\n      jump\t// out\n        /* \"contracts/MultiSigWalletWithDailyLimit.sol\":4464:4913  function replaceOwner(address owner, address newOwner)... */\n    tag_114:\n        /* \"contracts/MultiSigWalletWithDailyLimit.sol\":4635:4641  uint i */\n      0x0\n        /* \"contracts/MultiSigWalletWithDailyLimit.sol\":1446:1450  this */\n      address\n        /* \"contracts/MultiSigWalletWithDailyLimit.sol\":1424:1451  msg.sender == address(this) */\n      0xffffffffffffffffffffffffffffffffffffffff\n      and\n        /* \"contracts/MultiSigWalletWithDailyLimit.sol\":1424:1434  msg.sender */\n      caller\n        /* \"contracts/MultiSigWalletWithDailyLimit.sol\":1424:1451  msg.sender == address(this) */\n      0xffffffffffffffffffffffffffffffffffffffff\n      and\n      eq\n        /* \"contracts/MultiSigWalletWithDailyLimit.sol\":1416:1452  require(msg.sender == address(this)) */\n      iszero\n      iszero\n      tag_261\n      jumpi\n      0x0\n      dup1\n      revert\n    tag_261:\n        /* \"contracts/MultiSigWalletWithDailyLimit.sol\":4573:4578  owner */\n      dup3\n        /* \"contracts/MultiSigWalletWithDailyLimit.sol\":1630:1637  isOwner */\n      0x2\n        /* \"contracts/MultiSigWalletWithDailyLimit.sol\":1630:1644  isOwner[owner] */\n      0x0\n        /* \"contracts/MultiSigWalletWithDailyLimit.sol\":1638:1643  owner */\n      dup3\n        /* \"contracts/MultiSigWalletWithDailyLimit.sol\":1630:1644  isOwner[owner] */\n      0xffffffffffffffffffffffffffffffffffffffff\n      and\n      0xffffffffffffffffffffffffffffffffffffffff\n      and\n      dup2\n      mstore\n      0x20\n      add\n      swap1\n      dup2\n      mstore\n      0x20\n      add\n      0x0\n      keccak256\n      0x0\n      swap1\n      sload\n      swap1\n      0x100\n      exp\n      swap1\n      div\n      0xff\n      and\n        /* \"contracts/MultiSigWalletWithDailyLimit.sol\":1622:1645  require(isOwner[owner]) */\n      iszero\n      iszero\n      tag_263\n      jumpi\n      0x0\n      dup1\n      revert\n    tag_263:\n        /* \"contracts/MultiSigWalletWithDailyLimit.sol\":4606:4614  newOwner */\n      dup3\n        /* \"contracts/MultiSigWalletWithDailyLimit.sol\":1537:1544  isOwner */\n      0x2\n        /* \"contracts/MultiSigWalletWithDailyLimit.sol\":1537:1551  isOwner[owner] */\n      0x0\n        /* \"contracts/MultiSigWalletWithDailyLimit.sol\":1545:1550  owner */\n      dup3\n        /* \"contracts/MultiSigWalletWithDailyLimit.sol\":1537:1551  isOwner[owner] */\n      0xffffffffffffffffffffffffffffffffffffffff\n      and\n      0xffffffffffffffffffffffffffffffffffffffff\n      and\n      dup2\n      mstore\n      0x20\n      add\n      swap1\n      dup2\n      mstore\n      0x20\n      add\n      0x0\n      keccak256\n      0x0\n      swap1\n      sload\n      swap1\n      0x100\n      exp\n      swap1\n      div\n      0xff\n      and\n        /* \"contracts/MultiSigWalletWithDailyLimit.sol\":1536:1551  !isOwner[owner] */\n      iszero\n        /* \"contracts/MultiSigWalletWithDailyLimit.sol\":1528:1552  require(!isOwner[owner]) */\n      iszero\n      iszero\n      tag_265\n      jumpi\n      0x0\n      dup1\n      revert\n    tag_265:\n        /* \"contracts/MultiSigWalletWithDailyLimit.sol\":4642:4643  0 */\n      0x0\n        /* \"contracts/MultiSigWalletWithDailyLimit.sol\":4635:4643  uint i=0 */\n      swap3\n      pop\n        /* \"contracts/MultiSigWalletWithDailyLimit.sol\":4630:4779  for (uint i=0; i<owners.length; i++)... */\n    tag_267:\n        /* \"contracts/MultiSigWalletWithDailyLimit.sol\":4647:4653  owners */\n      0x3\n        /* \"contracts/MultiSigWalletWithDailyLimit.sol\":4647:4660  owners.length */\n      dup1\n      sload\n      swap1\n      pop\n        /* \"contracts/MultiSigWalletWithDailyLimit.sol\":4645:4646  i */\n      dup4\n        /* \"contracts/MultiSigWalletWithDailyLimit.sol\":4645:4660  i<owners.length */\n      lt\n        /* \"contracts/MultiSigWalletWithDailyLimit.sol\":4630:4779  for (uint i=0; i<owners.length; i++)... */\n      iszero\n      tag_268\n      jumpi\n        /* \"contracts/MultiSigWalletWithDailyLimit.sol\":4696:4701  owner */\n      dup5\n        /* \"contracts/MultiSigWalletWithDailyLimit.sol\":4683:4701  owners[i] == owner */\n      0xffffffffffffffffffffffffffffffffffffffff\n      and\n        /* \"contracts/MultiSigWalletWithDailyLimit.sol\":4683:4689  owners */\n      0x3\n        /* \"contracts/MultiSigWalletWithDailyLimit.sol\":4690:4691  i */\n      dup5\n        /* \"contracts/MultiSigWalletWithDailyLimit.sol\":4683:4692  owners[i] */\n      dup2\n      sload\n      dup2\n      lt\n      iszero\n      iszero\n      tag_270\n      jumpi\n      invalid\n    tag_270:\n      swap1\n      0x0\n      mstore\n      keccak256(0x0, 0x20)\n      swap1\n      add\n      0x0\n    tag_271:\n      swap1\n      sload\n      swap1\n      0x100\n      exp\n      swap1\n      div\n      0xffffffffffffffffffffffffffffffffffffffff\n      and\n        /* \"contracts/MultiSigWalletWithDailyLimit.sol\":4683:4701  owners[i] == owner */\n      0xffffffffffffffffffffffffffffffffffffffff\n      and\n      eq\n        /* \"contracts/MultiSigWalletWithDailyLimit.sol\":4679:4779  if (owners[i] == owner) {... */\n      iszero\n      tag_272\n      jumpi\n        /* \"contracts/MultiSigWalletWithDailyLimit.sol\":4733:4741  newOwner */\n      dup4\n        /* \"contracts/MultiSigWalletWithDailyLimit.sol\":4721:4727  owners */\n      0x3\n        /* \"contracts/MultiSigWalletWithDailyLimit.sol\":4728:4729  i */\n      dup5\n        /* \"contracts/MultiSigWalletWithDailyLimit.sol\":4721:4730  owners[i] */\n      dup2\n      sload\n      dup2\n      lt\n      iszero\n      iszero\n      tag_273\n      jumpi\n      invalid\n    tag_273:\n      swap1\n      0x0\n      mstore\n      keccak256(0x0, 0x20)\n      swap1\n      add\n      0x0\n    tag_274:\n        /* \"contracts/MultiSigWalletWithDailyLimit.sol\":4721:4741  owners[i] = newOwner */\n      0x100\n      exp\n      dup2\n      sload\n      dup2\n      0xffffffffffffffffffffffffffffffffffffffff\n      mul\n      not\n      and\n      swap1\n      dup4\n      0xffffffffffffffffffffffffffffffffffffffff\n      and\n      mul\n      or\n      swap1\n      sstore\n      pop\n        /* \"contracts/MultiSigWalletWithDailyLimit.sol\":4759:4764  break */\n      jump(tag_268)\n        /* \"contracts/MultiSigWalletWithDailyLimit.sol\":4679:4779  if (owners[i] == owner) {... */\n    tag_272:\n        /* \"contracts/MultiSigWalletWithDailyLimit.sol\":4630:4779  for (uint i=0; i<owners.length; i++)... */\n    tag_269:\n        /* \"contracts/MultiSigWalletWithDailyLimit.sol\":4662:4665  i++ */\n      dup3\n      dup1\n      0x1\n      add\n      swap4\n      pop\n      pop\n        /* \"contracts/MultiSigWalletWithDailyLimit.sol\":4630:4779  for (uint i=0; i<owners.length; i++)... */\n      jump(tag_267)\n    tag_268:\n        /* \"contracts/MultiSigWalletWithDailyLimit.sol\":4805:4810  false */\n      0x0\n        /* \"contracts/MultiSigWalletWithDailyLimit.sol\":4788:4795  isOwner */\n      0x2\n        /* \"contracts/MultiSigWalletWithDailyLimit.sol\":4788:4802  isOwner[owner] */\n      0x0\n        /* \"contracts/MultiSigWalletWithDailyLimit.sol\":4796:4801  owner */\n      dup8\n        /* \"contracts/MultiSigWalletWithDailyLimit.sol\":4788:4802  isOwner[owner] */\n      0xffffffffffffffffffffffffffffffffffffffff\n      and\n      0xffffffffffffffffffffffffffffffffffffffff\n      and\n      dup2\n      mstore\n      0x20\n      add\n      swap1\n      dup2\n      mstore\n      0x20\n      add\n      0x0\n      keccak256\n      0x0\n        /* \"contracts/MultiSigWalletWithDailyLimit.sol\":4788:4810  isOwner[owner] = false */\n      0x100\n      exp\n      dup2\n      sload\n      dup2\n      0xff\n      mul\n      not\n      and\n      swap1\n      dup4\n      iszero\n      iszero\n      mul\n      or\n      swap1\n      sstore\n      pop\n        /* \"contracts/MultiSigWalletWithDailyLimit.sol\":4840:4844  true */\n      0x1\n        /* \"contracts/MultiSigWalletWithDailyLimit.sol\":4820:4827  isOwner */\n      0x2\n        /* \"contracts/MultiSigWalletWithDailyLimit.sol\":4820:4837  isOwner[newOwner] */\n      0x0\n        /* \"contracts/MultiSigWalletWithDailyLimit.sol\":4828:4836  newOwner */\n      dup7\n        /* \"contracts/MultiSigWalletWithDailyLimit.sol\":4820:4837  isOwner[newOwner] */\n      0xffffffffffffffffffffffffffffffffffffffff\n      and\n      0xffffffffffffffffffffffffffffffffffffffff\n      and\n      dup2\n      mstore\n      0x20\n      add\n      swap1\n      dup2\n      mstore\n      0x20\n      add\n      0x0\n      keccak256\n      0x0\n        /* \"contracts/MultiSigWalletWithDailyLimit.sol\":4820:4844  isOwner[newOwner] = true */\n      0x100\n      exp\n      dup2\n      sload\n      dup2\n      0xff\n      mul\n      not\n      and\n      swap1\n      dup4\n      iszero\n      iszero\n      mul\n      or\n      swap1\n      sstore\n      pop\n        /* \"contracts/MultiSigWalletWithDailyLimit.sol\":4867:4872  owner */\n      dup5\n        /* \"contracts/MultiSigWalletWithDailyLimit.sol\":4854:4873  OwnerRemoval(owner) */\n      0xffffffffffffffffffffffffffffffffffffffff\n      and\n      0x8001553a916ef2f495d26a907cc54d96ed840d7bda71e73194bf5a9df7a76b90\n      mload(0x40)\n      mload(0x40)\n      dup1\n      swap2\n      sub\n      swap1\n      log2\n        /* \"contracts/MultiSigWalletWithDailyLimit.sol\":4897:4905  newOwner */\n      dup4\n        /* \"contracts/MultiSigWalletWithDailyLimit.sol\":4883:4906  OwnerAddition(newOwner) */\n      0xffffffffffffffffffffffffffffffffffffffff\n      and\n      0xf39e6e1eb0edcf53c221607b54b00cd28f3196fed0a24994dc308b8f611b682d\n      mload(0x40)\n      mload(0x40)\n      dup1\n      swap2\n      sub\n      swap1\n      log2\n        /* \"contracts/MultiSigWalletWithDailyLimit.sol\":1562:1563  _ */\n    tag_266:\n        /* \"contracts/MultiSigWalletWithDailyLimit.sol\":1655:1656  _ */\n    tag_264:\n      pop\n        /* \"contracts/MultiSigWalletWithDailyLimit.sol\":1462:1463  _ */\n    tag_262:\n      pop\n        /* \"contracts/MultiSigWalletWithDailyLimit.sol\":4464:4913  function replaceOwner(address owner, address newOwner)... */\n    tag_260:\n      pop\n      pop\n      pop\n      jump\t// out\n        /* \"contracts/MultiSigWalletWithDailyLimit.sol\":14441:15260  function executeTransaction(uint transactionId)... */\n    tag_117:\n        /* \"contracts/MultiSigWalletWithDailyLimit.sol\":14630:14653  Transaction storage txn */\n      0x0\n        /* \"contracts/MultiSigWalletWithDailyLimit.sol\":14693:14708  bool _confirmed */\n      dup1\n        /* \"contracts/MultiSigWalletWithDailyLimit.sol\":14524:14534  msg.sender */\n      caller\n        /* \"contracts/MultiSigWalletWithDailyLimit.sol\":1630:1637  isOwner */\n      0x2\n        /* \"contracts/MultiSigWalletWithDailyLimit.sol\":1630:1644  isOwner[owner] */\n      0x0\n        /* \"contracts/MultiSigWalletWithDailyLimit.sol\":1638:1643  owner */\n      dup3\n        /* \"contracts/MultiSigWalletWithDailyLimit.sol\":1630:1644  isOwner[owner] */\n      0xffffffffffffffffffffffffffffffffffffffff\n      and\n      0xffffffffffffffffffffffffffffffffffffffff\n      and\n      dup2\n      mstore\n      0x20\n      add\n      swap1\n      dup2\n      mstore\n      0x20\n      add\n      0x0\n      keccak256\n      0x0\n      swap1\n      sload\n      swap1\n      0x100\n      exp\n      swap1\n      div\n      0xff\n      and\n        /* \"contracts/MultiSigWalletWithDailyLimit.sol\":1622:1645  require(isOwner[owner]) */\n      iszero\n      iszero\n      tag_276\n      jumpi\n      0x0\n      dup1\n      revert\n    tag_276:\n        /* \"contracts/MultiSigWalletWithDailyLimit.sol\":14554:14567  transactionId */\n      dup4\n        /* \"contracts/MultiSigWalletWithDailyLimit.sol\":14569:14579  msg.sender */\n      caller\n        /* \"contracts/MultiSigWalletWithDailyLimit.sol\":1875:1888  confirmations */\n      0x1\n        /* \"contracts/MultiSigWalletWithDailyLimit.sol\":1875:1903  confirmations[transactionId] */\n      0x0\n        /* \"contracts/MultiSigWalletWithDailyLimit.sol\":1889:1902  transactionId */\n      dup4\n        /* \"contracts/MultiSigWalletWithDailyLimit.sol\":1875:1903  confirmations[transactionId] */\n      dup2\n      mstore\n      0x20\n      add\n      swap1\n      dup2\n      mstore\n      0x20\n      add\n      0x0\n      keccak256\n        /* \"contracts/MultiSigWalletWithDailyLimit.sol\":1875:1910  confirmations[transactionId][owner] */\n      0x0\n        /* \"contracts/MultiSigWalletWithDailyLimit.sol\":1904:1909  owner */\n      dup3\n        /* \"contracts/MultiSigWalletWithDailyLimit.sol\":1875:1910  confirmations[transactionId][owner] */\n      0xffffffffffffffffffffffffffffffffffffffff\n      and\n      0xffffffffffffffffffffffffffffffffffffffff\n      and\n      dup2\n      mstore\n      0x20\n      add\n      swap1\n      dup2\n      mstore\n      0x20\n      add\n      0x0\n      keccak256\n      0x0\n      swap1\n      sload\n      swap1\n      0x100\n      exp\n      swap1\n      div\n      0xff\n      and\n        /* \"contracts/MultiSigWalletWithDailyLimit.sol\":1867:1911  require(confirmations[transactionId][owner]) */\n      iszero\n      iszero\n      tag_278\n      jumpi\n      0x0\n      dup1\n      revert\n    tag_278:\n        /* \"contracts/MultiSigWalletWithDailyLimit.sol\":14601:14614  transactionId */\n      dup6\n        /* \"contracts/MultiSigWalletWithDailyLimit.sol\":2131:2143  transactions */\n      0x0\n        /* \"contracts/MultiSigWalletWithDailyLimit.sol\":2131:2158  transactions[transactionId] */\n      dup1\n        /* \"contracts/MultiSigWalletWithDailyLimit.sol\":2144:2157  transactionId */\n      dup3\n        /* \"contracts/MultiSigWalletWithDailyLimit.sol\":2131:2158  transactions[transactionId] */\n      dup2\n      mstore\n      0x20\n      add\n      swap1\n      dup2\n      mstore\n      0x20\n      add\n      0x0\n      keccak256\n        /* \"contracts/MultiSigWalletWithDailyLimit.sol\":2131:2167  transactions[transactionId].executed */\n      0x3\n      add\n      0x0\n      swap1\n      sload\n      swap1\n      0x100\n      exp\n      swap1\n      div\n      0xff\n      and\n        /* \"contracts/MultiSigWalletWithDailyLimit.sol\":2130:2167  !transactions[transactionId].executed */\n      iszero\n        /* \"contracts/MultiSigWalletWithDailyLimit.sol\":2122:2168  require(!transactions[transactionId].executed) */\n      iszero\n      iszero\n      tag_280\n      jumpi\n      0x0\n      dup1\n      revert\n    tag_280:\n        /* \"contracts/MultiSigWalletWithDailyLimit.sol\":14656:14668  transactions */\n      0x0\n        /* \"contracts/MultiSigWalletWithDailyLimit.sol\":14656:14683  transactions[transactionId] */\n      dup1\n        /* \"contracts/MultiSigWalletWithDailyLimit.sol\":14669:14682  transactionId */\n      dup9\n        /* \"contracts/MultiSigWalletWithDailyLimit.sol\":14656:14683  transactions[transactionId] */\n      dup2\n      mstore\n      0x20\n      add\n      swap1\n      dup2\n      mstore\n      0x20\n      add\n      0x0\n      keccak256\n        /* \"contracts/MultiSigWalletWithDailyLimit.sol\":14630:14683  Transaction storage txn = transactions[transactionId] */\n      swap6\n      pop\n        /* \"contracts/MultiSigWalletWithDailyLimit.sol\":14711:14737  isConfirmed(transactionId) */\n      tag_282\n        /* \"contracts/MultiSigWalletWithDailyLimit.sol\":14723:14736  transactionId */\n      dup8\n        /* \"contracts/MultiSigWalletWithDailyLimit.sol\":14711:14722  isConfirmed */\n      tag_63\n        /* \"contracts/MultiSigWalletWithDailyLimit.sol\":14711:14737  isConfirmed(transactionId) */\n      jump\t// in\n    tag_282:\n        /* \"contracts/MultiSigWalletWithDailyLimit.sol\":14693:14737  bool _confirmed = isConfirmed(transactionId) */\n      swap5\n      pop\n        /* \"contracts/MultiSigWalletWithDailyLimit.sol\":14751:14761  _confirmed */\n      dup5\n        /* \"contracts/MultiSigWalletWithDailyLimit.sol\":14751:14812  _confirmed || txn.data.length == 0 && isUnderLimit(txn.value) */\n      dup1\n      tag_283\n      jumpi\n      pop\n        /* \"contracts/MultiSigWalletWithDailyLimit.sol\":14784:14785  0 */\n      0x0\n        /* \"contracts/MultiSigWalletWithDailyLimit.sol\":14765:14768  txn */\n      dup7\n        /* \"contracts/MultiSigWalletWithDailyLimit.sol\":14765:14773  txn.data */\n      0x2\n      add\n        /* \"contracts/MultiSigWalletWithDailyLimit.sol\":14765:14780  txn.data.length */\n      dup1\n      sload\n      0x1\n      dup2\n      0x1\n      and\n      iszero\n      0x100\n      mul\n      sub\n      and\n      0x2\n      swap1\n      div\n      swap1\n      pop\n        /* \"contracts/MultiSigWalletWithDailyLimit.sol\":14765:14785  txn.data.length == 0 */\n      eq\n        /* \"contracts/MultiSigWalletWithDailyLimit.sol\":14765:14812  txn.data.length == 0 && isUnderLimit(txn.value) */\n      dup1\n      iszero\n      tag_284\n      jumpi\n      pop\n        /* \"contracts/MultiSigWalletWithDailyLimit.sol\":14789:14812  isUnderLimit(txn.value) */\n      tag_285\n        /* \"contracts/MultiSigWalletWithDailyLimit.sol\":14802:14805  txn */\n      dup7\n        /* \"contracts/MultiSigWalletWithDailyLimit.sol\":14802:14811  txn.value */\n      0x1\n      add\n      sload\n        /* \"contracts/MultiSigWalletWithDailyLimit.sol\":14789:14801  isUnderLimit */\n      tag_286\n        /* \"contracts/MultiSigWalletWithDailyLimit.sol\":14789:14812  isUnderLimit(txn.value) */\n      jump\t// in\n    tag_285:\n        /* \"contracts/MultiSigWalletWithDailyLimit.sol\":14765:14812  txn.data.length == 0 && isUnderLimit(txn.value) */\n    tag_284:\n        /* \"contracts/MultiSigWalletWithDailyLimit.sol\":14751:14812  _confirmed || txn.data.length == 0 && isUnderLimit(txn.value) */\n    tag_283:\n        /* \"contracts/MultiSigWalletWithDailyLimit.sol\":14747:15254  if (_confirmed || txn.data.length == 0 && isUnderLimit(txn.value)) {... */\n      iszero\n      tag_287\n      jumpi\n        /* \"contracts/MultiSigWalletWithDailyLimit.sol\":14843:14847  true */\n      0x1\n        /* \"contracts/MultiSigWalletWithDailyLimit.sol\":14828:14831  txn */\n      dup7\n        /* \"contracts/MultiSigWalletWithDailyLimit.sol\":14828:14840  txn.executed */\n      0x3\n      add\n      0x0\n        /* \"contracts/MultiSigWalletWithDailyLimit.sol\":14828:14847  txn.executed = true */\n      0x100\n      exp\n      dup2\n      sload\n      dup2\n      0xff\n      mul\n      not\n      and\n      swap1\n      dup4\n      iszero\n      iszero\n      mul\n      or\n      swap1\n      sstore\n      pop\n        /* \"contracts/MultiSigWalletWithDailyLimit.sol\":14866:14876  _confirmed */\n      dup5\n        /* \"contracts/MultiSigWalletWithDailyLimit.sol\":14865:14876  !_confirmed */\n      iszero\n        /* \"contracts/MultiSigWalletWithDailyLimit.sol\":14861:14917  if (!_confirmed)... */\n      iszero\n      tag_288\n      jumpi\n        /* \"contracts/MultiSigWalletWithDailyLimit.sol\":14908:14911  txn */\n      dup6\n        /* \"contracts/MultiSigWalletWithDailyLimit.sol\":14908:14917  txn.value */\n      0x1\n      add\n      sload\n        /* \"contracts/MultiSigWalletWithDailyLimit.sol\":14894:14904  spentToday */\n      0x8\n      0x0\n        /* \"contracts/MultiSigWalletWithDailyLimit.sol\":14894:14917  spentToday += txn.value */\n      dup3\n      dup3\n      sload\n      add\n      swap3\n      pop\n      pop\n      dup2\n      swap1\n      sstore\n      pop\n        /* \"contracts/MultiSigWalletWithDailyLimit.sol\":14861:14917  if (!_confirmed)... */\n    tag_288:\n        /* \"contracts/MultiSigWalletWithDailyLimit.sol\":14935:15003  external_call(txn.destination, txn.value, txn.data.length, txn.data) */\n      tag_289\n        /* \"contracts/MultiSigWalletWithDailyLimit.sol\":14949:14952  txn */\n      dup7\n        /* \"contracts/MultiSigWalletWithDailyLimit.sol\":14949:14964  txn.destination */\n      0x0\n      add\n      0x0\n      swap1\n      sload\n      swap1\n      0x100\n      exp\n      swap1\n      div\n      0xffffffffffffffffffffffffffffffffffffffff\n      and\n        /* \"contracts/MultiSigWalletWithDailyLimit.sol\":14966:14969  txn */\n      dup8\n        /* \"contracts/MultiSigWalletWithDailyLimit.sol\":14966:14975  txn.value */\n      0x1\n      add\n      sload\n        /* \"contracts/MultiSigWalletWithDailyLimit.sol\":14977:14980  txn */\n      dup9\n        /* \"contracts/MultiSigWalletWithDailyLimit.sol\":14977:14985  txn.data */\n      0x2\n      add\n        /* \"contracts/MultiSigWalletWithDailyLimit.sol\":14977:14992  txn.data.length */\n      dup1\n      sload\n      0x1\n      dup2\n      0x1\n      and\n      iszero\n      0x100\n      mul\n      sub\n      and\n      0x2\n      swap1\n      div\n      swap1\n      pop\n        /* \"contracts/MultiSigWalletWithDailyLimit.sol\":14994:14997  txn */\n      dup10\n        /* \"contracts/MultiSigWalletWithDailyLimit.sol\":14994:15002  txn.data */\n      0x2\n      add\n        /* \"contracts/MultiSigWalletWithDailyLimit.sol\":14935:15003  external_call(txn.destination, txn.value, txn.data.length, txn.data) */\n      dup1\n      sload\n      0x1\n      dup2\n      0x1\n      and\n      iszero\n      0x100\n      mul\n      sub\n      and\n      0x2\n      swap1\n      div\n      dup1\n      0x1f\n      add\n      0x20\n      dup1\n      swap2\n      div\n      mul\n      0x20\n      add\n      mload(0x40)\n      swap1\n      dup2\n      add\n      0x40\n      mstore\n      dup1\n      swap3\n      swap2\n      swap1\n      dup2\n      dup2\n      mstore\n      0x20\n      add\n      dup3\n      dup1\n      sload\n      0x1\n      dup2\n      0x1\n      and\n      iszero\n      0x100\n      mul\n      sub\n      and\n      0x2\n      swap1\n      div\n      dup1\n      iszero\n      tag_290\n      jumpi\n      dup1\n      0x1f\n      lt\n      tag_291\n      jumpi\n      0x100\n      dup1\n      dup4\n      sload\n      div\n      mul\n      dup4\n      mstore\n      swap2\n      0x20\n      add\n      swap2\n      jump(tag_290)\n    tag_291:\n      dup3\n      add\n      swap2\n      swap1\n      0x0\n      mstore\n      keccak256(0x0, 0x20)\n      swap1\n    tag_292:\n      dup2\n      sload\n      dup2\n      mstore\n      swap1\n      0x1\n      add\n      swap1\n      0x20\n      add\n      dup1\n      dup4\n      gt\n      tag_292\n      jumpi\n      dup3\n      swap1\n      sub\n      0x1f\n      and\n      dup3\n      add\n      swap2\n    tag_290:\n      pop\n      pop\n      pop\n      pop\n      pop\n        /* \"contracts/MultiSigWalletWithDailyLimit.sol\":14935:14948  external_call */\n      tag_293\n        /* \"contracts/MultiSigWalletWithDailyLimit.sol\":14935:15003  external_call(txn.destination, txn.value, txn.data.length, txn.data) */\n      jump\t// in\n    tag_289:\n        /* \"contracts/MultiSigWalletWithDailyLimit.sol\":14931:15244  if (external_call(txn.destination, txn.value, txn.data.length, txn.data))... */\n      iszero\n      tag_294\n      jumpi\n        /* \"contracts/MultiSigWalletWithDailyLimit.sol\":15031:15044  transactionId */\n      dup7\n        /* \"contracts/MultiSigWalletWithDailyLimit.sol\":15021:15045  Execution(transactionId) */\n      0x33e13ecb54c3076d8e8bb8c2881800a4d972b792045ffae98fdf46df365fed75\n      mload(0x40)\n      mload(0x40)\n      dup1\n      swap2\n      sub\n      swap1\n      log2\n        /* \"contracts/MultiSigWalletWithDailyLimit.sol\":14931:15244  if (external_call(txn.destination, txn.value, txn.data.length, txn.data))... */\n      jump(tag_295)\n    tag_294:\n        /* \"contracts/MultiSigWalletWithDailyLimit.sol\":15099:15112  transactionId */\n      dup7\n        /* \"contracts/MultiSigWalletWithDailyLimit.sol\":15082:15113  ExecutionFailure(transactionId) */\n      0x526441bb6c1aba3c9a4a6ca1d6545da9c2333c8c48343ef398eb858d72b79236\n      mload(0x40)\n      mload(0x40)\n      dup1\n      swap2\n      sub\n      swap1\n      log2\n        /* \"contracts/MultiSigWalletWithDailyLimit.sol\":15146:15151  false */\n      0x0\n        /* \"contracts/MultiSigWalletWithDailyLimit.sol\":15131:15134  txn */\n      dup7\n        /* \"contracts/MultiSigWalletWithDailyLimit.sol\":15131:15143  txn.executed */\n      0x3\n      add\n      0x0\n        /* \"contracts/MultiSigWalletWithDailyLimit.sol\":15131:15151  txn.executed = false */\n      0x100\n      exp\n      dup2\n      sload\n      dup2\n      0xff\n      mul\n      not\n      and\n      swap1\n      dup4\n      iszero\n      iszero\n      mul\n      or\n      swap1\n      sstore\n      pop\n        /* \"contracts/MultiSigWalletWithDailyLimit.sol\":15174:15184  _confirmed */\n      dup5\n        /* \"contracts/MultiSigWalletWithDailyLimit.sol\":15173:15184  !_confirmed */\n      iszero\n        /* \"contracts/MultiSigWalletWithDailyLimit.sol\":15169:15229  if (!_confirmed)... */\n      iszero\n      tag_296\n      jumpi\n        /* \"contracts/MultiSigWalletWithDailyLimit.sol\":15220:15223  txn */\n      dup6\n        /* \"contracts/MultiSigWalletWithDailyLimit.sol\":15220:15229  txn.value */\n      0x1\n      add\n      sload\n        /* \"contracts/MultiSigWalletWithDailyLimit.sol\":15206:15216  spentToday */\n      0x8\n      0x0\n        /* \"contracts/MultiSigWalletWithDailyLimit.sol\":15206:15229  spentToday -= txn.value */\n      dup3\n      dup3\n      sload\n      sub\n      swap3\n      pop\n      pop\n      dup2\n      swap1\n      sstore\n      pop\n        /* \"contracts/MultiSigWalletWithDailyLimit.sol\":15169:15229  if (!_confirmed)... */\n    tag_296:\n        /* \"contracts/MultiSigWalletWithDailyLimit.sol\":14931:15244  if (external_call(txn.destination, txn.value, txn.data.length, txn.data))... */\n    tag_295:\n        /* \"contracts/MultiSigWalletWithDailyLimit.sol\":14747:15254  if (_confirmed || txn.data.length == 0 && isUnderLimit(txn.value)) {... */\n    tag_287:\n        /* \"contracts/MultiSigWalletWithDailyLimit.sol\":2178:2179  _ */\n    tag_281:\n        /* \"contracts/MultiSigWalletWithDailyLimit.sol\":1921:1922  _ */\n    tag_279:\n      pop\n        /* \"contracts/MultiSigWalletWithDailyLimit.sol\":1655:1656  _ */\n    tag_277:\n      pop\n      pop\n        /* \"contracts/MultiSigWalletWithDailyLimit.sol\":14441:15260  function executeTransaction(uint transactionId)... */\n    tag_275:\n      pop\n      pop\n      pop\n      pop\n      jump\t// out\n        /* \"contracts/MultiSigWalletWithDailyLimit.sol\":13397:13419  uint public spentToday */\n    tag_120:\n      sload(0x8)\n      dup2\n      jump\t// out\n        /* \"contracts/MultiSigWalletWithDailyLimit.sol\":9460:9911  function addTransaction(address destination, uint value, bytes data)... */\n    tag_255:\n        /* \"contracts/MultiSigWalletWithDailyLimit.sol\":9592:9610  uint transactionId */\n      0x0\n        /* \"contracts/MultiSigWalletWithDailyLimit.sol\":9562:9573  destination */\n      dup4\n        /* \"contracts/MultiSigWalletWithDailyLimit.sol\":2257:2258  0 */\n      0x0\n        /* \"contracts/MultiSigWalletWithDailyLimit.sol\":2245:2253  _address */\n      dup2\n        /* \"contracts/MultiSigWalletWithDailyLimit.sol\":2245:2258  _address != 0 */\n      0xffffffffffffffffffffffffffffffffffffffff\n      and\n      eq\n      iszero\n        /* \"contracts/MultiSigWalletWithDailyLimit.sol\":2237:2259  require(_address != 0) */\n      iszero\n      iszero\n      tag_298\n      jumpi\n      0x0\n      dup1\n      revert\n    tag_298:\n        /* \"contracts/MultiSigWalletWithDailyLimit.sol\":9642:9658  transactionCount */\n      sload(0x5)\n        /* \"contracts/MultiSigWalletWithDailyLimit.sol\":9626:9658  transactionId = transactionCount */\n      swap2\n      pop\n        /* \"contracts/MultiSigWalletWithDailyLimit.sol\":9698:9838  Transaction({... */\n      0x80\n      mload(0x40)\n      swap1\n      dup2\n      add\n      0x40\n      mstore\n      dup1\n        /* \"contracts/MultiSigWalletWithDailyLimit.sol\":9737:9748  destination */\n      dup7\n        /* \"contracts/MultiSigWalletWithDailyLimit.sol\":9698:9838  Transaction({... */\n      0xffffffffffffffffffffffffffffffffffffffff\n      and\n      dup2\n      mstore\n      0x20\n      add\n        /* \"contracts/MultiSigWalletWithDailyLimit.sol\":9769:9774  value */\n      dup6\n        /* \"contracts/MultiSigWalletWithDailyLimit.sol\":9698:9838  Transaction({... */\n      dup2\n      mstore\n      0x20\n      add\n        /* \"contracts/MultiSigWalletWithDailyLimit.sol\":9794:9798  data */\n      dup5\n        /* \"contracts/MultiSigWalletWithDailyLimit.sol\":9698:9838  Transaction({... */\n      dup2\n      mstore\n      0x20\n      add\n        /* \"contracts/MultiSigWalletWithDailyLimit.sol\":9822:9827  false */\n      0x0\n        /* \"contracts/MultiSigWalletWithDailyLimit.sol\":9698:9838  Transaction({... */\n      iszero\n      iszero\n      dup2\n      mstore\n      pop\n        /* \"contracts/MultiSigWalletWithDailyLimit.sol\":9668:9680  transactions */\n      0x0\n        /* \"contracts/MultiSigWalletWithDailyLimit.sol\":9668:9695  transactions[transactionId] */\n      dup1\n        /* \"contracts/MultiSigWalletWithDailyLimit.sol\":9681:9694  transactionId */\n      dup5\n        /* \"contracts/MultiSigWalletWithDailyLimit.sol\":9668:9695  transactions[transactionId] */\n      dup2\n      mstore\n      0x20\n      add\n      swap1\n      dup2\n      mstore\n      0x20\n      add\n      0x0\n      keccak256\n        /* \"contracts/MultiSigWalletWithDailyLimit.sol\":9668:9838  transactions[transactionId] = Transaction({... */\n      0x0\n      dup3\n      add\n      mload\n      dup2\n      0x0\n      add\n      exp(0x100, 0x0)\n      dup2\n      sload\n      dup2\n      0xffffffffffffffffffffffffffffffffffffffff\n      mul\n      not\n      and\n      swap1\n      dup4\n      0xffffffffffffffffffffffffffffffffffffffff\n      and\n      mul\n      or\n      swap1\n      sstore\n      pop\n      0x20\n      dup3\n      add\n      mload\n      dup2\n      0x1\n      add\n      sstore\n      0x40\n      dup3\n      add\n      mload\n      dup2\n      0x2\n      add\n      swap1\n      dup1\n      mload\n      swap1\n      0x20\n      add\n      swap1\n      tag_300\n      swap3\n      swap2\n      swap1\n      jump\t// in(tag_301)\n    tag_300:\n      pop\n      0x60\n      dup3\n      add\n      mload\n      dup2\n      0x3\n      add\n      exp(0x100, 0x0)\n      dup2\n      sload\n      dup2\n      0xff\n      mul\n      not\n      and\n      swap1\n      dup4\n      iszero\n      iszero\n      mul\n      or\n      swap1\n      sstore\n      pop\n      swap1\n      pop\n      pop\n        /* \"contracts/MultiSigWalletWithDailyLimit.sol\":9868:9869  1 */\n      0x1\n        /* \"contracts/MultiSigWalletWithDailyLimit.sol\":9848:9864  transactionCount */\n      0x5\n      0x0\n        /* \"contracts/MultiSigWalletWithDailyLimit.sol\":9848:9869  transactionCount += 1 */\n      dup3\n      dup3\n      sload\n      add\n      swap3\n      pop\n      pop\n      dup2\n      swap1\n      sstore\n      pop\n        /* \"contracts/MultiSigWalletWithDailyLimit.sol\":9890:9903  transactionId */\n      dup2\n        /* \"contracts/MultiSigWalletWithDailyLimit.sol\":9879:9904  Submission(transactionId) */\n      0xc0ba8fe4b176c1714197d43b9cc6bcf797a4a7461c5fe8d0ef6e184ae7601e51\n      mload(0x40)\n      mload(0x40)\n      dup1\n      swap2\n      sub\n      swap1\n      log2\n        /* \"contracts/MultiSigWalletWithDailyLimit.sol\":2269:2270  _ */\n    tag_299:\n        /* \"contracts/MultiSigWalletWithDailyLimit.sol\":9460:9911  function addTransaction(address destination, uint value, bytes data)... */\n    tag_297:\n      pop\n      swap4\n      swap3\n      pop\n      pop\n      pop\n      jump\t// out\n        /* \"contracts/MultiSigWalletWithDailyLimit.sol\":15495:15815  function isUnderLimit(uint amount)... */\n    tag_286:\n        /* \"contracts/MultiSigWalletWithDailyLimit.sol\":15564:15568  bool */\n      0x0\n        /* \"contracts/MultiSigWalletWithDailyLimit.sol\":15604:15612  24 hours */\n      0x15180\n        /* \"contracts/MultiSigWalletWithDailyLimit.sol\":15594:15601  lastDay */\n      sload(0x7)\n        /* \"contracts/MultiSigWalletWithDailyLimit.sol\":15594:15612  lastDay + 24 hours */\n      add\n        /* \"contracts/MultiSigWalletWithDailyLimit.sol\":15588:15591  now */\n      timestamp\n        /* \"contracts/MultiSigWalletWithDailyLimit.sol\":15588:15612  now > lastDay + 24 hours */\n      gt\n        /* \"contracts/MultiSigWalletWithDailyLimit.sol\":15584:15680  if (now > lastDay + 24 hours) {... */\n      iszero\n      tag_303\n      jumpi\n        /* \"contracts/MultiSigWalletWithDailyLimit.sol\":15638:15641  now */\n      timestamp\n        /* \"contracts/MultiSigWalletWithDailyLimit.sol\":15628:15635  lastDay */\n      0x7\n        /* \"contracts/MultiSigWalletWithDailyLimit.sol\":15628:15641  lastDay = now */\n      dup2\n      swap1\n      sstore\n      pop\n        /* \"contracts/MultiSigWalletWithDailyLimit.sol\":15668:15669  0 */\n      0x0\n        /* \"contracts/MultiSigWalletWithDailyLimit.sol\":15655:15665  spentToday */\n      0x8\n        /* \"contracts/MultiSigWalletWithDailyLimit.sol\":15655:15669  spentToday = 0 */\n      dup2\n      swap1\n      sstore\n      pop\n        /* \"contracts/MultiSigWalletWithDailyLimit.sol\":15584:15680  if (now > lastDay + 24 hours) {... */\n    tag_303:\n        /* \"contracts/MultiSigWalletWithDailyLimit.sol\":15715:15725  dailyLimit */\n      sload(0x6)\n        /* \"contracts/MultiSigWalletWithDailyLimit.sol\":15706:15712  amount */\n      dup3\n        /* \"contracts/MultiSigWalletWithDailyLimit.sol\":15693:15703  spentToday */\n      sload(0x8)\n        /* \"contracts/MultiSigWalletWithDailyLimit.sol\":15693:15712  spentToday + amount */\n      add\n        /* \"contracts/MultiSigWalletWithDailyLimit.sol\":15693:15725  spentToday + amount > dailyLimit */\n      gt\n        /* \"contracts/MultiSigWalletWithDailyLimit.sol\":15693:15761  spentToday + amount > dailyLimit || spentToday + amount < spentToday */\n      dup1\n      tag_304\n      jumpi\n      pop\n        /* \"contracts/MultiSigWalletWithDailyLimit.sol\":15751:15761  spentToday */\n      sload(0x8)\n        /* \"contracts/MultiSigWalletWithDailyLimit.sol\":15742:15748  amount */\n      dup3\n        /* \"contracts/MultiSigWalletWithDailyLimit.sol\":15729:15739  spentToday */\n      sload(0x8)\n        /* \"contracts/MultiSigWalletWithDailyLimit.sol\":15729:15748  spentToday + amount */\n      add\n        /* \"contracts/MultiSigWalletWithDailyLimit.sol\":15729:15761  spentToday + amount < spentToday */\n      lt\n        /* \"contracts/MultiSigWalletWithDailyLimit.sol\":15693:15761  spentToday + amount > dailyLimit || spentToday + amount < spentToday */\n    tag_304:\n        /* \"contracts/MultiSigWalletWithDailyLimit.sol\":15689:15787  if (spentToday + amount > dailyLimit || spentToday + amount < spentToday)... */\n      iszero\n      tag_305\n      jumpi\n        /* \"contracts/MultiSigWalletWithDailyLimit.sol\":15782:15787  false */\n      0x0\n        /* \"contracts/MultiSigWalletWithDailyLimit.sol\":15775:15787  return false */\n      swap1\n      pop\n      jump(tag_302)\n        /* \"contracts/MultiSigWalletWithDailyLimit.sol\":15689:15787  if (spentToday + amount > dailyLimit || spentToday + amount < spentToday)... */\n    tag_305:\n        /* \"contracts/MultiSigWalletWithDailyLimit.sol\":15804:15808  true */\n      0x1\n        /* \"contracts/MultiSigWalletWithDailyLimit.sol\":15797:15808  return true */\n      swap1\n      pop\n        /* \"contracts/MultiSigWalletWithDailyLimit.sol\":15495:15815  function isUnderLimit(uint amount)... */\n    tag_302:\n      swap2\n      swap1\n      pop\n      jump\t// out\n        /* \"contracts/MultiSigWalletWithDailyLimit.sol\":7536:8639  function external_call(address destination, uint value, uint dataLength, bytes data) internal returns (bool) {... */\n    tag_293:\n        /* \"contracts/MultiSigWalletWithDailyLimit.sol\":7639:7643  bool */\n      0x0\n        /* \"contracts/MultiSigWalletWithDailyLimit.sol\":7655:7666  bool result */\n      dup1\n        /* \"contracts/MultiSigWalletWithDailyLimit.sol\":7714:7718  0x40 */\n      0x40\n        /* \"contracts/MultiSigWalletWithDailyLimit.sol\":7708:7713  mload */\n      mload\n        /* \"contracts/MultiSigWalletWithDailyLimit.sol\":7847:7849  32 */\n      0x20\n        /* \"contracts/MultiSigWalletWithDailyLimit.sol\":7841:7845  data */\n      dup5\n        /* \"contracts/MultiSigWalletWithDailyLimit.sol\":7837:7840  add */\n      add\n        /* \"contracts/MultiSigWalletWithDailyLimit.sol\":8512:8513  0 */\n      0x0\n        /* \"contracts/MultiSigWalletWithDailyLimit.sol\":8493:8494  x */\n      dup3\n        /* \"contracts/MultiSigWalletWithDailyLimit.sol\":8385:8395  dataLength */\n      dup8\n        /* \"contracts/MultiSigWalletWithDailyLimit.sol\":8366:8367  d */\n      dup4\n        /* \"contracts/MultiSigWalletWithDailyLimit.sol\":8343:8348  value */\n      dup11\n        /* \"contracts/MultiSigWalletWithDailyLimit.sol\":8314:8325  destination */\n      dup13\n        /* \"contracts/MultiSigWalletWithDailyLimit.sol\":7969:7974  34710 */\n      0x8796\n        /* \"contracts/MultiSigWalletWithDailyLimit.sol\":7964:7967  gas */\n      gas\n        /* \"contracts/MultiSigWalletWithDailyLimit.sol\":7960:7963  sub */\n      sub\n        /* \"contracts/MultiSigWalletWithDailyLimit.sol\":7938:7942  call */\n      call\n        /* \"contracts/MultiSigWalletWithDailyLimit.sol\":7928:8600  result := call(... */\n      swap3\n      pop\n        /* \"contracts/MultiSigWalletWithDailyLimit.sol\":7685:8610  {... */\n      pop\n      pop\n        /* \"contracts/MultiSigWalletWithDailyLimit.sol\":8626:8632  result */\n      dup1\n        /* \"contracts/MultiSigWalletWithDailyLimit.sol\":8619:8632  return result */\n      swap2\n      pop\n        /* \"contracts/MultiSigWalletWithDailyLimit.sol\":7536:8639  function external_call(address destination, uint value, uint dataLength, bytes data) internal returns (bool) {... */\n    tag_306:\n      pop\n      swap5\n      swap4\n      pop\n      pop\n      pop\n      pop\n      jump\t// out\n        /* \"contracts/MultiSigWalletWithDailyLimit.sol\":13174:16204  contract MultiSigWalletWithDailyLimit is MultiSigWallet {... */\n    tag_139:\n      dup2\n      sload\n      dup2\n      dup4\n      sstore\n      dup2\n      dup2\n      iszero\n      gt\n      tag_307\n      jumpi\n      dup2\n      dup4\n      0x0\n      mstore\n      keccak256(0x0, 0x20)\n      swap2\n      dup3\n      add\n      swap2\n      add\n      tag_308\n      swap2\n      swap1\n      jump\t// in(tag_309)\n    tag_308:\n    tag_307:\n      pop\n      pop\n      pop\n      jump\t// out\n    tag_173:\n      dup2\n      sload\n      dup2\n      dup4\n      sstore\n      dup2\n      dup2\n      iszero\n      gt\n      tag_310\n      jumpi\n      dup2\n      dup4\n      0x0\n      mstore\n      keccak256(0x0, 0x20)\n      swap2\n      dup3\n      add\n      swap2\n      add\n      tag_311\n      swap2\n      swap1\n      jump\t// in(tag_309)\n    tag_311:\n    tag_310:\n      pop\n      pop\n      pop\n      jump\t// out\n    tag_191:\n      0x20\n      mload(0x40)\n      swap1\n      dup2\n      add\n      0x40\n      mstore\n      dup1\n      0x0\n      dup2\n      mstore\n      pop\n      swap1\n      jump\t// out\n    tag_196:\n      0x20\n      mload(0x40)\n      swap1\n      dup2\n      add\n      0x40\n      mstore\n      dup1\n      0x0\n      dup2\n      mstore\n      pop\n      swap1\n      jump\t// out\n    tag_301:\n      dup3\n      dup1\n      sload\n      0x1\n      dup2\n      0x1\n      and\n      iszero\n      0x100\n      mul\n      sub\n      and\n      0x2\n      swap1\n      div\n      swap1\n      0x0\n      mstore\n      keccak256(0x0, 0x20)\n      swap1\n      0x1f\n      add\n      0x20\n      swap1\n      div\n      dup2\n      add\n      swap3\n      dup3\n      0x1f\n      lt\n      tag_313\n      jumpi\n      dup1\n      mload\n      not(0xff)\n      and\n      dup4\n      dup1\n      add\n      or\n      dup6\n      sstore\n      jump(tag_312)\n    tag_313:\n      dup3\n      dup1\n      add\n      0x1\n      add\n      dup6\n      sstore\n      dup3\n      iszero\n      tag_312\n      jumpi\n      swap2\n      dup3\n      add\n    tag_314:\n      dup3\n      dup2\n      gt\n      iszero\n      tag_315\n      jumpi\n      dup3\n      mload\n      dup3\n      sstore\n      swap2\n      0x20\n      add\n      swap2\n      swap1\n      0x1\n      add\n      swap1\n      jump(tag_314)\n    tag_315:\n    tag_312:\n      pop\n      swap1\n      pop\n      tag_316\n      swap2\n      swap1\n      jump\t// in(tag_309)\n    tag_316:\n      pop\n      swap1\n      jump\t// out\n    tag_309:\n      tag_317\n      swap2\n      swap1\n    tag_318:\n      dup1\n      dup3\n      gt\n      iszero\n      tag_319\n      jumpi\n      0x0\n      dup2\n      0x0\n      swap1\n      sstore\n      pop\n      0x1\n      add\n      jump(tag_318)\n    tag_319:\n      pop\n      swap1\n      jump\n    tag_317:\n      swap1\n      jump\t// out\n\n    auxdata: 0xa165627a7a72305820cb2b93a529cb0e0a914b1abc53f07056ad4784acceedc207ec6871593c61135c0029\n}\n",
        "bytecode": {
          "linkReferences": {},
          "object": "606060405234156200001057600080fd5b604051620026a9380380620026a9833981016040528080518201919060200180519060200190919080519060200190919050505b82825b6000825182603282111580156200005e5750818111155b80156200006c575060008114155b80156200007a575060008214155b15156200008657600080fd5b600092505b8451831015620001c257600260008685815181101515620000a857fe5b9060200190602002015173ffffffffffffffffffffffffffffffffffffffff1673ffffffffffffffffffffffffffffffffffffffff16815260200190815260200160002060009054906101000a900460ff16158015620001375750600085848151811015156200011457fe5b9060200190602002015173ffffffffffffffffffffffffffffffffffffffff1614155b15156200014357600080fd5b60016002600087868151811015156200015857fe5b9060200190602002015173ffffffffffffffffffffffffffffffffffffffff1673ffffffffffffffffffffffffffffffffffffffff16815260200190815260200160002060006101000a81548160ff0219169083151502179055505b82806001019350506200008b565b8460039080519060200190620001da929190620001fa565b50836004819055505b5b5050505050806006819055505b505050620002cf565b82805482825590600052602060002090810192821562000276579160200282015b82811115620002755782518260006101000a81548173ffffffffffffffffffffffffffffffffffffffff021916908373ffffffffffffffffffffffffffffffffffffffff160217905550916020019190600101906200021b565b5b50905062000285919062000289565b5090565b620002cc91905b80821115620002c857600081816101000a81549073ffffffffffffffffffffffffffffffffffffffff02191690555060010162000290565b5090565b90565b6123ca80620002df6000396000f30060606040523615610152576000357c0100000000000000000000000000000000000000000000000000000000900463ffffffff168063025e7c27146101ae578063173825d91461021157806320ea8d861461024a5780632f54bf6e1461026d5780633411c81c146102be5780634bc9fdc214610318578063547415251461034157806367eeba0c146103855780636b0c932d146103ae5780637065cb48146103d7578063784547a7146104105780638b51d13f1461044b5780639ace38c214610482578063a0e67e2b14610580578063a8abe69a146105eb578063b5dc40c314610683578063b77bf600146106fc578063ba51a6df14610725578063c01a8c8414610748578063c64274741461076b578063cea0862114610804578063d74f8edd14610827578063dc8452cd14610850578063e20056e614610879578063ee22610b146108d1578063f059cf2b146108f4575b5b60003411156101ab573373ffffffffffffffffffffffffffffffffffffffff167fe1fffcc4923d04b559f4d29a8bfc6cda04eb5b0d3c460751c2402c5c5cc9109c346040518082815260200191505060405180910390a25b5b005b34156101b957600080fd5b6101cf600480803590602001909190505061091d565b604051808273ffffffffffffffffffffffffffffffffffffffff1673ffffffffffffffffffffffffffffffffffffffff16815260200191505060405180910390f35b341561021c57600080fd5b610248600480803573ffffffffffffffffffffffffffffffffffffffff1690602001909190505061095d565b005b341561025557600080fd5b61026b6004808035906020019091905050610c00565b005b341561027857600080fd5b6102a4600480803573ffffffffffffffffffffffffffffffffffffffff16906020019091905050610dac565b604051808215151515815260200191505060405180910390f35b34156102c957600080fd5b6102fe600480803590602001909190803573ffffffffffffffffffffffffffffffffffffffff16906020019091905050610dcc565b604051808215151515815260200191505060405180910390f35b341561032357600080fd5b61032b610dfb565b6040518082815260200191505060405180910390f35b341561034c57600080fd5b61036f600480803515159060200190919080351515906020019091905050610e38565b6040518082815260200191505060405180910390f35b341561039057600080fd5b610398610ecc565b6040518082815260200191505060405180910390f35b34156103b957600080fd5b6103c1610ed2565b6040518082815260200191505060405180910390f35b34156103e257600080fd5b61040e600480803573ffffffffffffffffffffffffffffffffffffffff16906020019091905050610ed8565b005b341561041b57600080fd5b61043160048080359060200190919050506110e0565b604051808215151515815260200191505060405180910390f35b341561045657600080fd5b61046c60048080359060200190919050506111c8565b6040518082815260200191505060405180910390f35b341561048d57600080fd5b6104a36004808035906020019091905050611297565b604051808573ffffffffffffffffffffffffffffffffffffffff1673ffffffffffffffffffffffffffffffffffffffff168152602001848152602001806020018315151515815260200182810382528481815460018160011615610100020316600290048152602001915080546001816001161561010002031660029004801561056e5780601f106105435761010080835404028352916020019161056e565b820191906000526020600020905b81548152906001019060200180831161055157829003601f168201915b50509550505050505060405180910390f35b341561058b57600080fd5b6105936112f3565b6040518080602001828103825283818151815260200191508051906020019060200280838360005b838110156105d75780820151818401525b6020810190506105bb565b505050509050019250505060405180910390f35b34156105f657600080fd5b61062b600480803590602001909190803590602001909190803515159060200190919080351515906020019091905050611388565b6040518080602001828103825283818151815260200191508051906020019060200280838360005b8381101561066f5780820151818401525b602081019050610653565b505050509050019250505060405180910390f35b341561068e57600080fd5b6106a460048080359060200190919050506114e9565b6040518080602001828103825283818151815260200191508051906020019060200280838360005b838110156106e85780820151818401525b6020810190506106cc565b505050509050019250505060405180910390f35b341561070757600080fd5b61070f61171a565b6040518082815260200191505060405180910390f35b341561073057600080fd5b6107466004808035906020019091905050611720565b005b341561075357600080fd5b61076960048080359060200190919050506117dd565b005b341561077657600080fd5b6107ee600480803573ffffffffffffffffffffffffffffffffffffffff1690602001909190803590602001909190803590602001908201803590602001908080601f016020809104026020016040519081016040528093929190818152602001838380828437820191505050505050919050506119be565b6040518082815260200191505060405180910390f35b341561080f57600080fd5b61082560048080359060200190919050506119de565b005b341561083257600080fd5b61083a611a5b565b6040518082815260200191505060405180910390f35b341561085b57600080fd5b610863611a60565b6040518082815260200191505060405180910390f35b341561088457600080fd5b6108cf600480803573ffffffffffffffffffffffffffffffffffffffff1690602001909190803573ffffffffffffffffffffffffffffffffffffffff16906020019091905050611a66565b005b34156108dc57600080fd5b6108f26004808035906020019091905050611d84565b005b34156108ff57600080fd5b6109076120a5565b6040518082815260200191505060405180910390f35b60038181548110151561092c57fe5b906000526020600020900160005b915054906101000a900473ffffffffffffffffffffffffffffffffffffffff1681565b60003073ffffffffffffffffffffffffffffffffffffffff163373ffffffffffffffffffffffffffffffffffffffff1614151561099957600080fd5b81600260008273ffffffffffffffffffffffffffffffffffffffff1673ffffffffffffffffffffffffffffffffffffffff16815260200190815260200160002060009054906101000a900460ff1615156109f257600080fd5b6000600260008573ffffffffffffffffffffffffffffffffffffffff1673ffffffffffffffffffffffffffffffffffffffff16815260200190815260200160002060006101000a81548160ff021916908315150217905550600091505b600160038054905003821015610b7e578273ffffffffffffffffffffffffffffffffffffffff16600383815481101515610a8557fe5b906000526020600020900160005b9054906101000a900473ffffffffffffffffffffffffffffffffffffffff1673ffffffffffffffffffffffffffffffffffffffff161415610b70576003600160038054905003815481101515610ae557fe5b906000526020600020900160005b9054906101000a900473ffffffffffffffffffffffffffffffffffffffff16600383815481101515610b2157fe5b906000526020600020900160005b6101000a81548173ffffffffffffffffffffffffffffffffffffffff021916908373ffffffffffffffffffffffffffffffffffffffff160217905550610b7e565b5b8180600101925050610a4f565b6001600381818054905003915081610b969190612279565b506003805490506004541115610bb557610bb4600380549050611720565b5b8273ffffffffffffffffffffffffffffffffffffffff167f8001553a916ef2f495d26a907cc54d96ed840d7bda71e73194bf5a9df7a76b9060405160405180910390a25b5b505b5050565b33600260008273ffffffffffffffffffffffffffffffffffffffff1673ffffffffffffffffffffffffffffffffffffffff16815260200190815260200160002060009054906101000a900460ff161515610c5957600080fd5b81336001600083815260200190815260200160002060008273ffffffffffffffffffffffffffffffffffffffff1673ffffffffffffffffffffffffffffffffffffffff16815260200190815260200160002060009054906101000a900460ff161515610cc457600080fd5b8360008082815260200190815260200160002060030160009054906101000a900460ff16151515610cf457600080fd5b60006001600087815260200190815260200160002060003373ffffffffffffffffffffffffffffffffffffffff1673ffffffffffffffffffffffffffffffffffffffff16815260200190815260200160002060006101000a81548160ff021916908315150217905550843373ffffffffffffffffffffffffffffffffffffffff167ff6a317157440607f36269043eb55f1287a5a19ba2216afeab88cd46cbcfb88e960405160405180910390a35b5b505b50505b5050565b60026020528060005260406000206000915054906101000a900460ff1681565b60016020528160005260406000206020528060005260406000206000915091509054906101000a900460ff1681565b60006201518060075401421115610e16576006549050610e35565b6008546006541015610e2b5760009050610e35565b6008546006540390505b90565b600080600090505b600554811015610ec457838015610e77575060008082815260200190815260200160002060030160009054906101000a900460ff16155b80610eaa5750828015610ea9575060008082815260200190815260200160002060030160009054906101000a900460ff165b5b15610eb6576001820191505b5b8080600101915050610e40565b5b5092915050565b60065481565b60075481565b3073ffffffffffffffffffffffffffffffffffffffff163373ffffffffffffffffffffffffffffffffffffffff16141515610f1257600080fd5b80600260008273ffffffffffffffffffffffffffffffffffffffff1673ffffffffffffffffffffffffffffffffffffffff16815260200190815260200160002060009054906101000a900460ff16151515610f6c57600080fd5b8160008173ffffffffffffffffffffffffffffffffffffffff1614151515610f9357600080fd5b60016003805490500160045460328211158015610fb05750818111155b8015610fbd575060008114155b8015610fca575060008214155b1515610fd557600080fd5b6001600260008773ffffffffffffffffffffffffffffffffffffffff1673ffffffffffffffffffffffffffffffffffffffff16815260200190815260200160002060006101000a81548160ff0219169083151502179055506003805480600101828161104191906122a5565b916000526020600020900160005b87909190916101000a81548173ffffffffffffffffffffffffffffffffffffffff021916908373ffffffffffffffffffffffffffffffffffffffff160217905550508473ffffffffffffffffffffffffffffffffffffffff167ff39e6e1eb0edcf53c221607b54b00cd28f3196fed0a24994dc308b8f611b682d60405160405180910390a25b5b50505b505b505b50565b6000806000809150600090505b6003805490508110156111c05760016000858152602001908152602001600020600060038381548110151561111e57fe5b906000526020600020900160005b9054906101000a900473ffffffffffffffffffffffffffffffffffffffff1673ffffffffffffffffffffffffffffffffffffffff1673ffffffffffffffffffffffffffffffffffffffff16815260200190815260200160002060009054906101000a900460ff161561119f576001820191505b6004548214156111b257600192506111c1565b5b80806001019150506110ed565b5b5050919050565b600080600090505b6003805490508110156112905760016000848152602001908152602001600020600060038381548110151561120157fe5b906000526020600020900160005b9054906101000a900473ffffffffffffffffffffffffffffffffffffffff1673ffffffffffffffffffffffffffffffffffffffff1673ffffffffffffffffffffffffffffffffffffffff16815260200190815260200160002060009054906101000a900460ff1615611282576001820191505b5b80806001019150506111d0565b5b50919050565b60006020528060005260406000206000915090508060000160009054906101000a900473ffffffffffffffffffffffffffffffffffffffff169080600101549080600201908060030160009054906101000a900460ff16905084565b6112fb6122d1565b600380548060200260200160405190810160405280929190818152602001828054801561137d57602002820191906000526020600020905b8160009054906101000a900473ffffffffffffffffffffffffffffffffffffffff1673ffffffffffffffffffffffffffffffffffffffff1681526020019060010190808311611333575b505050505090505b90565b6113906122e5565b6113986122e5565b6000806005546040518059106113ab5750595b908082528060200260200182016040525b50925060009150600090505b600554811015611469578580156113ff575060008082815260200190815260200160002060030160009054906101000a900460ff16155b806114325750848015611431575060008082815260200190815260200160002060030160009054906101000a900460ff165b5b1561145b5780838381518110151561144657fe5b90602001906020020181815250506001820191505b5b80806001019150506113c8565b8787036040518059106114795750595b908082528060200260200182016040525b5093508790505b868110156114dd5782818151811015156114a757fe5b90602001906020020151848983038151811015156114c157fe5b90602001906020020181815250505b8080600101915050611491565b5b505050949350505050565b6114f16122d1565b6114f96122d1565b60008060038054905060405180591061150f5750595b908082528060200260200182016040525b50925060009150600090505b6003805490508110156116725760016000868152602001908152602001600020600060038381548110151561155d57fe5b906000526020600020900160005b9054906101000a900473ffffffffffffffffffffffffffffffffffffffff1673ffffffffffffffffffffffffffffffffffffffff1673ffffffffffffffffffffffffffffffffffffffff16815260200190815260200160002060009054906101000a900460ff1615611664576003818154811015156115e657fe5b906000526020600020900160005b9054906101000a900473ffffffffffffffffffffffffffffffffffffffff16838381518110151561162157fe5b9060200190602002019073ffffffffffffffffffffffffffffffffffffffff16908173ffffffffffffffffffffffffffffffffffffffff16815250506001820191505b5b808060010191505061152c565b816040518059106116805750595b908082528060200260200182016040525b509350600090505b818110156117115782818151811015156116af57fe5b9060200190602002015184828151811015156116c757fe5b9060200190602002019073ffffffffffffffffffffffffffffffffffffffff16908173ffffffffffffffffffffffffffffffffffffffff16815250505b8080600101915050611699565b5b505050919050565b60055481565b3073ffffffffffffffffffffffffffffffffffffffff163373ffffffffffffffffffffffffffffffffffffffff1614151561175a57600080fd5b60038054905081603282111580156117725750818111155b801561177f575060008114155b801561178c575060008214155b151561179757600080fd5b826004819055507fa3f1ee9126a074d9326c682f561767f710e927faa811f7a99829d49dc421797a836040518082815260200191505060405180910390a15b5b50505b50565b33600260008273ffffffffffffffffffffffffffffffffffffffff1673ffffffffffffffffffffffffffffffffffffffff16815260200190815260200160002060009054906101000a900460ff16151561183657600080fd5b81600080600083815260200190815260200160002060000160009054906101000a900473ffffffffffffffffffffffffffffffffffffffff1673ffffffffffffffffffffffffffffffffffffffff161415151561189257600080fd5b82336001600083815260200190815260200160002060008273ffffffffffffffffffffffffffffffffffffffff1673ffffffffffffffffffffffffffffffffffffffff16815260200190815260200160002060009054906101000a900460ff161515156118fe57600080fd5b600180600087815260200190815260200160002060003373ffffffffffffffffffffffffffffffffffffffff1673ffffffffffffffffffffffffffffffffffffffff16815260200190815260200160002060006101000a81548160ff021916908315150217905550843373ffffffffffffffffffffffffffffffffffffffff167f4a504a94899432a9846e1aa406dceb1bcfd538bb839071d49d1e5e23f5be30ef60405160405180910390a36119b385611d84565b5b5b50505b505b5050565b60006119cb8484846120ab565b90506119d6816117dd565b5b9392505050565b3073ffffffffffffffffffffffffffffffffffffffff163373ffffffffffffffffffffffffffffffffffffffff16141515611a1857600080fd5b806006819055507fc71bdc6afaf9b1aa90a7078191d4fc1adf3bf680fca3183697df6b0dc226bca2816040518082815260200191505060405180910390a15b5b50565b603281565b60045481565b60003073ffffffffffffffffffffffffffffffffffffffff163373ffffffffffffffffffffffffffffffffffffffff16141515611aa257600080fd5b82600260008273ffffffffffffffffffffffffffffffffffffffff1673ffffffffffffffffffffffffffffffffffffffff16815260200190815260200160002060009054906101000a900460ff161515611afb57600080fd5b82600260008273ffffffffffffffffffffffffffffffffffffffff1673ffffffffffffffffffffffffffffffffffffffff16815260200190815260200160002060009054906101000a900460ff16151515611b5557600080fd5b600092505b600380549050831015611c43578473ffffffffffffffffffffffffffffffffffffffff16600384815481101515611b8d57fe5b906000526020600020900160005b9054906101000a900473ffffffffffffffffffffffffffffffffffffffff1673ffffffffffffffffffffffffffffffffffffffff161415611c355783600384815481101515611be657fe5b906000526020600020900160005b6101000a81548173ffffffffffffffffffffffffffffffffffffffff021916908373ffffffffffffffffffffffffffffffffffffffff160217905550611c43565b5b8280600101935050611b5a565b6000600260008773ffffffffffffffffffffffffffffffffffffffff1673ffffffffffffffffffffffffffffffffffffffff16815260200190815260200160002060006101000a81548160ff0219169083151502179055506001600260008673ffffffffffffffffffffffffffffffffffffffff1673ffffffffffffffffffffffffffffffffffffffff16815260200190815260200160002060006101000a81548160ff0219169083151502179055508473ffffffffffffffffffffffffffffffffffffffff167f8001553a916ef2f495d26a907cc54d96ed840d7bda71e73194bf5a9df7a76b9060405160405180910390a28373ffffffffffffffffffffffffffffffffffffffff167ff39e6e1eb0edcf53c221607b54b00cd28f3196fed0a24994dc308b8f611b682d60405160405180910390a25b5b505b505b505050565b60008033600260008273ffffffffffffffffffffffffffffffffffffffff1673ffffffffffffffffffffffffffffffffffffffff16815260200190815260200160002060009054906101000a900460ff161515611de057600080fd5b83336001600083815260200190815260200160002060008273ffffffffffffffffffffffffffffffffffffffff1673ffffffffffffffffffffffffffffffffffffffff16815260200190815260200160002060009054906101000a900460ff161515611e4b57600080fd5b8560008082815260200190815260200160002060030160009054906101000a900460ff16151515611e7b57600080fd5b6000808881526020019081526020016000209550611e98876110e0565b94508480611ed35750600086600201805460018160011615610100020316600290049050148015611ed25750611ed186600101546121ff565b5b5b156120985760018660030160006101000a81548160ff021916908315150217905550841515611f115785600101546008600082825401925050819055505b611ff98660000160009054906101000a900473ffffffffffffffffffffffffffffffffffffffff16876001015488600201805460018160011615610100020316600290049050896002018054600181600116156101000203166002900480601f016020809104026020016040519081016040528092919081815260200182805460018160011615610100020316600290048015611fef5780601f10611fc457610100808354040283529160200191611fef565b820191906000526020600020905b815481529060010190602001808311611fd257829003601f168201915b5050505050612251565b1561203057867f33e13ecb54c3076d8e8bb8c2881800a4d972b792045ffae98fdf46df365fed7560405160405180910390a2612097565b867f526441bb6c1aba3c9a4a6ca1d6545da9c2333c8c48343ef398eb858d72b7923660405160405180910390a260008660030160006101000a81548160ff0219169083151502179055508415156120965785600101546008600082825403925050819055505b5b5b5b5b505b50505b50505050565b60085481565b60008360008173ffffffffffffffffffffffffffffffffffffffff16141515156120d457600080fd5b60055491506080604051908101604052808673ffffffffffffffffffffffffffffffffffffffff1681526020018581526020018481526020016000151581525060008084815260200190815260200160002060008201518160000160006101000a81548173ffffffffffffffffffffffffffffffffffffffff021916908373ffffffffffffffffffffffffffffffffffffffff1602179055506020820151816001015560408201518160020190805190602001906121939291906122f9565b5060608201518160030160006101000a81548160ff0219169083151502179055509050506001600560008282540192505081905550817fc0ba8fe4b176c1714197d43b9cc6bcf797a4a7461c5fe8d0ef6e184ae7601e5160405160405180910390a25b5b509392505050565b60006201518060075401421115612220574260078190555060006008819055505b6006548260085401118061223957506008548260085401105b15612247576000905061224c565b600190505b919050565b6000806040516020840160008287838a8c6187965a03f1925050508091505b50949350505050565b8154818355818115116122a05781836000526020600020918201910161229f9190612379565b5b505050565b8154818355818115116122cc578183600052602060002091820191016122cb9190612379565b5b505050565b602060405190810160405280600081525090565b602060405190810160405280600081525090565b828054600181600116156101000203166002900490600052602060002090601f016020900481019282601f1061233a57805160ff1916838001178555612368565b82800160010185558215612368579182015b8281111561236757825182559160200191906001019061234c565b5b5090506123759190612379565b5090565b61239b91905b8082111561239757600081600090555060010161237f565b5090565b905600a165627a7a72305820cb2b93a529cb0e0a914b1abc53f07056ad4784acceedc207ec6871593c61135c0029",
          "opcodes": "PUSH1 0x60 PUSH1 0x40 MSTORE CALLVALUE ISZERO PUSH3 0x10 JUMPI PUSH1 0x0 DUP1 REVERT JUMPDEST PUSH1 0x40 MLOAD PUSH3 0x26A9 CODESIZE SUB DUP1 PUSH3 0x26A9 DUP4 CODECOPY DUP2 ADD PUSH1 0x40 MSTORE DUP1 DUP1 MLOAD DUP3 ADD SWAP2 SWAP1 PUSH1 0x20 ADD DUP1 MLOAD SWAP1 PUSH1 0x20 ADD SWAP1 SWAP2 SWAP1 DUP1 MLOAD SWAP1 PUSH1 0x20 ADD SWAP1 SWAP2 SWAP1 POP POP JUMPDEST DUP3 DUP3 JUMPDEST PUSH1 0x0 DUP3 MLOAD DUP3 PUSH1 0x32 DUP3 GT ISZERO DUP1 ISZERO PUSH3 0x5E JUMPI POP DUP2 DUP2 GT ISZERO JUMPDEST DUP1 ISZERO PUSH3 0x6C JUMPI POP PUSH1 0x0 DUP2 EQ ISZERO JUMPDEST DUP1 ISZERO PUSH3 0x7A JUMPI POP PUSH1 0x0 DUP3 EQ ISZERO JUMPDEST ISZERO ISZERO PUSH3 0x86 JUMPI PUSH1 0x0 DUP1 REVERT JUMPDEST PUSH1 0x0 SWAP3 POP JUMPDEST DUP5 MLOAD DUP4 LT ISZERO PUSH3 0x1C2 JUMPI PUSH1 0x2 PUSH1 0x0 DUP7 DUP6 DUP2 MLOAD DUP2 LT ISZERO ISZERO PUSH3 0xA8 JUMPI INVALID JUMPDEST SWAP1 PUSH1 0x20 ADD SWAP1 PUSH1 0x20 MUL ADD MLOAD PUSH20 0xFFFFFFFFFFFFFFFFFFFFFFFFFFFFFFFFFFFFFFFF AND PUSH20 0xFFFFFFFFFFFFFFFFFFFFFFFFFFFFFFFFFFFFFFFF AND DUP2 MSTORE PUSH1 0x20 ADD SWAP1 DUP2 MSTORE PUSH1 0x20 ADD PUSH1 0x0 KECCAK256 PUSH1 0x0 SWAP1 SLOAD SWAP1 PUSH2 0x100 EXP SWAP1 DIV PUSH1 0xFF AND ISZERO DUP1 ISZERO PUSH3 0x137 JUMPI POP PUSH1 0x0 DUP6 DUP5 DUP2 MLOAD DUP2 LT ISZERO ISZERO PUSH3 0x114 JUMPI INVALID JUMPDEST SWAP1 PUSH1 0x20 ADD SWAP1 PUSH1 0x20 MUL ADD MLOAD PUSH20 0xFFFFFFFFFFFFFFFFFFFFFFFFFFFFFFFFFFFFFFFF AND EQ ISZERO JUMPDEST ISZERO ISZERO PUSH3 0x143 JUMPI PUSH1 0x0 DUP1 REVERT JUMPDEST PUSH1 0x1 PUSH1 0x2 PUSH1 0x0 DUP8 DUP7 DUP2 MLOAD DUP2 LT ISZERO ISZERO PUSH3 0x158 JUMPI INVALID JUMPDEST SWAP1 PUSH1 0x20 ADD SWAP1 PUSH1 0x20 MUL ADD MLOAD PUSH20 0xFFFFFFFFFFFFFFFFFFFFFFFFFFFFFFFFFFFFFFFF AND PUSH20 0xFFFFFFFFFFFFFFFFFFFFFFFFFFFFFFFFFFFFFFFF AND DUP2 MSTORE PUSH1 0x20 ADD SWAP1 DUP2 MSTORE PUSH1 0x20 ADD PUSH1 0x0 KECCAK256 PUSH1 0x0 PUSH2 0x100 EXP DUP2 SLOAD DUP2 PUSH1 0xFF MUL NOT AND SWAP1 DUP4 ISZERO ISZERO MUL OR SWAP1 SSTORE POP JUMPDEST DUP3 DUP1 PUSH1 0x1 ADD SWAP4 POP POP PUSH3 0x8B JUMP JUMPDEST DUP5 PUSH1 0x3 SWAP1 DUP1 MLOAD SWAP1 PUSH1 0x20 ADD SWAP1 PUSH3 0x1DA SWAP3 SWAP2 SWAP1 PUSH3 0x1FA JUMP JUMPDEST POP DUP4 PUSH1 0x4 DUP2 SWAP1 SSTORE POP JUMPDEST JUMPDEST POP POP POP POP POP DUP1 PUSH1 0x6 DUP2 SWAP1 SSTORE POP JUMPDEST POP POP POP PUSH3 0x2CF JUMP JUMPDEST DUP3 DUP1 SLOAD DUP3 DUP3 SSTORE SWAP1 PUSH1 0x0 MSTORE PUSH1 0x20 PUSH1 0x0 KECCAK256 SWAP1 DUP2 ADD SWAP3 DUP3 ISZERO PUSH3 0x276 JUMPI SWAP2 PUSH1 0x20 MUL DUP3 ADD JUMPDEST DUP3 DUP2 GT ISZERO PUSH3 0x275 JUMPI DUP3 MLOAD DUP3 PUSH1 0x0 PUSH2 0x100 EXP DUP2 SLOAD DUP2 PUSH20 0xFFFFFFFFFFFFFFFFFFFFFFFFFFFFFFFFFFFFFFFF MUL NOT AND SWAP1 DUP4 PUSH20 0xFFFFFFFFFFFFFFFFFFFFFFFFFFFFFFFFFFFFFFFF AND MUL OR SWAP1 SSTORE POP SWAP2 PUSH1 0x20 ADD SWAP2 SWAP1 PUSH1 0x1 ADD SWAP1 PUSH3 0x21B JUMP JUMPDEST JUMPDEST POP SWAP1 POP PUSH3 0x285 SWAP2 SWAP1 PUSH3 0x289 JUMP JUMPDEST POP SWAP1 JUMP JUMPDEST PUSH3 0x2CC SWAP2 SWAP1 JUMPDEST DUP1 DUP3 GT ISZERO PUSH3 0x2C8 JUMPI PUSH1 0x0 DUP2 DUP2 PUSH2 0x100 EXP DUP2 SLOAD SWAP1 PUSH20 0xFFFFFFFFFFFFFFFFFFFFFFFFFFFFFFFFFFFFFFFF MUL NOT AND SWAP1 SSTORE POP PUSH1 0x1 ADD PUSH3 0x290 JUMP JUMPDEST POP SWAP1 JUMP JUMPDEST SWAP1 JUMP JUMPDEST PUSH2 0x23CA DUP1 PUSH3 0x2DF PUSH1 0x0 CODECOPY PUSH1 0x0 RETURN STOP PUSH1 0x60 PUSH1 0x40 MSTORE CALLDATASIZE ISZERO PUSH2 0x152 JUMPI PUSH1 0x0 CALLDATALOAD PUSH29 0x100000000000000000000000000000000000000000000000000000000 SWAP1 DIV PUSH4 0xFFFFFFFF AND DUP1 PUSH4 0x25E7C27 EQ PUSH2 0x1AE JUMPI DUP1 PUSH4 0x173825D9 EQ PUSH2 0x211 JUMPI DUP1 PUSH4 0x20EA8D86 EQ PUSH2 0x24A JUMPI DUP1 PUSH4 0x2F54BF6E EQ PUSH2 0x26D JUMPI DUP1 PUSH4 0x3411C81C EQ PUSH2 0x2BE JUMPI DUP1 PUSH4 0x4BC9FDC2 EQ PUSH2 0x318 JUMPI DUP1 PUSH4 0x54741525 EQ PUSH2 0x341 JUMPI DUP1 PUSH4 0x67EEBA0C EQ PUSH2 0x385 JUMPI DUP1 PUSH4 0x6B0C932D EQ PUSH2 0x3AE JUMPI DUP1 PUSH4 0x7065CB48 EQ PUSH2 0x3D7 JUMPI DUP1 PUSH4 0x784547A7 EQ PUSH2 0x410 JUMPI DUP1 PUSH4 0x8B51D13F EQ PUSH2 0x44B JUMPI DUP1 PUSH4 0x9ACE38C2 EQ PUSH2 0x482 JUMPI DUP1 PUSH4 0xA0E67E2B EQ PUSH2 0x580 JUMPI DUP1 PUSH4 0xA8ABE69A EQ PUSH2 0x5EB JUMPI DUP1 PUSH4 0xB5DC40C3 EQ PUSH2 0x683 JUMPI DUP1 PUSH4 0xB77BF600 EQ PUSH2 0x6FC JUMPI DUP1 PUSH4 0xBA51A6DF EQ PUSH2 0x725 JUMPI DUP1 PUSH4 0xC01A8C84 EQ PUSH2 0x748 JUMPI DUP1 PUSH4 0xC6427474 EQ PUSH2 0x76B JUMPI DUP1 PUSH4 0xCEA08621 EQ PUSH2 0x804 JUMPI DUP1 PUSH4 0xD74F8EDD EQ PUSH2 0x827 JUMPI DUP1 PUSH4 0xDC8452CD EQ PUSH2 0x850 JUMPI DUP1 PUSH4 0xE20056E6 EQ PUSH2 0x879 JUMPI DUP1 PUSH4 0xEE22610B EQ PUSH2 0x8D1 JUMPI DUP1 PUSH4 0xF059CF2B EQ PUSH2 0x8F4 JUMPI JUMPDEST JUMPDEST PUSH1 0x0 CALLVALUE GT ISZERO PUSH2 0x1AB JUMPI CALLER PUSH20 0xFFFFFFFFFFFFFFFFFFFFFFFFFFFFFFFFFFFFFFFF AND PUSH32 0xE1FFFCC4923D04B559F4D29A8BFC6CDA04EB5B0D3C460751C2402C5C5CC9109C CALLVALUE PUSH1 0x40 MLOAD DUP1 DUP3 DUP2 MSTORE PUSH1 0x20 ADD SWAP2 POP POP PUSH1 0x40 MLOAD DUP1 SWAP2 SUB SWAP1 LOG2 JUMPDEST JUMPDEST STOP JUMPDEST CALLVALUE ISZERO PUSH2 0x1B9 JUMPI PUSH1 0x0 DUP1 REVERT JUMPDEST PUSH2 0x1CF PUSH1 0x4 DUP1 DUP1 CALLDATALOAD SWAP1 PUSH1 0x20 ADD SWAP1 SWAP2 SWAP1 POP POP PUSH2 0x91D JUMP JUMPDEST PUSH1 0x40 MLOAD DUP1 DUP3 PUSH20 0xFFFFFFFFFFFFFFFFFFFFFFFFFFFFFFFFFFFFFFFF AND PUSH20 0xFFFFFFFFFFFFFFFFFFFFFFFFFFFFFFFFFFFFFFFF AND DUP2 MSTORE PUSH1 0x20 ADD SWAP2 POP POP PUSH1 0x40 MLOAD DUP1 SWAP2 SUB SWAP1 RETURN JUMPDEST CALLVALUE ISZERO PUSH2 0x21C JUMPI PUSH1 0x0 DUP1 REVERT JUMPDEST PUSH2 0x248 PUSH1 0x4 DUP1 DUP1 CALLDATALOAD PUSH20 0xFFFFFFFFFFFFFFFFFFFFFFFFFFFFFFFFFFFFFFFF AND SWAP1 PUSH1 0x20 ADD SWAP1 SWAP2 SWAP1 POP POP PUSH2 0x95D JUMP JUMPDEST STOP JUMPDEST CALLVALUE ISZERO PUSH2 0x255 JUMPI PUSH1 0x0 DUP1 REVERT JUMPDEST PUSH2 0x26B PUSH1 0x4 DUP1 DUP1 CALLDATALOAD SWAP1 PUSH1 0x20 ADD SWAP1 SWAP2 SWAP1 POP POP PUSH2 0xC00 JUMP JUMPDEST STOP JUMPDEST CALLVALUE ISZERO PUSH2 0x278 JUMPI PUSH1 0x0 DUP1 REVERT JUMPDEST PUSH2 0x2A4 PUSH1 0x4 DUP1 DUP1 CALLDATALOAD PUSH20 0xFFFFFFFFFFFFFFFFFFFFFFFFFFFFFFFFFFFFFFFF AND SWAP1 PUSH1 0x20 ADD SWAP1 SWAP2 SWAP1 POP POP PUSH2 0xDAC JUMP JUMPDEST PUSH1 0x40 MLOAD DUP1 DUP3 ISZERO ISZERO ISZERO ISZERO DUP2 MSTORE PUSH1 0x20 ADD SWAP2 POP POP PUSH1 0x40 MLOAD DUP1 SWAP2 SUB SWAP1 RETURN JUMPDEST CALLVALUE ISZERO PUSH2 0x2C9 JUMPI PUSH1 0x0 DUP1 REVERT JUMPDEST PUSH2 0x2FE PUSH1 0x4 DUP1 DUP1 CALLDATALOAD SWAP1 PUSH1 0x20 ADD SWAP1 SWAP2 SWAP1 DUP1 CALLDATALOAD PUSH20 0xFFFFFFFFFFFFFFFFFFFFFFFFFFFFFFFFFFFFFFFF AND SWAP1 PUSH1 0x20 ADD SWAP1 SWAP2 SWAP1 POP POP PUSH2 0xDCC JUMP JUMPDEST PUSH1 0x40 MLOAD DUP1 DUP3 ISZERO ISZERO ISZERO ISZERO DUP2 MSTORE PUSH1 0x20 ADD SWAP2 POP POP PUSH1 0x40 MLOAD DUP1 SWAP2 SUB SWAP1 RETURN JUMPDEST CALLVALUE ISZERO PUSH2 0x323 JUMPI PUSH1 0x0 DUP1 REVERT JUMPDEST PUSH2 0x32B PUSH2 0xDFB JUMP JUMPDEST PUSH1 0x40 MLOAD DUP1 DUP3 DUP2 MSTORE PUSH1 0x20 ADD SWAP2 POP POP PUSH1 0x40 MLOAD DUP1 SWAP2 SUB SWAP1 RETURN JUMPDEST CALLVALUE ISZERO PUSH2 0x34C JUMPI PUSH1 0x0 DUP1 REVERT JUMPDEST PUSH2 0x36F PUSH1 0x4 DUP1 DUP1 CALLDATALOAD ISZERO ISZERO SWAP1 PUSH1 0x20 ADD SWAP1 SWAP2 SWAP1 DUP1 CALLDATALOAD ISZERO ISZERO SWAP1 PUSH1 0x20 ADD SWAP1 SWAP2 SWAP1 POP POP PUSH2 0xE38 JUMP JUMPDEST PUSH1 0x40 MLOAD DUP1 DUP3 DUP2 MSTORE PUSH1 0x20 ADD SWAP2 POP POP PUSH1 0x40 MLOAD DUP1 SWAP2 SUB SWAP1 RETURN JUMPDEST CALLVALUE ISZERO PUSH2 0x390 JUMPI PUSH1 0x0 DUP1 REVERT JUMPDEST PUSH2 0x398 PUSH2 0xECC JUMP JUMPDEST PUSH1 0x40 MLOAD DUP1 DUP3 DUP2 MSTORE PUSH1 0x20 ADD SWAP2 POP POP PUSH1 0x40 MLOAD DUP1 SWAP2 SUB SWAP1 RETURN JUMPDEST CALLVALUE ISZERO PUSH2 0x3B9 JUMPI PUSH1 0x0 DUP1 REVERT JUMPDEST PUSH2 0x3C1 PUSH2 0xED2 JUMP JUMPDEST PUSH1 0x40 MLOAD DUP1 DUP3 DUP2 MSTORE PUSH1 0x20 ADD SWAP2 POP POP PUSH1 0x40 MLOAD DUP1 SWAP2 SUB SWAP1 RETURN JUMPDEST CALLVALUE ISZERO PUSH2 0x3E2 JUMPI PUSH1 0x0 DUP1 REVERT JUMPDEST PUSH2 0x40E PUSH1 0x4 DUP1 DUP1 CALLDATALOAD PUSH20 0xFFFFFFFFFFFFFFFFFFFFFFFFFFFFFFFFFFFFFFFF AND SWAP1 PUSH1 0x20 ADD SWAP1 SWAP2 SWAP1 POP POP PUSH2 0xED8 JUMP JUMPDEST STOP JUMPDEST CALLVALUE ISZERO PUSH2 0x41B JUMPI PUSH1 0x0 DUP1 REVERT JUMPDEST PUSH2 0x431 PUSH1 0x4 DUP1 DUP1 CALLDATALOAD SWAP1 PUSH1 0x20 ADD SWAP1 SWAP2 SWAP1 POP POP PUSH2 0x10E0 JUMP JUMPDEST PUSH1 0x40 MLOAD DUP1 DUP3 ISZERO ISZERO ISZERO ISZERO DUP2 MSTORE PUSH1 0x20 ADD SWAP2 POP POP PUSH1 0x40 MLOAD DUP1 SWAP2 SUB SWAP1 RETURN JUMPDEST CALLVALUE ISZERO PUSH2 0x456 JUMPI PUSH1 0x0 DUP1 REVERT JUMPDEST PUSH2 0x46C PUSH1 0x4 DUP1 DUP1 CALLDATALOAD SWAP1 PUSH1 0x20 ADD SWAP1 SWAP2 SWAP1 POP POP PUSH2 0x11C8 JUMP JUMPDEST PUSH1 0x40 MLOAD DUP1 DUP3 DUP2 MSTORE PUSH1 0x20 ADD SWAP2 POP POP PUSH1 0x40 MLOAD DUP1 SWAP2 SUB SWAP1 RETURN JUMPDEST CALLVALUE ISZERO PUSH2 0x48D JUMPI PUSH1 0x0 DUP1 REVERT JUMPDEST PUSH2 0x4A3 PUSH1 0x4 DUP1 DUP1 CALLDATALOAD SWAP1 PUSH1 0x20 ADD SWAP1 SWAP2 SWAP1 POP POP PUSH2 0x1297 JUMP JUMPDEST PUSH1 0x40 MLOAD DUP1 DUP6 PUSH20 0xFFFFFFFFFFFFFFFFFFFFFFFFFFFFFFFFFFFFFFFF AND PUSH20 0xFFFFFFFFFFFFFFFFFFFFFFFFFFFFFFFFFFFFFFFF AND DUP2 MSTORE PUSH1 0x20 ADD DUP5 DUP2 MSTORE PUSH1 0x20 ADD DUP1 PUSH1 0x20 ADD DUP4 ISZERO ISZERO ISZERO ISZERO DUP2 MSTORE PUSH1 0x20 ADD DUP3 DUP2 SUB DUP3 MSTORE DUP5 DUP2 DUP2 SLOAD PUSH1 0x1 DUP2 PUSH1 0x1 AND ISZERO PUSH2 0x100 MUL SUB AND PUSH1 0x2 SWAP1 DIV DUP2 MSTORE PUSH1 0x20 ADD SWAP2 POP DUP1 SLOAD PUSH1 0x1 DUP2 PUSH1 0x1 AND ISZERO PUSH2 0x100 MUL SUB AND PUSH1 0x2 SWAP1 DIV DUP1 ISZERO PUSH2 0x56E JUMPI DUP1 PUSH1 0x1F LT PUSH2 0x543 JUMPI PUSH2 0x100 DUP1 DUP4 SLOAD DIV MUL DUP4 MSTORE SWAP2 PUSH1 0x20 ADD SWAP2 PUSH2 0x56E JUMP JUMPDEST DUP3 ADD SWAP2 SWAP1 PUSH1 0x0 MSTORE PUSH1 0x20 PUSH1 0x0 KECCAK256 SWAP1 JUMPDEST DUP2 SLOAD DUP2 MSTORE SWAP1 PUSH1 0x1 ADD SWAP1 PUSH1 0x20 ADD DUP1 DUP4 GT PUSH2 0x551 JUMPI DUP3 SWAP1 SUB PUSH1 0x1F AND DUP3 ADD SWAP2 JUMPDEST POP POP SWAP6 POP POP POP POP POP POP PUSH1 0x40 MLOAD DUP1 SWAP2 SUB SWAP1 RETURN JUMPDEST CALLVALUE ISZERO PUSH2 0x58B JUMPI PUSH1 0x0 DUP1 REVERT JUMPDEST PUSH2 0x593 PUSH2 0x12F3 JUMP JUMPDEST PUSH1 0x40 MLOAD DUP1 DUP1 PUSH1 0x20 ADD DUP3 DUP2 SUB DUP3 MSTORE DUP4 DUP2 DUP2 MLOAD DUP2 MSTORE PUSH1 0x20 ADD SWAP2 POP DUP1 MLOAD SWAP1 PUSH1 0x20 ADD SWAP1 PUSH1 0x20 MUL DUP1 DUP4 DUP4 PUSH1 0x0 JUMPDEST DUP4 DUP2 LT ISZERO PUSH2 0x5D7 JUMPI DUP1 DUP3 ADD MLOAD DUP2 DUP5 ADD MSTORE JUMPDEST PUSH1 0x20 DUP2 ADD SWAP1 POP PUSH2 0x5BB JUMP JUMPDEST POP POP POP POP SWAP1 POP ADD SWAP3 POP POP POP PUSH1 0x40 MLOAD DUP1 SWAP2 SUB SWAP1 RETURN JUMPDEST CALLVALUE ISZERO PUSH2 0x5F6 JUMPI PUSH1 0x0 DUP1 REVERT JUMPDEST PUSH2 0x62B PUSH1 0x4 DUP1 DUP1 CALLDATALOAD SWAP1 PUSH1 0x20 ADD SWAP1 SWAP2 SWAP1 DUP1 CALLDATALOAD SWAP1 PUSH1 0x20 ADD SWAP1 SWAP2 SWAP1 DUP1 CALLDATALOAD ISZERO ISZERO SWAP1 PUSH1 0x20 ADD SWAP1 SWAP2 SWAP1 DUP1 CALLDATALOAD ISZERO ISZERO SWAP1 PUSH1 0x20 ADD SWAP1 SWAP2 SWAP1 POP POP PUSH2 0x1388 JUMP JUMPDEST PUSH1 0x40 MLOAD DUP1 DUP1 PUSH1 0x20 ADD DUP3 DUP2 SUB DUP3 MSTORE DUP4 DUP2 DUP2 MLOAD DUP2 MSTORE PUSH1 0x20 ADD SWAP2 POP DUP1 MLOAD SWAP1 PUSH1 0x20 ADD SWAP1 PUSH1 0x20 MUL DUP1 DUP4 DUP4 PUSH1 0x0 JUMPDEST DUP4 DUP2 LT ISZERO PUSH2 0x66F JUMPI DUP1 DUP3 ADD MLOAD DUP2 DUP5 ADD MSTORE JUMPDEST PUSH1 0x20 DUP2 ADD SWAP1 POP PUSH2 0x653 JUMP JUMPDEST POP POP POP POP SWAP1 POP ADD SWAP3 POP POP POP PUSH1 0x40 MLOAD DUP1 SWAP2 SUB SWAP1 RETURN JUMPDEST CALLVALUE ISZERO PUSH2 0x68E JUMPI PUSH1 0x0 DUP1 REVERT JUMPDEST PUSH2 0x6A4 PUSH1 0x4 DUP1 DUP1 CALLDATALOAD SWAP1 PUSH1 0x20 ADD SWAP1 SWAP2 SWAP1 POP POP PUSH2 0x14E9 JUMP JUMPDEST PUSH1 0x40 MLOAD DUP1 DUP1 PUSH1 0x20 ADD DUP3 DUP2 SUB DUP3 MSTORE DUP4 DUP2 DUP2 MLOAD DUP2 MSTORE PUSH1 0x20 ADD SWAP2 POP DUP1 MLOAD SWAP1 PUSH1 0x20 ADD SWAP1 PUSH1 0x20 MUL DUP1 DUP4 DUP4 PUSH1 0x0 JUMPDEST DUP4 DUP2 LT ISZERO PUSH2 0x6E8 JUMPI DUP1 DUP3 ADD MLOAD DUP2 DUP5 ADD MSTORE JUMPDEST PUSH1 0x20 DUP2 ADD SWAP1 POP PUSH2 0x6CC JUMP JUMPDEST POP POP POP POP SWAP1 POP ADD SWAP3 POP POP POP PUSH1 0x40 MLOAD DUP1 SWAP2 SUB SWAP1 RETURN JUMPDEST CALLVALUE ISZERO PUSH2 0x707 JUMPI PUSH1 0x0 DUP1 REVERT JUMPDEST PUSH2 0x70F PUSH2 0x171A JUMP JUMPDEST PUSH1 0x40 MLOAD DUP1 DUP3 DUP2 MSTORE PUSH1 0x20 ADD SWAP2 POP POP PUSH1 0x40 MLOAD DUP1 SWAP2 SUB SWAP1 RETURN JUMPDEST CALLVALUE ISZERO PUSH2 0x730 JUMPI PUSH1 0x0 DUP1 REVERT JUMPDEST PUSH2 0x746 PUSH1 0x4 DUP1 DUP1 CALLDATALOAD SWAP1 PUSH1 0x20 ADD SWAP1 SWAP2 SWAP1 POP POP PUSH2 0x1720 JUMP JUMPDEST STOP JUMPDEST CALLVALUE ISZERO PUSH2 0x753 JUMPI PUSH1 0x0 DUP1 REVERT JUMPDEST PUSH2 0x769 PUSH1 0x4 DUP1 DUP1 CALLDATALOAD SWAP1 PUSH1 0x20 ADD SWAP1 SWAP2 SWAP1 POP POP PUSH2 0x17DD JUMP JUMPDEST STOP JUMPDEST CALLVALUE ISZERO PUSH2 0x776 JUMPI PUSH1 0x0 DUP1 REVERT JUMPDEST PUSH2 0x7EE PUSH1 0x4 DUP1 DUP1 CALLDATALOAD PUSH20 0xFFFFFFFFFFFFFFFFFFFFFFFFFFFFFFFFFFFFFFFF AND SWAP1 PUSH1 0x20 ADD SWAP1 SWAP2 SWAP1 DUP1 CALLDATALOAD SWAP1 PUSH1 0x20 ADD SWAP1 SWAP2 SWAP1 DUP1 CALLDATALOAD SWAP1 PUSH1 0x20 ADD SWAP1 DUP3 ADD DUP1 CALLDATALOAD SWAP1 PUSH1 0x20 ADD SWAP1 DUP1 DUP1 PUSH1 0x1F ADD PUSH1 0x20 DUP1 SWAP2 DIV MUL PUSH1 0x20 ADD PUSH1 0x40 MLOAD SWAP1 DUP2 ADD PUSH1 0x40 MSTORE DUP1 SWAP4 SWAP3 SWAP2 SWAP1 DUP2 DUP2 MSTORE PUSH1 0x20 ADD DUP4 DUP4 DUP1 DUP3 DUP5 CALLDATACOPY DUP3 ADD SWAP2 POP POP POP POP POP POP SWAP2 SWAP1 POP POP PUSH2 0x19BE JUMP JUMPDEST PUSH1 0x40 MLOAD DUP1 DUP3 DUP2 MSTORE PUSH1 0x20 ADD SWAP2 POP POP PUSH1 0x40 MLOAD DUP1 SWAP2 SUB SWAP1 RETURN JUMPDEST CALLVALUE ISZERO PUSH2 0x80F JUMPI PUSH1 0x0 DUP1 REVERT JUMPDEST PUSH2 0x825 PUSH1 0x4 DUP1 DUP1 CALLDATALOAD SWAP1 PUSH1 0x20 ADD SWAP1 SWAP2 SWAP1 POP POP PUSH2 0x19DE JUMP JUMPDEST STOP JUMPDEST CALLVALUE ISZERO PUSH2 0x832 JUMPI PUSH1 0x0 DUP1 REVERT JUMPDEST PUSH2 0x83A PUSH2 0x1A5B JUMP JUMPDEST PUSH1 0x40 MLOAD DUP1 DUP3 DUP2 MSTORE PUSH1 0x20 ADD SWAP2 POP POP PUSH1 0x40 MLOAD DUP1 SWAP2 SUB SWAP1 RETURN JUMPDEST CALLVALUE ISZERO PUSH2 0x85B JUMPI PUSH1 0x0 DUP1 REVERT JUMPDEST PUSH2 0x863 PUSH2 0x1A60 JUMP JUMPDEST PUSH1 0x40 MLOAD DUP1 DUP3 DUP2 MSTORE PUSH1 0x20 ADD SWAP2 POP POP PUSH1 0x40 MLOAD DUP1 SWAP2 SUB SWAP1 RETURN JUMPDEST CALLVALUE ISZERO PUSH2 0x884 JUMPI PUSH1 0x0 DUP1 REVERT JUMPDEST PUSH2 0x8CF PUSH1 0x4 DUP1 DUP1 CALLDATALOAD PUSH20 0xFFFFFFFFFFFFFFFFFFFFFFFFFFFFFFFFFFFFFFFF AND SWAP1 PUSH1 0x20 ADD SWAP1 SWAP2 SWAP1 DUP1 CALLDATALOAD PUSH20 0xFFFFFFFFFFFFFFFFFFFFFFFFFFFFFFFFFFFFFFFF AND SWAP1 PUSH1 0x20 ADD SWAP1 SWAP2 SWAP1 POP POP PUSH2 0x1A66 JUMP JUMPDEST STOP JUMPDEST CALLVALUE ISZERO PUSH2 0x8DC JUMPI PUSH1 0x0 DUP1 REVERT JUMPDEST PUSH2 0x8F2 PUSH1 0x4 DUP1 DUP1 CALLDATALOAD SWAP1 PUSH1 0x20 ADD SWAP1 SWAP2 SWAP1 POP POP PUSH2 0x1D84 JUMP JUMPDEST STOP JUMPDEST CALLVALUE ISZERO PUSH2 0x8FF JUMPI PUSH1 0x0 DUP1 REVERT JUMPDEST PUSH2 0x907 PUSH2 0x20A5 JUMP JUMPDEST PUSH1 0x40 MLOAD DUP1 DUP3 DUP2 MSTORE PUSH1 0x20 ADD SWAP2 POP POP PUSH1 0x40 MLOAD DUP1 SWAP2 SUB SWAP1 RETURN JUMPDEST PUSH1 0x3 DUP2 DUP2 SLOAD DUP2 LT ISZERO ISZERO PUSH2 0x92C JUMPI INVALID JUMPDEST SWAP1 PUSH1 0x0 MSTORE PUSH1 0x20 PUSH1 0x0 KECCAK256 SWAP1 ADD PUSH1 0x0 JUMPDEST SWAP2 POP SLOAD SWAP1 PUSH2 0x100 EXP SWAP1 DIV PUSH20 0xFFFFFFFFFFFFFFFFFFFFFFFFFFFFFFFFFFFFFFFF AND DUP2 JUMP JUMPDEST PUSH1 0x0 ADDRESS PUSH20 0xFFFFFFFFFFFFFFFFFFFFFFFFFFFFFFFFFFFFFFFF AND CALLER PUSH20 0xFFFFFFFFFFFFFFFFFFFFFFFFFFFFFFFFFFFFFFFF AND EQ ISZERO ISZERO PUSH2 0x999 JUMPI PUSH1 0x0 DUP1 REVERT JUMPDEST DUP2 PUSH1 0x2 PUSH1 0x0 DUP3 PUSH20 0xFFFFFFFFFFFFFFFFFFFFFFFFFFFFFFFFFFFFFFFF AND PUSH20 0xFFFFFFFFFFFFFFFFFFFFFFFFFFFFFFFFFFFFFFFF AND DUP2 MSTORE PUSH1 0x20 ADD SWAP1 DUP2 MSTORE PUSH1 0x20 ADD PUSH1 0x0 KECCAK256 PUSH1 0x0 SWAP1 SLOAD SWAP1 PUSH2 0x100 EXP SWAP1 DIV PUSH1 0xFF AND ISZERO ISZERO PUSH2 0x9F2 JUMPI PUSH1 0x0 DUP1 REVERT JUMPDEST PUSH1 0x0 PUSH1 0x2 PUSH1 0x0 DUP6 PUSH20 0xFFFFFFFFFFFFFFFFFFFFFFFFFFFFFFFFFFFFFFFF AND PUSH20 0xFFFFFFFFFFFFFFFFFFFFFFFFFFFFFFFFFFFFFFFF AND DUP2 MSTORE PUSH1 0x20 ADD SWAP1 DUP2 MSTORE PUSH1 0x20 ADD PUSH1 0x0 KECCAK256 PUSH1 0x0 PUSH2 0x100 EXP DUP2 SLOAD DUP2 PUSH1 0xFF MUL NOT AND SWAP1 DUP4 ISZERO ISZERO MUL OR SWAP1 SSTORE POP PUSH1 0x0 SWAP2 POP JUMPDEST PUSH1 0x1 PUSH1 0x3 DUP1 SLOAD SWAP1 POP SUB DUP3 LT ISZERO PUSH2 0xB7E JUMPI DUP3 PUSH20 0xFFFFFFFFFFFFFFFFFFFFFFFFFFFFFFFFFFFFFFFF AND PUSH1 0x3 DUP4 DUP2 SLOAD DUP2 LT ISZERO ISZERO PUSH2 0xA85 JUMPI INVALID JUMPDEST SWAP1 PUSH1 0x0 MSTORE PUSH1 0x20 PUSH1 0x0 KECCAK256 SWAP1 ADD PUSH1 0x0 JUMPDEST SWAP1 SLOAD SWAP1 PUSH2 0x100 EXP SWAP1 DIV PUSH20 0xFFFFFFFFFFFFFFFFFFFFFFFFFFFFFFFFFFFFFFFF AND PUSH20 0xFFFFFFFFFFFFFFFFFFFFFFFFFFFFFFFFFFFFFFFF AND EQ ISZERO PUSH2 0xB70 JUMPI PUSH1 0x3 PUSH1 0x1 PUSH1 0x3 DUP1 SLOAD SWAP1 POP SUB DUP2 SLOAD DUP2 LT ISZERO ISZERO PUSH2 0xAE5 JUMPI INVALID JUMPDEST SWAP1 PUSH1 0x0 MSTORE PUSH1 0x20 PUSH1 0x0 KECCAK256 SWAP1 ADD PUSH1 0x0 JUMPDEST SWAP1 SLOAD SWAP1 PUSH2 0x100 EXP SWAP1 DIV PUSH20 0xFFFFFFFFFFFFFFFFFFFFFFFFFFFFFFFFFFFFFFFF AND PUSH1 0x3 DUP4 DUP2 SLOAD DUP2 LT ISZERO ISZERO PUSH2 0xB21 JUMPI INVALID JUMPDEST SWAP1 PUSH1 0x0 MSTORE PUSH1 0x20 PUSH1 0x0 KECCAK256 SWAP1 ADD PUSH1 0x0 JUMPDEST PUSH2 0x100 EXP DUP2 SLOAD DUP2 PUSH20 0xFFFFFFFFFFFFFFFFFFFFFFFFFFFFFFFFFFFFFFFF MUL NOT AND SWAP1 DUP4 PUSH20 0xFFFFFFFFFFFFFFFFFFFFFFFFFFFFFFFFFFFFFFFF AND MUL OR SWAP1 SSTORE POP PUSH2 0xB7E JUMP JUMPDEST JUMPDEST DUP2 DUP1 PUSH1 0x1 ADD SWAP3 POP POP PUSH2 0xA4F JUMP JUMPDEST PUSH1 0x1 PUSH1 0x3 DUP2 DUP2 DUP1 SLOAD SWAP1 POP SUB SWAP2 POP DUP2 PUSH2 0xB96 SWAP2 SWAP1 PUSH2 0x2279 JUMP JUMPDEST POP PUSH1 0x3 DUP1 SLOAD SWAP1 POP PUSH1 0x4 SLOAD GT ISZERO PUSH2 0xBB5 JUMPI PUSH2 0xBB4 PUSH1 0x3 DUP1 SLOAD SWAP1 POP PUSH2 0x1720 JUMP JUMPDEST JUMPDEST DUP3 PUSH20 0xFFFFFFFFFFFFFFFFFFFFFFFFFFFFFFFFFFFFFFFF AND PUSH32 0x8001553A916EF2F495D26A907CC54D96ED840D7BDA71E73194BF5A9DF7A76B90 PUSH1 0x40 MLOAD PUSH1 0x40 MLOAD DUP1 SWAP2 SUB SWAP1 LOG2 JUMPDEST JUMPDEST POP JUMPDEST POP POP JUMP JUMPDEST CALLER PUSH1 0x2 PUSH1 0x0 DUP3 PUSH20 0xFFFFFFFFFFFFFFFFFFFFFFFFFFFFFFFFFFFFFFFF AND PUSH20 0xFFFFFFFFFFFFFFFFFFFFFFFFFFFFFFFFFFFFFFFF AND DUP2 MSTORE PUSH1 0x20 ADD SWAP1 DUP2 MSTORE PUSH1 0x20 ADD PUSH1 0x0 KECCAK256 PUSH1 0x0 SWAP1 SLOAD SWAP1 PUSH2 0x100 EXP SWAP1 DIV PUSH1 0xFF AND ISZERO ISZERO PUSH2 0xC59 JUMPI PUSH1 0x0 DUP1 REVERT JUMPDEST DUP2 CALLER PUSH1 0x1 PUSH1 0x0 DUP4 DUP2 MSTORE PUSH1 0x20 ADD SWAP1 DUP2 MSTORE PUSH1 0x20 ADD PUSH1 0x0 KECCAK256 PUSH1 0x0 DUP3 PUSH20 0xFFFFFFFFFFFFFFFFFFFFFFFFFFFFFFFFFFFFFFFF AND PUSH20 0xFFFFFFFFFFFFFFFFFFFFFFFFFFFFFFFFFFFFFFFF AND DUP2 MSTORE PUSH1 0x20 ADD SWAP1 DUP2 MSTORE PUSH1 0x20 ADD PUSH1 0x0 KECCAK256 PUSH1 0x0 SWAP1 SLOAD SWAP1 PUSH2 0x100 EXP SWAP1 DIV PUSH1 0xFF AND ISZERO ISZERO PUSH2 0xCC4 JUMPI PUSH1 0x0 DUP1 REVERT JUMPDEST DUP4 PUSH1 0x0 DUP1 DUP3 DUP2 MSTORE PUSH1 0x20 ADD SWAP1 DUP2 MSTORE PUSH1 0x20 ADD PUSH1 0x0 KECCAK256 PUSH1 0x3 ADD PUSH1 0x0 SWAP1 SLOAD SWAP1 PUSH2 0x100 EXP SWAP1 DIV PUSH1 0xFF AND ISZERO ISZERO ISZERO PUSH2 0xCF4 JUMPI PUSH1 0x0 DUP1 REVERT JUMPDEST PUSH1 0x0 PUSH1 0x1 PUSH1 0x0 DUP8 DUP2 MSTORE PUSH1 0x20 ADD SWAP1 DUP2 MSTORE PUSH1 0x20 ADD PUSH1 0x0 KECCAK256 PUSH1 0x0 CALLER PUSH20 0xFFFFFFFFFFFFFFFFFFFFFFFFFFFFFFFFFFFFFFFF AND PUSH20 0xFFFFFFFFFFFFFFFFFFFFFFFFFFFFFFFFFFFFFFFF AND DUP2 MSTORE PUSH1 0x20 ADD SWAP1 DUP2 MSTORE PUSH1 0x20 ADD PUSH1 0x0 KECCAK256 PUSH1 0x0 PUSH2 0x100 EXP DUP2 SLOAD DUP2 PUSH1 0xFF MUL NOT AND SWAP1 DUP4 ISZERO ISZERO MUL OR SWAP1 SSTORE POP DUP5 CALLER PUSH20 0xFFFFFFFFFFFFFFFFFFFFFFFFFFFFFFFFFFFFFFFF AND PUSH32 0xF6A317157440607F36269043EB55F1287A5A19BA2216AFEAB88CD46CBCFB88E9 PUSH1 0x40 MLOAD PUSH1 0x40 MLOAD DUP1 SWAP2 SUB SWAP1 LOG3 JUMPDEST JUMPDEST POP JUMPDEST POP POP JUMPDEST POP POP JUMP JUMPDEST PUSH1 0x2 PUSH1 0x20 MSTORE DUP1 PUSH1 0x0 MSTORE PUSH1 0x40 PUSH1 0x0 KECCAK256 PUSH1 0x0 SWAP2 POP SLOAD SWAP1 PUSH2 0x100 EXP SWAP1 DIV PUSH1 0xFF AND DUP2 JUMP JUMPDEST PUSH1 0x1 PUSH1 0x20 MSTORE DUP2 PUSH1 0x0 MSTORE PUSH1 0x40 PUSH1 0x0 KECCAK256 PUSH1 0x20 MSTORE DUP1 PUSH1 0x0 MSTORE PUSH1 0x40 PUSH1 0x0 KECCAK256 PUSH1 0x0 SWAP2 POP SWAP2 POP SWAP1 SLOAD SWAP1 PUSH2 0x100 EXP SWAP1 DIV PUSH1 0xFF AND DUP2 JUMP JUMPDEST PUSH1 0x0 PUSH3 0x15180 PUSH1 0x7 SLOAD ADD TIMESTAMP GT ISZERO PUSH2 0xE16 JUMPI PUSH1 0x6 SLOAD SWAP1 POP PUSH2 0xE35 JUMP JUMPDEST PUSH1 0x8 SLOAD PUSH1 0x6 SLOAD LT ISZERO PUSH2 0xE2B JUMPI PUSH1 0x0 SWAP1 POP PUSH2 0xE35 JUMP JUMPDEST PUSH1 0x8 SLOAD PUSH1 0x6 SLOAD SUB SWAP1 POP JUMPDEST SWAP1 JUMP JUMPDEST PUSH1 0x0 DUP1 PUSH1 0x0 SWAP1 POP JUMPDEST PUSH1 0x5 SLOAD DUP2 LT ISZERO PUSH2 0xEC4 JUMPI DUP4 DUP1 ISZERO PUSH2 0xE77 JUMPI POP PUSH1 0x0 DUP1 DUP3 DUP2 MSTORE PUSH1 0x20 ADD SWAP1 DUP2 MSTORE PUSH1 0x20 ADD PUSH1 0x0 KECCAK256 PUSH1 0x3 ADD PUSH1 0x0 SWAP1 SLOAD SWAP1 PUSH2 0x100 EXP SWAP1 DIV PUSH1 0xFF AND ISZERO JUMPDEST DUP1 PUSH2 0xEAA JUMPI POP DUP3 DUP1 ISZERO PUSH2 0xEA9 JUMPI POP PUSH1 0x0 DUP1 DUP3 DUP2 MSTORE PUSH1 0x20 ADD SWAP1 DUP2 MSTORE PUSH1 0x20 ADD PUSH1 0x0 KECCAK256 PUSH1 0x3 ADD PUSH1 0x0 SWAP1 SLOAD SWAP1 PUSH2 0x100 EXP SWAP1 DIV PUSH1 0xFF AND JUMPDEST JUMPDEST ISZERO PUSH2 0xEB6 JUMPI PUSH1 0x1 DUP3 ADD SWAP2 POP JUMPDEST JUMPDEST DUP1 DUP1 PUSH1 0x1 ADD SWAP2 POP POP PUSH2 0xE40 JUMP JUMPDEST JUMPDEST POP SWAP3 SWAP2 POP POP JUMP JUMPDEST PUSH1 0x6 SLOAD DUP2 JUMP JUMPDEST PUSH1 0x7 SLOAD DUP2 JUMP JUMPDEST ADDRESS PUSH20 0xFFFFFFFFFFFFFFFFFFFFFFFFFFFFFFFFFFFFFFFF AND CALLER PUSH20 0xFFFFFFFFFFFFFFFFFFFFFFFFFFFFFFFFFFFFFFFF AND EQ ISZERO ISZERO PUSH2 0xF12 JUMPI PUSH1 0x0 DUP1 REVERT JUMPDEST DUP1 PUSH1 0x2 PUSH1 0x0 DUP3 PUSH20 0xFFFFFFFFFFFFFFFFFFFFFFFFFFFFFFFFFFFFFFFF AND PUSH20 0xFFFFFFFFFFFFFFFFFFFFFFFFFFFFFFFFFFFFFFFF AND DUP2 MSTORE PUSH1 0x20 ADD SWAP1 DUP2 MSTORE PUSH1 0x20 ADD PUSH1 0x0 KECCAK256 PUSH1 0x0 SWAP1 SLOAD SWAP1 PUSH2 0x100 EXP SWAP1 DIV PUSH1 0xFF AND ISZERO ISZERO ISZERO PUSH2 0xF6C JUMPI PUSH1 0x0 DUP1 REVERT JUMPDEST DUP2 PUSH1 0x0 DUP2 PUSH20 0xFFFFFFFFFFFFFFFFFFFFFFFFFFFFFFFFFFFFFFFF AND EQ ISZERO ISZERO ISZERO PUSH2 0xF93 JUMPI PUSH1 0x0 DUP1 REVERT JUMPDEST PUSH1 0x1 PUSH1 0x3 DUP1 SLOAD SWAP1 POP ADD PUSH1 0x4 SLOAD PUSH1 0x32 DUP3 GT ISZERO DUP1 ISZERO PUSH2 0xFB0 JUMPI POP DUP2 DUP2 GT ISZERO JUMPDEST DUP1 ISZERO PUSH2 0xFBD JUMPI POP PUSH1 0x0 DUP2 EQ ISZERO JUMPDEST DUP1 ISZERO PUSH2 0xFCA JUMPI POP PUSH1 0x0 DUP3 EQ ISZERO JUMPDEST ISZERO ISZERO PUSH2 0xFD5 JUMPI PUSH1 0x0 DUP1 REVERT JUMPDEST PUSH1 0x1 PUSH1 0x2 PUSH1 0x0 DUP8 PUSH20 0xFFFFFFFFFFFFFFFFFFFFFFFFFFFFFFFFFFFFFFFF AND PUSH20 0xFFFFFFFFFFFFFFFFFFFFFFFFFFFFFFFFFFFFFFFF AND DUP2 MSTORE PUSH1 0x20 ADD SWAP1 DUP2 MSTORE PUSH1 0x20 ADD PUSH1 0x0 KECCAK256 PUSH1 0x0 PUSH2 0x100 EXP DUP2 SLOAD DUP2 PUSH1 0xFF MUL NOT AND SWAP1 DUP4 ISZERO ISZERO MUL OR SWAP1 SSTORE POP PUSH1 0x3 DUP1 SLOAD DUP1 PUSH1 0x1 ADD DUP3 DUP2 PUSH2 0x1041 SWAP2 SWAP1 PUSH2 0x22A5 JUMP JUMPDEST SWAP2 PUSH1 0x0 MSTORE PUSH1 0x20 PUSH1 0x0 KECCAK256 SWAP1 ADD PUSH1 0x0 JUMPDEST DUP8 SWAP1 SWAP2 SWAP1 SWAP2 PUSH2 0x100 EXP DUP2 SLOAD DUP2 PUSH20 0xFFFFFFFFFFFFFFFFFFFFFFFFFFFFFFFFFFFFFFFF MUL NOT AND SWAP1 DUP4 PUSH20 0xFFFFFFFFFFFFFFFFFFFFFFFFFFFFFFFFFFFFFFFF AND MUL OR SWAP1 SSTORE POP POP DUP5 PUSH20 0xFFFFFFFFFFFFFFFFFFFFFFFFFFFFFFFFFFFFFFFF AND PUSH32 0xF39E6E1EB0EDCF53C221607B54B00CD28F3196FED0A24994DC308B8F611B682D PUSH1 0x40 MLOAD PUSH1 0x40 MLOAD DUP1 SWAP2 SUB SWAP1 LOG2 JUMPDEST JUMPDEST POP POP JUMPDEST POP JUMPDEST POP JUMPDEST POP JUMP JUMPDEST PUSH1 0x0 DUP1 PUSH1 0x0 DUP1 SWAP2 POP PUSH1 0x0 SWAP1 POP JUMPDEST PUSH1 0x3 DUP1 SLOAD SWAP1 POP DUP2 LT ISZERO PUSH2 0x11C0 JUMPI PUSH1 0x1 PUSH1 0x0 DUP6 DUP2 MSTORE PUSH1 0x20 ADD SWAP1 DUP2 MSTORE PUSH1 0x20 ADD PUSH1 0x0 KECCAK256 PUSH1 0x0 PUSH1 0x3 DUP4 DUP2 SLOAD DUP2 LT ISZERO ISZERO PUSH2 0x111E JUMPI INVALID JUMPDEST SWAP1 PUSH1 0x0 MSTORE PUSH1 0x20 PUSH1 0x0 KECCAK256 SWAP1 ADD PUSH1 0x0 JUMPDEST SWAP1 SLOAD SWAP1 PUSH2 0x100 EXP SWAP1 DIV PUSH20 0xFFFFFFFFFFFFFFFFFFFFFFFFFFFFFFFFFFFFFFFF AND PUSH20 0xFFFFFFFFFFFFFFFFFFFFFFFFFFFFFFFFFFFFFFFF AND PUSH20 0xFFFFFFFFFFFFFFFFFFFFFFFFFFFFFFFFFFFFFFFF AND DUP2 MSTORE PUSH1 0x20 ADD SWAP1 DUP2 MSTORE PUSH1 0x20 ADD PUSH1 0x0 KECCAK256 PUSH1 0x0 SWAP1 SLOAD SWAP1 PUSH2 0x100 EXP SWAP1 DIV PUSH1 0xFF AND ISZERO PUSH2 0x119F JUMPI PUSH1 0x1 DUP3 ADD SWAP2 POP JUMPDEST PUSH1 0x4 SLOAD DUP3 EQ ISZERO PUSH2 0x11B2 JUMPI PUSH1 0x1 SWAP3 POP PUSH2 0x11C1 JUMP JUMPDEST JUMPDEST DUP1 DUP1 PUSH1 0x1 ADD SWAP2 POP POP PUSH2 0x10ED JUMP JUMPDEST JUMPDEST POP POP SWAP2 SWAP1 POP JUMP JUMPDEST PUSH1 0x0 DUP1 PUSH1 0x0 SWAP1 POP JUMPDEST PUSH1 0x3 DUP1 SLOAD SWAP1 POP DUP2 LT ISZERO PUSH2 0x1290 JUMPI PUSH1 0x1 PUSH1 0x0 DUP5 DUP2 MSTORE PUSH1 0x20 ADD SWAP1 DUP2 MSTORE PUSH1 0x20 ADD PUSH1 0x0 KECCAK256 PUSH1 0x0 PUSH1 0x3 DUP4 DUP2 SLOAD DUP2 LT ISZERO ISZERO PUSH2 0x1201 JUMPI INVALID JUMPDEST SWAP1 PUSH1 0x0 MSTORE PUSH1 0x20 PUSH1 0x0 KECCAK256 SWAP1 ADD PUSH1 0x0 JUMPDEST SWAP1 SLOAD SWAP1 PUSH2 0x100 EXP SWAP1 DIV PUSH20 0xFFFFFFFFFFFFFFFFFFFFFFFFFFFFFFFFFFFFFFFF AND PUSH20 0xFFFFFFFFFFFFFFFFFFFFFFFFFFFFFFFFFFFFFFFF AND PUSH20 0xFFFFFFFFFFFFFFFFFFFFFFFFFFFFFFFFFFFFFFFF AND DUP2 MSTORE PUSH1 0x20 ADD SWAP1 DUP2 MSTORE PUSH1 0x20 ADD PUSH1 0x0 KECCAK256 PUSH1 0x0 SWAP1 SLOAD SWAP1 PUSH2 0x100 EXP SWAP1 DIV PUSH1 0xFF AND ISZERO PUSH2 0x1282 JUMPI PUSH1 0x1 DUP3 ADD SWAP2 POP JUMPDEST JUMPDEST DUP1 DUP1 PUSH1 0x1 ADD SWAP2 POP POP PUSH2 0x11D0 JUMP JUMPDEST JUMPDEST POP SWAP2 SWAP1 POP JUMP JUMPDEST PUSH1 0x0 PUSH1 0x20 MSTORE DUP1 PUSH1 0x0 MSTORE PUSH1 0x40 PUSH1 0x0 KECCAK256 PUSH1 0x0 SWAP2 POP SWAP1 POP DUP1 PUSH1 0x0 ADD PUSH1 0x0 SWAP1 SLOAD SWAP1 PUSH2 0x100 EXP SWAP1 DIV PUSH20 0xFFFFFFFFFFFFFFFFFFFFFFFFFFFFFFFFFFFFFFFF AND SWAP1 DUP1 PUSH1 0x1 ADD SLOAD SWAP1 DUP1 PUSH1 0x2 ADD SWAP1 DUP1 PUSH1 0x3 ADD PUSH1 0x0 SWAP1 SLOAD SWAP1 PUSH2 0x100 EXP SWAP1 DIV PUSH1 0xFF AND SWAP1 POP DUP5 JUMP JUMPDEST PUSH2 0x12FB PUSH2 0x22D1 JUMP JUMPDEST PUSH1 0x3 DUP1 SLOAD DUP1 PUSH1 0x20 MUL PUSH1 0x20 ADD PUSH1 0x40 MLOAD SWAP1 DUP2 ADD PUSH1 0x40 MSTORE DUP1 SWAP3 SWAP2 SWAP1 DUP2 DUP2 MSTORE PUSH1 0x20 ADD DUP3 DUP1 SLOAD DUP1 ISZERO PUSH2 0x137D JUMPI PUSH1 0x20 MUL DUP3 ADD SWAP2 SWAP1 PUSH1 0x0 MSTORE PUSH1 0x20 PUSH1 0x0 KECCAK256 SWAP1 JUMPDEST DUP2 PUSH1 0x0 SWAP1 SLOAD SWAP1 PUSH2 0x100 EXP SWAP1 DIV PUSH20 0xFFFFFFFFFFFFFFFFFFFFFFFFFFFFFFFFFFFFFFFF AND PUSH20 0xFFFFFFFFFFFFFFFFFFFFFFFFFFFFFFFFFFFFFFFF AND DUP2 MSTORE PUSH1 0x20 ADD SWAP1 PUSH1 0x1 ADD SWAP1 DUP1 DUP4 GT PUSH2 0x1333 JUMPI JUMPDEST POP POP POP POP POP SWAP1 POP JUMPDEST SWAP1 JUMP JUMPDEST PUSH2 0x1390 PUSH2 0x22E5 JUMP JUMPDEST PUSH2 0x1398 PUSH2 0x22E5 JUMP JUMPDEST PUSH1 0x0 DUP1 PUSH1 0x5 SLOAD PUSH1 0x40 MLOAD DUP1 MSIZE LT PUSH2 0x13AB JUMPI POP MSIZE JUMPDEST SWAP1 DUP1 DUP3 MSTORE DUP1 PUSH1 0x20 MUL PUSH1 0x20 ADD DUP3 ADD PUSH1 0x40 MSTORE JUMPDEST POP SWAP3 POP PUSH1 0x0 SWAP2 POP PUSH1 0x0 SWAP1 POP JUMPDEST PUSH1 0x5 SLOAD DUP2 LT ISZERO PUSH2 0x1469 JUMPI DUP6 DUP1 ISZERO PUSH2 0x13FF JUMPI POP PUSH1 0x0 DUP1 DUP3 DUP2 MSTORE PUSH1 0x20 ADD SWAP1 DUP2 MSTORE PUSH1 0x20 ADD PUSH1 0x0 KECCAK256 PUSH1 0x3 ADD PUSH1 0x0 SWAP1 SLOAD SWAP1 PUSH2 0x100 EXP SWAP1 DIV PUSH1 0xFF AND ISZERO JUMPDEST DUP1 PUSH2 0x1432 JUMPI POP DUP5 DUP1 ISZERO PUSH2 0x1431 JUMPI POP PUSH1 0x0 DUP1 DUP3 DUP2 MSTORE PUSH1 0x20 ADD SWAP1 DUP2 MSTORE PUSH1 0x20 ADD PUSH1 0x0 KECCAK256 PUSH1 0x3 ADD PUSH1 0x0 SWAP1 SLOAD SWAP1 PUSH2 0x100 EXP SWAP1 DIV PUSH1 0xFF AND JUMPDEST JUMPDEST ISZERO PUSH2 0x145B JUMPI DUP1 DUP4 DUP4 DUP2 MLOAD DUP2 LT ISZERO ISZERO PUSH2 0x1446 JUMPI INVALID JUMPDEST SWAP1 PUSH1 0x20 ADD SWAP1 PUSH1 0x20 MUL ADD DUP2 DUP2 MSTORE POP POP PUSH1 0x1 DUP3 ADD SWAP2 POP JUMPDEST JUMPDEST DUP1 DUP1 PUSH1 0x1 ADD SWAP2 POP POP PUSH2 0x13C8 JUMP JUMPDEST DUP8 DUP8 SUB PUSH1 0x40 MLOAD DUP1 MSIZE LT PUSH2 0x1479 JUMPI POP MSIZE JUMPDEST SWAP1 DUP1 DUP3 MSTORE DUP1 PUSH1 0x20 MUL PUSH1 0x20 ADD DUP3 ADD PUSH1 0x40 MSTORE JUMPDEST POP SWAP4 POP DUP8 SWAP1 POP JUMPDEST DUP7 DUP2 LT ISZERO PUSH2 0x14DD JUMPI DUP3 DUP2 DUP2 MLOAD DUP2 LT ISZERO ISZERO PUSH2 0x14A7 JUMPI INVALID JUMPDEST SWAP1 PUSH1 0x20 ADD SWAP1 PUSH1 0x20 MUL ADD MLOAD DUP5 DUP10 DUP4 SUB DUP2 MLOAD DUP2 LT ISZERO ISZERO PUSH2 0x14C1 JUMPI INVALID JUMPDEST SWAP1 PUSH1 0x20 ADD SWAP1 PUSH1 0x20 MUL ADD DUP2 DUP2 MSTORE POP POP JUMPDEST DUP1 DUP1 PUSH1 0x1 ADD SWAP2 POP POP PUSH2 0x1491 JUMP JUMPDEST JUMPDEST POP POP POP SWAP5 SWAP4 POP POP POP POP JUMP JUMPDEST PUSH2 0x14F1 PUSH2 0x22D1 JUMP JUMPDEST PUSH2 0x14F9 PUSH2 0x22D1 JUMP JUMPDEST PUSH1 0x0 DUP1 PUSH1 0x3 DUP1 SLOAD SWAP1 POP PUSH1 0x40 MLOAD DUP1 MSIZE LT PUSH2 0x150F JUMPI POP MSIZE JUMPDEST SWAP1 DUP1 DUP3 MSTORE DUP1 PUSH1 0x20 MUL PUSH1 0x20 ADD DUP3 ADD PUSH1 0x40 MSTORE JUMPDEST POP SWAP3 POP PUSH1 0x0 SWAP2 POP PUSH1 0x0 SWAP1 POP JUMPDEST PUSH1 0x3 DUP1 SLOAD SWAP1 POP DUP2 LT ISZERO PUSH2 0x1672 JUMPI PUSH1 0x1 PUSH1 0x0 DUP7 DUP2 MSTORE PUSH1 0x20 ADD SWAP1 DUP2 MSTORE PUSH1 0x20 ADD PUSH1 0x0 KECCAK256 PUSH1 0x0 PUSH1 0x3 DUP4 DUP2 SLOAD DUP2 LT ISZERO ISZERO PUSH2 0x155D JUMPI INVALID JUMPDEST SWAP1 PUSH1 0x0 MSTORE PUSH1 0x20 PUSH1 0x0 KECCAK256 SWAP1 ADD PUSH1 0x0 JUMPDEST SWAP1 SLOAD SWAP1 PUSH2 0x100 EXP SWAP1 DIV PUSH20 0xFFFFFFFFFFFFFFFFFFFFFFFFFFFFFFFFFFFFFFFF AND PUSH20 0xFFFFFFFFFFFFFFFFFFFFFFFFFFFFFFFFFFFFFFFF AND PUSH20 0xFFFFFFFFFFFFFFFFFFFFFFFFFFFFFFFFFFFFFFFF AND DUP2 MSTORE PUSH1 0x20 ADD SWAP1 DUP2 MSTORE PUSH1 0x20 ADD PUSH1 0x0 KECCAK256 PUSH1 0x0 SWAP1 SLOAD SWAP1 PUSH2 0x100 EXP SWAP1 DIV PUSH1 0xFF AND ISZERO PUSH2 0x1664 JUMPI PUSH1 0x3 DUP2 DUP2 SLOAD DUP2 LT ISZERO ISZERO PUSH2 0x15E6 JUMPI INVALID JUMPDEST SWAP1 PUSH1 0x0 MSTORE PUSH1 0x20 PUSH1 0x0 KECCAK256 SWAP1 ADD PUSH1 0x0 JUMPDEST SWAP1 SLOAD SWAP1 PUSH2 0x100 EXP SWAP1 DIV PUSH20 0xFFFFFFFFFFFFFFFFFFFFFFFFFFFFFFFFFFFFFFFF AND DUP4 DUP4 DUP2 MLOAD DUP2 LT ISZERO ISZERO PUSH2 0x1621 JUMPI INVALID JUMPDEST SWAP1 PUSH1 0x20 ADD SWAP1 PUSH1 0x20 MUL ADD SWAP1 PUSH20 0xFFFFFFFFFFFFFFFFFFFFFFFFFFFFFFFFFFFFFFFF AND SWAP1 DUP2 PUSH20 0xFFFFFFFFFFFFFFFFFFFFFFFFFFFFFFFFFFFFFFFF AND DUP2 MSTORE POP POP PUSH1 0x1 DUP3 ADD SWAP2 POP JUMPDEST JUMPDEST DUP1 DUP1 PUSH1 0x1 ADD SWAP2 POP POP PUSH2 0x152C JUMP JUMPDEST DUP2 PUSH1 0x40 MLOAD DUP1 MSIZE LT PUSH2 0x1680 JUMPI POP MSIZE JUMPDEST SWAP1 DUP1 DUP3 MSTORE DUP1 PUSH1 0x20 MUL PUSH1 0x20 ADD DUP3 ADD PUSH1 0x40 MSTORE JUMPDEST POP SWAP4 POP PUSH1 0x0 SWAP1 POP JUMPDEST DUP2 DUP2 LT ISZERO PUSH2 0x1711 JUMPI DUP3 DUP2 DUP2 MLOAD DUP2 LT ISZERO ISZERO PUSH2 0x16AF JUMPI INVALID JUMPDEST SWAP1 PUSH1 0x20 ADD SWAP1 PUSH1 0x20 MUL ADD MLOAD DUP5 DUP3 DUP2 MLOAD DUP2 LT ISZERO ISZERO PUSH2 0x16C7 JUMPI INVALID JUMPDEST SWAP1 PUSH1 0x20 ADD SWAP1 PUSH1 0x20 MUL ADD SWAP1 PUSH20 0xFFFFFFFFFFFFFFFFFFFFFFFFFFFFFFFFFFFFFFFF AND SWAP1 DUP2 PUSH20 0xFFFFFFFFFFFFFFFFFFFFFFFFFFFFFFFFFFFFFFFF AND DUP2 MSTORE POP POP JUMPDEST DUP1 DUP1 PUSH1 0x1 ADD SWAP2 POP POP PUSH2 0x1699 JUMP JUMPDEST JUMPDEST POP POP POP SWAP2 SWAP1 POP JUMP JUMPDEST PUSH1 0x5 SLOAD DUP2 JUMP JUMPDEST ADDRESS PUSH20 0xFFFFFFFFFFFFFFFFFFFFFFFFFFFFFFFFFFFFFFFF AND CALLER PUSH20 0xFFFFFFFFFFFFFFFFFFFFFFFFFFFFFFFFFFFFFFFF AND EQ ISZERO ISZERO PUSH2 0x175A JUMPI PUSH1 0x0 DUP1 REVERT JUMPDEST PUSH1 0x3 DUP1 SLOAD SWAP1 POP DUP2 PUSH1 0x32 DUP3 GT ISZERO DUP1 ISZERO PUSH2 0x1772 JUMPI POP DUP2 DUP2 GT ISZERO JUMPDEST DUP1 ISZERO PUSH2 0x177F JUMPI POP PUSH1 0x0 DUP2 EQ ISZERO JUMPDEST DUP1 ISZERO PUSH2 0x178C JUMPI POP PUSH1 0x0 DUP3 EQ ISZERO JUMPDEST ISZERO ISZERO PUSH2 0x1797 JUMPI PUSH1 0x0 DUP1 REVERT JUMPDEST DUP3 PUSH1 0x4 DUP2 SWAP1 SSTORE POP PUSH32 0xA3F1EE9126A074D9326C682F561767F710E927FAA811F7A99829D49DC421797A DUP4 PUSH1 0x40 MLOAD DUP1 DUP3 DUP2 MSTORE PUSH1 0x20 ADD SWAP2 POP POP PUSH1 0x40 MLOAD DUP1 SWAP2 SUB SWAP1 LOG1 JUMPDEST JUMPDEST POP POP JUMPDEST POP JUMP JUMPDEST CALLER PUSH1 0x2 PUSH1 0x0 DUP3 PUSH20 0xFFFFFFFFFFFFFFFFFFFFFFFFFFFFFFFFFFFFFFFF AND PUSH20 0xFFFFFFFFFFFFFFFFFFFFFFFFFFFFFFFFFFFFFFFF AND DUP2 MSTORE PUSH1 0x20 ADD SWAP1 DUP2 MSTORE PUSH1 0x20 ADD PUSH1 0x0 KECCAK256 PUSH1 0x0 SWAP1 SLOAD SWAP1 PUSH2 0x100 EXP SWAP1 DIV PUSH1 0xFF AND ISZERO ISZERO PUSH2 0x1836 JUMPI PUSH1 0x0 DUP1 REVERT JUMPDEST DUP2 PUSH1 0x0 DUP1 PUSH1 0x0 DUP4 DUP2 MSTORE PUSH1 0x20 ADD SWAP1 DUP2 MSTORE PUSH1 0x20 ADD PUSH1 0x0 KECCAK256 PUSH1 0x0 ADD PUSH1 0x0 SWAP1 SLOAD SWAP1 PUSH2 0x100 EXP SWAP1 DIV PUSH20 0xFFFFFFFFFFFFFFFFFFFFFFFFFFFFFFFFFFFFFFFF AND PUSH20 0xFFFFFFFFFFFFFFFFFFFFFFFFFFFFFFFFFFFFFFFF AND EQ ISZERO ISZERO ISZERO PUSH2 0x1892 JUMPI PUSH1 0x0 DUP1 REVERT JUMPDEST DUP3 CALLER PUSH1 0x1 PUSH1 0x0 DUP4 DUP2 MSTORE PUSH1 0x20 ADD SWAP1 DUP2 MSTORE PUSH1 0x20 ADD PUSH1 0x0 KECCAK256 PUSH1 0x0 DUP3 PUSH20 0xFFFFFFFFFFFFFFFFFFFFFFFFFFFFFFFFFFFFFFFF AND PUSH20 0xFFFFFFFFFFFFFFFFFFFFFFFFFFFFFFFFFFFFFFFF AND DUP2 MSTORE PUSH1 0x20 ADD SWAP1 DUP2 MSTORE PUSH1 0x20 ADD PUSH1 0x0 KECCAK256 PUSH1 0x0 SWAP1 SLOAD SWAP1 PUSH2 0x100 EXP SWAP1 DIV PUSH1 0xFF AND ISZERO ISZERO ISZERO PUSH2 0x18FE JUMPI PUSH1 0x0 DUP1 REVERT JUMPDEST PUSH1 0x1 DUP1 PUSH1 0x0 DUP8 DUP2 MSTORE PUSH1 0x20 ADD SWAP1 DUP2 MSTORE PUSH1 0x20 ADD PUSH1 0x0 KECCAK256 PUSH1 0x0 CALLER PUSH20 0xFFFFFFFFFFFFFFFFFFFFFFFFFFFFFFFFFFFFFFFF AND PUSH20 0xFFFFFFFFFFFFFFFFFFFFFFFFFFFFFFFFFFFFFFFF AND DUP2 MSTORE PUSH1 0x20 ADD SWAP1 DUP2 MSTORE PUSH1 0x20 ADD PUSH1 0x0 KECCAK256 PUSH1 0x0 PUSH2 0x100 EXP DUP2 SLOAD DUP2 PUSH1 0xFF MUL NOT AND SWAP1 DUP4 ISZERO ISZERO MUL OR SWAP1 SSTORE POP DUP5 CALLER PUSH20 0xFFFFFFFFFFFFFFFFFFFFFFFFFFFFFFFFFFFFFFFF AND PUSH32 0x4A504A94899432A9846E1AA406DCEB1BCFD538BB839071D49D1E5E23F5BE30EF PUSH1 0x40 MLOAD PUSH1 0x40 MLOAD DUP1 SWAP2 SUB SWAP1 LOG3 PUSH2 0x19B3 DUP6 PUSH2 0x1D84 JUMP JUMPDEST JUMPDEST JUMPDEST POP POP JUMPDEST POP JUMPDEST POP POP JUMP JUMPDEST PUSH1 0x0 PUSH2 0x19CB DUP5 DUP5 DUP5 PUSH2 0x20AB JUMP JUMPDEST SWAP1 POP PUSH2 0x19D6 DUP2 PUSH2 0x17DD JUMP JUMPDEST JUMPDEST SWAP4 SWAP3 POP POP POP JUMP JUMPDEST ADDRESS PUSH20 0xFFFFFFFFFFFFFFFFFFFFFFFFFFFFFFFFFFFFFFFF AND CALLER PUSH20 0xFFFFFFFFFFFFFFFFFFFFFFFFFFFFFFFFFFFFFFFF AND EQ ISZERO ISZERO PUSH2 0x1A18 JUMPI PUSH1 0x0 DUP1 REVERT JUMPDEST DUP1 PUSH1 0x6 DUP2 SWAP1 SSTORE POP PUSH32 0xC71BDC6AFAF9B1AA90A7078191D4FC1ADF3BF680FCA3183697DF6B0DC226BCA2 DUP2 PUSH1 0x40 MLOAD DUP1 DUP3 DUP2 MSTORE PUSH1 0x20 ADD SWAP2 POP POP PUSH1 0x40 MLOAD DUP1 SWAP2 SUB SWAP1 LOG1 JUMPDEST JUMPDEST POP JUMP JUMPDEST PUSH1 0x32 DUP2 JUMP JUMPDEST PUSH1 0x4 SLOAD DUP2 JUMP JUMPDEST PUSH1 0x0 ADDRESS PUSH20 0xFFFFFFFFFFFFFFFFFFFFFFFFFFFFFFFFFFFFFFFF AND CALLER PUSH20 0xFFFFFFFFFFFFFFFFFFFFFFFFFFFFFFFFFFFFFFFF AND EQ ISZERO ISZERO PUSH2 0x1AA2 JUMPI PUSH1 0x0 DUP1 REVERT JUMPDEST DUP3 PUSH1 0x2 PUSH1 0x0 DUP3 PUSH20 0xFFFFFFFFFFFFFFFFFFFFFFFFFFFFFFFFFFFFFFFF AND PUSH20 0xFFFFFFFFFFFFFFFFFFFFFFFFFFFFFFFFFFFFFFFF AND DUP2 MSTORE PUSH1 0x20 ADD SWAP1 DUP2 MSTORE PUSH1 0x20 ADD PUSH1 0x0 KECCAK256 PUSH1 0x0 SWAP1 SLOAD SWAP1 PUSH2 0x100 EXP SWAP1 DIV PUSH1 0xFF AND ISZERO ISZERO PUSH2 0x1AFB JUMPI PUSH1 0x0 DUP1 REVERT JUMPDEST DUP3 PUSH1 0x2 PUSH1 0x0 DUP3 PUSH20 0xFFFFFFFFFFFFFFFFFFFFFFFFFFFFFFFFFFFFFFFF AND PUSH20 0xFFFFFFFFFFFFFFFFFFFFFFFFFFFFFFFFFFFFFFFF AND DUP2 MSTORE PUSH1 0x20 ADD SWAP1 DUP2 MSTORE PUSH1 0x20 ADD PUSH1 0x0 KECCAK256 PUSH1 0x0 SWAP1 SLOAD SWAP1 PUSH2 0x100 EXP SWAP1 DIV PUSH1 0xFF AND ISZERO ISZERO ISZERO PUSH2 0x1B55 JUMPI PUSH1 0x0 DUP1 REVERT JUMPDEST PUSH1 0x0 SWAP3 POP JUMPDEST PUSH1 0x3 DUP1 SLOAD SWAP1 POP DUP4 LT ISZERO PUSH2 0x1C43 JUMPI DUP5 PUSH20 0xFFFFFFFFFFFFFFFFFFFFFFFFFFFFFFFFFFFFFFFF AND PUSH1 0x3 DUP5 DUP2 SLOAD DUP2 LT ISZERO ISZERO PUSH2 0x1B8D JUMPI INVALID JUMPDEST SWAP1 PUSH1 0x0 MSTORE PUSH1 0x20 PUSH1 0x0 KECCAK256 SWAP1 ADD PUSH1 0x0 JUMPDEST SWAP1 SLOAD SWAP1 PUSH2 0x100 EXP SWAP1 DIV PUSH20 0xFFFFFFFFFFFFFFFFFFFFFFFFFFFFFFFFFFFFFFFF AND PUSH20 0xFFFFFFFFFFFFFFFFFFFFFFFFFFFFFFFFFFFFFFFF AND EQ ISZERO PUSH2 0x1C35 JUMPI DUP4 PUSH1 0x3 DUP5 DUP2 SLOAD DUP2 LT ISZERO ISZERO PUSH2 0x1BE6 JUMPI INVALID JUMPDEST SWAP1 PUSH1 0x0 MSTORE PUSH1 0x20 PUSH1 0x0 KECCAK256 SWAP1 ADD PUSH1 0x0 JUMPDEST PUSH2 0x100 EXP DUP2 SLOAD DUP2 PUSH20 0xFFFFFFFFFFFFFFFFFFFFFFFFFFFFFFFFFFFFFFFF MUL NOT AND SWAP1 DUP4 PUSH20 0xFFFFFFFFFFFFFFFFFFFFFFFFFFFFFFFFFFFFFFFF AND MUL OR SWAP1 SSTORE POP PUSH2 0x1C43 JUMP JUMPDEST JUMPDEST DUP3 DUP1 PUSH1 0x1 ADD SWAP4 POP POP PUSH2 0x1B5A JUMP JUMPDEST PUSH1 0x0 PUSH1 0x2 PUSH1 0x0 DUP8 PUSH20 0xFFFFFFFFFFFFFFFFFFFFFFFFFFFFFFFFFFFFFFFF AND PUSH20 0xFFFFFFFFFFFFFFFFFFFFFFFFFFFFFFFFFFFFFFFF AND DUP2 MSTORE PUSH1 0x20 ADD SWAP1 DUP2 MSTORE PUSH1 0x20 ADD PUSH1 0x0 KECCAK256 PUSH1 0x0 PUSH2 0x100 EXP DUP2 SLOAD DUP2 PUSH1 0xFF MUL NOT AND SWAP1 DUP4 ISZERO ISZERO MUL OR SWAP1 SSTORE POP PUSH1 0x1 PUSH1 0x2 PUSH1 0x0 DUP7 PUSH20 0xFFFFFFFFFFFFFFFFFFFFFFFFFFFFFFFFFFFFFFFF AND PUSH20 0xFFFFFFFFFFFFFFFFFFFFFFFFFFFFFFFFFFFFFFFF AND DUP2 MSTORE PUSH1 0x20 ADD SWAP1 DUP2 MSTORE PUSH1 0x20 ADD PUSH1 0x0 KECCAK256 PUSH1 0x0 PUSH2 0x100 EXP DUP2 SLOAD DUP2 PUSH1 0xFF MUL NOT AND SWAP1 DUP4 ISZERO ISZERO MUL OR SWAP1 SSTORE POP DUP5 PUSH20 0xFFFFFFFFFFFFFFFFFFFFFFFFFFFFFFFFFFFFFFFF AND PUSH32 0x8001553A916EF2F495D26A907CC54D96ED840D7BDA71E73194BF5A9DF7A76B90 PUSH1 0x40 MLOAD PUSH1 0x40 MLOAD DUP1 SWAP2 SUB SWAP1 LOG2 DUP4 PUSH20 0xFFFFFFFFFFFFFFFFFFFFFFFFFFFFFFFFFFFFFFFF AND PUSH32 0xF39E6E1EB0EDCF53C221607B54B00CD28F3196FED0A24994DC308B8F611B682D PUSH1 0x40 MLOAD PUSH1 0x40 MLOAD DUP1 SWAP2 SUB SWAP1 LOG2 JUMPDEST JUMPDEST POP JUMPDEST POP JUMPDEST POP POP POP JUMP JUMPDEST PUSH1 0x0 DUP1 CALLER PUSH1 0x2 PUSH1 0x0 DUP3 PUSH20 0xFFFFFFFFFFFFFFFFFFFFFFFFFFFFFFFFFFFFFFFF AND PUSH20 0xFFFFFFFFFFFFFFFFFFFFFFFFFFFFFFFFFFFFFFFF AND DUP2 MSTORE PUSH1 0x20 ADD SWAP1 DUP2 MSTORE PUSH1 0x20 ADD PUSH1 0x0 KECCAK256 PUSH1 0x0 SWAP1 SLOAD SWAP1 PUSH2 0x100 EXP SWAP1 DIV PUSH1 0xFF AND ISZERO ISZERO PUSH2 0x1DE0 JUMPI PUSH1 0x0 DUP1 REVERT JUMPDEST DUP4 CALLER PUSH1 0x1 PUSH1 0x0 DUP4 DUP2 MSTORE PUSH1 0x20 ADD SWAP1 DUP2 MSTORE PUSH1 0x20 ADD PUSH1 0x0 KECCAK256 PUSH1 0x0 DUP3 PUSH20 0xFFFFFFFFFFFFFFFFFFFFFFFFFFFFFFFFFFFFFFFF AND PUSH20 0xFFFFFFFFFFFFFFFFFFFFFFFFFFFFFFFFFFFFFFFF AND DUP2 MSTORE PUSH1 0x20 ADD SWAP1 DUP2 MSTORE PUSH1 0x20 ADD PUSH1 0x0 KECCAK256 PUSH1 0x0 SWAP1 SLOAD SWAP1 PUSH2 0x100 EXP SWAP1 DIV PUSH1 0xFF AND ISZERO ISZERO PUSH2 0x1E4B JUMPI PUSH1 0x0 DUP1 REVERT JUMPDEST DUP6 PUSH1 0x0 DUP1 DUP3 DUP2 MSTORE PUSH1 0x20 ADD SWAP1 DUP2 MSTORE PUSH1 0x20 ADD PUSH1 0x0 KECCAK256 PUSH1 0x3 ADD PUSH1 0x0 SWAP1 SLOAD SWAP1 PUSH2 0x100 EXP SWAP1 DIV PUSH1 0xFF AND ISZERO ISZERO ISZERO PUSH2 0x1E7B JUMPI PUSH1 0x0 DUP1 REVERT JUMPDEST PUSH1 0x0 DUP1 DUP9 DUP2 MSTORE PUSH1 0x20 ADD SWAP1 DUP2 MSTORE PUSH1 0x20 ADD PUSH1 0x0 KECCAK256 SWAP6 POP PUSH2 0x1E98 DUP8 PUSH2 0x10E0 JUMP JUMPDEST SWAP5 POP DUP5 DUP1 PUSH2 0x1ED3 JUMPI POP PUSH1 0x0 DUP7 PUSH1 0x2 ADD DUP1 SLOAD PUSH1 0x1 DUP2 PUSH1 0x1 AND ISZERO PUSH2 0x100 MUL SUB AND PUSH1 0x2 SWAP1 DIV SWAP1 POP EQ DUP1 ISZERO PUSH2 0x1ED2 JUMPI POP PUSH2 0x1ED1 DUP7 PUSH1 0x1 ADD SLOAD PUSH2 0x21FF JUMP JUMPDEST JUMPDEST JUMPDEST ISZERO PUSH2 0x2098 JUMPI PUSH1 0x1 DUP7 PUSH1 0x3 ADD PUSH1 0x0 PUSH2 0x100 EXP DUP2 SLOAD DUP2 PUSH1 0xFF MUL NOT AND SWAP1 DUP4 ISZERO ISZERO MUL OR SWAP1 SSTORE POP DUP5 ISZERO ISZERO PUSH2 0x1F11 JUMPI DUP6 PUSH1 0x1 ADD SLOAD PUSH1 0x8 PUSH1 0x0 DUP3 DUP3 SLOAD ADD SWAP3 POP POP DUP2 SWAP1 SSTORE POP JUMPDEST PUSH2 0x1FF9 DUP7 PUSH1 0x0 ADD PUSH1 0x0 SWAP1 SLOAD SWAP1 PUSH2 0x100 EXP SWAP1 DIV PUSH20 0xFFFFFFFFFFFFFFFFFFFFFFFFFFFFFFFFFFFFFFFF AND DUP8 PUSH1 0x1 ADD SLOAD DUP9 PUSH1 0x2 ADD DUP1 SLOAD PUSH1 0x1 DUP2 PUSH1 0x1 AND ISZERO PUSH2 0x100 MUL SUB AND PUSH1 0x2 SWAP1 DIV SWAP1 POP DUP10 PUSH1 0x2 ADD DUP1 SLOAD PUSH1 0x1 DUP2 PUSH1 0x1 AND ISZERO PUSH2 0x100 MUL SUB AND PUSH1 0x2 SWAP1 DIV DUP1 PUSH1 0x1F ADD PUSH1 0x20 DUP1 SWAP2 DIV MUL PUSH1 0x20 ADD PUSH1 0x40 MLOAD SWAP1 DUP2 ADD PUSH1 0x40 MSTORE DUP1 SWAP3 SWAP2 SWAP1 DUP2 DUP2 MSTORE PUSH1 0x20 ADD DUP3 DUP1 SLOAD PUSH1 0x1 DUP2 PUSH1 0x1 AND ISZERO PUSH2 0x100 MUL SUB AND PUSH1 0x2 SWAP1 DIV DUP1 ISZERO PUSH2 0x1FEF JUMPI DUP1 PUSH1 0x1F LT PUSH2 0x1FC4 JUMPI PUSH2 0x100 DUP1 DUP4 SLOAD DIV MUL DUP4 MSTORE SWAP2 PUSH1 0x20 ADD SWAP2 PUSH2 0x1FEF JUMP JUMPDEST DUP3 ADD SWAP2 SWAP1 PUSH1 0x0 MSTORE PUSH1 0x20 PUSH1 0x0 KECCAK256 SWAP1 JUMPDEST DUP2 SLOAD DUP2 MSTORE SWAP1 PUSH1 0x1 ADD SWAP1 PUSH1 0x20 ADD DUP1 DUP4 GT PUSH2 0x1FD2 JUMPI DUP3 SWAP1 SUB PUSH1 0x1F AND DUP3 ADD SWAP2 JUMPDEST POP POP POP POP POP PUSH2 0x2251 JUMP JUMPDEST ISZERO PUSH2 0x2030 JUMPI DUP7 PUSH32 0x33E13ECB54C3076D8E8BB8C2881800A4D972B792045FFAE98FDF46DF365FED75 PUSH1 0x40 MLOAD PUSH1 0x40 MLOAD DUP1 SWAP2 SUB SWAP1 LOG2 PUSH2 0x2097 JUMP JUMPDEST DUP7 PUSH32 0x526441BB6C1ABA3C9A4A6CA1D6545DA9C2333C8C48343EF398EB858D72B79236 PUSH1 0x40 MLOAD PUSH1 0x40 MLOAD DUP1 SWAP2 SUB SWAP1 LOG2 PUSH1 0x0 DUP7 PUSH1 0x3 ADD PUSH1 0x0 PUSH2 0x100 EXP DUP2 SLOAD DUP2 PUSH1 0xFF MUL NOT AND SWAP1 DUP4 ISZERO ISZERO MUL OR SWAP1 SSTORE POP DUP5 ISZERO ISZERO PUSH2 0x2096 JUMPI DUP6 PUSH1 0x1 ADD SLOAD PUSH1 0x8 PUSH1 0x0 DUP3 DUP3 SLOAD SUB SWAP3 POP POP DUP2 SWAP1 SSTORE POP JUMPDEST JUMPDEST JUMPDEST JUMPDEST JUMPDEST POP JUMPDEST POP POP JUMPDEST POP POP POP POP JUMP JUMPDEST PUSH1 0x8 SLOAD DUP2 JUMP JUMPDEST PUSH1 0x0 DUP4 PUSH1 0x0 DUP2 PUSH20 0xFFFFFFFFFFFFFFFFFFFFFFFFFFFFFFFFFFFFFFFF AND EQ ISZERO ISZERO ISZERO PUSH2 0x20D4 JUMPI PUSH1 0x0 DUP1 REVERT JUMPDEST PUSH1 0x5 SLOAD SWAP2 POP PUSH1 0x80 PUSH1 0x40 MLOAD SWAP1 DUP2 ADD PUSH1 0x40 MSTORE DUP1 DUP7 PUSH20 0xFFFFFFFFFFFFFFFFFFFFFFFFFFFFFFFFFFFFFFFF AND DUP2 MSTORE PUSH1 0x20 ADD DUP6 DUP2 MSTORE PUSH1 0x20 ADD DUP5 DUP2 MSTORE PUSH1 0x20 ADD PUSH1 0x0 ISZERO ISZERO DUP2 MSTORE POP PUSH1 0x0 DUP1 DUP5 DUP2 MSTORE PUSH1 0x20 ADD SWAP1 DUP2 MSTORE PUSH1 0x20 ADD PUSH1 0x0 KECCAK256 PUSH1 0x0 DUP3 ADD MLOAD DUP2 PUSH1 0x0 ADD PUSH1 0x0 PUSH2 0x100 EXP DUP2 SLOAD DUP2 PUSH20 0xFFFFFFFFFFFFFFFFFFFFFFFFFFFFFFFFFFFFFFFF MUL NOT AND SWAP1 DUP4 PUSH20 0xFFFFFFFFFFFFFFFFFFFFFFFFFFFFFFFFFFFFFFFF AND MUL OR SWAP1 SSTORE POP PUSH1 0x20 DUP3 ADD MLOAD DUP2 PUSH1 0x1 ADD SSTORE PUSH1 0x40 DUP3 ADD MLOAD DUP2 PUSH1 0x2 ADD SWAP1 DUP1 MLOAD SWAP1 PUSH1 0x20 ADD SWAP1 PUSH2 0x2193 SWAP3 SWAP2 SWAP1 PUSH2 0x22F9 JUMP JUMPDEST POP PUSH1 0x60 DUP3 ADD MLOAD DUP2 PUSH1 0x3 ADD PUSH1 0x0 PUSH2 0x100 EXP DUP2 SLOAD DUP2 PUSH1 0xFF MUL NOT AND SWAP1 DUP4 ISZERO ISZERO MUL OR SWAP1 SSTORE POP SWAP1 POP POP PUSH1 0x1 PUSH1 0x5 PUSH1 0x0 DUP3 DUP3 SLOAD ADD SWAP3 POP POP DUP2 SWAP1 SSTORE POP DUP2 PUSH32 0xC0BA8FE4B176C1714197D43B9CC6BCF797A4A7461C5FE8D0EF6E184AE7601E51 PUSH1 0x40 MLOAD PUSH1 0x40 MLOAD DUP1 SWAP2 SUB SWAP1 LOG2 JUMPDEST JUMPDEST POP SWAP4 SWAP3 POP POP POP JUMP JUMPDEST PUSH1 0x0 PUSH3 0x15180 PUSH1 0x7 SLOAD ADD TIMESTAMP GT ISZERO PUSH2 0x2220 JUMPI TIMESTAMP PUSH1 0x7 DUP2 SWAP1 SSTORE POP PUSH1 0x0 PUSH1 0x8 DUP2 SWAP1 SSTORE POP JUMPDEST PUSH1 0x6 SLOAD DUP3 PUSH1 0x8 SLOAD ADD GT DUP1 PUSH2 0x2239 JUMPI POP PUSH1 0x8 SLOAD DUP3 PUSH1 0x8 SLOAD ADD LT JUMPDEST ISZERO PUSH2 0x2247 JUMPI PUSH1 0x0 SWAP1 POP PUSH2 0x224C JUMP JUMPDEST PUSH1 0x1 SWAP1 POP JUMPDEST SWAP2 SWAP1 POP JUMP JUMPDEST PUSH1 0x0 DUP1 PUSH1 0x40 MLOAD PUSH1 0x20 DUP5 ADD PUSH1 0x0 DUP3 DUP8 DUP4 DUP11 DUP13 PUSH2 0x8796 GAS SUB CALL SWAP3 POP POP POP DUP1 SWAP2 POP JUMPDEST POP SWAP5 SWAP4 POP POP POP POP JUMP JUMPDEST DUP2 SLOAD DUP2 DUP4 SSTORE DUP2 DUP2 ISZERO GT PUSH2 0x22A0 JUMPI DUP2 DUP4 PUSH1 0x0 MSTORE PUSH1 0x20 PUSH1 0x0 KECCAK256 SWAP2 DUP3 ADD SWAP2 ADD PUSH2 0x229F SWAP2 SWAP1 PUSH2 0x2379 JUMP JUMPDEST JUMPDEST POP POP POP JUMP JUMPDEST DUP2 SLOAD DUP2 DUP4 SSTORE DUP2 DUP2 ISZERO GT PUSH2 0x22CC JUMPI DUP2 DUP4 PUSH1 0x0 MSTORE PUSH1 0x20 PUSH1 0x0 KECCAK256 SWAP2 DUP3 ADD SWAP2 ADD PUSH2 0x22CB SWAP2 SWAP1 PUSH2 0x2379 JUMP JUMPDEST JUMPDEST POP POP POP JUMP JUMPDEST PUSH1 0x20 PUSH1 0x40 MLOAD SWAP1 DUP2 ADD PUSH1 0x40 MSTORE DUP1 PUSH1 0x0 DUP2 MSTORE POP SWAP1 JUMP JUMPDEST PUSH1 0x20 PUSH1 0x40 MLOAD SWAP1 DUP2 ADD PUSH1 0x40 MSTORE DUP1 PUSH1 0x0 DUP2 MSTORE POP SWAP1 JUMP JUMPDEST DUP3 DUP1 SLOAD PUSH1 0x1 DUP2 PUSH1 0x1 AND ISZERO PUSH2 0x100 MUL SUB AND PUSH1 0x2 SWAP1 DIV SWAP1 PUSH1 0x0 MSTORE PUSH1 0x20 PUSH1 0x0 KECCAK256 SWAP1 PUSH1 0x1F ADD PUSH1 0x20 SWAP1 DIV DUP2 ADD SWAP3 DUP3 PUSH1 0x1F LT PUSH2 0x233A JUMPI DUP1 MLOAD PUSH1 0xFF NOT AND DUP4 DUP1 ADD OR DUP6 SSTORE PUSH2 0x2368 JUMP JUMPDEST DUP3 DUP1 ADD PUSH1 0x1 ADD DUP6 SSTORE DUP3 ISZERO PUSH2 0x2368 JUMPI SWAP2 DUP3 ADD JUMPDEST DUP3 DUP2 GT ISZERO PUSH2 0x2367 JUMPI DUP3 MLOAD DUP3 SSTORE SWAP2 PUSH1 0x20 ADD SWAP2 SWAP1 PUSH1 0x1 ADD SWAP1 PUSH2 0x234C JUMP JUMPDEST JUMPDEST POP SWAP1 POP PUSH2 0x2375 SWAP2 SWAP1 PUSH2 0x2379 JUMP JUMPDEST POP SWAP1 JUMP JUMPDEST PUSH2 0x239B SWAP2 SWAP1 JUMPDEST DUP1 DUP3 GT ISZERO PUSH2 0x2397 JUMPI PUSH1 0x0 DUP2 PUSH1 0x0 SWAP1 SSTORE POP PUSH1 0x1 ADD PUSH2 0x237F JUMP JUMPDEST POP SWAP1 JUMP JUMPDEST SWAP1 JUMP STOP LOG1 PUSH6 0x627A7A723058 KECCAK256 0xcb 0x2b SWAP4 0xa5 0x29 0xcb 0xe EXP SWAP2 0x4b BYTE 0xbc MSTORE8 CREATE PUSH17 0x56AD4784ACCEEDC207EC6871593C61135C STOP 0x29 "
        },
        "gasEstimates": {
          "creation": {
            "codeDepositCost": "1832400",
            "executionCost": "infinite",
            "totalCost": "infinite"
          },
          "external": {
            "": "2105",
            "MAX_OWNER_COUNT()": "1510",
            "addOwner(address)": "infinite",
            "calcMaxWithdraw()": "1510",
            "changeDailyLimit(uint256)": "21720",
            "changeRequirement(uint256)": "22007",
            "confirmTransaction(uint256)": "infinite",
            "confirmations(uint256,address)": "1510",
            "dailyLimit()": "1510",
            "executeTransaction(uint256)": "infinite",
            "getConfirmationCount(uint256)": "infinite",
            "getConfirmations(uint256)": "infinite",
            "getOwners()": "infinite",
            "getTransactionCount(bool,bool)": "infinite",
            "getTransactionIds(uint256,uint256,bool,bool)": "infinite",
            "isConfirmed(uint256)": "infinite",
            "isOwner(address)": "1510",
            "lastDay()": "1510",
            "owners(uint256)": "1510",
            "removeOwner(address)": "infinite",
            "replaceOwner(address,address)": "infinite",
            "required()": "1510",
            "revokeConfirmation(uint256)": "23321",
            "spentToday()": "1510",
            "submitTransaction(address,uint256,bytes)": "infinite",
            "transactionCount()": "1510",
            "transactions(uint256)": "infinite"
          },
          "internal": {
            "isUnderLimit(uint256)": "26163"
          }
        },
        "methodIdentifiers": {
          "MAX_OWNER_COUNT()": "d74f8edd",
          "addOwner(address)": "7065cb48",
          "calcMaxWithdraw()": "4bc9fdc2",
          "changeDailyLimit(uint256)": "cea08621",
          "changeRequirement(uint256)": "ba51a6df",
          "confirmTransaction(uint256)": "c01a8c84",
          "confirmations(uint256,address)": "3411c81c",
          "dailyLimit()": "67eeba0c",
          "executeTransaction(uint256)": "ee22610b",
          "getConfirmationCount(uint256)": "8b51d13f",
          "getConfirmations(uint256)": "b5dc40c3",
          "getOwners()": "a0e67e2b",
          "getTransactionCount(bool,bool)": "54741525",
          "getTransactionIds(uint256,uint256,bool,bool)": "a8abe69a",
          "isConfirmed(uint256)": "784547a7",
          "isOwner(address)": "2f54bf6e",
          "lastDay()": "6b0c932d",
          "owners(uint256)": "025e7c27",
          "removeOwner(address)": "173825d9",
          "replaceOwner(address,address)": "e20056e6",
          "required()": "dc8452cd",
          "revokeConfirmation(uint256)": "20ea8d86",
          "spentToday()": "f059cf2b",
          "submitTransaction(address,uint256,bytes)": "c6427474",
          "transactionCount()": "b77bf600",
          "transactions(uint256)": "9ace38c2"
        }
      },
      "userdoc": {
        "methods": {}
      }
    }
  }
}