{
  "_format": "hh-sol-artifact-1",
  "contractName": "FortRedemption",
  "sourceName": "contracts/FortRedemption.sol",
  "abi": [
    {
      "inputs": [
        {
          "internalType": "address",
          "name": "_FORT",
          "type": "address"
        },
        {
          "internalType": "address",
          "name": "_reserveCurrency",
          "type": "address"
        }
      ],
      "stateMutability": "nonpayable",
      "type": "constructor"
    },
    {
      "anonymous": false,
      "inputs": [
        {
          "indexed": true,
          "internalType": "address",
          "name": "previousOwner",
          "type": "address"
        },
        {
          "indexed": true,
          "internalType": "address",
          "name": "newOwner",
          "type": "address"
        }
      ],
      "name": "OwnershipTransferred",
      "type": "event"
    },
    {
      "inputs": [],
      "name": "FORT",
      "outputs": [
        {
          "internalType": "address",
          "name": "",
          "type": "address"
        }
      ],
      "stateMutability": "view",
      "type": "function"
    },
    {
      "inputs": [],
      "name": "fortToken",
      "outputs": [
        {
          "internalType": "contract IFORT",
          "name": "",
          "type": "address"
        }
      ],
      "stateMutability": "view",
      "type": "function"
    },
    {
      "inputs": [
        {
          "internalType": "uint256",
          "name": "amount",
          "type": "uint256"
        }
      ],
      "name": "makeRedeemable",
      "outputs": [],
      "stateMutability": "nonpayable",
      "type": "function"
    },
    {
      "inputs": [],
      "name": "owner",
      "outputs": [
        {
          "internalType": "address",
          "name": "",
          "type": "address"
        }
      ],
      "stateMutability": "view",
      "type": "function"
    },
    {
      "inputs": [
        {
          "internalType": "address",
          "name": "sender",
          "type": "address"
        },
        {
          "internalType": "uint256",
          "name": "fortAmount",
          "type": "uint256"
        }
      ],
      "name": "redeemTokens",
      "outputs": [],
      "stateMutability": "nonpayable",
      "type": "function"
    },
    {
      "inputs": [],
      "name": "redeemable",
      "outputs": [
        {
          "internalType": "bool",
          "name": "",
          "type": "bool"
        }
      ],
      "stateMutability": "view",
      "type": "function"
    },
    {
      "inputs": [],
      "name": "renounceOwnership",
      "outputs": [],
      "stateMutability": "nonpayable",
      "type": "function"
    },
    {
      "inputs": [],
      "name": "reserveCurrency",
      "outputs": [
        {
          "internalType": "contract IERC20",
          "name": "",
          "type": "address"
        }
      ],
      "stateMutability": "view",
      "type": "function"
    },
    {
      "inputs": [
        {
          "internalType": "address",
          "name": "newOwner",
          "type": "address"
        }
      ],
      "name": "transferOwnership",
      "outputs": [],
      "stateMutability": "nonpayable",
      "type": "function"
    },
    {
      "inputs": [
        {
          "internalType": "address",
          "name": "_currency",
          "type": "address"
        }
      ],
      "name": "withdrawOtherCurrency",
      "outputs": [],
      "stateMutability": "nonpayable",
      "type": "function"
    }
  ],
  "bytecode": "0x60c06040523480156200001157600080fd5b5060405162001c5538038062001c558339818101604052810190620000379190620001f2565b620000576200004b6200010f60201b60201c565b6200011760201b60201c565b60018081905550600073ffffffffffffffffffffffffffffffffffffffff168273ffffffffffffffffffffffffffffffffffffffff1614156200009957600080fd5b8173ffffffffffffffffffffffffffffffffffffffff1660808173ffffffffffffffffffffffffffffffffffffffff1660601b815250508073ffffffffffffffffffffffffffffffffffffffff1660a08173ffffffffffffffffffffffffffffffffffffffff1660601b8152505050506200028c565b600033905090565b60008060009054906101000a900473ffffffffffffffffffffffffffffffffffffffff169050816000806101000a81548173ffffffffffffffffffffffffffffffffffffffff021916908373ffffffffffffffffffffffffffffffffffffffff1602179055508173ffffffffffffffffffffffffffffffffffffffff168173ffffffffffffffffffffffffffffffffffffffff167f8be0079c531659141344cd1fd0a4f28419497f9722a3daafe3b4186f6b6457e060405160405180910390a35050565b600081519050620001ec8162000272565b92915050565b600080604083850312156200020c576200020b6200026d565b5b60006200021c85828601620001db565b92505060206200022f85828601620001db565b9150509250929050565b600062000246826200024d565b9050919050565b600073ffffffffffffffffffffffffffffffffffffffff82169050919050565b600080fd5b6200027d8162000239565b81146200028957600080fd5b50565b60805160601c60a05160601c61196c620002e9600039600081816104c401528181610576015281816107c10152818161094301526109fd01526000818161027f01528181610628015281816107150152610a43015261196c6000f3fe608060405234801561001057600080fd5b506004361061009e5760003560e01c806387683e481161006657806387683e48146101215780638da5cb5b1461013f578063d2544fab1461015d578063dad7f1101461017b578063f2fde38b146101975761009e565b8063087b8261146100a35780632d7ecd11146100bf5780635aca541c146100dd5780635b35f5cd146100f9578063715018a614610117575b600080fd5b6100bd60048036038101906100b89190611011565b6101b3565b005b6100c7610413565b6040516100d49190611387565b60405180910390f35b6100f760048036038101906100f291906110ab565b610426565b005b610101610713565b60405161010e91906113bd565b60405180910390f35b61011f610737565b005b6101296107bf565b60405161013691906113a2565b60405180910390f35b6101476107e3565b604051610154919061130c565b60405180910390f35b61016561080c565b604051610172919061130c565b60405180910390f35b6101956004803603810190610190919061103e565b610832565b005b6101b160048036038101906101ac9190611011565b610ada565b005b600260015414156101f9576040517f08c379a00000000000000000000000000000000000000000000000000000000081526004016101f0906114fa565b60405180910390fd5b6002600181905550610209610bd2565b73ffffffffffffffffffffffffffffffffffffffff166102276107e3565b73ffffffffffffffffffffffffffffffffffffffff161461027d576040517f08c379a00000000000000000000000000000000000000000000000000000000081526004016102749061147a565b60405180910390fd5b7f000000000000000000000000000000000000000000000000000000000000000073ffffffffffffffffffffffffffffffffffffffff168173ffffffffffffffffffffffffffffffffffffffff16141561030c576040517f08c379a00000000000000000000000000000000000000000000000000000000081526004016103039061145a565b60405180910390fd5b60008173ffffffffffffffffffffffffffffffffffffffff166370a08231306040518263ffffffff1660e01b8152600401610347919061130c565b60206040518083038186803b15801561035f57600080fd5b505afa158015610373573d6000803e3d6000fd5b505050506040513d601f19601f8201168201806040525081019061039791906110d8565b905060008114156103dd576040517f08c379a00000000000000000000000000000000000000000000000000000000081526004016103d49061149a565b60405180910390fd5b61040833828473ffffffffffffffffffffffffffffffffffffffff16610bda9092919063ffffffff16565b506001808190555050565b600260149054906101000a900460ff1681565b61042e610bd2565b73ffffffffffffffffffffffffffffffffffffffff1661044c6107e3565b73ffffffffffffffffffffffffffffffffffffffff16146104a2576040517f08c379a00000000000000000000000000000000000000000000000000000000081526004016104999061147a565b60405180910390fd5b60001515600260149054906101000a900460ff161515146104c257600080fd5b7f000000000000000000000000000000000000000000000000000000000000000073ffffffffffffffffffffffffffffffffffffffff166323b872dd3330846040518463ffffffff1660e01b815260040161051f93929190611327565b602060405180830381600087803b15801561053957600080fd5b505af115801561054d573d6000803e3d6000fd5b505050506040513d601f19601f82011682018060405250810190610571919061107e565b5060007f000000000000000000000000000000000000000000000000000000000000000073ffffffffffffffffffffffffffffffffffffffff166370a08231306040518263ffffffff1660e01b81526004016105cd919061130c565b60206040518083038186803b1580156105e557600080fd5b505afa1580156105f9573d6000803e3d6000fd5b505050506040513d601f19601f8201168201806040525081019061061d91906110d8565b90506000633b9aca007f000000000000000000000000000000000000000000000000000000000000000073ffffffffffffffffffffffffffffffffffffffff166318160ddd6040518163ffffffff1660e01b815260040160206040518083038186803b15801561068c57600080fd5b505afa1580156106a0573d6000803e3d6000fd5b505050506040513d601f19601f820116820180604052508101906106c491906110d8565b6106ce919061157d565b90506106ed670de0b6b3a7640000836106e7919061157d565b82610c60565b6003819055506001600260146101000a81548160ff021916908315150217905550505050565b7f000000000000000000000000000000000000000000000000000000000000000081565b61073f610bd2565b73ffffffffffffffffffffffffffffffffffffffff1661075d6107e3565b73ffffffffffffffffffffffffffffffffffffffff16146107b3576040517f08c379a00000000000000000000000000000000000000000000000000000000081526004016107aa9061147a565b60405180910390fd5b6107bd6000610c76565b565b7f000000000000000000000000000000000000000000000000000000000000000081565b60008060009054906101000a900473ffffffffffffffffffffffffffffffffffffffff16905090565b600260009054906101000a900473ffffffffffffffffffffffffffffffffffffffff1681565b60026001541415610878576040517f08c379a000000000000000000000000000000000000000000000000000000000815260040161086f906114fa565b60405180910390fd5b600260018190555060011515600260149054906101000a900460ff161515146108d6576040517f08c379a00000000000000000000000000000000000000000000000000000000081526004016108cd9061141a565b60405180910390fd5b600073ffffffffffffffffffffffffffffffffffffffff168273ffffffffffffffffffffffffffffffffffffffff16141561091057600080fd5b6000811161091d57600080fd5b600061092b60035483610d3a565b905061093f81670de0b6b3a7640000610c60565b90507f000000000000000000000000000000000000000000000000000000000000000073ffffffffffffffffffffffffffffffffffffffff166370a08231306040518263ffffffff1660e01b815260040161099a919061130c565b60206040518083038186803b1580156109b257600080fd5b505afa1580156109c6573d6000803e3d6000fd5b505050506040513d601f19601f820116820180604052508101906109ea91906110d8565b8111156109f657600080fd5b610a4183827f000000000000000000000000000000000000000000000000000000000000000073ffffffffffffffffffffffffffffffffffffffff16610bda9092919063ffffffff16565b7f000000000000000000000000000000000000000000000000000000000000000073ffffffffffffffffffffffffffffffffffffffff166379cc679033846040518363ffffffff1660e01b8152600401610a9c92919061135e565b600060405180830381600087803b158015610ab657600080fd5b505af1158015610aca573d6000803e3d6000fd5b5050505050600180819055505050565b610ae2610bd2565b73ffffffffffffffffffffffffffffffffffffffff16610b006107e3565b73ffffffffffffffffffffffffffffffffffffffff1614610b56576040517f08c379a0000000000000000000000000000000000000000000000000000000008152600401610b4d9061147a565b60405180910390fd5b600073ffffffffffffffffffffffffffffffffffffffff168173ffffffffffffffffffffffffffffffffffffffff161415610bc6576040517f08c379a0000000000000000000000000000000000000000000000000000000008152600401610bbd906113fa565b60405180910390fd5b610bcf81610c76565b50565b600033905090565b610c5b8363a9059cbb60e01b8484604051602401610bf992919061135e565b604051602081830303815290604052907bffffffffffffffffffffffffffffffffffffffffffffffffffffffff19166020820180517bffffffffffffffffffffffffffffffffffffffffffffffffffffffff8381831617835250505050610d50565b505050565b60008183610c6e919061154c565b905092915050565b60008060009054906101000a900473ffffffffffffffffffffffffffffffffffffffff169050816000806101000a81548173ffffffffffffffffffffffffffffffffffffffff021916908373ffffffffffffffffffffffffffffffffffffffff1602179055508173ffffffffffffffffffffffffffffffffffffffff168173ffffffffffffffffffffffffffffffffffffffff167f8be0079c531659141344cd1fd0a4f28419497f9722a3daafe3b4186f6b6457e060405160405180910390a35050565b60008183610d48919061157d565b905092915050565b6000610db2826040518060400160405280602081526020017f5361666545524332303a206c6f772d6c6576656c2063616c6c206661696c65648152508573ffffffffffffffffffffffffffffffffffffffff16610e179092919063ffffffff16565b9050600081511115610e125780806020019051810190610dd2919061107e565b610e11576040517f08c379a0000000000000000000000000000000000000000000000000000000008152600401610e08906114da565b60405180910390fd5b5b505050565b6060610e268484600085610e2f565b90509392505050565b606082471015610e74576040517f08c379a0000000000000000000000000000000000000000000000000000000008152600401610e6b9061143a565b60405180910390fd5b610e7d85610f43565b610ebc576040517f08c379a0000000000000000000000000000000000000000000000000000000008152600401610eb3906114ba565b60405180910390fd5b6000808673ffffffffffffffffffffffffffffffffffffffff168587604051610ee591906112f5565b60006040518083038185875af1925050503d8060008114610f22576040519150601f19603f3d011682016040523d82523d6000602084013e610f27565b606091505b5091509150610f37828286610f56565b92505050949350505050565b600080823b905060008111915050919050565b60608315610f6657829050610fb6565b600083511115610f795782518084602001fd5b816040517f08c379a0000000000000000000000000000000000000000000000000000000008152600401610fad91906113d8565b60405180910390fd5b9392505050565b600081359050610fcc816118f1565b92915050565b600081519050610fe181611908565b92915050565b600081359050610ff68161191f565b92915050565b60008151905061100b8161191f565b92915050565b600060208284031215611027576110266116f8565b5b600061103584828501610fbd565b91505092915050565b60008060408385031215611055576110546116f8565b5b600061106385828601610fbd565b925050602061107485828601610fe7565b9150509250929050565b600060208284031215611094576110936116f8565b5b60006110a284828501610fd2565b91505092915050565b6000602082840312156110c1576110c06116f8565b5b60006110cf84828501610fe7565b91505092915050565b6000602082840312156110ee576110ed6116f8565b5b60006110fc84828501610ffc565b91505092915050565b61110e816115d7565b82525050565b61111d816115e9565b82525050565b600061112e8261151a565b6111388185611530565b9350611148818560208601611667565b80840191505092915050565b61115d8161161f565b82525050565b61116c81611631565b82525050565b600061117d82611525565b611187818561153b565b9350611197818560208601611667565b6111a0816116fd565b840191505092915050565b60006111b860268361153b565b91506111c38261170e565b604082019050919050565b60006111db600e8361153b565b91506111e68261175d565b602082019050919050565b60006111fe60268361153b565b915061120982611786565b604082019050919050565b6000611221601b8361153b565b915061122c826117d5565b602082019050919050565b600061124460208361153b565b915061124f826117fe565b602082019050919050565b6000611267601a8361153b565b915061127282611827565b602082019050919050565b600061128a601d8361153b565b915061129582611850565b602082019050919050565b60006112ad602a8361153b565b91506112b882611879565b604082019050919050565b60006112d0601f8361153b565b91506112db826118c8565b602082019050919050565b6112ef81611615565b82525050565b60006113018284611123565b915081905092915050565b60006020820190506113216000830184611105565b92915050565b600060608201905061133c6000830186611105565b6113496020830185611105565b61135660408301846112e6565b949350505050565b60006040820190506113736000830185611105565b61138060208301846112e6565b9392505050565b600060208201905061139c6000830184611114565b92915050565b60006020820190506113b76000830184611154565b92915050565b60006020820190506113d26000830184611163565b92915050565b600060208201905081810360008301526113f28184611172565b905092915050565b60006020820190508181036000830152611413816111ab565b9050919050565b60006020820190508181036000830152611433816111ce565b9050919050565b60006020820190508181036000830152611453816111f1565b9050919050565b6000602082019050818103600083015261147381611214565b9050919050565b6000602082019050818103600083015261149381611237565b9050919050565b600060208201905081810360008301526114b38161125a565b9050919050565b600060208201905081810360008301526114d38161127d565b9050919050565b600060208201905081810360008301526114f3816112a0565b9050919050565b60006020820190508181036000830152611513816112c3565b9050919050565b600081519050919050565b600081519050919050565b600081905092915050565b600082825260208201905092915050565b600061155782611615565b915061156283611615565b925082611572576115716116c9565b5b828204905092915050565b600061158882611615565b915061159383611615565b9250817fffffffffffffffffffffffffffffffffffffffffffffffffffffffffffffffff04831182151516156115cc576115cb61169a565b5b828202905092915050565b60006115e2826115f5565b9050919050565b60008115159050919050565b600073ffffffffffffffffffffffffffffffffffffffff82169050919050565b6000819050919050565b600061162a82611643565b9050919050565b600061163c82611643565b9050919050565b600061164e82611655565b9050919050565b6000611660826115f5565b9050919050565b60005b8381101561168557808201518184015260208101905061166a565b83811115611694576000848401525b50505050565b7f4e487b7100000000000000000000000000000000000000000000000000000000600052601160045260246000fd5b7f4e487b7100000000000000000000000000000000000000000000000000000000600052601260045260246000fd5b600080fd5b6000601f19601f8301169050919050565b7f4f776e61626c653a206e6577206f776e657220697320746865207a65726f206160008201527f6464726573730000000000000000000000000000000000000000000000000000602082015250565b7f4e6f742072656465656d61626c65000000000000000000000000000000000000600082015250565b7f416464726573733a20696e73756666696369656e742062616c616e636520666f60008201527f722063616c6c0000000000000000000000000000000000000000000000000000602082015250565b7f4f776e65723a2043616e6e6f7420776974686472617720464f52540000000000600082015250565b7f4f776e61626c653a2063616c6c6572206973206e6f7420746865206f776e6572600082015250565b7f4f776e65723a204e6f7468696e6720746f207769746864726177000000000000600082015250565b7f416464726573733a2063616c6c20746f206e6f6e2d636f6e7472616374000000600082015250565b7f5361666545524332303a204552433230206f7065726174696f6e20646964206e60008201527f6f74207375636365656400000000000000000000000000000000000000000000602082015250565b7f5265656e7472616e637947756172643a207265656e7472616e742063616c6c00600082015250565b6118fa816115d7565b811461190557600080fd5b50565b611911816115e9565b811461191c57600080fd5b50565b61192881611615565b811461193357600080fd5b5056fea26469706673582212202490193b329a90d2805ea2eef81a9418275e28f213ecfa5050bcd393e4ac5eaa64736f6c63430008070033",
  "linkReferences": {},
  "deployedLinkReferences": {}
}